{
  "_format": "hh-sol-artifact-1",
  "contractName": "EntityTreasuryFacet",
  "sourceName": "contracts/EntityTreasuryFacet.sol",
  "abi": [
    {
      "inputs": [
        {
          "internalType": "address",
          "name": "_settings",
          "type": "address"
        }
      ],
      "stateMutability": "nonpayable",
      "type": "constructor"
    },
    {
      "anonymous": false,
      "inputs": [
        {
          "indexed": true,
          "internalType": "address",
          "name": "policy",
          "type": "address"
        },
        {
          "indexed": true,
          "internalType": "uint256",
          "name": "bal",
          "type": "uint256"
        }
      ],
      "name": "SetMinPolicyBalance",
      "type": "event"
    },
    {
      "anonymous": false,
      "inputs": [
        {
          "indexed": true,
          "internalType": "address",
          "name": "policy",
          "type": "address"
        },
        {
          "indexed": true,
          "internalType": "uint256",
          "name": "newBal",
          "type": "uint256"
        }
      ],
      "name": "UpdatePolicyBalance",
      "type": "event"
    },
    {
      "inputs": [],
      "name": "CANNOT_ASSIGN",
      "outputs": [
        {
          "internalType": "uint256",
          "name": "",
          "type": "uint256"
        }
      ],
      "stateMutability": "view",
      "type": "function"
    },
    {
      "inputs": [],
      "name": "CANNOT_ASSIGN_USER_NOT_APPROVED",
      "outputs": [
        {
          "internalType": "uint256",
          "name": "",
          "type": "uint256"
        }
      ],
      "stateMutability": "view",
      "type": "function"
    },
    {
      "inputs": [],
      "name": "CAN_ASSIGN_HAS_ROLE",
      "outputs": [
        {
          "internalType": "uint256",
          "name": "",
          "type": "uint256"
        }
      ],
      "stateMutability": "view",
      "type": "function"
    },
    {
      "inputs": [],
      "name": "CAN_ASSIGN_IS_ADMIN",
      "outputs": [
        {
          "internalType": "uint256",
          "name": "",
          "type": "uint256"
        }
      ],
      "stateMutability": "view",
      "type": "function"
    },
    {
      "inputs": [],
      "name": "CAN_ASSIGN_IS_OWN_CONTEXT",
      "outputs": [
        {
          "internalType": "uint256",
          "name": "",
          "type": "uint256"
        }
      ],
      "stateMutability": "view",
      "type": "function"
    },
    {
      "inputs": [],
      "name": "DOES_NOT_HAVE_ROLE",
      "outputs": [
        {
          "internalType": "uint256",
          "name": "",
          "type": "uint256"
        }
      ],
      "stateMutability": "view",
      "type": "function"
    },
    {
      "inputs": [],
      "name": "FEE_SCHEDULE_PLATFORM_ACTION",
      "outputs": [
        {
          "internalType": "uint256",
          "name": "",
          "type": "uint256"
        }
      ],
      "stateMutability": "view",
      "type": "function"
    },
    {
      "inputs": [],
      "name": "FEE_SCHEDULE_STANDARD",
      "outputs": [
        {
          "internalType": "uint256",
          "name": "",
          "type": "uint256"
        }
      ],
      "stateMutability": "view",
      "type": "function"
    },
    {
      "inputs": [],
      "name": "HAS_ROLE_CONTEXT",
      "outputs": [
        {
          "internalType": "uint256",
          "name": "",
          "type": "uint256"
        }
      ],
      "stateMutability": "view",
      "type": "function"
    },
    {
      "inputs": [],
      "name": "HAS_ROLE_SYSTEM_CONTEXT",
      "outputs": [
        {
          "internalType": "uint256",
          "name": "",
          "type": "uint256"
        }
      ],
      "stateMutability": "view",
      "type": "function"
    },
    {
      "inputs": [],
      "name": "ORDER_TYPE_TOKEN_BUYBACK",
      "outputs": [
        {
          "internalType": "bytes32",
          "name": "",
          "type": "bytes32"
        }
      ],
      "stateMutability": "view",
      "type": "function"
    },
    {
      "inputs": [],
      "name": "ORDER_TYPE_TOKEN_SALE",
      "outputs": [
        {
          "internalType": "bytes32",
          "name": "",
          "type": "bytes32"
        }
      ],
      "stateMutability": "view",
      "type": "function"
    },
    {
      "inputs": [],
      "name": "ROLEGROUP_APPROVED_USERS",
      "outputs": [
        {
          "internalType": "bytes32",
          "name": "",
          "type": "bytes32"
        }
      ],
      "stateMutability": "view",
      "type": "function"
    },
    {
      "inputs": [],
      "name": "ROLEGROUP_BROKERS",
      "outputs": [
        {
          "internalType": "bytes32",
          "name": "",
          "type": "bytes32"
        }
      ],
      "stateMutability": "view",
      "type": "function"
    },
    {
      "inputs": [],
      "name": "ROLEGROUP_CAPITAL_PROVIDERS",
      "outputs": [
        {
          "internalType": "bytes32",
          "name": "",
          "type": "bytes32"
        }
      ],
      "stateMutability": "view",
      "type": "function"
    },
    {
      "inputs": [],
      "name": "ROLEGROUP_CLAIMS_ADMINS",
      "outputs": [
        {
          "internalType": "bytes32",
          "name": "",
          "type": "bytes32"
        }
      ],
      "stateMutability": "view",
      "type": "function"
    },
    {
      "inputs": [],
      "name": "ROLEGROUP_ENTITY_ADMINS",
      "outputs": [
        {
          "internalType": "bytes32",
          "name": "",
          "type": "bytes32"
        }
      ],
      "stateMutability": "view",
      "type": "function"
    },
    {
      "inputs": [],
      "name": "ROLEGROUP_ENTITY_MANAGERS",
      "outputs": [
        {
          "internalType": "bytes32",
          "name": "",
          "type": "bytes32"
        }
      ],
      "stateMutability": "view",
      "type": "function"
    },
    {
      "inputs": [],
      "name": "ROLEGROUP_ENTITY_REPS",
      "outputs": [
        {
          "internalType": "bytes32",
          "name": "",
          "type": "bytes32"
        }
      ],
      "stateMutability": "view",
      "type": "function"
    },
    {
      "inputs": [],
      "name": "ROLEGROUP_INSURED_PARTYS",
      "outputs": [
        {
          "internalType": "bytes32",
          "name": "",
          "type": "bytes32"
        }
      ],
      "stateMutability": "view",
      "type": "function"
    },
    {
      "inputs": [],
      "name": "ROLEGROUP_POLICY_CREATORS",
      "outputs": [
        {
          "internalType": "bytes32",
          "name": "",
          "type": "bytes32"
        }
      ],
      "stateMutability": "view",
      "type": "function"
    },
    {
      "inputs": [],
      "name": "ROLEGROUP_POLICY_OWNERS",
      "outputs": [
        {
          "internalType": "bytes32",
          "name": "",
          "type": "bytes32"
        }
      ],
      "stateMutability": "view",
      "type": "function"
    },
    {
      "inputs": [],
      "name": "ROLEGROUP_SYSTEM_ADMINS",
      "outputs": [
        {
          "internalType": "bytes32",
          "name": "",
          "type": "bytes32"
        }
      ],
      "stateMutability": "view",
      "type": "function"
    },
    {
      "inputs": [],
      "name": "ROLEGROUP_SYSTEM_MANAGERS",
      "outputs": [
        {
          "internalType": "bytes32",
          "name": "",
          "type": "bytes32"
        }
      ],
      "stateMutability": "view",
      "type": "function"
    },
    {
      "inputs": [],
      "name": "ROLEGROUP_TRADERS",
      "outputs": [
        {
          "internalType": "bytes32",
          "name": "",
          "type": "bytes32"
        }
      ],
      "stateMutability": "view",
      "type": "function"
    },
    {
      "inputs": [],
      "name": "ROLEGROUP_UNDERWRITERS",
      "outputs": [
        {
          "internalType": "bytes32",
          "name": "",
          "type": "bytes32"
        }
      ],
      "stateMutability": "view",
      "type": "function"
    },
    {
      "inputs": [],
      "name": "ROLE_APPROVED_USER",
      "outputs": [
        {
          "internalType": "bytes32",
          "name": "",
          "type": "bytes32"
        }
      ],
      "stateMutability": "view",
      "type": "function"
    },
    {
      "inputs": [],
      "name": "ROLE_BROKER",
      "outputs": [
        {
          "internalType": "bytes32",
          "name": "",
          "type": "bytes32"
        }
      ],
      "stateMutability": "view",
      "type": "function"
    },
    {
      "inputs": [],
      "name": "ROLE_CAPITAL_PROVIDER",
      "outputs": [
        {
          "internalType": "bytes32",
          "name": "",
          "type": "bytes32"
        }
      ],
      "stateMutability": "view",
      "type": "function"
    },
    {
      "inputs": [],
      "name": "ROLE_CLAIMS_ADMIN",
      "outputs": [
        {
          "internalType": "bytes32",
          "name": "",
          "type": "bytes32"
        }
      ],
      "stateMutability": "view",
      "type": "function"
    },
    {
      "inputs": [],
      "name": "ROLE_ENTITY_ADMIN",
      "outputs": [
        {
          "internalType": "bytes32",
          "name": "",
          "type": "bytes32"
        }
      ],
      "stateMutability": "view",
      "type": "function"
    },
    {
      "inputs": [],
      "name": "ROLE_ENTITY_MANAGER",
      "outputs": [
        {
          "internalType": "bytes32",
          "name": "",
          "type": "bytes32"
        }
      ],
      "stateMutability": "view",
      "type": "function"
    },
    {
      "inputs": [],
      "name": "ROLE_ENTITY_REP",
      "outputs": [
        {
          "internalType": "bytes32",
          "name": "",
          "type": "bytes32"
        }
      ],
      "stateMutability": "view",
      "type": "function"
    },
    {
      "inputs": [],
      "name": "ROLE_INSURED_PARTY",
      "outputs": [
        {
          "internalType": "bytes32",
          "name": "",
          "type": "bytes32"
        }
      ],
      "stateMutability": "view",
      "type": "function"
    },
    {
      "inputs": [],
      "name": "ROLE_PENDING_BROKER",
      "outputs": [
        {
          "internalType": "bytes32",
          "name": "",
          "type": "bytes32"
        }
      ],
      "stateMutability": "view",
      "type": "function"
    },
    {
      "inputs": [],
      "name": "ROLE_PENDING_CLAIMS_ADMIN",
      "outputs": [
        {
          "internalType": "bytes32",
          "name": "",
          "type": "bytes32"
        }
      ],
      "stateMutability": "view",
      "type": "function"
    },
    {
      "inputs": [],
      "name": "ROLE_PENDING_INSURED_PARTY",
      "outputs": [
        {
          "internalType": "bytes32",
          "name": "",
          "type": "bytes32"
        }
      ],
      "stateMutability": "view",
      "type": "function"
    },
    {
      "inputs": [],
      "name": "ROLE_PENDING_UNDERWRITER",
      "outputs": [
        {
          "internalType": "bytes32",
          "name": "",
          "type": "bytes32"
        }
      ],
      "stateMutability": "view",
      "type": "function"
    },
    {
      "inputs": [],
      "name": "ROLE_POLICY_CREATOR",
      "outputs": [
        {
          "internalType": "bytes32",
          "name": "",
          "type": "bytes32"
        }
      ],
      "stateMutability": "view",
      "type": "function"
    },
    {
      "inputs": [],
      "name": "ROLE_POLICY_OWNER",
      "outputs": [
        {
          "internalType": "bytes32",
          "name": "",
          "type": "bytes32"
        }
      ],
      "stateMutability": "view",
      "type": "function"
    },
    {
      "inputs": [],
      "name": "ROLE_SYSTEM_ADMIN",
      "outputs": [
        {
          "internalType": "bytes32",
          "name": "",
          "type": "bytes32"
        }
      ],
      "stateMutability": "view",
      "type": "function"
    },
    {
      "inputs": [],
      "name": "ROLE_SYSTEM_MANAGER",
      "outputs": [
        {
          "internalType": "bytes32",
          "name": "",
          "type": "bytes32"
        }
      ],
      "stateMutability": "view",
      "type": "function"
    },
    {
      "inputs": [],
      "name": "ROLE_UNDERWRITER",
      "outputs": [
        {
          "internalType": "bytes32",
          "name": "",
          "type": "bytes32"
        }
      ],
      "stateMutability": "view",
      "type": "function"
    },
    {
      "inputs": [],
      "name": "SETTING_ENTITY_DELEGATE",
      "outputs": [
        {
          "internalType": "bytes32",
          "name": "",
          "type": "bytes32"
        }
      ],
      "stateMutability": "view",
      "type": "function"
    },
    {
      "inputs": [],
      "name": "SETTING_ENTITY_DEPLOYER",
      "outputs": [
        {
          "internalType": "bytes32",
          "name": "",
          "type": "bytes32"
        }
      ],
      "stateMutability": "view",
      "type": "function"
    },
    {
      "inputs": [],
      "name": "SETTING_ENTITY_IMPL",
      "outputs": [
        {
          "internalType": "bytes32",
          "name": "",
          "type": "bytes32"
        }
      ],
      "stateMutability": "view",
      "type": "function"
    },
    {
      "inputs": [],
      "name": "SETTING_ETHER_TOKEN",
      "outputs": [
        {
          "internalType": "bytes32",
          "name": "",
          "type": "bytes32"
        }
      ],
      "stateMutability": "view",
      "type": "function"
    },
    {
      "inputs": [],
      "name": "SETTING_FEEBANK",
      "outputs": [
        {
          "internalType": "bytes32",
          "name": "",
          "type": "bytes32"
        }
      ],
      "stateMutability": "view",
      "type": "function"
    },
    {
      "inputs": [],
      "name": "SETTING_FEEBANK_IMPL",
      "outputs": [
        {
          "internalType": "bytes32",
          "name": "",
          "type": "bytes32"
        }
      ],
      "stateMutability": "view",
      "type": "function"
    },
    {
      "inputs": [],
      "name": "SETTING_MARKET",
      "outputs": [
        {
          "internalType": "bytes32",
          "name": "",
          "type": "bytes32"
        }
      ],
      "stateMutability": "view",
      "type": "function"
    },
    {
      "inputs": [],
      "name": "SETTING_MARKET_IMPL",
      "outputs": [
        {
          "internalType": "bytes32",
          "name": "",
          "type": "bytes32"
        }
      ],
      "stateMutability": "view",
      "type": "function"
    },
    {
      "inputs": [],
      "name": "SETTING_POLICY_DELEGATE",
      "outputs": [
        {
          "internalType": "bytes32",
          "name": "",
          "type": "bytes32"
        }
      ],
      "stateMutability": "view",
      "type": "function"
    },
    {
      "inputs": [],
      "name": "SETTING_POLICY_IMPL",
      "outputs": [
        {
          "internalType": "bytes32",
          "name": "",
          "type": "bytes32"
        }
      ],
      "stateMutability": "view",
      "type": "function"
    },
    {
      "inputs": [],
      "name": "acl",
      "outputs": [
        {
          "internalType": "contract IACL",
          "name": "",
          "type": "address"
        }
      ],
      "stateMutability": "view",
      "type": "function"
    },
    {
      "inputs": [],
      "name": "aclContext",
      "outputs": [
        {
          "internalType": "bytes32",
          "name": "",
          "type": "bytes32"
        }
      ],
      "stateMutability": "view",
      "type": "function"
    },
    {
      "inputs": [
        {
          "internalType": "uint256",
          "name": "_orderId",
          "type": "uint256"
        }
      ],
      "name": "cancelOrder",
      "outputs": [],
      "stateMutability": "nonpayable",
      "type": "function"
    },
    {
      "inputs": [
        {
          "internalType": "bytes32",
          "name": "_type",
          "type": "bytes32"
        },
        {
          "internalType": "address",
          "name": "_sellUnit",
          "type": "address"
        },
        {
          "internalType": "uint256",
          "name": "_sellAmount",
          "type": "uint256"
        },
        {
          "internalType": "address",
          "name": "_buyUnit",
          "type": "address"
        },
        {
          "internalType": "uint256",
          "name": "_buyAmount",
          "type": "uint256"
        },
        {
          "internalType": "uint256",
          "name": "_feeSchedule",
          "type": "uint256"
        },
        {
          "internalType": "address",
          "name": "_notify",
          "type": "address"
        },
        {
          "internalType": "bytes",
          "name": "_notifyData",
          "type": "bytes"
        }
      ],
      "name": "createOrder",
      "outputs": [
        {
          "internalType": "uint256",
          "name": "",
          "type": "uint256"
        }
      ],
      "stateMutability": "nonpayable",
      "type": "function"
    },
    {
      "inputs": [
        {
          "internalType": "uint256",
          "name": "_index",
          "type": "uint256"
        }
      ],
      "name": "getChild",
      "outputs": [
        {
          "internalType": "address",
          "name": "",
          "type": "address"
        }
      ],
      "stateMutability": "view",
      "type": "function"
    },
    {
      "inputs": [
        {
          "internalType": "address",
          "name": "_unit",
          "type": "address"
        },
        {
          "internalType": "uint256",
          "name": "_index",
          "type": "uint256"
        }
      ],
      "name": "getClaim",
      "outputs": [
        {
          "internalType": "address",
          "name": "policy_",
          "type": "address"
        },
        {
          "internalType": "address",
          "name": "recipient_",
          "type": "address"
        },
        {
          "internalType": "uint256",
          "name": "amount_",
          "type": "uint256"
        },
        {
          "internalType": "bool",
          "name": "paid_",
          "type": "bool"
        }
      ],
      "stateMutability": "view",
      "type": "function"
    },
    {
      "inputs": [
        {
          "internalType": "address",
          "name": "_unit",
          "type": "address"
        }
      ],
      "name": "getClaims",
      "outputs": [
        {
          "internalType": "uint256",
          "name": "count_",
          "type": "uint256"
        },
        {
          "internalType": "uint256",
          "name": "unpaidCount_",
          "type": "uint256"
        },
        {
          "internalType": "uint256",
          "name": "unpaidTotalAmount_",
          "type": "uint256"
        }
      ],
      "stateMutability": "view",
      "type": "function"
    },
    {
      "inputs": [
        {
          "internalType": "address",
          "name": "_unit",
          "type": "address"
        }
      ],
      "name": "getEconomics",
      "outputs": [
        {
          "internalType": "uint256",
          "name": "realBalance_",
          "type": "uint256"
        },
        {
          "internalType": "uint256",
          "name": "virtualBalance_",
          "type": "uint256"
        },
        {
          "internalType": "uint256",
          "name": "minBalance_",
          "type": "uint256"
        }
      ],
      "stateMutability": "view",
      "type": "function"
    },
    {
      "inputs": [],
      "name": "getNumChildren",
      "outputs": [
        {
          "internalType": "uint256",
          "name": "",
          "type": "uint256"
        }
      ],
      "stateMutability": "view",
      "type": "function"
    },
    {
      "inputs": [
        {
          "internalType": "address",
          "name": "_policy",
          "type": "address"
        }
      ],
      "name": "getPolicyEconomics",
      "outputs": [
        {
          "internalType": "address",
          "name": "unit_",
          "type": "address"
        },
        {
          "internalType": "uint256",
          "name": "balance_",
          "type": "uint256"
        },
        {
          "internalType": "uint256",
          "name": "minBalance_",
          "type": "uint256"
        },
        {
          "internalType": "uint256",
          "name": "claimsUnpaidTotalAmount_",
          "type": "uint256"
        }
      ],
      "stateMutability": "view",
      "type": "function"
    },
    {
      "inputs": [],
      "name": "getSelectors",
      "outputs": [
        {
          "internalType": "bytes",
          "name": "",
          "type": "bytes"
        }
      ],
      "stateMutability": "pure",
      "type": "function"
    },
    {
      "inputs": [
        {
          "internalType": "address",
          "name": "_child",
          "type": "address"
        }
      ],
      "name": "hasChild",
      "outputs": [
        {
          "internalType": "bool",
          "name": "",
          "type": "bool"
        }
      ],
      "stateMutability": "view",
      "type": "function"
    },
    {
      "inputs": [
        {
          "internalType": "address",
          "name": "_addr",
          "type": "address"
        },
        {
          "internalType": "bytes32",
          "name": "_roleGroup",
          "type": "bytes32"
        }
      ],
      "name": "inRoleGroup",
      "outputs": [
        {
          "internalType": "bool",
          "name": "",
          "type": "bool"
        }
      ],
      "stateMutability": "view",
      "type": "function"
    },
    {
      "inputs": [
        {
          "internalType": "bytes32",
          "name": "_ctx",
          "type": "bytes32"
        },
        {
          "internalType": "address",
          "name": "_addr",
          "type": "address"
        },
        {
          "internalType": "bytes32",
          "name": "_roleGroup",
          "type": "bytes32"
        }
      ],
      "name": "inRoleGroupWithContext",
      "outputs": [
        {
          "internalType": "bool",
          "name": "",
          "type": "bool"
        }
      ],
      "stateMutability": "view",
      "type": "function"
    },
    {
      "inputs": [
        {
          "internalType": "uint256",
          "name": "_amount",
          "type": "uint256"
        }
      ],
      "name": "incPolicyBalance",
      "outputs": [],
      "stateMutability": "nonpayable",
      "type": "function"
    },
    {
      "inputs": [
        {
          "internalType": "address",
          "name": "_addr",
          "type": "address"
        }
      ],
      "name": "isAdmin",
      "outputs": [
        {
          "internalType": "bool",
          "name": "",
          "type": "bool"
        }
      ],
      "stateMutability": "view",
      "type": "function"
    },
    {
      "inputs": [
        {
          "internalType": "address",
          "name": "_policy",
          "type": "address"
        }
      ],
      "name": "isPolicyCollateralized",
      "outputs": [
        {
          "internalType": "bool",
          "name": "",
          "type": "bool"
        }
      ],
      "stateMutability": "view",
      "type": "function"
    },
    {
      "inputs": [
        {
          "internalType": "address",
          "name": "_recipient",
          "type": "address"
        },
        {
          "internalType": "uint256",
          "name": "_amount",
          "type": "uint256"
        }
      ],
      "name": "payClaim",
      "outputs": [],
      "stateMutability": "nonpayable",
      "type": "function"
    },
    {
      "inputs": [
        {
          "internalType": "address",
          "name": "_unit",
          "type": "address"
        }
      ],
      "name": "resolveClaims",
      "outputs": [],
      "stateMutability": "nonpayable",
      "type": "function"
    },
    {
      "inputs": [
        {
          "internalType": "uint256",
          "name": "_bal",
          "type": "uint256"
        }
      ],
      "name": "setMinPolicyBalance",
      "outputs": [],
      "stateMutability": "nonpayable",
      "type": "function"
    },
    {
      "inputs": [],
      "name": "settings",
      "outputs": [
        {
          "internalType": "contract ISettings",
          "name": "",
          "type": "address"
        }
      ],
      "stateMutability": "view",
      "type": "function"
    }
  ],
  "bytecode": "0x60806040523480156200001157600080fd5b506040516200318638038062003186833981016040819052620000349162000244565b80808180600060405162000056906773657474696e677360c01b815260080190565b90815260405190819003602001902080546001600160a01b03929092166001600160a01b03199092169190911790556200008f62000181565b60405163a1e31a6560e01b81523060048201526001600160a01b03919091169063a1e31a659060240160206040518083038186803b158015620000d157600080fd5b505afa158015620000e6573d6000803e3d6000fd5b505050506040513d601f19601f820116820180604052508101906200010c91906200026b565b60408051691858db10dbdb9d195e1d60b21b81526001600a820152815190819003602a018120929092556773657474696e677360c01b8252600060088301525160289181900391909101902080546001600160a01b0319166001600160a01b0393909316929092179091555062000285915050565b600080604051620001a0906773657474696e677360c01b815260080190565b90815260408051602092819003830181205463de28735960e01b825291516001600160a01b039092169263de28735992600480840193829003018186803b158015620001eb57600080fd5b505afa15801562000200573d6000803e3d6000fd5b505050506040513d601f19601f8201168201806040525081019062000226919062000244565b905090565b6001600160a01b03811681146200024157600080fd5b50565b6000602082840312156200025757600080fd5b815162000264816200022b565b9392505050565b6000602082840312156200027e57600080fd5b5051919050565b612ef180620002956000396000f3fe608060405234801561001057600080fd5b506004361061043e5760003560e01c8063741cb7d611610236578063bb11dd711161013b578063de841bac116100c3578063e3097dc211610087578063e3097dc214610cfa578063e5bb5d0714610d21578063eebb74e014610d48578063fa4a215c14610d6f578063fbc0276414610d9657600080fd5b8063de841bac14610c6a578063def26bce14610c91578063e015f97514610cb8578063e06174e414610ccb578063e0892bad14610cd357600080fd5b8063cf4543911161010a578063cf45439114610c01578063d0d46a0b14610c28578063db691b1414610c3b578063de28735914610c62578063de764acf14610a7857600080fd5b8063bb11dd7114610b4b578063bc5d5c4314610b72578063c909ea4214610baf578063cef6ee4514610bda57600080fd5b80639f6e37a7116101be578063a87c785f1161018d578063a87c785f14610ace578063b32ef75614610af5578063b3f438aa14610b1c578063b46b88fe14610b24578063b85548111461045e57600080fd5b80639f6e37a714610a51578063a01dac1314610a78578063a32fc16214610a80578063a3cf5fdf14610aa757600080fd5b8063877d172311610205578063877d172314610443578063899a0ec7146109c95780639424cf5e146109dc5780639479ab2a14610a035780639ae5f37814610a2a57600080fd5b8063741cb7d614610941578063767974b5146109685780638398389a1461098f578063845b76ae146109b657600080fd5b806341bb489711610347578063514fcac7116102cf5780635db79855116102935780635db79855146108b15780635dddee31146108d85780637149af0c146108ff57806371c6c6f11461090757806372bef9c61461091a57600080fd5b8063514fcac714610822578063551e385a1461083557806355d48c071461085c578063587ec2cf1461088357806359dab7581461045e57600080fd5b8063498c4b7c11610316578063498c4b7c146107235780634b503f0b146107365780634b7d215e146107e85780634cf1f7721461044357806350802e3f1461080f57600080fd5b806341bb4897146106c5578063423d20f3146106cd578063468740a8146106d557806347bf603d146106fc57600080fd5b806324e076a2116103ca5780632b521d47116103995780632b521d47146106145780633407d3cb1461063b5780633e107d4a146106625780633f42ffef1461068957806340d028f6146106b057600080fd5b806324e076a21461057857806326f885351461059f578063297a012a146105c65780632a8873ef146105ed57600080fd5b80631205d133116104115780631205d133146104cd5780631adcdac6146104f45780631f9b28741461051b578063220df4891461054257806324d7806c1461055557600080fd5b806301750873146104435780630a079b2c1461045e5780630e0fc352146104665780630f79ab391461048d575b600080fd5b61044b600181565b6040519081526020015b60405180910390f35b61044b600281565b61044b7f063693c9545b949ff498535f9e0aa95ada8e88c062d28e2f219b896e151e126681565b6104a061049b366004612a73565b610da9565b604080516001600160a01b0395861681529490931660208501529183015215156060820152608001610455565b61044b7f098afcb3a137a2ba8835fbf7daecb275af5afb3479f12844d5b7bfb8134e7ced81565b61044b7f8858a0dfcbfa158449ee0a3b5dae898cecc0746569152b05bbab9526bcc1686481565b61044b7f5c6c7d4897f0ae38084370e7a61ea386e95c7f54629c0b793a0ac47751f1240581565b61044b610550366004612a9f565b610f0c565b610568610563366004612b70565b61101f565b6040519015158152602001610455565b61044b7f18ecf8d2173ca8a5766fd7dde3bdb54017dc5413dc07cd6ba1785b63e9c62b8281565b61044b7f5c7c2bcb0d2dfef15c423063aae2051d462fcd269b5e9b8c1733b3211e17bc8a81565b61044b7f6a4d660b9f1720511be22f039683db86d0d0d207c2ad9255325630800d4fb53981565b61044b7f325a96ceff51ae6b22de25dd7b4c8b9532dddf936add8ef16fc99219ff666a8481565b61044b7fcca1ad0e9fb374bbb9dc3d0cbfd073ef01bd1d01d5a35bd0a93403fbee64318d81565b61044b7f2623111b4a77e415ab5147aeb27da976c7a27950b6ec4022b4b9e7717626699281565b61044b7f6f244974cc67342b1bd623d411fd8100ec9eddbac05348e71d1a9296de6264a581565b61044b7f1bf52521006d8a3718b0692b7f32c8ee781bfed9e9215eb5b8fc3b34749fb5b581565b6106c36106be366004612b8d565b6110aa565b005b61044b600381565b61044b6110de565b61044b7f65d0db34d07de31cfb8ca9f95dabc0463ce6084a447abb757f682f36ae3682e381565b61044b7f052b977cd6067e43b9140f08c53a22b88418f4d3ab7bd811716130d5a20cd8a381565b610568610731366004612b70565b611113565b6040805163587ec2cf60e01b602082015263bc5d5c4360e01b602482015263d0d46a0b60e01b6028820152630f79ab3960e01b602c8083019190915263220df48960e01b603083015263514fcac760e01b60348301526350802e3f60e01b6038830152632068147b60e11b603c8301526371c6c6f160e01b8284015263e015f97560e01b604483015263126312df60e21b604883015282518083039091018152604c9091019182905261045591612c02565b61044b7f9574e138325b5c365da8d5cc75cf22323ed6f3ce52fac5621225020a162a4c6181565b6106c361081d366004612a73565b611232565b6106c3610830366004612b8d565b611747565b61044b7fc72bfe3e0f1799ce0d90c4c72cf8f07d0cfa8121d51cb05d8c827f0896d8c0b681565b61044b7f807c518efb8285611b15c88a7701e4f40a0e9a38ce3e59946e587a8932410af881565b610896610891366004612b70565b611857565b60408051938452602084019290925290820152606001610455565b61044b7f428fa9969c6b3fab7bbdac20b73706f1f670a386be0a76d4060c185898b2aa2281565b61044b7f8d632412946eb879ebe5af90230c7db3f6d17c94c0ecea207c97e15fa9bb77c581565b61044b611964565b6106c3610915366004612b8d565b61198c565b61044b7f2db57b52c5f263c359ba92194f5590b4a7f5fc1f1ca02f10cea531182851fe2881565b61044b7f0922a3d5a8713fcf92ec8607b882fd2fcfefd8552a3c38c726d96fcde8b1d05381565b61044b7f9c259f9342405d034b902fd5e1bba083f008e305ea4eb6a0dce9ac9a6256b63a81565b61044b7fdd53f360aa973c3daf7ff269398ced1ce7713d025c750c443c2abbcd89438f8381565b6105686109c4366004612b70565b611b2a565b6105686109d7366004612c15565b611b85565b61044b7fcfd13d23f7313d54f3a6d98c505045c58749561dd04531f9f2422a8818f0c5f881565b61044b7fa33a59233069411012cc12aa76a8a426fe6bd113968b520118fdc9cb6f49ae3081565b61044b7fab789755f97e00f29522efbee9df811265010c87cf80f8fd7d5fc5cb8a84795681565b61044b7f3bd41a6d84c7de1e9d18694bd113405090439b9e32d5ab69d575821d513d83b581565b61044b600081565b61044b7f7c23ac65f971ee875d4a6408607fabcb777f38cf73b3d6d891648646cee81f0581565b61044b7fd708193a9c8f5fbde4d1c80a1e6f79b5f38a27f85ca86eccac69e5a899120ead81565b61044b7f9f4d1dc1107c7d9d9f533f41b5aa5dbbb3b830e3b597338a8aee228ab083eb3a81565b61044b7f391db9b692991836c38aedfd24d7f4c9837739d4ee0664fe4ee6892a51e025a781565b61044b606481565b61044b7f0e8925aa0bfe65f831f6c9099dd95b0614eb69312630ef3497bee453d9ed40a981565b61044b7f54727092b015b3d280c3e42726b5e6008f8b85c202d92feae67d30b486fc630f81565b610b85610b80366004612b70565b611c20565b604080516001600160a01b0390951685526020850193909352918301526060820152608001610455565b610bc2610bbd366004612b8d565b611d26565b6040516001600160a01b039091168152602001610455565b61044b7ffca7e79cb5091f353eb60204c9aee8a98531c6069472e235576044613bd7396181565b61044b7fad56f8a5432d383c3e2c11b7b248f889e6ec544090486b3623f0f4ae1fad763b81565b610896610c36366004612b70565b611d84565b61044b7f1d60d7146dec74c1b1a9dc17243aaa3b56533f607c16a718bcd78d8d852d6e5281565b610bc2611e64565b61044b7f7f7cc8b2bac31c0e372310212be653d159f17ff3c41938a81446553db842afb681565b61044b7f610cf17b5a943fc722922fc6750fb40254c24c6b0efd32554aa7c03b4ca98e9c81565b6106c3610cc6366004612b70565b611f09565b610bc2611f15565b61044b7f737de6bdef2e959d9f968f058e3e78b7365d4eda8e4023ecac2d51e3dbfb140181565b61044b7fa449044fc5332c1625929b3afecb2f821955279285b4a8406a6ffa8968c1b7cf81565b61044b7f9c687089ee5ebd0bc2ba9c954ebc7a0304b4046890b9064e5742c8c6c7afeab281565b61044b7f251766d8c7c7a6b927647b0f20c99f490db1c283eb0c482446085aaaa44b5e7381565b61044b7fc59d706f362a04b6cf4757dd3df6eb5babc7c26ab5dcc7c9c43b142f25da10a581565b610568610da4366004612a73565b611f51565b6000806000806000610ddf86886040518060400160405280600b81526020016a636c61696d506f6c69637960a81b815250611f6c565b604051610dec9190612c4d565b90815260408051918290036020908101832054838301909252600e83526d18db185a5b549958da5c1a595b9d60921b908301526001600160a01b03169450600090610e3a9087908990611f6c565b604051610e479190612c4d565b90815260408051918290036020908101832054838301909252600b83526a18db185a5b505b5bdd5b9d60aa1b908301526001600160a01b03169350600390610e929087908990611f6c565b604051610e9f9190612c4d565b90815260200160405180910390205491506004610ede86886040518060400160405280600981526020016818db185a5b54185a5960ba1b815250611f6c565b604051610eeb9190612c4d565b9081526040519081900360200190205493969295509093505060ff90911690565b600033610f1881611b2a565b610f3d5760405162461bcd60e51b8152600401610f3490612c69565b60405180910390fd5b7f54727092b015b3d280c3e42726b5e6008f8b85c202d92feae67d30b486fc630f8b1480610f8a57507ffca7e79cb5091f353eb60204c9aee8a98531c6069472e235576044613bd739618b145b610fcb5760405162461bcd60e51b8152602060048201526012602482015271756e6b6e6f776e206f72646572207479706560701b6044820152606401610f34565b6110108a8a8a8a8a8a8a8a8080601f016020809104026020016040519081016040528093929190818152602001838380828437600092019190915250611f9b92505050565b9b9a5050505050505050505050565b6000611029611e64565b604051630935e01b60e21b81526001600160a01b03848116600483015291909116906324d7806c9060240160206040518083038186803b15801561106c57600080fd5b505afa158015611080573d6000803e3d6000fd5b505050506040513d601f19601f820116820180604052508101906110a49190612c90565b92915050565b336110b481611b2a565b6110d05760405162461bcd60e51b8152600401610f3490612c69565b6110da33836120c6565b5050565b600060016040516110ff90691858db10dbdb9d195e1d60b21b8152600a0190565b908152602001604051809103902054905090565b60008061111f836122b9565b90506000611152846040518060400160405280600d81526020016c706f6c69637942616c616e636560981b815250612348565b90506000611183856040518060400160405280601d8152602001600080516020612e9c833981519152815250612348565b905060006111bc846040518060400160405280601381526020017274726561737572795265616c42616c616e636560681b815250612348565b90506003826040516111ce9190612c4d565b908152602001604051809103902054600014801561122857506003836040516111f79190612c4d565b9081526020016040518091039020546003826040516112169190612c4d565b90815260200160405180910390205410155b9695505050505050565b3361123c81611b2a565b6112585760405162461bcd60e51b8152600401610f3490612c69565b6000611263336122b9565b9050826003611297336040518060400160405280600d81526020016c706f6c69637942616c616e636560981b815250612348565b6040516112a49190612c4d565b90815260200160405180910390205410156112fa5760405162461bcd60e51b81526020600482015260166024820152756578636565647320706f6c6963792062616c616e636560501b6044820152606401610f34565b6000611331826040518060400160405280601381526020017274726561737572795265616c42616c616e636560681b815250612348565b9050836003826040516113449190612c4d565b90815260200160405180910390205410156116b2576000611394836040518060400160405280601781526020017618db185a5b5cd55b9c185a59151bdd185b105b5bdd5b9d604a1b815250612348565b9050846003826040516113a79190612c4d565b9081526020016040518091039020546113c09190612cc8565b6003826040516113d09190612c4d565b9081526020016040518091039020819055506000611411336040518060400160405280601d8152602001600080516020612e9c833981519152815250612348565b9050856003826040516114249190612c4d565b90815260200160405180910390205461143d9190612cc8565b60038260405161144d9190612c4d565b90815260200160405180910390208190555060016003611490866040518060400160405280600b81526020016a18db185a5b5cd0dbdd5b9d60aa1b815250612348565b60405161149d9190612c4d565b908152602001604051809103902060008282546114ba9190612cc8565b92505081905550600160036114f8866040518060400160405280601181526020017018db185a5b5cd55b9c185a5910dbdd5b9d607a1b815250612348565b6040516115059190612c4d565b908152602001604051809103902060008282546115229190612cc8565b925050819055506000600361155a866040518060400160405280600b81526020016a18db185a5b5cd0dbdd5b9d60aa1b815250612348565b6040516115679190612c4d565b90815260200160405180910390205490503360006115a983886040518060400160405280600b81526020016a636c61696d506f6c69637960a81b815250611f6c565b6040516115b69190612c4d565b908152602001604051809103902060006101000a8154816001600160a01b0302191690836001600160a01b0316021790555087600061161c83886040518060400160405280600e81526020016d18db185a5b549958da5c1a595b9d60921b815250611f6c565b6040516116299190612c4d565b908152602001604051809103902060006101000a8154816001600160a01b0302191690836001600160a01b0316021790555086600361168c83886040518060400160405280600b81526020016a18db185a5b505b5bdd5b9d60aa1b815250611f6c565b6040516116999190612c4d565b9081526040519081900360200190205550611740915050565b6116bc3385612374565b60405163a9059cbb60e01b81526001600160a01b0386811660048301526024820186905283169063a9059cbb90604401602060405180830381600087803b15801561170657600080fd5b505af115801561171a573d6000803e3d6000fd5b505050506040513d601f19601f8201168201806040525081019061173e9190612c90565b505b5050505050565b3361175181611b2a565b61176d5760405162461bcd60e51b8152600401610f3490612c69565b60006117776124eb565b6040516382afd23b60e01b8152600481018590529091506001600160a01b038216906382afd23b9060240160206040518083038186803b1580156117ba57600080fd5b505afa1580156117ce573d6000803e3d6000fd5b505050506040513d601f19601f820116820180604052508101906117f29190612c90565b15611852576040516340e58ee560e01b8152600481018490526001600160a01b038216906340e58ee590602401600060405180830381600087803b15801561183957600080fd5b505af115801561184d573d6000803e3d6000fd5b505050505b505050565b60008060006003611893856040518060400160405280601381526020017274726561737572795265616c42616c616e636560681b815250612348565b6040516118a09190612c4d565b908152602001604051809103902054925060036118eb856040518060400160405280601681526020017574726561737572795669727475616c42616c616e636560501b815250612348565b6040516118f89190612c4d565b9081526020016040518091039020549150600361193f856040518060400160405280601281526020017174726561737572794d696e42616c616e636560701b815250612348565b60405161194c9190612c4d565b90815260200160405180910390205490509193909250565b600060036040516110ff90706e756d4368696c64436f6e74726163747360781b815260110190565b3361199681611b2a565b6119b25760405162461bcd60e51b8152600401610f3490612c69565b60006119bd336122b9565b905060006119f3336040518060400160405280601081526020016f6d696e506f6c69637942616c616e636560801b815250612348565b90506000611a2b836040518060400160405280601281526020017174726561737572794d696e42616c616e636560701b815250612348565b9050600382604051611a3d9190612c4d565b908152602001604051809103902054600014611a895760405162461bcd60e51b815260206004820152600b60248201526a185b1c9958591e481cd95d60aa1b6044820152606401610f34565b84600383604051611a9a9190612c4d565b90815260200160405180910390208190555084600382604051611abd9190612c4d565b908152602001604051809103902054611ad69190612cc8565b600382604051611ae69190612c4d565b90815260405190819003602001812091909155859033907fdc3bfef547b2c03207fea6f6ccc678d94edbc53c418cdf7d8783cc9932c3988f90600090a35050505050565b60006004611b5f836040518060400160405280600f81526020016e1a5cd0da1a5b1910dbdb9d1c9858dd608a1b815250612348565b604051611b6c9190612c4d565b9081526040519081900360200190205460ff1692915050565b6000611b8f611e64565b6040516349fdb87160e01b8152600481018690526001600160a01b0385811660248301526044820185905291909116906349fdb8719060640160206040518083038186803b158015611be057600080fd5b505afa158015611bf4573d6000803e3d6000fd5b505050506040513d601f19601f82011682018060405250810190611c189190612c90565b949350505050565b600080600080611c2f856122b9565b93506003611c62866040518060400160405280600d81526020016c706f6c69637942616c616e636560981b815250612348565b604051611c6f9190612c4d565b90815260200160405180910390205492506003611cb4866040518060400160405280601081526020016f6d696e506f6c69637942616c616e636560801b815250612348565b604051611cc19190612c4d565b90815260200160405180910390205491506003611d01866040518060400160405280601d8152602001600080516020612e9c833981519152815250612348565b604051611d0e9190612c4d565b90815260200160405180910390205490509193509193565b600080611d58836040518060400160405280600d81526020016c18da1a5b1910dbdb9d1c9858dd609a1b815250612556565b604051611d659190612c4d565b908152604051908190036020019020546001600160a01b031692915050565b60008060006003611db8856040518060400160405280600b81526020016a18db185a5b5cd0dbdd5b9d60aa1b815250612348565b604051611dc59190612c4d565b90815260200160405180910390205492506003611e0b856040518060400160405280601181526020017018db185a5b5cd55b9c185a5910dbdd5b9d607a1b815250612348565b604051611e189190612c4d565b9081526020016040518091039020549150600361193f856040518060400160405280601781526020017618db185a5b5cd55b9c185a59151bdd185b105b5bdd5b9d604a1b815250612348565b600080604051611e82906773657474696e677360c01b815260080190565b90815260408051602092819003830181205463de28735960e01b825291516001600160a01b039092169263de28735992600480840193829003018186803b158015611ecc57600080fd5b505afa158015611ee0573d6000803e3d6000fd5b505050506040513d601f19601f82011682018060405250810190611f049190612ce0565b905090565b611f128161256b565b50565b600080604051611f33906773657474696e677360c01b815260080190565b908152604051908190036020019020546001600160a01b0316919050565b6000611f65611f5e6110de565b8484611b85565b9392505050565b6060838383604051602001611f8393929190612cfd565b60405160208183030381529060405290509392505050565b600080611fa66124eb565b60405163095ea7b360e01b81526001600160a01b038083166004830152602482018b90529192508a9182169063095ea7b390604401602060405180830381600087803b158015611ff557600080fd5b505af1158015612009573d6000803e3d6000fd5b505050506040513d601f19601f8201168201806040525081019061202d9190612c90565b50604051630a58f18d60e41b81526001600160a01b0383169063a58f18d090612066908d908d908d908d908d908d908d90600401612d3c565b602060405180830381600087803b15801561208057600080fd5b505af1158015612094573d6000803e3d6000fd5b505050506040513d601f19601f820116820180604052508101906120b89190612d8e565b9a9950505050505050505050565b60006120d1836122b9565b90506000612104846040518060400160405280600d81526020016c706f6c69637942616c616e636560981b815250612348565b9050600061213d836040518060400160405280601381526020017274726561737572795265616c42616c616e636560681b815250612348565b90506000612179846040518060400160405280601681526020017574726561737572795669727475616c42616c616e636560501b815250612348565b90508460038360405161218c9190612c4d565b9081526020016040518091039020546121a59190612cc8565b6003836040516121b59190612c4d565b908152602001604051809103902081905550846003826040516121d89190612c4d565b9081526020016040518091039020546121f19190612cc8565b6003826040516122019190612c4d565b908152602001604051809103902081905550846003846040516122249190612c4d565b90815260200160405180910390205461223d9190612cc8565b60038460405161224d9190612c4d565b90815260200160405180910390208190555060038360405161226f9190612c4d565b90815260405190819003602001812054906001600160a01b038816907f30d14e53e9e62748ea489369d8b7fca01f39316037f55003a347712fc878585690600090a3505050505050565b600080600080600080866001600160a01b0316635a9b0b896040518163ffffffff1660e01b81526004016101206040518083038186803b1580156122fc57600080fd5b505afa158015612310573d6000803e3d6000fd5b505050506040513d601f19601f820116820180604052508101906123349190612da7565b50919e9d5050505050505050505050505050565b6060828260405160200161235d929190612e26565b604051602081830303815290604052905092915050565b600061237f836122b9565b905060006123b2846040518060400160405280600d81526020016c706f6c69637942616c616e636560981b815250612348565b905060006123eb836040518060400160405280601381526020017274726561737572795265616c42616c616e636560681b815250612348565b90506000612427846040518060400160405280601681526020017574726561737572795669727475616c42616c616e636560501b815250612348565b90508460038360405161243a9190612c4d565b9081526020016040518091039020546124539190612e5e565b6003836040516124639190612c4d565b908152602001604051809103902081905550846003826040516124869190612c4d565b90815260200160405180910390205461249f9190612e5e565b6003826040516124af9190612c4d565b908152602001604051809103902081905550846003846040516124d29190612c4d565b90815260200160405180910390205461223d9190612e5e565b60006124f5611f15565b60405163a8d37cb960e01b81527f6f244974cc67342b1bd623d411fd8100ec9eddbac05348e71d1a9296de6264a560048201526001600160a01b03919091169063a8d37cb99060240160206040518083038186803b158015611ecc57600080fd5b6060828260405160200161235d929190612e75565b6000600361259c836040518060400160405280600b81526020016a18db185a5b5cd0dbdd5b9d60aa1b815250612348565b6040516125a99190612c4d565b9081526020016040518091039020549050600060036125f1846040518060400160405280601181526020017018db185a5b5cd55b9c185a5910dbdd5b9d607a1b815250612348565b6040516125fe9190612c4d565b908152602001604051809103902054826126189190612e5e565b612623906001612cc8565b905060008290506000612661856040518060400160405280601381526020017274726561737572795265616c42616c616e636560681b815250612348565b9050600061269e866040518060400160405280601781526020017618db185a5b5cd55b9c185a59151bdd185b105b5bdd5b9d604a1b815250612348565b9050835b83811161184d5760046126d782896040518060400160405280600981526020016818db185a5b54185a5960ba1b815250611f6c565b6040516126e49190612c4d565b9081526040519081900360200190205460ff16612a4c576000600361272d838a6040518060400160405280600b81526020016a18db185a5b505b5bdd5b9d60aa1b815250611f6c565b60405161273a9190612c4d565b908152602001604051809103902054905060038460405161275b9190612c4d565b9081526020016040518091039020548111612a44576000806127a1848b6040518060400160405280600b81526020016a636c61696d506f6c69637960a81b815250611f6c565b6040516127ae9190612c4d565b90815260408051918290036020908101832054838301909252601d8352600080516020612e9c833981519152908301526001600160a01b031691506000906127f7908390612348565b90508260038260405161280a9190612c4d565b9081526020016040518091039020546128239190612e5e565b6003826040516128339190612c4d565b9081526040519081900360200190205561284d8284612374565b896001600160a01b031663a9059cbb600061288f878e6040518060400160405280600e81526020016d18db185a5b549958da5c1a595b9d60921b815250611f6c565b60405161289c9190612c4d565b908152604051908190036020018120546001600160e01b031960e084901b1682526001600160a01b0316600482015260248101869052604401602060405180830381600087803b1580156128ef57600080fd5b505af1158015612903573d6000803e3d6000fd5b505050506040513d601f19601f820116820180604052508101906129279190612c90565b5060016004612958868d6040518060400160405280600981526020016818db185a5b54185a5960ba1b815250611f6c565b6040516129659190612c4d565b908152602001604051809103902060006101000a81548160ff021916908315150217905550600160036129c18c6040518060400160405280601181526020017018db185a5b5cd55b9c185a5910dbdd5b9d607a1b815250612348565b6040516129ce9190612c4d565b908152602001604051809103902060008282546129eb9190612e5e565b9250508190555082600386604051612a039190612c4d565b908152602001604051809103902054612a1c9190612e5e565b600386604051612a2c9190612c4d565b9081526040519081900360200190205550612a4a9050565b5061184d565b505b612a57600182612cc8565b90506126a2565b6001600160a01b0381168114611f1257600080fd5b60008060408385031215612a8657600080fd5b8235612a9181612a5e565b946020939093013593505050565b60008060008060008060008060006101008a8c031215612abe57600080fd5b8935985060208a0135612ad081612a5e565b975060408a0135965060608a0135612ae781612a5e565b955060808a0135945060a08a0135935060c08a0135612b0581612a5e565b925060e08a013567ffffffffffffffff80821115612b2257600080fd5b818c0191508c601f830112612b3657600080fd5b813581811115612b4557600080fd5b8d6020828501011115612b5757600080fd5b6020830194508093505050509295985092959850929598565b600060208284031215612b8257600080fd5b8135611f6581612a5e565b600060208284031215612b9f57600080fd5b5035919050565b60005b83811015612bc1578181015183820152602001612ba9565b83811115612bd0576000848401525b50505050565b60008151808452612bee816020860160208601612ba6565b601f01601f19169290920160200192915050565b602081526000611f656020830184612bd6565b600080600060608486031215612c2a57600080fd5b833592506020840135612c3c81612a5e565b929592945050506040919091013590565b60008251612c5f818460208701612ba6565b9190910192915050565b6020808252600d908201526c6e6f74206d7920706f6c69637960981b604082015260600190565b600060208284031215612ca257600080fd5b81518015158114611f6557600080fd5b634e487b7160e01b600052601160045260246000fd5b60008219821115612cdb57612cdb612cb2565b500190565b600060208284031215612cf257600080fd5b8151611f6581612a5e565b8381526bffffffffffffffffffffffff198360601b16602082015260008251612d2d816034850160208701612ba6565b91909101603401949350505050565b600060018060a01b03808a168352886020840152808816604084015286606084015285608084015280851660a08401525060e060c0830152612d8160e0830184612bd6565b9998505050505050505050565b600060208284031215612da057600080fd5b5051919050565b60008060008060008060008060006101208a8c031215612dc657600080fd5b8951985060208a0151612dd881612a5e565b8098505060408a0151965060608a0151955060808a0151945060a08a0151612dff81612a5e565b8094505060c08a0151925060e08a015191506101008a015190509295985092959850929598565b6bffffffffffffffffffffffff198360601b16815260008251612e50816014850160208701612ba6565b919091016014019392505050565b600082821015612e7057612e70612cb2565b500390565b82815260008251612e8d816020850160208701612ba6565b91909101602001939250505056fe706f6c696379436c61696d73556e70616964546f74616c416d6f756e74000000a26469706673582212201bc19ec2050a5520ebd4fe219aed5c6398064fdfb2c10f8f70bf2c8b4bacfefc64736f6c63430008090033",
  "linkReferences": {},
  "deployedLinkReferences": {}
}