{
  "_format": "hh-sol-artifact-1",
  "contractName": "EntityDividendsFacet",
  "sourceName": "contracts/EntityDividendsFacet.sol",
  "abi": [
    {
      "inputs": [
        {
          "internalType": "address",
          "name": "_settings",
          "type": "address"
        }
      ],
      "stateMutability": "nonpayable",
      "type": "constructor"
    },
    {
      "inputs": [],
      "name": "CANNOT_ASSIGN",
      "outputs": [
        {
          "internalType": "uint256",
          "name": "",
          "type": "uint256"
        }
      ],
      "stateMutability": "view",
      "type": "function"
    },
    {
      "inputs": [],
      "name": "CANNOT_ASSIGN_USER_NOT_APPROVED",
      "outputs": [
        {
          "internalType": "uint256",
          "name": "",
          "type": "uint256"
        }
      ],
      "stateMutability": "view",
      "type": "function"
    },
    {
      "inputs": [],
      "name": "CAN_ASSIGN_HAS_ROLE",
      "outputs": [
        {
          "internalType": "uint256",
          "name": "",
          "type": "uint256"
        }
      ],
      "stateMutability": "view",
      "type": "function"
    },
    {
      "inputs": [],
      "name": "CAN_ASSIGN_IS_ADMIN",
      "outputs": [
        {
          "internalType": "uint256",
          "name": "",
          "type": "uint256"
        }
      ],
      "stateMutability": "view",
      "type": "function"
    },
    {
      "inputs": [],
      "name": "CAN_ASSIGN_IS_OWN_CONTEXT",
      "outputs": [
        {
          "internalType": "uint256",
          "name": "",
          "type": "uint256"
        }
      ],
      "stateMutability": "view",
      "type": "function"
    },
    {
      "inputs": [],
      "name": "DOES_NOT_HAVE_ROLE",
      "outputs": [
        {
          "internalType": "uint256",
          "name": "",
          "type": "uint256"
        }
      ],
      "stateMutability": "view",
      "type": "function"
    },
    {
      "inputs": [],
      "name": "FEE_SCHEDULE_PLATFORM_ACTION",
      "outputs": [
        {
          "internalType": "uint256",
          "name": "",
          "type": "uint256"
        }
      ],
      "stateMutability": "view",
      "type": "function"
    },
    {
      "inputs": [],
      "name": "FEE_SCHEDULE_STANDARD",
      "outputs": [
        {
          "internalType": "uint256",
          "name": "",
          "type": "uint256"
        }
      ],
      "stateMutability": "view",
      "type": "function"
    },
    {
      "inputs": [],
      "name": "HAS_ROLE_CONTEXT",
      "outputs": [
        {
          "internalType": "uint256",
          "name": "",
          "type": "uint256"
        }
      ],
      "stateMutability": "view",
      "type": "function"
    },
    {
      "inputs": [],
      "name": "HAS_ROLE_SYSTEM_CONTEXT",
      "outputs": [
        {
          "internalType": "uint256",
          "name": "",
          "type": "uint256"
        }
      ],
      "stateMutability": "view",
      "type": "function"
    },
    {
      "inputs": [],
      "name": "ROLEGROUP_APPROVED_USERS",
      "outputs": [
        {
          "internalType": "bytes32",
          "name": "",
          "type": "bytes32"
        }
      ],
      "stateMutability": "view",
      "type": "function"
    },
    {
      "inputs": [],
      "name": "ROLEGROUP_BROKERS",
      "outputs": [
        {
          "internalType": "bytes32",
          "name": "",
          "type": "bytes32"
        }
      ],
      "stateMutability": "view",
      "type": "function"
    },
    {
      "inputs": [],
      "name": "ROLEGROUP_CAPITAL_PROVIDERS",
      "outputs": [
        {
          "internalType": "bytes32",
          "name": "",
          "type": "bytes32"
        }
      ],
      "stateMutability": "view",
      "type": "function"
    },
    {
      "inputs": [],
      "name": "ROLEGROUP_CLAIMS_ADMINS",
      "outputs": [
        {
          "internalType": "bytes32",
          "name": "",
          "type": "bytes32"
        }
      ],
      "stateMutability": "view",
      "type": "function"
    },
    {
      "inputs": [],
      "name": "ROLEGROUP_ENTITY_ADMINS",
      "outputs": [
        {
          "internalType": "bytes32",
          "name": "",
          "type": "bytes32"
        }
      ],
      "stateMutability": "view",
      "type": "function"
    },
    {
      "inputs": [],
      "name": "ROLEGROUP_ENTITY_MANAGERS",
      "outputs": [
        {
          "internalType": "bytes32",
          "name": "",
          "type": "bytes32"
        }
      ],
      "stateMutability": "view",
      "type": "function"
    },
    {
      "inputs": [],
      "name": "ROLEGROUP_ENTITY_REPS",
      "outputs": [
        {
          "internalType": "bytes32",
          "name": "",
          "type": "bytes32"
        }
      ],
      "stateMutability": "view",
      "type": "function"
    },
    {
      "inputs": [],
      "name": "ROLEGROUP_INSURED_PARTYS",
      "outputs": [
        {
          "internalType": "bytes32",
          "name": "",
          "type": "bytes32"
        }
      ],
      "stateMutability": "view",
      "type": "function"
    },
    {
      "inputs": [],
      "name": "ROLEGROUP_POLICY_CREATORS",
      "outputs": [
        {
          "internalType": "bytes32",
          "name": "",
          "type": "bytes32"
        }
      ],
      "stateMutability": "view",
      "type": "function"
    },
    {
      "inputs": [],
      "name": "ROLEGROUP_POLICY_OWNERS",
      "outputs": [
        {
          "internalType": "bytes32",
          "name": "",
          "type": "bytes32"
        }
      ],
      "stateMutability": "view",
      "type": "function"
    },
    {
      "inputs": [],
      "name": "ROLEGROUP_SYSTEM_ADMINS",
      "outputs": [
        {
          "internalType": "bytes32",
          "name": "",
          "type": "bytes32"
        }
      ],
      "stateMutability": "view",
      "type": "function"
    },
    {
      "inputs": [],
      "name": "ROLEGROUP_SYSTEM_MANAGERS",
      "outputs": [
        {
          "internalType": "bytes32",
          "name": "",
          "type": "bytes32"
        }
      ],
      "stateMutability": "view",
      "type": "function"
    },
    {
      "inputs": [],
      "name": "ROLEGROUP_TRADERS",
      "outputs": [
        {
          "internalType": "bytes32",
          "name": "",
          "type": "bytes32"
        }
      ],
      "stateMutability": "view",
      "type": "function"
    },
    {
      "inputs": [],
      "name": "ROLEGROUP_UNDERWRITERS",
      "outputs": [
        {
          "internalType": "bytes32",
          "name": "",
          "type": "bytes32"
        }
      ],
      "stateMutability": "view",
      "type": "function"
    },
    {
      "inputs": [],
      "name": "ROLE_APPROVED_USER",
      "outputs": [
        {
          "internalType": "bytes32",
          "name": "",
          "type": "bytes32"
        }
      ],
      "stateMutability": "view",
      "type": "function"
    },
    {
      "inputs": [],
      "name": "ROLE_BROKER",
      "outputs": [
        {
          "internalType": "bytes32",
          "name": "",
          "type": "bytes32"
        }
      ],
      "stateMutability": "view",
      "type": "function"
    },
    {
      "inputs": [],
      "name": "ROLE_CAPITAL_PROVIDER",
      "outputs": [
        {
          "internalType": "bytes32",
          "name": "",
          "type": "bytes32"
        }
      ],
      "stateMutability": "view",
      "type": "function"
    },
    {
      "inputs": [],
      "name": "ROLE_CLAIMS_ADMIN",
      "outputs": [
        {
          "internalType": "bytes32",
          "name": "",
          "type": "bytes32"
        }
      ],
      "stateMutability": "view",
      "type": "function"
    },
    {
      "inputs": [],
      "name": "ROLE_ENTITY_ADMIN",
      "outputs": [
        {
          "internalType": "bytes32",
          "name": "",
          "type": "bytes32"
        }
      ],
      "stateMutability": "view",
      "type": "function"
    },
    {
      "inputs": [],
      "name": "ROLE_ENTITY_MANAGER",
      "outputs": [
        {
          "internalType": "bytes32",
          "name": "",
          "type": "bytes32"
        }
      ],
      "stateMutability": "view",
      "type": "function"
    },
    {
      "inputs": [],
      "name": "ROLE_ENTITY_REP",
      "outputs": [
        {
          "internalType": "bytes32",
          "name": "",
          "type": "bytes32"
        }
      ],
      "stateMutability": "view",
      "type": "function"
    },
    {
      "inputs": [],
      "name": "ROLE_INSURED_PARTY",
      "outputs": [
        {
          "internalType": "bytes32",
          "name": "",
          "type": "bytes32"
        }
      ],
      "stateMutability": "view",
      "type": "function"
    },
    {
      "inputs": [],
      "name": "ROLE_PENDING_BROKER",
      "outputs": [
        {
          "internalType": "bytes32",
          "name": "",
          "type": "bytes32"
        }
      ],
      "stateMutability": "view",
      "type": "function"
    },
    {
      "inputs": [],
      "name": "ROLE_PENDING_CLAIMS_ADMIN",
      "outputs": [
        {
          "internalType": "bytes32",
          "name": "",
          "type": "bytes32"
        }
      ],
      "stateMutability": "view",
      "type": "function"
    },
    {
      "inputs": [],
      "name": "ROLE_PENDING_INSURED_PARTY",
      "outputs": [
        {
          "internalType": "bytes32",
          "name": "",
          "type": "bytes32"
        }
      ],
      "stateMutability": "view",
      "type": "function"
    },
    {
      "inputs": [],
      "name": "ROLE_PENDING_UNDERWRITER",
      "outputs": [
        {
          "internalType": "bytes32",
          "name": "",
          "type": "bytes32"
        }
      ],
      "stateMutability": "view",
      "type": "function"
    },
    {
      "inputs": [],
      "name": "ROLE_POLICY_CREATOR",
      "outputs": [
        {
          "internalType": "bytes32",
          "name": "",
          "type": "bytes32"
        }
      ],
      "stateMutability": "view",
      "type": "function"
    },
    {
      "inputs": [],
      "name": "ROLE_POLICY_OWNER",
      "outputs": [
        {
          "internalType": "bytes32",
          "name": "",
          "type": "bytes32"
        }
      ],
      "stateMutability": "view",
      "type": "function"
    },
    {
      "inputs": [],
      "name": "ROLE_SYSTEM_ADMIN",
      "outputs": [
        {
          "internalType": "bytes32",
          "name": "",
          "type": "bytes32"
        }
      ],
      "stateMutability": "view",
      "type": "function"
    },
    {
      "inputs": [],
      "name": "ROLE_SYSTEM_MANAGER",
      "outputs": [
        {
          "internalType": "bytes32",
          "name": "",
          "type": "bytes32"
        }
      ],
      "stateMutability": "view",
      "type": "function"
    },
    {
      "inputs": [],
      "name": "ROLE_UNDERWRITER",
      "outputs": [
        {
          "internalType": "bytes32",
          "name": "",
          "type": "bytes32"
        }
      ],
      "stateMutability": "view",
      "type": "function"
    },
    {
      "inputs": [],
      "name": "SETTING_ENTITY_DELEGATE",
      "outputs": [
        {
          "internalType": "bytes32",
          "name": "",
          "type": "bytes32"
        }
      ],
      "stateMutability": "view",
      "type": "function"
    },
    {
      "inputs": [],
      "name": "SETTING_ENTITY_DEPLOYER",
      "outputs": [
        {
          "internalType": "bytes32",
          "name": "",
          "type": "bytes32"
        }
      ],
      "stateMutability": "view",
      "type": "function"
    },
    {
      "inputs": [],
      "name": "SETTING_ENTITY_IMPL",
      "outputs": [
        {
          "internalType": "bytes32",
          "name": "",
          "type": "bytes32"
        }
      ],
      "stateMutability": "view",
      "type": "function"
    },
    {
      "inputs": [],
      "name": "SETTING_ETHER_TOKEN",
      "outputs": [
        {
          "internalType": "bytes32",
          "name": "",
          "type": "bytes32"
        }
      ],
      "stateMutability": "view",
      "type": "function"
    },
    {
      "inputs": [],
      "name": "SETTING_FEEBANK",
      "outputs": [
        {
          "internalType": "bytes32",
          "name": "",
          "type": "bytes32"
        }
      ],
      "stateMutability": "view",
      "type": "function"
    },
    {
      "inputs": [],
      "name": "SETTING_FEEBANK_IMPL",
      "outputs": [
        {
          "internalType": "bytes32",
          "name": "",
          "type": "bytes32"
        }
      ],
      "stateMutability": "view",
      "type": "function"
    },
    {
      "inputs": [],
      "name": "SETTING_MARKET",
      "outputs": [
        {
          "internalType": "bytes32",
          "name": "",
          "type": "bytes32"
        }
      ],
      "stateMutability": "view",
      "type": "function"
    },
    {
      "inputs": [],
      "name": "SETTING_MARKET_IMPL",
      "outputs": [
        {
          "internalType": "bytes32",
          "name": "",
          "type": "bytes32"
        }
      ],
      "stateMutability": "view",
      "type": "function"
    },
    {
      "inputs": [],
      "name": "SETTING_POLICY_DELEGATE",
      "outputs": [
        {
          "internalType": "bytes32",
          "name": "",
          "type": "bytes32"
        }
      ],
      "stateMutability": "view",
      "type": "function"
    },
    {
      "inputs": [],
      "name": "SETTING_POLICY_IMPL",
      "outputs": [
        {
          "internalType": "bytes32",
          "name": "",
          "type": "bytes32"
        }
      ],
      "stateMutability": "view",
      "type": "function"
    },
    {
      "inputs": [],
      "name": "acl",
      "outputs": [
        {
          "internalType": "contract IACL",
          "name": "",
          "type": "address"
        }
      ],
      "stateMutability": "view",
      "type": "function"
    },
    {
      "inputs": [],
      "name": "aclContext",
      "outputs": [
        {
          "internalType": "bytes32",
          "name": "",
          "type": "bytes32"
        }
      ],
      "stateMutability": "view",
      "type": "function"
    },
    {
      "inputs": [
        {
          "internalType": "uint256",
          "name": "_index",
          "type": "uint256"
        }
      ],
      "name": "getChild",
      "outputs": [
        {
          "internalType": "address",
          "name": "",
          "type": "address"
        }
      ],
      "stateMutability": "view",
      "type": "function"
    },
    {
      "inputs": [],
      "name": "getNumChildren",
      "outputs": [
        {
          "internalType": "uint256",
          "name": "",
          "type": "uint256"
        }
      ],
      "stateMutability": "view",
      "type": "function"
    },
    {
      "inputs": [
        {
          "internalType": "address",
          "name": "_unit",
          "type": "address"
        }
      ],
      "name": "getNumTokenHolders",
      "outputs": [
        {
          "internalType": "uint256",
          "name": "",
          "type": "uint256"
        }
      ],
      "stateMutability": "view",
      "type": "function"
    },
    {
      "inputs": [],
      "name": "getSelectors",
      "outputs": [
        {
          "internalType": "bytes",
          "name": "",
          "type": "bytes"
        }
      ],
      "stateMutability": "pure",
      "type": "function"
    },
    {
      "inputs": [
        {
          "internalType": "address",
          "name": "_unit",
          "type": "address"
        },
        {
          "internalType": "uint256",
          "name": "_index",
          "type": "uint256"
        }
      ],
      "name": "getTokenHolderAtIndex",
      "outputs": [
        {
          "internalType": "address",
          "name": "",
          "type": "address"
        }
      ],
      "stateMutability": "view",
      "type": "function"
    },
    {
      "inputs": [
        {
          "internalType": "address",
          "name": "_unit",
          "type": "address"
        },
        {
          "internalType": "address",
          "name": "_holder",
          "type": "address"
        }
      ],
      "name": "getWithdrawableDividend",
      "outputs": [
        {
          "internalType": "uint256",
          "name": "",
          "type": "uint256"
        }
      ],
      "stateMutability": "view",
      "type": "function"
    },
    {
      "inputs": [
        {
          "internalType": "address",
          "name": "_child",
          "type": "address"
        }
      ],
      "name": "hasChild",
      "outputs": [
        {
          "internalType": "bool",
          "name": "",
          "type": "bool"
        }
      ],
      "stateMutability": "view",
      "type": "function"
    },
    {
      "inputs": [
        {
          "internalType": "address",
          "name": "_addr",
          "type": "address"
        },
        {
          "internalType": "bytes32",
          "name": "_roleGroup",
          "type": "bytes32"
        }
      ],
      "name": "inRoleGroup",
      "outputs": [
        {
          "internalType": "bool",
          "name": "",
          "type": "bool"
        }
      ],
      "stateMutability": "view",
      "type": "function"
    },
    {
      "inputs": [
        {
          "internalType": "bytes32",
          "name": "_ctx",
          "type": "bytes32"
        },
        {
          "internalType": "address",
          "name": "_addr",
          "type": "address"
        },
        {
          "internalType": "bytes32",
          "name": "_roleGroup",
          "type": "bytes32"
        }
      ],
      "name": "inRoleGroupWithContext",
      "outputs": [
        {
          "internalType": "bool",
          "name": "",
          "type": "bool"
        }
      ],
      "stateMutability": "view",
      "type": "function"
    },
    {
      "inputs": [
        {
          "internalType": "address",
          "name": "_addr",
          "type": "address"
        }
      ],
      "name": "isAdmin",
      "outputs": [
        {
          "internalType": "bool",
          "name": "",
          "type": "bool"
        }
      ],
      "stateMutability": "view",
      "type": "function"
    },
    {
      "inputs": [
        {
          "internalType": "address",
          "name": "_unit",
          "type": "address"
        },
        {
          "internalType": "uint256",
          "name": "_amount",
          "type": "uint256"
        }
      ],
      "name": "payDividend",
      "outputs": [],
      "stateMutability": "nonpayable",
      "type": "function"
    },
    {
      "inputs": [],
      "name": "settings",
      "outputs": [
        {
          "internalType": "contract ISettings",
          "name": "",
          "type": "address"
        }
      ],
      "stateMutability": "view",
      "type": "function"
    },
    {
      "inputs": [
        {
          "internalType": "address",
          "name": "_unit",
          "type": "address"
        }
      ],
      "name": "withdrawDividend",
      "outputs": [],
      "stateMutability": "nonpayable",
      "type": "function"
    }
  ],
  "bytecode": "0x60806040523480156200001157600080fd5b5060405162001bd738038062001bd7833981016040819052620000349162000244565b80808180600060405162000056906773657474696e677360c01b815260080190565b90815260405190819003602001902080546001600160a01b03929092166001600160a01b03199092169190911790556200008f62000181565b60405163a1e31a6560e01b81523060048201526001600160a01b03919091169063a1e31a659060240160206040518083038186803b158015620000d157600080fd5b505afa158015620000e6573d6000803e3d6000fd5b505050506040513d601f19601f820116820180604052508101906200010c91906200026b565b60408051691858db10dbdb9d195e1d60b21b81526001600a820152815190819003602a018120929092556773657474696e677360c01b8252600060088301525160289181900391909101902080546001600160a01b0319166001600160a01b0393909316929092179091555062000285915050565b600080604051620001a0906773657474696e677360c01b815260080190565b90815260408051602092819003830181205463de28735960e01b825291516001600160a01b039092169263de28735992600480840193829003018186803b158015620001eb57600080fd5b505afa15801562000200573d6000803e3d6000fd5b505050506040513d601f19601f8201168201806040525081019062000226919062000244565b905090565b6001600160a01b03811681146200024157600080fd5b50565b6000602082840312156200025757600080fd5b815162000264816200022b565b9392505050565b6000602082840312156200027e57600080fd5b5051919050565b61194280620002956000396000f3fe608060405234801561001057600080fd5b50600436106103e65760003560e01c8063845b76ae1161020a578063c909ea4211610125578063de841bac116100b8578063e3097dc211610087578063e3097dc214610b1f578063e5bb5d0714610b46578063eebb74e014610b6d578063fa4a215c14610b94578063fbc0276414610bbb57600080fd5b8063de841bac14610aa2578063def26bce14610ac9578063e06174e414610af0578063e0892bad14610af857600080fd5b8063d88e5011116100f4578063d88e501114610a60578063db691b1414610a73578063de28735914610a9a578063de764acf1461091557600080fd5b8063c909ea42146109e8578063cf20eb4414610a13578063cf45439114610a26578063d649b7bf14610a4d57600080fd5b8063a01dac131161019d578063b32ef7561161016c578063b32ef75614610992578063b3f438aa146109b9578063b46b88fe146109c1578063b85548111461040657600080fd5b8063a01dac1314610915578063a32fc1621461091d578063a3cf5fdf14610944578063a87c785f1461096b57600080fd5b80639479ab2a116101d95780639479ab2a1461088d5780639ae5f378146108b45780639c53c0ca146108db5780639f6e37a7146108ee57600080fd5b8063845b76ae14610840578063877d1723146103eb578063899a0ec7146108535780639424cf5e1461086657600080fd5b8063423d20f31161030557806359dab758116102985780637149af0c116102675780637149af0c1461079c57806372bef9c6146107a4578063741cb7d6146107cb578063767974b5146107f25780638398389a1461081957600080fd5b806359dab758146104065780635db79855146107395780635dddee311461076057806361175f411461078757600080fd5b80634b7d215e116102d45780634b7d215e146106c45780634cf1f772146103eb578063551e385a146106eb57806355d48c071461071257600080fd5b8063423d20f31461060d578063468740a81461061557806347bf603d1461063c5780634b503f0b1461066357600080fd5b806326f885351161037d5780633407d3cb1161034c5780633407d3cb146105905780633e107d4a146105b75780633f42ffef146105de57806341bb48971461060557600080fd5b806326f88535146104f4578063297a012a1461051b5780632a8873ef146105425780632b521d471461056957600080fd5b80631adcdac6116103b95780631adcdac61461045c5780631f9b28741461048357806324d7806c146104aa57806324e076a2146104cd57600080fd5b806301750873146103eb5780630a079b2c146104065780630e0fc3521461040e5780631205d13314610435575b600080fd5b6103f3600181565b6040519081526020015b60405180910390f35b6103f3600281565b6103f37f063693c9545b949ff498535f9e0aa95ada8e88c062d28e2f219b896e151e126681565b6103f37f098afcb3a137a2ba8835fbf7daecb275af5afb3479f12844d5b7bfb8134e7ced81565b6103f37f8858a0dfcbfa158449ee0a3b5dae898cecc0746569152b05bbab9526bcc1686481565b6103f37f5c6c7d4897f0ae38084370e7a61ea386e95c7f54629c0b793a0ac47751f1240581565b6104bd6104b83660046115dd565b610bce565b60405190151581526020016103fd565b6103f37f18ecf8d2173ca8a5766fd7dde3bdb54017dc5413dc07cd6ba1785b63e9c62b8281565b6103f37f5c7c2bcb0d2dfef15c423063aae2051d462fcd269b5e9b8c1733b3211e17bc8a81565b6103f37f6a4d660b9f1720511be22f039683db86d0d0d207c2ad9255325630800d4fb53981565b6103f37f325a96ceff51ae6b22de25dd7b4c8b9532dddf936add8ef16fc99219ff666a8481565b6103f37fcca1ad0e9fb374bbb9dc3d0cbfd073ef01bd1d01d5a35bd0a93403fbee64318d81565b6103f37f2623111b4a77e415ab5147aeb27da976c7a27950b6ec4022b4b9e7717626699281565b6103f37f6f244974cc67342b1bd623d411fd8100ec9eddbac05348e71d1a9296de6264a581565b6103f37f1bf52521006d8a3718b0692b7f32c8ee781bfed9e9215eb5b8fc3b34749fb5b581565b6103f3600381565b6103f3610c59565b6103f37f65d0db34d07de31cfb8ca9f95dabc0463ce6084a447abb757f682f36ae3682e381565b6103f37f052b977cd6067e43b9140f08c53a22b88418f4d3ab7bd811716130d5a20cd8a381565b6040805163d88e501160e01b60208201526333c83ad160e21b60248201526361175f4160e01b602882015263d649b7bf60e01b602c820152634e29e06560e11b6030820152815160148183030181526034909101918290526103fd91611626565b6103f37f9574e138325b5c365da8d5cc75cf22323ed6f3ce52fac5621225020a162a4c6181565b6103f37fc72bfe3e0f1799ce0d90c4c72cf8f07d0cfa8121d51cb05d8c827f0896d8c0b681565b6103f37f807c518efb8285611b15c88a7701e4f40a0e9a38ce3e59946e587a8932410af881565b6103f37f428fa9969c6b3fab7bbdac20b73706f1f670a386be0a76d4060c185898b2aa2281565b6103f37f8d632412946eb879ebe5af90230c7db3f6d17c94c0ecea207c97e15fa9bb77c581565b61079a610795366004611659565b610c8e565b005b6103f3610f4f565b6103f37f2db57b52c5f263c359ba92194f5590b4a7f5fc1f1ca02f10cea531182851fe2881565b6103f37f0922a3d5a8713fcf92ec8607b882fd2fcfefd8552a3c38c726d96fcde8b1d05381565b6103f37f9c259f9342405d034b902fd5e1bba083f008e305ea4eb6a0dce9ac9a6256b63a81565b6103f37fdd53f360aa973c3daf7ff269398ced1ce7713d025c750c443c2abbcd89438f8381565b6104bd61084e3660046115dd565b610f77565b6104bd610861366004611685565b610fd2565b6103f37fcfd13d23f7313d54f3a6d98c505045c58749561dd04531f9f2422a8818f0c5f881565b6103f37fa33a59233069411012cc12aa76a8a426fe6bd113968b520118fdc9cb6f49ae3081565b6103f37fab789755f97e00f29522efbee9df811265010c87cf80f8fd7d5fc5cb8a84795681565b61079a6108e93660046115dd565b61106d565b6103f37f3bd41a6d84c7de1e9d18694bd113405090439b9e32d5ab69d575821d513d83b581565b6103f3600081565b6103f37f7c23ac65f971ee875d4a6408607fabcb777f38cf73b3d6d891648646cee81f0581565b6103f37fd708193a9c8f5fbde4d1c80a1e6f79b5f38a27f85ca86eccac69e5a899120ead81565b6103f37f9f4d1dc1107c7d9d9f533f41b5aa5dbbb3b830e3b597338a8aee228ab083eb3a81565b6103f37f391db9b692991836c38aedfd24d7f4c9837739d4ee0664fe4ee6892a51e025a781565b6103f3606481565b6103f37f0e8925aa0bfe65f831f6c9099dd95b0614eb69312630ef3497bee453d9ed40a981565b6109fb6109f63660046116bd565b611171565b6040516001600160a01b0390911681526020016103fd565b6109fb610a21366004611659565b6111cf565b6103f37fad56f8a5432d383c3e2c11b7b248f889e6ec544090486b3623f0f4ae1fad763b81565b6103f3610a5b3660046116d6565b61122e565b6103f3610a6e3660046115dd565b611288565b6103f37f1d60d7146dec74c1b1a9dc17243aaa3b56533f607c16a718bcd78d8d852d6e5281565b6109fb6112e0565b6103f37f7f7cc8b2bac31c0e372310212be653d159f17ff3c41938a81446553db842afb681565b6103f37f610cf17b5a943fc722922fc6750fb40254c24c6b0efd32554aa7c03b4ca98e9c81565b6109fb611385565b6103f37f737de6bdef2e959d9f968f058e3e78b7365d4eda8e4023ecac2d51e3dbfb140181565b6103f37fa449044fc5332c1625929b3afecb2f821955279285b4a8406a6ffa8968c1b7cf81565b6103f37f9c687089ee5ebd0bc2ba9c954ebc7a0304b4046890b9064e5742c8c6c7afeab281565b6103f37f251766d8c7c7a6b927647b0f20c99f490db1c283eb0c482446085aaaa44b5e7381565b6103f37fc59d706f362a04b6cf4757dd3df6eb5babc7c26ab5dcc7c9c43b142f25da10a581565b6104bd610bc9366004611659565b6113c1565b6000610bd86112e0565b604051630935e01b60e21b81526001600160a01b03848116600483015291909116906324d7806c9060240160206040518083038186803b158015610c1b57600080fd5b505afa158015610c2f573d6000803e3d6000fd5b505050506040513d601f19601f82011682018060405250810190610c53919061170f565b92915050565b60006001604051610c7a90691858db10dbdb9d195e1d60b21b8152600a0190565b908152602001604051809103902054905090565b610c97826113dc565b610ca1828261147c565b60006003610cd2846040518060400160405280600b81526020016a746f6b656e537570706c7960a81b81525061150f565b604051610cdf9190611731565b908152602001604051809103902054905060006003610d25856040518060400160405280600f81526020016e6e756d546f6b656e486f6c6465727360881b81525061150f565b604051610d329190611731565b908152602001604051809103902054905060006003610d70866040518060400160405280600781526020016662616c616e636560c81b81525061150f565b604051610d7d9190611731565b90815260405190819003602001902054905060015b808310610efe57600080610dca83896040518060400160405280600b81526020016a3a37b5b2b72437b63232b960a91b81525061153b565b604051610dd79190611731565b90815260408051918290036020908101832054838301909252600c83526b746f6b656e42616c616e636560a01b908301526001600160a01b03169150600090600390610e26908a90859061156a565b604051610e339190611731565b908152604051908190036020019020549050600086610e528984611763565b610e5c9190611782565b9050610e6881866117a4565b94506000610e996000858c60405180604001604052806008815260200167191a5d9a59195b9960c21b815250611581565b905081600382604051610eac9190611731565b908152602001604051809103902054610ec591906117bb565b600382604051610ed59190611731565b9081526040519081900360200190205550610ef79250600191508390506117bb565b9050610d92565b50806003610f2b876040518060400160405280600781526020016662616c616e636560c81b81525061150f565b604051610f389190611731565b908152604051908190036020019020555050505050565b60006003604051610c7a90706e756d4368696c64436f6e74726163747360781b815260110190565b60006004610fac836040518060400160405280600f81526020016e1a5cd0da1a5b1910dbdb9d1c9858dd608a1b81525061150f565b604051610fb99190611731565b9081526040519081900360200190205460ff1692915050565b6000610fdc6112e0565b6040516349fdb87160e01b8152600481018690526001600160a01b0385811660248301526044820185905291909116906349fdb8719060640160206040518083038186803b15801561102d57600080fd5b505afa158015611041573d6000803e3d6000fd5b505050506040513d601f19601f82011682018060405250810190611065919061170f565b949350505050565b600061109c6000338460405180604001604052806008815260200167191a5d9a59195b9960c21b815250611581565b905060006003826040516110b09190611731565b908152604051908190036020019020549050801561116c5760006003836040516110da9190611731565b9081526040519081900360200181209190915563a9059cbb60e01b8152336004820152602481018290526001600160a01b0384169063a9059cbb90604401602060405180830381600087803b15801561113257600080fd5b505af1158015611146573d6000803e3d6000fd5b505050506040513d601f19601f8201168201806040525081019061116a919061170f565b505b505050565b6000806111a3836040518060400160405280600d81526020016c18da1a5b1910dbdb9d1c9858dd609a1b8152506115b3565b6040516111b09190611731565b908152604051908190036020019020546001600160a01b031692915050565b60008061120083856040518060400160405280600b81526020016a3a37b5b2b72437b63232b960a91b81525061153b565b60405161120d9190611731565b908152604051908190036020019020546001600160a01b0316905092915050565b60008061125e6000848660405180604001604052806008815260200167191a5d9a59195b9960c21b815250611581565b90506003816040516112709190611731565b90815260200160405180910390205491505092915050565b600060036112bd836040518060400160405280600f81526020016e6e756d546f6b656e486f6c6465727360881b81525061150f565b6040516112ca9190611731565b9081526020016040518091039020549050919050565b6000806040516112fe906773657474696e677360c01b815260080190565b90815260408051602092819003830181205463de28735960e01b825291516001600160a01b039092169263de28735992600480840193829003018186803b15801561134857600080fd5b505afa15801561135c573d6000803e3d6000fd5b505050506040513d601f19601f8201168201806040525081019061138091906117d3565b905090565b6000806040516113a3906773657474696e677360c01b815260080190565b908152604051908190036020019020546001600160a01b0316919050565b60006113d56113ce610c59565b8484610fd2565b9392505050565b6003611410826040518060400160405280601081526020016f1d1bdad95b94d85b1953d999995c925960821b81525061150f565b60405161141d9190611731565b9081526020016040518091039020546000146114795760405162461bcd60e51b8152602060048201526016602482015275746f6b656e2073616c6520696e2070726f677265737360501b60448201526064015b60405180910390fd5b50565b8060036114a8846040518060400160405280600781526020016662616c616e636560c81b81525061150f565b6040516114b59190611731565b908152602001604051809103902054101561150b5760405162461bcd60e51b81526020600482015260166024820152756578636565647320656e746974792062616c616e636560501b6044820152606401611470565b5050565b606082826040516020016115249291906117f0565b604051602081830303815290604052905092915050565b606083838360405160200161155293929190611823565b60405160208183030381529060405290509392505050565b60608383836040516020016115529392919061185d565b60608484848460405160200161159a949392919061189e565b6040516020818303038152906040529050949350505050565b606082826040516020016115249291906118e6565b6001600160a01b038116811461147957600080fd5b6000602082840312156115ef57600080fd5b81356113d5816115c8565b60005b838110156116155781810151838201526020016115fd565b8381111561116a5750506000910152565b60208152600082518060208401526116458160408501602087016115fa565b601f01601f19169190910160400192915050565b6000806040838503121561166c57600080fd5b8235611677816115c8565b946020939093013593505050565b60008060006060848603121561169a57600080fd5b8335925060208401356116ac816115c8565b929592945050506040919091013590565b6000602082840312156116cf57600080fd5b5035919050565b600080604083850312156116e957600080fd5b82356116f4816115c8565b91506020830135611704816115c8565b809150509250929050565b60006020828403121561172157600080fd5b815180151581146113d557600080fd5b600082516117438184602087016115fa565b9190910192915050565b634e487b7160e01b600052601160045260246000fd5b600081600019048311821515161561177d5761177d61174d565b500290565b60008261179f57634e487b7160e01b600052601260045260246000fd5b500490565b6000828210156117b6576117b661174d565b500390565b600082198211156117ce576117ce61174d565b500190565b6000602082840312156117e557600080fd5b81516113d5816115c8565b6001600160601b03198360601b168152600082516118158160148501602087016115fa565b919091016014019392505050565b8381526001600160601b03198360601b1660208201526000825161184e8160348501602087016115fa565b91909101603401949350505050565b60006001600160601b0319808660601b168352808560601b16601484015250825161188f8160288501602087016115fa565b91909101602801949350505050565b84815260006001600160601b0319808660601b166020840152808560601b1660348401525082516118d68160488501602087016115fa565b9190910160480195945050505050565b828152600082516118fe8160208501602087016115fa565b91909101602001939250505056fea264697066735822122095ab7726183a54b352c494b32bd2f341ed6bb5fb507db77373b0cc4c91468b7064736f6c63430008090033",
  "linkReferences": {},
  "deployedLinkReferences": {}
}