{
  "_format": "hh-sol-artifact-1",
  "contractName": "SimplePolicy",
  "sourceName": "contracts/SimplePolicy.sol",
  "abi": [
    {
      "inputs": [
        {
          "internalType": "bytes32",
          "name": "_id",
          "type": "bytes32"
        },
        {
          "internalType": "uint256",
          "name": "_number",
          "type": "uint256"
        },
        {
          "internalType": "address",
          "name": "_settings",
          "type": "address"
        },
        {
          "internalType": "address",
          "name": "_caller",
          "type": "address"
        },
        {
          "internalType": "uint256",
          "name": "_startDate",
          "type": "uint256"
        },
        {
          "internalType": "uint256",
          "name": "_maturationDate",
          "type": "uint256"
        },
        {
          "internalType": "address",
          "name": "_unit",
          "type": "address"
        },
        {
          "internalType": "uint256",
          "name": "_limit",
          "type": "uint256"
        },
        {
          "internalType": "address[]",
          "name": "_stakeholders",
          "type": "address[]"
        },
        {
          "internalType": "bytes[]",
          "name": "_approvalSignatures",
          "type": "bytes[]"
        }
      ],
      "stateMutability": "nonpayable",
      "type": "constructor"
    },
    {
      "anonymous": false,
      "inputs": [
        {
          "indexed": true,
          "internalType": "bytes32",
          "name": "id",
          "type": "bytes32"
        },
        {
          "indexed": true,
          "internalType": "address",
          "name": "simplePolicy",
          "type": "address"
        }
      ],
      "name": "NewSimplePolicy",
      "type": "event"
    },
    {
      "anonymous": false,
      "inputs": [
        {
          "indexed": false,
          "internalType": "bytes32",
          "name": "id",
          "type": "bytes32"
        },
        {
          "indexed": true,
          "internalType": "uint256",
          "name": "state",
          "type": "uint256"
        },
        {
          "indexed": true,
          "internalType": "address",
          "name": "caller",
          "type": "address"
        }
      ],
      "name": "SimplePolicyStateUpdated",
      "type": "event"
    },
    {
      "stateMutability": "payable",
      "type": "fallback"
    },
    {
      "inputs": [],
      "name": "CANNOT_ASSIGN",
      "outputs": [
        {
          "internalType": "uint256",
          "name": "",
          "type": "uint256"
        }
      ],
      "stateMutability": "view",
      "type": "function"
    },
    {
      "inputs": [],
      "name": "CANNOT_ASSIGN_USER_NOT_APPROVED",
      "outputs": [
        {
          "internalType": "uint256",
          "name": "",
          "type": "uint256"
        }
      ],
      "stateMutability": "view",
      "type": "function"
    },
    {
      "inputs": [],
      "name": "CAN_ASSIGN_HAS_ROLE",
      "outputs": [
        {
          "internalType": "uint256",
          "name": "",
          "type": "uint256"
        }
      ],
      "stateMutability": "view",
      "type": "function"
    },
    {
      "inputs": [],
      "name": "CAN_ASSIGN_IS_ADMIN",
      "outputs": [
        {
          "internalType": "uint256",
          "name": "",
          "type": "uint256"
        }
      ],
      "stateMutability": "view",
      "type": "function"
    },
    {
      "inputs": [],
      "name": "CAN_ASSIGN_IS_OWN_CONTEXT",
      "outputs": [
        {
          "internalType": "uint256",
          "name": "",
          "type": "uint256"
        }
      ],
      "stateMutability": "view",
      "type": "function"
    },
    {
      "inputs": [],
      "name": "DOES_NOT_HAVE_ROLE",
      "outputs": [
        {
          "internalType": "uint256",
          "name": "",
          "type": "uint256"
        }
      ],
      "stateMutability": "view",
      "type": "function"
    },
    {
      "inputs": [],
      "name": "HAS_ROLE_CONTEXT",
      "outputs": [
        {
          "internalType": "uint256",
          "name": "",
          "type": "uint256"
        }
      ],
      "stateMutability": "view",
      "type": "function"
    },
    {
      "inputs": [],
      "name": "HAS_ROLE_SYSTEM_CONTEXT",
      "outputs": [
        {
          "internalType": "uint256",
          "name": "",
          "type": "uint256"
        }
      ],
      "stateMutability": "view",
      "type": "function"
    },
    {
      "inputs": [],
      "name": "POLICY_STATE_ACTIVE",
      "outputs": [
        {
          "internalType": "uint256",
          "name": "",
          "type": "uint256"
        }
      ],
      "stateMutability": "view",
      "type": "function"
    },
    {
      "inputs": [],
      "name": "POLICY_STATE_CANCELLED",
      "outputs": [
        {
          "internalType": "uint256",
          "name": "",
          "type": "uint256"
        }
      ],
      "stateMutability": "view",
      "type": "function"
    },
    {
      "inputs": [],
      "name": "POLICY_STATE_CREATED",
      "outputs": [
        {
          "internalType": "uint256",
          "name": "",
          "type": "uint256"
        }
      ],
      "stateMutability": "view",
      "type": "function"
    },
    {
      "inputs": [],
      "name": "POLICY_STATE_MATURED",
      "outputs": [
        {
          "internalType": "uint256",
          "name": "",
          "type": "uint256"
        }
      ],
      "stateMutability": "view",
      "type": "function"
    },
    {
      "inputs": [],
      "name": "ROLEGROUP_APPROVED_USERS",
      "outputs": [
        {
          "internalType": "bytes32",
          "name": "",
          "type": "bytes32"
        }
      ],
      "stateMutability": "view",
      "type": "function"
    },
    {
      "inputs": [],
      "name": "ROLEGROUP_BROKERS",
      "outputs": [
        {
          "internalType": "bytes32",
          "name": "",
          "type": "bytes32"
        }
      ],
      "stateMutability": "view",
      "type": "function"
    },
    {
      "inputs": [],
      "name": "ROLEGROUP_CAPITAL_PROVIDERS",
      "outputs": [
        {
          "internalType": "bytes32",
          "name": "",
          "type": "bytes32"
        }
      ],
      "stateMutability": "view",
      "type": "function"
    },
    {
      "inputs": [],
      "name": "ROLEGROUP_CLAIMS_ADMINS",
      "outputs": [
        {
          "internalType": "bytes32",
          "name": "",
          "type": "bytes32"
        }
      ],
      "stateMutability": "view",
      "type": "function"
    },
    {
      "inputs": [],
      "name": "ROLEGROUP_ENTITY_ADMINS",
      "outputs": [
        {
          "internalType": "bytes32",
          "name": "",
          "type": "bytes32"
        }
      ],
      "stateMutability": "view",
      "type": "function"
    },
    {
      "inputs": [],
      "name": "ROLEGROUP_ENTITY_MANAGERS",
      "outputs": [
        {
          "internalType": "bytes32",
          "name": "",
          "type": "bytes32"
        }
      ],
      "stateMutability": "view",
      "type": "function"
    },
    {
      "inputs": [],
      "name": "ROLEGROUP_ENTITY_REPS",
      "outputs": [
        {
          "internalType": "bytes32",
          "name": "",
          "type": "bytes32"
        }
      ],
      "stateMutability": "view",
      "type": "function"
    },
    {
      "inputs": [],
      "name": "ROLEGROUP_INSURED_PARTYS",
      "outputs": [
        {
          "internalType": "bytes32",
          "name": "",
          "type": "bytes32"
        }
      ],
      "stateMutability": "view",
      "type": "function"
    },
    {
      "inputs": [],
      "name": "ROLEGROUP_POLICY_CREATORS",
      "outputs": [
        {
          "internalType": "bytes32",
          "name": "",
          "type": "bytes32"
        }
      ],
      "stateMutability": "view",
      "type": "function"
    },
    {
      "inputs": [],
      "name": "ROLEGROUP_POLICY_OWNERS",
      "outputs": [
        {
          "internalType": "bytes32",
          "name": "",
          "type": "bytes32"
        }
      ],
      "stateMutability": "view",
      "type": "function"
    },
    {
      "inputs": [],
      "name": "ROLEGROUP_SYSTEM_ADMINS",
      "outputs": [
        {
          "internalType": "bytes32",
          "name": "",
          "type": "bytes32"
        }
      ],
      "stateMutability": "view",
      "type": "function"
    },
    {
      "inputs": [],
      "name": "ROLEGROUP_SYSTEM_MANAGERS",
      "outputs": [
        {
          "internalType": "bytes32",
          "name": "",
          "type": "bytes32"
        }
      ],
      "stateMutability": "view",
      "type": "function"
    },
    {
      "inputs": [],
      "name": "ROLEGROUP_TRADERS",
      "outputs": [
        {
          "internalType": "bytes32",
          "name": "",
          "type": "bytes32"
        }
      ],
      "stateMutability": "view",
      "type": "function"
    },
    {
      "inputs": [],
      "name": "ROLEGROUP_UNDERWRITERS",
      "outputs": [
        {
          "internalType": "bytes32",
          "name": "",
          "type": "bytes32"
        }
      ],
      "stateMutability": "view",
      "type": "function"
    },
    {
      "inputs": [],
      "name": "ROLE_APPROVED_USER",
      "outputs": [
        {
          "internalType": "bytes32",
          "name": "",
          "type": "bytes32"
        }
      ],
      "stateMutability": "view",
      "type": "function"
    },
    {
      "inputs": [],
      "name": "ROLE_BROKER",
      "outputs": [
        {
          "internalType": "bytes32",
          "name": "",
          "type": "bytes32"
        }
      ],
      "stateMutability": "view",
      "type": "function"
    },
    {
      "inputs": [],
      "name": "ROLE_CAPITAL_PROVIDER",
      "outputs": [
        {
          "internalType": "bytes32",
          "name": "",
          "type": "bytes32"
        }
      ],
      "stateMutability": "view",
      "type": "function"
    },
    {
      "inputs": [],
      "name": "ROLE_CLAIMS_ADMIN",
      "outputs": [
        {
          "internalType": "bytes32",
          "name": "",
          "type": "bytes32"
        }
      ],
      "stateMutability": "view",
      "type": "function"
    },
    {
      "inputs": [],
      "name": "ROLE_ENTITY_ADMIN",
      "outputs": [
        {
          "internalType": "bytes32",
          "name": "",
          "type": "bytes32"
        }
      ],
      "stateMutability": "view",
      "type": "function"
    },
    {
      "inputs": [],
      "name": "ROLE_ENTITY_MANAGER",
      "outputs": [
        {
          "internalType": "bytes32",
          "name": "",
          "type": "bytes32"
        }
      ],
      "stateMutability": "view",
      "type": "function"
    },
    {
      "inputs": [],
      "name": "ROLE_ENTITY_REP",
      "outputs": [
        {
          "internalType": "bytes32",
          "name": "",
          "type": "bytes32"
        }
      ],
      "stateMutability": "view",
      "type": "function"
    },
    {
      "inputs": [],
      "name": "ROLE_INSURED_PARTY",
      "outputs": [
        {
          "internalType": "bytes32",
          "name": "",
          "type": "bytes32"
        }
      ],
      "stateMutability": "view",
      "type": "function"
    },
    {
      "inputs": [],
      "name": "ROLE_PENDING_BROKER",
      "outputs": [
        {
          "internalType": "bytes32",
          "name": "",
          "type": "bytes32"
        }
      ],
      "stateMutability": "view",
      "type": "function"
    },
    {
      "inputs": [],
      "name": "ROLE_PENDING_CLAIMS_ADMIN",
      "outputs": [
        {
          "internalType": "bytes32",
          "name": "",
          "type": "bytes32"
        }
      ],
      "stateMutability": "view",
      "type": "function"
    },
    {
      "inputs": [],
      "name": "ROLE_PENDING_INSURED_PARTY",
      "outputs": [
        {
          "internalType": "bytes32",
          "name": "",
          "type": "bytes32"
        }
      ],
      "stateMutability": "view",
      "type": "function"
    },
    {
      "inputs": [],
      "name": "ROLE_PENDING_UNDERWRITER",
      "outputs": [
        {
          "internalType": "bytes32",
          "name": "",
          "type": "bytes32"
        }
      ],
      "stateMutability": "view",
      "type": "function"
    },
    {
      "inputs": [],
      "name": "ROLE_POLICY_CREATOR",
      "outputs": [
        {
          "internalType": "bytes32",
          "name": "",
          "type": "bytes32"
        }
      ],
      "stateMutability": "view",
      "type": "function"
    },
    {
      "inputs": [],
      "name": "ROLE_POLICY_OWNER",
      "outputs": [
        {
          "internalType": "bytes32",
          "name": "",
          "type": "bytes32"
        }
      ],
      "stateMutability": "view",
      "type": "function"
    },
    {
      "inputs": [],
      "name": "ROLE_SYSTEM_ADMIN",
      "outputs": [
        {
          "internalType": "bytes32",
          "name": "",
          "type": "bytes32"
        }
      ],
      "stateMutability": "view",
      "type": "function"
    },
    {
      "inputs": [],
      "name": "ROLE_SYSTEM_MANAGER",
      "outputs": [
        {
          "internalType": "bytes32",
          "name": "",
          "type": "bytes32"
        }
      ],
      "stateMutability": "view",
      "type": "function"
    },
    {
      "inputs": [],
      "name": "ROLE_UNDERWRITER",
      "outputs": [
        {
          "internalType": "bytes32",
          "name": "",
          "type": "bytes32"
        }
      ],
      "stateMutability": "view",
      "type": "function"
    },
    {
      "inputs": [],
      "name": "SETTING_ENTITY_DELEGATE",
      "outputs": [
        {
          "internalType": "bytes32",
          "name": "",
          "type": "bytes32"
        }
      ],
      "stateMutability": "view",
      "type": "function"
    },
    {
      "inputs": [],
      "name": "SETTING_ENTITY_DEPLOYER",
      "outputs": [
        {
          "internalType": "bytes32",
          "name": "",
          "type": "bytes32"
        }
      ],
      "stateMutability": "view",
      "type": "function"
    },
    {
      "inputs": [],
      "name": "SETTING_ENTITY_IMPL",
      "outputs": [
        {
          "internalType": "bytes32",
          "name": "",
          "type": "bytes32"
        }
      ],
      "stateMutability": "view",
      "type": "function"
    },
    {
      "inputs": [],
      "name": "SETTING_ETHER_TOKEN",
      "outputs": [
        {
          "internalType": "bytes32",
          "name": "",
          "type": "bytes32"
        }
      ],
      "stateMutability": "view",
      "type": "function"
    },
    {
      "inputs": [],
      "name": "SETTING_FEEBANK",
      "outputs": [
        {
          "internalType": "bytes32",
          "name": "",
          "type": "bytes32"
        }
      ],
      "stateMutability": "view",
      "type": "function"
    },
    {
      "inputs": [],
      "name": "SETTING_FEEBANK_IMPL",
      "outputs": [
        {
          "internalType": "bytes32",
          "name": "",
          "type": "bytes32"
        }
      ],
      "stateMutability": "view",
      "type": "function"
    },
    {
      "inputs": [],
      "name": "SETTING_MARKET",
      "outputs": [
        {
          "internalType": "bytes32",
          "name": "",
          "type": "bytes32"
        }
      ],
      "stateMutability": "view",
      "type": "function"
    },
    {
      "inputs": [],
      "name": "SETTING_MARKET_IMPL",
      "outputs": [
        {
          "internalType": "bytes32",
          "name": "",
          "type": "bytes32"
        }
      ],
      "stateMutability": "view",
      "type": "function"
    },
    {
      "inputs": [],
      "name": "SETTING_POLICY_DELEGATE",
      "outputs": [
        {
          "internalType": "bytes32",
          "name": "",
          "type": "bytes32"
        }
      ],
      "stateMutability": "view",
      "type": "function"
    },
    {
      "inputs": [],
      "name": "SETTING_POLICY_IMPL",
      "outputs": [
        {
          "internalType": "bytes32",
          "name": "",
          "type": "bytes32"
        }
      ],
      "stateMutability": "view",
      "type": "function"
    },
    {
      "inputs": [],
      "name": "acl",
      "outputs": [
        {
          "internalType": "contract IACL",
          "name": "",
          "type": "address"
        }
      ],
      "stateMutability": "view",
      "type": "function"
    },
    {
      "inputs": [],
      "name": "aclContext",
      "outputs": [
        {
          "internalType": "bytes32",
          "name": "",
          "type": "bytes32"
        }
      ],
      "stateMutability": "view",
      "type": "function"
    },
    {
      "inputs": [],
      "name": "checkAndUpdateState",
      "outputs": [
        {
          "internalType": "bool",
          "name": "reduceTotalLimit_",
          "type": "bool"
        }
      ],
      "stateMutability": "nonpayable",
      "type": "function"
    },
    {
      "inputs": [],
      "name": "getDelegateAddress",
      "outputs": [
        {
          "internalType": "address",
          "name": "",
          "type": "address"
        }
      ],
      "stateMutability": "view",
      "type": "function"
    },
    {
      "inputs": [],
      "name": "getSimplePolicyInfo",
      "outputs": [
        {
          "internalType": "bytes32",
          "name": "id_",
          "type": "bytes32"
        },
        {
          "internalType": "uint256",
          "name": "number_",
          "type": "uint256"
        },
        {
          "internalType": "uint256",
          "name": "startDate_",
          "type": "uint256"
        },
        {
          "internalType": "uint256",
          "name": "maturationDate_",
          "type": "uint256"
        },
        {
          "internalType": "address",
          "name": "unit_",
          "type": "address"
        },
        {
          "internalType": "uint256",
          "name": "limit_",
          "type": "uint256"
        },
        {
          "internalType": "uint256",
          "name": "state_",
          "type": "uint256"
        }
      ],
      "stateMutability": "view",
      "type": "function"
    },
    {
      "inputs": [
        {
          "internalType": "address",
          "name": "_addr",
          "type": "address"
        },
        {
          "internalType": "bytes32",
          "name": "_roleGroup",
          "type": "bytes32"
        }
      ],
      "name": "inRoleGroup",
      "outputs": [
        {
          "internalType": "bool",
          "name": "",
          "type": "bool"
        }
      ],
      "stateMutability": "view",
      "type": "function"
    },
    {
      "inputs": [
        {
          "internalType": "bytes32",
          "name": "_ctx",
          "type": "bytes32"
        },
        {
          "internalType": "address",
          "name": "_addr",
          "type": "address"
        },
        {
          "internalType": "bytes32",
          "name": "_roleGroup",
          "type": "bytes32"
        }
      ],
      "name": "inRoleGroupWithContext",
      "outputs": [
        {
          "internalType": "bool",
          "name": "",
          "type": "bool"
        }
      ],
      "stateMutability": "view",
      "type": "function"
    },
    {
      "inputs": [
        {
          "internalType": "address",
          "name": "_addr",
          "type": "address"
        }
      ],
      "name": "isAdmin",
      "outputs": [
        {
          "internalType": "bool",
          "name": "",
          "type": "bool"
        }
      ],
      "stateMutability": "view",
      "type": "function"
    },
    {
      "inputs": [
        {
          "internalType": "address[]",
          "name": "_facets",
          "type": "address[]"
        }
      ],
      "name": "registerFacets",
      "outputs": [],
      "stateMutability": "nonpayable",
      "type": "function"
    },
    {
      "inputs": [
        {
          "internalType": "bytes4",
          "name": "_sig",
          "type": "bytes4"
        }
      ],
      "name": "resolveFacet",
      "outputs": [
        {
          "internalType": "address",
          "name": "",
          "type": "address"
        }
      ],
      "stateMutability": "view",
      "type": "function"
    },
    {
      "inputs": [],
      "name": "settings",
      "outputs": [
        {
          "internalType": "contract ISettings",
          "name": "",
          "type": "address"
        }
      ],
      "stateMutability": "view",
      "type": "function"
    },
    {
      "stateMutability": "payable",
      "type": "receive"
    }
  ],
  "bytecode": "0x60806040523480156200001157600080fd5b506040516200377d3803806200377d83398101604081905262000034916200107d565b87808180600060405162000056906773657474696e677360c01b815260080190565b90815260405190819003602001902080546001600160a01b03929092166001600160a01b03199092169190911790556200008f62000911565b60405163a1e31a6560e01b81523060048201526001600160a01b03919091169063a1e31a659060240160206040518083038186803b158015620000d157600080fd5b505afa158015620000e6573d6000803e3d6000fd5b505050506040513d601f19601f820116820180604052508101906200010c919062001152565b604051691858db10dbdb9d195e1d60b21b8152600190600a01908152604051908190036020018120919091556773657474696e677360c01b815282915060009060080190815260405190819003602001812080546001600160a01b03939093166001600160a01b031990931692909217909155600092506200018f915062000e41565b604051809103906000f080158015620001ac573d6000803e3d6000fd5b509050806000604051620001d3906c3234b0b6b7b73221baba3a32b960991b8152600d0190565b90815260405190819003602001902080546001600160a01b03929092166001600160a01b03199092169190911790555082620002465760405162461bcd60e51b815260206004820152600d60248201526c06c696d6974206e6f74203e203609c1b60448201526064015b60405180910390fd5b8960016040516200025f90611a5960f21b815260020190565b908152604080519182900360200182209290925565373ab6b132b960d11b815260036006820181905282519182900360260182208c90556873746172744461746560b81b82526009820181905282519182900360290182208990556d6d617475726174696f6e4461746560901b8252600e8201819052825191829003602e018220889055631d5b9a5d60e21b825260006004808401829052845193849003602401842080546001600160a01b038b166001600160a01b0319909116179055641b1a5b5a5d60da1b84526005808501849052855194859003602590810186208a905564737461746560d81b86529085019390935293519283900390910190912055825183919081106200037557620003756200116c565b602002602001015160006040516200039b9067747265617375727960c01b815260080190565b90815260405190819003602001902080546001600160a01b03929092166001600160a01b0319909216919091179055620003d462000911565b6001600160a01b0316634091c6b2620003ec620009bb565b60405160e083901b6001600160e01b031916815260048101919091526001600160a01b038a1660248201527f7f7cc8b2bac31c0e372310212be653d159f17ff3c41938a81446553db842afb66044820152606401600060405180830381600087803b1580156200045b57600080fd5b505af115801562000470573d6000803e3d6000fd5b50505050620004846200091160201b60201c565b6001600160a01b0316634091c6b26200049c620009bb565b84600081518110620004b257620004b26200116c565b60209081029190910101516040516001600160e01b031960e085901b16815260048101929092526001600160a01b031660248201526000805160206200375d8339815191526044820152606401600060405180830381600087803b1580156200051a57600080fd5b505af11580156200052f573d6000803e3d6000fd5b50505050620005436200091160201b60201c565b6001600160a01b0316634091c6b26200055b620009bb565b846001815181106200057157620005716200116c565b60209081029190910101516040516001600160e01b031960e085901b16815260048101929092526001600160a01b031660248201527f8858a0dfcbfa158449ee0a3b5dae898cecc0746569152b05bbab9526bcc168646044820152606401600060405180830381600087803b158015620005ea57600080fd5b505af1158015620005ff573d6000803e3d6000fd5b50505050620006136200091160201b60201c565b6001600160a01b0316634091c6b26200062b620009bb565b846002815181106200064157620006416200116c565b60209081029190910101516040516001600160e01b031960e085901b16815260048101929092526001600160a01b031660248201527f391db9b692991836c38aedfd24d7f4c9837739d4ee0664fe4ee6892a51e025a76044820152606401600060405180830381600087803b158015620006ba57600080fd5b505af1158015620006cf573d6000803e3d6000fd5b50505050620006e36200091160201b60201c565b6001600160a01b0316634091c6b2620006fb620009bb565b846003815181106200071157620007116200116c565b60209081029190910101516040516001600160e01b031960e085901b16815260048101929092526001600160a01b031660248201527f737de6bdef2e959d9f968f058e3e78b7365d4eda8e4023ecac2d51e3dbfb14016044820152606401600060405180830381600087803b1580156200078a57600080fd5b505af11580156200079f573d6000803e3d6000fd5b50505050600080620007f38985600081518110620007c157620007c16200116c565b602002602001015186600181518110620007df57620007df6200116c565b6020026020010151620009f160201b60201c565b90925090508180620008025750805b620008505760405162461bcd60e51b815260206004820152601d60248201527f6d7573742062652062726f6b6572206f7220756e64657277726974657200000060448201526064016200023d565b81600460405162000884907f756e646572777269746572417070726f76656400000000000000000000000000815260130190565b90815260408051918290036020018220805493151560ff199485161790556d189c9bdad95c905c1c1c9bdd995960921b82526004600e8301525190819003602e018120805484151593169290921790915530908d907f071777cb31d20febd89cff75592a8e607422492749c3cd3568f2e8601738b1a390600090a3505050505050505050505050620011cd565b60008060405162000930906773657474696e677360c01b815260080190565b90815260408051602092819003830181205463de28735960e01b825291516001600160a01b039092169263de28735992600480840193829003018186803b1580156200097b57600080fd5b505afa15801562000990573d6000803e3d6000fd5b505050506040513d601f19601f82011682018060405250810190620009b6919062001182565b905090565b60006001604051620009dd90691858db10dbdb9d195e1d60b21b8152600a0190565b908152602001604051809103902054905090565b60008080620009ff62000911565b6040516319643a6760e21b8152600060048201526001600160a01b039190911690636590e99c9060240160206040518083038186803b15801562000a4257600080fd5b505afa15801562000a57573d6000803e3d6000fd5b505050506040513d601f19601f8201168201806040525081019062000a7d919062001152565b90506000856001600160a01b031663423d20f36040518163ffffffff1660e01b815260040160206040518083038186803b15801562000abb57600080fd5b505afa15801562000ad0573d6000803e3d6000fd5b505050506040513d601f19601f8201168201806040525081019062000af6919062001152565b90506000856001600160a01b031663423d20f36040518163ffffffff1660e01b815260040160206040518083038186803b15801562000b3457600080fd5b505afa15801562000b49573d6000803e3d6000fd5b505050506040513d601f19601f8201168201806040525081019062000b6f919062001152565b9050600062000b7d62000911565b6040516349fdb87160e01b8152600481018690526001600160a01b0389811660248301527f18ecf8d2173ca8a5766fd7dde3bdb54017dc5413dc07cd6ba1785b63e9c62b82604483015291909116906349fdb8719060640160206040518083038186803b15801562000bee57600080fd5b505afa15801562000c03573d6000803e3d6000fd5b505050506040513d601f19601f8201168201806040525081019062000c299190620011a9565b905080801562000cd9575062000c3e62000911565b6040516349fdb87160e01b8152600481018490526001600160a01b038b811660248301526000805160206200373d833981519152604483015291909116906349fdb8719060640160206040518083038186803b15801562000c9e57600080fd5b505afa15801562000cb3573d6000803e3d6000fd5b505050506040513d601f19601f8201168201806040525081019062000cd99190620011a9565b9550600062000ce762000911565b6040516349fdb87160e01b8152600481018790526001600160a01b038b811660248301526000805160206200375d833981519152604483015291909116906349fdb8719060640160206040518083038186803b15801562000d4757600080fd5b505afa15801562000d5c573d6000803e3d6000fd5b505050506040513d601f19601f8201168201806040525081019062000d829190620011a9565b905080801562000e32575062000d9762000911565b6040516349fdb87160e01b8152600481018690526001600160a01b038c811660248301526000805160206200373d833981519152604483015291909116906349fdb8719060640160206040518083038186803b15801562000df757600080fd5b505afa15801562000e0c573d6000803e3d6000fd5b505050506040513d601f19601f8201168201806040525081019062000e329190620011a9565b95505050505050935093915050565b6109bf8062002d7e83390190565b6001600160a01b038116811462000e6557600080fd5b50565b805162000e758162000e4f565b919050565b634e487b7160e01b600052604160045260246000fd5b604051601f8201601f191681016001600160401b038111828210171562000ebb5762000ebb62000e7a565b604052919050565b60006001600160401b0382111562000edf5762000edf62000e7a565b5060051b60200190565b600082601f83011262000efb57600080fd5b8151602062000f1462000f0e8362000ec3565b62000e90565b82815260059290921b8401810191818101908684111562000f3457600080fd5b8286015b8481101562000f5c57805162000f4e8162000e4f565b835291830191830162000f38565b509695505050505050565b6000601f838184011262000f7a57600080fd5b8251602062000f8d62000f0e8362000ec3565b82815260059290921b8501810191818101908784111562000fad57600080fd5b8287015b84811015620010715780516001600160401b038082111562000fd35760008081fd5b818a0191508a603f83011262000fe95760008081fd5b858201518181111562001000576200100062000e7a565b62001013818a01601f1916880162000e90565b915080825260408c818386010111156200102d5760008081fd5b60005b828110156200104d578481018201518482018a0152880162001030565b828111156200105f5760008984860101525b50505084525091830191830162000fb1565b50979650505050505050565b6000806000806000806000806000806101408b8d0312156200109e57600080fd5b8a51995060208b01519850620010b760408c0162000e68565b9750620010c760608c0162000e68565b965060808b0151955060a08b01519450620010e560c08c0162000e68565b60e08c01516101008d015191955093506001600160401b03808211156200110b57600080fd5b620011198e838f0162000ee9565b93506101208d01519150808211156200113157600080fd5b50620011408d828e0162000f67565b9150509295989b9194979a5092959850565b6000602082840312156200116557600080fd5b5051919050565b634e487b7160e01b600052603260045260246000fd5b6000602082840312156200119557600080fd5b8151620011a28162000e4f565b9392505050565b600060208284031215620011bc57600080fd5b81518015158114620011a257600080fd5b611ba180620011dd6000396000f3fe6080604052600436106103c75760003560e01c8063767974b5116101f2578063b773e1711161010d578063def26bce116100a0578063e5bb5d071161006f578063e5bb5d0714610e08578063eebb74e014610e3c578063fa4a215c14610e70578063fbc0276414610ea4576103ce565b8063def26bce14610d57578063e06174e414610d8b578063e0892bad14610da0578063e3097dc214610dd4576103ce565b8063db974500116100dc578063db97450014610b4e578063de28735914610d0e578063de764acf14610b4e578063de841bac14610d23576103ce565b8063b773e17114610c91578063c820fa75146107c0578063cf45439114610ca6578063db691b1414610cda576103ce565b8063a01dac1311610185578063a87c785f11610154578063a87c785f14610be0578063b32ef75614610c14578063b3f438aa14610c48578063b46b88fe14610c5d576103ce565b8063a01dac1314610b4e578063a100ce4f14610b63578063a32fc16214610b78578063a3cf5fdf14610bac576103ce565b80639424cf5e116101c15780639424cf5e14610a7e5780639479ab2a14610ab25780639ae5f37814610ae65780639f6e37a714610b1a576103ce565b8063767974b5146109f65780638398389a14610a2a578063877d172314610459578063899a0ec714610a5e576103ce565b806339f973b4116102e2578063551e385a116102755780635dddee31116102445780635dddee31146109225780636cc30a111461095657806372bef9c61461098e578063741cb7d6146109c2576103ce565b8063551e385a1461088657806355d48c07146108ba57806359dab758146104815780635db79855146108ee576103ce565b8063423d20f3116102b1578063423d20f3146107d5578063468740a8146107ea57806347bf603d1461081e5780634b7d215e14610852576103ce565b806339f973b4146104815780633e107d4a146107585780633f42ffef1461078c57806341bb4897146107c0576103ce565b806324d7806c1161035a5780632a8873ef116103295780632a8873ef146106695780632b521d471461069d57806330daa8a0146106d15780633407d3cb14610724576103ce565b806324d7806c1461059d57806324e076a2146105cd57806326f8853514610601578063297a012a14610635576103ce565b8063161075521161039657806316107552146104fe5780631adcdac6146105135780631b8ddadb146105475780631f9b287414610569576103ce565b806301750873146104595780630a079b2c146104815780630e0fc352146104965780631205d133146104ca576103ce565b366103ce57005b60006103e56000356001600160e01b031916610ec4565b90506001600160a01b0381166104345760405162461bcd60e51b815260206004820152600f60248201526e119858d95d081b9bdd08199bdd5b99608a1b60448201526064015b60405180910390fd5b60405136600082376000803683855af43d806000843e818015610455578184f35b8184fd5b34801561046557600080fd5b5061046e600181565b6040519081526020015b60405180910390f35b34801561048d57600080fd5b5061046e600281565b3480156104a257600080fd5b5061046e7f063693c9545b949ff498535f9e0aa95ada8e88c062d28e2f219b896e151e126681565b3480156104d657600080fd5b5061046e7f098afcb3a137a2ba8835fbf7daecb275af5afb3479f12844d5b7bfb8134e7ced81565b34801561050a57600080fd5b5061046e600481565b34801561051f57600080fd5b5061046e7f8858a0dfcbfa158449ee0a3b5dae898cecc0746569152b05bbab9526bcc1686481565b34801561055357600080fd5b50610567610562366004611801565b610f75565b005b34801561057557600080fd5b5061046e7f5c6c7d4897f0ae38084370e7a61ea386e95c7f54629c0b793a0ac47751f1240581565b3480156105a957600080fd5b506105bd6105b83660046118b3565b610fd0565b6040519015158152602001610478565b3480156105d957600080fd5b5061046e7f18ecf8d2173ca8a5766fd7dde3bdb54017dc5413dc07cd6ba1785b63e9c62b8281565b34801561060d57600080fd5b5061046e7f5c7c2bcb0d2dfef15c423063aae2051d462fcd269b5e9b8c1733b3211e17bc8a81565b34801561064157600080fd5b5061046e7f6a4d660b9f1720511be22f039683db86d0d0d207c2ad9255325630800d4fb53981565b34801561067557600080fd5b5061046e7f325a96ceff51ae6b22de25dd7b4c8b9532dddf936add8ef16fc99219ff666a8481565b3480156106a957600080fd5b5061046e7fcca1ad0e9fb374bbb9dc3d0cbfd073ef01bd1d01d5a35bd0a93403fbee64318d81565b3480156106dd57600080fd5b506106e6611055565b6040805197885260208801969096529486019390935260608501919091526001600160a01b0316608084015260a083015260c082015260e001610478565b34801561073057600080fd5b5061046e7f2623111b4a77e415ab5147aeb27da976c7a27950b6ec4022b4b9e7717626699281565b34801561076457600080fd5b5061046e7f6f244974cc67342b1bd623d411fd8100ec9eddbac05348e71d1a9296de6264a581565b34801561079857600080fd5b5061046e7f1bf52521006d8a3718b0692b7f32c8ee781bfed9e9215eb5b8fc3b34749fb5b581565b3480156107cc57600080fd5b5061046e600381565b3480156107e157600080fd5b5061046e611180565b3480156107f657600080fd5b5061046e7f65d0db34d07de31cfb8ca9f95dabc0463ce6084a447abb757f682f36ae3682e381565b34801561082a57600080fd5b5061046e7f052b977cd6067e43b9140f08c53a22b88418f4d3ab7bd811716130d5a20cd8a381565b34801561085e57600080fd5b5061046e7f9574e138325b5c365da8d5cc75cf22323ed6f3ce52fac5621225020a162a4c6181565b34801561089257600080fd5b5061046e7fc72bfe3e0f1799ce0d90c4c72cf8f07d0cfa8121d51cb05d8c827f0896d8c0b681565b3480156108c657600080fd5b5061046e7f807c518efb8285611b15c88a7701e4f40a0e9a38ce3e59946e587a8932410af881565b3480156108fa57600080fd5b5061046e7f428fa9969c6b3fab7bbdac20b73706f1f670a386be0a76d4060c185898b2aa2281565b34801561092e57600080fd5b5061046e7f8d632412946eb879ebe5af90230c7db3f6d17c94c0ecea207c97e15fa9bb77c581565b34801561096257600080fd5b506109766109713660046118d0565b610ec4565b6040516001600160a01b039091168152602001610478565b34801561099a57600080fd5b5061046e7f2db57b52c5f263c359ba92194f5590b4a7f5fc1f1ca02f10cea531182851fe2881565b3480156109ce57600080fd5b5061046e7f0922a3d5a8713fcf92ec8607b882fd2fcfefd8552a3c38c726d96fcde8b1d05381565b348015610a0257600080fd5b5061046e7f9c259f9342405d034b902fd5e1bba083f008e305ea4eb6a0dce9ac9a6256b63a81565b348015610a3657600080fd5b5061046e7fdd53f360aa973c3daf7ff269398ced1ce7713d025c750c443c2abbcd89438f8381565b348015610a6a57600080fd5b506105bd610a793660046118fa565b6111b5565b348015610a8a57600080fd5b5061046e7fcfd13d23f7313d54f3a6d98c505045c58749561dd04531f9f2422a8818f0c5f881565b348015610abe57600080fd5b5061046e7fa33a59233069411012cc12aa76a8a426fe6bd113968b520118fdc9cb6f49ae3081565b348015610af257600080fd5b5061046e7fab789755f97e00f29522efbee9df811265010c87cf80f8fd7d5fc5cb8a84795681565b348015610b2657600080fd5b5061046e7f3bd41a6d84c7de1e9d18694bd113405090439b9e32d5ab69d575821d513d83b581565b348015610b5a57600080fd5b5061046e600081565b348015610b6f57600080fd5b506105bd611250565b348015610b8457600080fd5b5061046e7f7c23ac65f971ee875d4a6408607fabcb777f38cf73b3d6d891648646cee81f0581565b348015610bb857600080fd5b5061046e7fd708193a9c8f5fbde4d1c80a1e6f79b5f38a27f85ca86eccac69e5a899120ead81565b348015610bec57600080fd5b5061046e7f9f4d1dc1107c7d9d9f533f41b5aa5dbbb3b830e3b597338a8aee228ab083eb3a81565b348015610c2057600080fd5b5061046e7f391db9b692991836c38aedfd24d7f4c9837739d4ee0664fe4ee6892a51e025a781565b348015610c5457600080fd5b5061046e606481565b348015610c6957600080fd5b5061046e7f0e8925aa0bfe65f831f6c9099dd95b0614eb69312630ef3497bee453d9ed40a981565b348015610c9d57600080fd5b506109766113f2565b348015610cb257600080fd5b5061046e7fad56f8a5432d383c3e2c11b7b248f889e6ec544090486b3623f0f4ae1fad763b81565b348015610ce657600080fd5b5061046e7f1d60d7146dec74c1b1a9dc17243aaa3b56533f607c16a718bcd78d8d852d6e5281565b348015610d1a57600080fd5b5061097661142e565b348015610d2f57600080fd5b5061046e7f7f7cc8b2bac31c0e372310212be653d159f17ff3c41938a81446553db842afb681565b348015610d6357600080fd5b5061046e7f610cf17b5a943fc722922fc6750fb40254c24c6b0efd32554aa7c03b4ca98e9c81565b348015610d9757600080fd5b506109766114d3565b348015610dac57600080fd5b5061046e7f737de6bdef2e959d9f968f058e3e78b7365d4eda8e4023ecac2d51e3dbfb140181565b348015610de057600080fd5b5061046e7fa449044fc5332c1625929b3afecb2f821955279285b4a8406a6ffa8968c1b7cf81565b348015610e1457600080fd5b5061046e7f9c687089ee5ebd0bc2ba9c954ebc7a0304b4046890b9064e5742c8c6c7afeab281565b348015610e4857600080fd5b5061046e7f251766d8c7c7a6b927647b0f20c99f490db1c283eb0c482446085aaaa44b5e7381565b348015610e7c57600080fd5b5061046e7fc59d706f362a04b6cf4757dd3df6eb5babc7c26ab5dcc7c9c43b142f25da10a581565b348015610eb057600080fd5b506105bd610ebf366004611932565b6114f1565b600080604051610ee2906764656c656761746560c01b815260080190565b90815260405190819003602001812054636cc30a1160e01b82526001600160e01b0319841660048301526001600160a01b031690636cc30a119060240160206040518083038186803b158015610f3757600080fd5b505afa158015610f4b573d6000803e3d6000fd5b505050506040513d601f19601f82011682018060405250810190610f6f919061195e565b92915050565b333014610fc45760405162461bcd60e51b815260206004820152601b60248201527f65787465726e616c2063616c6c6572206e6f7420616c6c6f7765640000000000604482015260640161042b565b610fcd8161150c565b50565b6000610fda61142e565b604051630935e01b60e21b81526001600160a01b03848116600483015291909116906324d7806c9060240160206040518083038186803b15801561101d57600080fd5b505afa158015611031573d6000803e3d6000fd5b505050506040513d601f19601f82011682018060405250810190610f6f919061197b565b6000806000806000806000600160405161107790611a5960f21b815260020190565b9081526040519081900360200181205465373ab6b132b960d11b82529750600390600601908152604051908190036020018120546873746172744461746560b81b82529650600390600901908152604051908190036020018120546d6d617475726174696f6e4461746560901b82529550600390600e0190815260405190819003602001812054631d5b9a5d60e21b82529450600090600401908152604051908190036020018120546001600160a01b0316935060039061114390641b1a5b5a5d60da1b815260050190565b9081526040519081900360200181205464737461746560d81b82529250600390600501908152602001604051809103902054905090919293949596565b600060016040516111a190691858db10dbdb9d195e1d60b21b8152600a0190565b908152602001604051809103902054905090565b60006111bf61142e565b6040516349fdb87160e01b8152600481018690526001600160a01b0385811660248301526044820185905291909116906349fdb8719060640160206040518083038186803b15801561121057600080fd5b505afa158015611224573d6000803e3d6000fd5b505050506040513d601f19601f82011682018060405250810190611248919061197b565b949350505050565b600080600160405161126a90611a5960f21b815260020190565b9081526040519081900360200181205464737461746560d81b82529150600090600390600501908152604051908190036020018120546d6d617475726174696f6e4461746560901b8252600094509150600390600e0190815260200160405180910390205442101580156112de5750600381105b1561134e576003806040516112fe9064737461746560d81b815260050190565b90815260405160209181900382018120929092558382526001945033916003917f024a436441df42abc89ecd05d75954cc45da2965bd33b7d9d6e6eed0508b56df910160405180910390a3505090565b6040516873746172744461746560b81b815260039060090190815260200160405180910390205442101580156113845750600281105b156113ed57600260036040516113a59064737461746560d81b815260050190565b908152604051602091819003820181209290925583825233916002917f024a436441df42abc89ecd05d75954cc45da2965bd33b7d9d6e6eed0508b56df910160405180910390a35b505090565b600080604051611410906764656c656761746560c01b815260080190565b908152604051908190036020019020546001600160a01b0316919050565b60008060405161144c906773657474696e677360c01b815260080190565b90815260408051602092819003830181205463de28735960e01b825291516001600160a01b039092169263de28735992600480840193829003018186803b15801561149657600080fd5b505afa1580156114aa573d6000803e3d6000fd5b505050506040513d601f19601f820116820180604052508101906114ce919061195e565b905090565b600080604051611410906773657474696e677360c01b815260080190565b60006115056114fe611180565b84846111b5565b9392505050565b6000815167ffffffffffffffff811115611528576115286117a5565b60405190808252806020026020018201604052801561155b57816020015b60608152602001906001900390816115465790505b50905060005b825181101561166f57600083828151811061157e5761157e61199d565b602002602001015190506000816001600160a01b0316634b503f0b6040518163ffffffff1660e01b815260040160006040518083038186803b1580156115c357600080fd5b505afa1580156115d7573d6000803e3d6000fd5b505050506040513d6000823e601f3d908101601f191682016040526115ff91908101906119e3565b90508483815181106116135761161361199d565b60200260200101518160405160200161162d929190611a77565b60405160208183030381529060405284848151811061164e5761164e61199d565b602002602001018190525050506001816116689190611aaf565b9050611561565b506116798161167d565b5050565b60006399f5f52e60e01b826040516024016116989190611ad5565b60408051601f198184030181529181526020820180516001600160e01b03166001600160e01b03199094169390931790925290516c3234b0b6b7b73221baba3a32b960991b81529091506000908190600d01908152604051908190036020018120546001600160a01b03169061170f908490611b4f565b600060405180830381855af49150503d806000811461174a576040519150601f19603f3d011682016040523d82523d6000602084013e61174f565b606091505b50509050806117a05760405162461bcd60e51b815260206004820152601860248201527f416464696e672066756e6374696f6e73206661696c65642e0000000000000000604482015260640161042b565b505050565b634e487b7160e01b600052604160045260246000fd5b604051601f8201601f1916810167ffffffffffffffff811182821017156117e4576117e46117a5565b604052919050565b6001600160a01b0381168114610fcd57600080fd5b6000602080838503121561181457600080fd5b823567ffffffffffffffff8082111561182c57600080fd5b818501915085601f83011261184057600080fd5b813581811115611852576118526117a5565b8060051b91506118638483016117bb565b818152918301840191848101908884111561187d57600080fd5b938501935b838510156118a75784359250611897836117ec565b8282529385019390850190611882565b98975050505050505050565b6000602082840312156118c557600080fd5b8135611505816117ec565b6000602082840312156118e257600080fd5b81356001600160e01b03198116811461150557600080fd5b60008060006060848603121561190f57600080fd5b833592506020840135611921816117ec565b929592945050506040919091013590565b6000806040838503121561194557600080fd5b8235611950816117ec565b946020939093013593505050565b60006020828403121561197057600080fd5b8151611505816117ec565b60006020828403121561198d57600080fd5b8151801515811461150557600080fd5b634e487b7160e01b600052603260045260246000fd5b60005b838110156119ce5781810151838201526020016119b6565b838111156119dd576000848401525b50505050565b6000602082840312156119f557600080fd5b815167ffffffffffffffff80821115611a0d57600080fd5b818401915084601f830112611a2157600080fd5b815181811115611a3357611a336117a5565b611a46601f8201601f19166020016117bb565b9150808252856020828501011115611a5d57600080fd5b611a6e8160208401602086016119b3565b50949350505050565b6bffffffffffffffffffffffff198360601b16815260008251611aa18160148501602087016119b3565b919091016014019392505050565b60008219821115611ad057634e487b7160e01b600052601160045260246000fd5b500190565b6000602080830181845280855180835260408601915060408160051b870101925083870160005b82811015611b4257878503603f1901845281518051808752611b23818989018a85016119b3565b601f01601f191695909501860194509285019290850190600101611afc565b5092979650505050505050565b60008251611b618184602087016119b3565b919091019291505056fea2646970667358221220178ac52dd99783a266963f2316a0b702ac8c4d476cf23aaa4c8bf414b2e8e14b64736f6c63430008090033608060405234801561001057600080fd5b5061099f806100206000396000f3fe608060405234801561001057600080fd5b506004361061002b5760003560e01c806399f5f52e14610030575b600080fd5b61004361003e3660046106e7565b610045565b005b6040805160c08101825260006020820181905291810182905260608101829052608080820183905260a08201929092527fc8fcad8db84d3cc18b4c41d551ea0ee66dd599cde068d998e57d5e09332c131e548082527fc8fcad8db84d3cc18b4c41d551ea0ee66dd599cde068d998e57d5e09332c131c926fffffffffffffffffffffffffffffffff821691901c80156100f1576000828152600185016020908152604090912054908401525b60005b855181101561062557600086828151811061011157610111610800565b6020026020010151905060148151116101715760405162461bcd60e51b815260206004820152601f60248201527f4d697373696e67206661636574206f722073656c6563746f7220696e666f2e0060448201526064015b60405180910390fd5b602081015181516001600160601b03198216906000906004906101969060149061082c565b6101a09190610843565b90506034821561035c5760005b8281101561035657858201516101c4600484610865565b6001600160e01b03198216600090815260208e90526040902054909350806102b7576001600160e01b03198216600090815260208e8152604091829020918c901b88178d17909155610217908b9061087d565b6001600160e01b03198316901c61022f8b602061087d565b60208e0180516001600160e01b031990921c19909116919091179052896102558161089c565b9a505089600814156102ab578b602001518d60010160008d8152602001908152602001600020819055506000801b8c6020018181525050600099508a8061029b9061089c565b600060a08f01529b506103419050565b600160a08d0152610341565b6001600160601b031981811690871614156103145760405162461bcd60e51b815260206004820152601b60248201527f46756e6374696f6e2063757420746f2073616d652066616365742e00000000006044820152606401610168565b6001600160e01b03198216600090815260208e9052604090206bffffffffffffffffffffffff8216871790555b5050808061034e9061089c565b9150506101ad565b5061060d565b60005b8281101561060b5785820151610376600484610865565b6001600160e01b03198216600090815260208e90526040902054909350806103ee5760405162461bcd60e51b815260206004820152602560248201527f46756e6374696f6e20646f65736e27742065786973742e2043616e277420726560448201526436b7bb329760d91b6064820152608401610168565b60208c0151610428578a610401816108b7565b9b50508c60010160008c8152602001908152602001600020548c6020018181525050600899505b67ffffffffffffffff811660408d81019190915281901c63ffffffff1660608d0152600061045760018c61082c565b61046290602061087d565b8d60200151901b90508b8d604001511461051c578d60010160008e604001518152602001908152602001600020548d60800181815250508c6060015160206104aa919061087d565b816001600160e01b031916901c8d6060015160206104c8919061087d565b6001600160e01b031960001b901c198e6080015116178d60800181815250508c608001518e60010160008f604001518152602001908152602001600020819055508a80610514906108b7565b9b5050610574565b60608d015161052c90602061087d565b816001600160e01b031916901c8d60600151602061054a919061087d565b60208f0180516001600160e01b031990921c199091169190911790528a610570816108b7565b9b50505b8a6105925760008c815260018f016020908152604082208290558e01525b6001600160e01b0319818116908416146105de576001600160e01b03198116600090815260208f90526040902080546001600160601b0319166bffffffffffffffffffffffff84161790555b50506001600160e01b031916600090815260208c90526040812055806106038161089c565b91505061035f565b505b5050505050808061061d9061089c565b9150506100f4565b508251608082901b831790811461063e57600285018190555b8360a0015115610661576020808501516000858152600188019092526040909120555b7f6ace155508eb66f4d8afce32f392ee3b0a8ab3c0133964f1f3c613e497da45fe8660405161069091906108ce565b60405180910390a1505050505050565b634e487b7160e01b600052604160045260246000fd5b604051601f8201601f1916810167ffffffffffffffff811182821017156106df576106df6106a0565b604052919050565b600060208083850312156106fa57600080fd5b823567ffffffffffffffff8082111561071257600080fd5b8185019150601f868184011261072757600080fd5b823582811115610739576107396106a0565b8060051b6107488682016106b6565b918252848101860191868101908a84111561076257600080fd5b87870192505b838310156107f2578235868111156107805760008081fd5b8701603f81018c136107925760008081fd5b888101356040888211156107a8576107a86106a0565b6107b9828901601f19168c016106b6565b8281528e828486010111156107ce5760008081fd5b828285018d83013760009281018c0192909252508352509187019190870190610768565b9a9950505050505050505050565b634e487b7160e01b600052603260045260246000fd5b634e487b7160e01b600052601160045260246000fd5b60008282101561083e5761083e610816565b500390565b60008261086057634e487b7160e01b600052601260045260246000fd5b500490565b6000821982111561087857610878610816565b500190565b600081600019048311821515161561089757610897610816565b500290565b60006000198214156108b0576108b0610816565b5060010190565b6000816108c6576108c6610816565b506000190190565b6000602080830181845280855180835260408601915060408160051b87010192508387016000805b8381101561095b57888603603f1901855282518051808852835b8181101561092b578281018a01518982018b01528901610910565b8181111561093b57848a838b0101525b50601f01601f1916969096018701955093860193918601916001016108f6565b50939897505050505050505056fea2646970667358221220d8e00cf35ae5dc1e4e679daf9d7e02a36acd47bc75733f3829f2c247fb94a95864736f6c63430008090033610cf17b5a943fc722922fc6750fb40254c24c6b0efd32554aa7c03b4ca98e9c2623111b4a77e415ab5147aeb27da976c7a27950b6ec4022b4b9e77176266992",
  "linkReferences": {},
  "deployedLinkReferences": {}
}