{
  "_format": "hh-sol-artifact-1",
  "contractName": "PolicyTreasuryTestFacet",
  "sourceName": "contracts/test/PolicyTreasuryTestFacet.sol",
  "abi": [
    {
      "inputs": [
        {
          "internalType": "address",
          "name": "_settings",
          "type": "address"
        }
      ],
      "stateMutability": "nonpayable",
      "type": "constructor"
    },
    {
      "anonymous": false,
      "inputs": [
        {
          "indexed": true,
          "internalType": "uint256",
          "name": "state",
          "type": "uint256"
        },
        {
          "indexed": true,
          "internalType": "address",
          "name": "caller",
          "type": "address"
        }
      ],
      "name": "PolicyStateUpdated",
      "type": "event"
    },
    {
      "anonymous": false,
      "inputs": [
        {
          "indexed": true,
          "internalType": "uint256",
          "name": "trancheIndex",
          "type": "uint256"
        },
        {
          "indexed": true,
          "internalType": "uint256",
          "name": "state",
          "type": "uint256"
        },
        {
          "indexed": true,
          "internalType": "address",
          "name": "caller",
          "type": "address"
        }
      ],
      "name": "TrancheStateUpdated",
      "type": "event"
    },
    {
      "inputs": [],
      "name": "CANNOT_ASSIGN",
      "outputs": [
        {
          "internalType": "uint256",
          "name": "",
          "type": "uint256"
        }
      ],
      "stateMutability": "view",
      "type": "function"
    },
    {
      "inputs": [],
      "name": "CANNOT_ASSIGN_USER_NOT_APPROVED",
      "outputs": [
        {
          "internalType": "uint256",
          "name": "",
          "type": "uint256"
        }
      ],
      "stateMutability": "view",
      "type": "function"
    },
    {
      "inputs": [],
      "name": "CAN_ASSIGN_HAS_ROLE",
      "outputs": [
        {
          "internalType": "uint256",
          "name": "",
          "type": "uint256"
        }
      ],
      "stateMutability": "view",
      "type": "function"
    },
    {
      "inputs": [],
      "name": "CAN_ASSIGN_IS_ADMIN",
      "outputs": [
        {
          "internalType": "uint256",
          "name": "",
          "type": "uint256"
        }
      ],
      "stateMutability": "view",
      "type": "function"
    },
    {
      "inputs": [],
      "name": "CAN_ASSIGN_IS_OWN_CONTEXT",
      "outputs": [
        {
          "internalType": "uint256",
          "name": "",
          "type": "uint256"
        }
      ],
      "stateMutability": "view",
      "type": "function"
    },
    {
      "inputs": [],
      "name": "DOES_NOT_HAVE_ROLE",
      "outputs": [
        {
          "internalType": "uint256",
          "name": "",
          "type": "uint256"
        }
      ],
      "stateMutability": "view",
      "type": "function"
    },
    {
      "inputs": [],
      "name": "FEE_SCHEDULE_PLATFORM_ACTION",
      "outputs": [
        {
          "internalType": "uint256",
          "name": "",
          "type": "uint256"
        }
      ],
      "stateMutability": "view",
      "type": "function"
    },
    {
      "inputs": [],
      "name": "FEE_SCHEDULE_STANDARD",
      "outputs": [
        {
          "internalType": "uint256",
          "name": "",
          "type": "uint256"
        }
      ],
      "stateMutability": "view",
      "type": "function"
    },
    {
      "inputs": [],
      "name": "HAS_ROLE_CONTEXT",
      "outputs": [
        {
          "internalType": "uint256",
          "name": "",
          "type": "uint256"
        }
      ],
      "stateMutability": "view",
      "type": "function"
    },
    {
      "inputs": [],
      "name": "HAS_ROLE_SYSTEM_CONTEXT",
      "outputs": [
        {
          "internalType": "uint256",
          "name": "",
          "type": "uint256"
        }
      ],
      "stateMutability": "view",
      "type": "function"
    },
    {
      "inputs": [],
      "name": "POLICY_STATE_ACTIVE",
      "outputs": [
        {
          "internalType": "uint256",
          "name": "",
          "type": "uint256"
        }
      ],
      "stateMutability": "view",
      "type": "function"
    },
    {
      "inputs": [],
      "name": "POLICY_STATE_APPROVED",
      "outputs": [
        {
          "internalType": "uint256",
          "name": "",
          "type": "uint256"
        }
      ],
      "stateMutability": "view",
      "type": "function"
    },
    {
      "inputs": [],
      "name": "POLICY_STATE_BUYBACK",
      "outputs": [
        {
          "internalType": "uint256",
          "name": "",
          "type": "uint256"
        }
      ],
      "stateMutability": "view",
      "type": "function"
    },
    {
      "inputs": [],
      "name": "POLICY_STATE_CANCELLED",
      "outputs": [
        {
          "internalType": "uint256",
          "name": "",
          "type": "uint256"
        }
      ],
      "stateMutability": "view",
      "type": "function"
    },
    {
      "inputs": [],
      "name": "POLICY_STATE_CLOSED",
      "outputs": [
        {
          "internalType": "uint256",
          "name": "",
          "type": "uint256"
        }
      ],
      "stateMutability": "view",
      "type": "function"
    },
    {
      "inputs": [],
      "name": "POLICY_STATE_CREATED",
      "outputs": [
        {
          "internalType": "uint256",
          "name": "",
          "type": "uint256"
        }
      ],
      "stateMutability": "view",
      "type": "function"
    },
    {
      "inputs": [],
      "name": "POLICY_STATE_INITIATED",
      "outputs": [
        {
          "internalType": "uint256",
          "name": "",
          "type": "uint256"
        }
      ],
      "stateMutability": "view",
      "type": "function"
    },
    {
      "inputs": [],
      "name": "POLICY_STATE_IN_APPROVAL",
      "outputs": [
        {
          "internalType": "uint256",
          "name": "",
          "type": "uint256"
        }
      ],
      "stateMutability": "view",
      "type": "function"
    },
    {
      "inputs": [],
      "name": "POLICY_STATE_MATURED",
      "outputs": [
        {
          "internalType": "uint256",
          "name": "",
          "type": "uint256"
        }
      ],
      "stateMutability": "view",
      "type": "function"
    },
    {
      "inputs": [],
      "name": "ROLEGROUP_APPROVED_USERS",
      "outputs": [
        {
          "internalType": "bytes32",
          "name": "",
          "type": "bytes32"
        }
      ],
      "stateMutability": "view",
      "type": "function"
    },
    {
      "inputs": [],
      "name": "ROLEGROUP_BROKERS",
      "outputs": [
        {
          "internalType": "bytes32",
          "name": "",
          "type": "bytes32"
        }
      ],
      "stateMutability": "view",
      "type": "function"
    },
    {
      "inputs": [],
      "name": "ROLEGROUP_CAPITAL_PROVIDERS",
      "outputs": [
        {
          "internalType": "bytes32",
          "name": "",
          "type": "bytes32"
        }
      ],
      "stateMutability": "view",
      "type": "function"
    },
    {
      "inputs": [],
      "name": "ROLEGROUP_CLAIMS_ADMINS",
      "outputs": [
        {
          "internalType": "bytes32",
          "name": "",
          "type": "bytes32"
        }
      ],
      "stateMutability": "view",
      "type": "function"
    },
    {
      "inputs": [],
      "name": "ROLEGROUP_ENTITY_ADMINS",
      "outputs": [
        {
          "internalType": "bytes32",
          "name": "",
          "type": "bytes32"
        }
      ],
      "stateMutability": "view",
      "type": "function"
    },
    {
      "inputs": [],
      "name": "ROLEGROUP_ENTITY_MANAGERS",
      "outputs": [
        {
          "internalType": "bytes32",
          "name": "",
          "type": "bytes32"
        }
      ],
      "stateMutability": "view",
      "type": "function"
    },
    {
      "inputs": [],
      "name": "ROLEGROUP_ENTITY_REPS",
      "outputs": [
        {
          "internalType": "bytes32",
          "name": "",
          "type": "bytes32"
        }
      ],
      "stateMutability": "view",
      "type": "function"
    },
    {
      "inputs": [],
      "name": "ROLEGROUP_INSURED_PARTYS",
      "outputs": [
        {
          "internalType": "bytes32",
          "name": "",
          "type": "bytes32"
        }
      ],
      "stateMutability": "view",
      "type": "function"
    },
    {
      "inputs": [],
      "name": "ROLEGROUP_POLICY_CREATORS",
      "outputs": [
        {
          "internalType": "bytes32",
          "name": "",
          "type": "bytes32"
        }
      ],
      "stateMutability": "view",
      "type": "function"
    },
    {
      "inputs": [],
      "name": "ROLEGROUP_POLICY_OWNERS",
      "outputs": [
        {
          "internalType": "bytes32",
          "name": "",
          "type": "bytes32"
        }
      ],
      "stateMutability": "view",
      "type": "function"
    },
    {
      "inputs": [],
      "name": "ROLEGROUP_SYSTEM_ADMINS",
      "outputs": [
        {
          "internalType": "bytes32",
          "name": "",
          "type": "bytes32"
        }
      ],
      "stateMutability": "view",
      "type": "function"
    },
    {
      "inputs": [],
      "name": "ROLEGROUP_SYSTEM_MANAGERS",
      "outputs": [
        {
          "internalType": "bytes32",
          "name": "",
          "type": "bytes32"
        }
      ],
      "stateMutability": "view",
      "type": "function"
    },
    {
      "inputs": [],
      "name": "ROLEGROUP_TRADERS",
      "outputs": [
        {
          "internalType": "bytes32",
          "name": "",
          "type": "bytes32"
        }
      ],
      "stateMutability": "view",
      "type": "function"
    },
    {
      "inputs": [],
      "name": "ROLEGROUP_UNDERWRITERS",
      "outputs": [
        {
          "internalType": "bytes32",
          "name": "",
          "type": "bytes32"
        }
      ],
      "stateMutability": "view",
      "type": "function"
    },
    {
      "inputs": [],
      "name": "ROLE_APPROVED_USER",
      "outputs": [
        {
          "internalType": "bytes32",
          "name": "",
          "type": "bytes32"
        }
      ],
      "stateMutability": "view",
      "type": "function"
    },
    {
      "inputs": [],
      "name": "ROLE_BROKER",
      "outputs": [
        {
          "internalType": "bytes32",
          "name": "",
          "type": "bytes32"
        }
      ],
      "stateMutability": "view",
      "type": "function"
    },
    {
      "inputs": [],
      "name": "ROLE_CAPITAL_PROVIDER",
      "outputs": [
        {
          "internalType": "bytes32",
          "name": "",
          "type": "bytes32"
        }
      ],
      "stateMutability": "view",
      "type": "function"
    },
    {
      "inputs": [],
      "name": "ROLE_CLAIMS_ADMIN",
      "outputs": [
        {
          "internalType": "bytes32",
          "name": "",
          "type": "bytes32"
        }
      ],
      "stateMutability": "view",
      "type": "function"
    },
    {
      "inputs": [],
      "name": "ROLE_ENTITY_ADMIN",
      "outputs": [
        {
          "internalType": "bytes32",
          "name": "",
          "type": "bytes32"
        }
      ],
      "stateMutability": "view",
      "type": "function"
    },
    {
      "inputs": [],
      "name": "ROLE_ENTITY_MANAGER",
      "outputs": [
        {
          "internalType": "bytes32",
          "name": "",
          "type": "bytes32"
        }
      ],
      "stateMutability": "view",
      "type": "function"
    },
    {
      "inputs": [],
      "name": "ROLE_ENTITY_REP",
      "outputs": [
        {
          "internalType": "bytes32",
          "name": "",
          "type": "bytes32"
        }
      ],
      "stateMutability": "view",
      "type": "function"
    },
    {
      "inputs": [],
      "name": "ROLE_INSURED_PARTY",
      "outputs": [
        {
          "internalType": "bytes32",
          "name": "",
          "type": "bytes32"
        }
      ],
      "stateMutability": "view",
      "type": "function"
    },
    {
      "inputs": [],
      "name": "ROLE_PENDING_BROKER",
      "outputs": [
        {
          "internalType": "bytes32",
          "name": "",
          "type": "bytes32"
        }
      ],
      "stateMutability": "view",
      "type": "function"
    },
    {
      "inputs": [],
      "name": "ROLE_PENDING_CLAIMS_ADMIN",
      "outputs": [
        {
          "internalType": "bytes32",
          "name": "",
          "type": "bytes32"
        }
      ],
      "stateMutability": "view",
      "type": "function"
    },
    {
      "inputs": [],
      "name": "ROLE_PENDING_INSURED_PARTY",
      "outputs": [
        {
          "internalType": "bytes32",
          "name": "",
          "type": "bytes32"
        }
      ],
      "stateMutability": "view",
      "type": "function"
    },
    {
      "inputs": [],
      "name": "ROLE_PENDING_UNDERWRITER",
      "outputs": [
        {
          "internalType": "bytes32",
          "name": "",
          "type": "bytes32"
        }
      ],
      "stateMutability": "view",
      "type": "function"
    },
    {
      "inputs": [],
      "name": "ROLE_POLICY_CREATOR",
      "outputs": [
        {
          "internalType": "bytes32",
          "name": "",
          "type": "bytes32"
        }
      ],
      "stateMutability": "view",
      "type": "function"
    },
    {
      "inputs": [],
      "name": "ROLE_POLICY_OWNER",
      "outputs": [
        {
          "internalType": "bytes32",
          "name": "",
          "type": "bytes32"
        }
      ],
      "stateMutability": "view",
      "type": "function"
    },
    {
      "inputs": [],
      "name": "ROLE_SYSTEM_ADMIN",
      "outputs": [
        {
          "internalType": "bytes32",
          "name": "",
          "type": "bytes32"
        }
      ],
      "stateMutability": "view",
      "type": "function"
    },
    {
      "inputs": [],
      "name": "ROLE_SYSTEM_MANAGER",
      "outputs": [
        {
          "internalType": "bytes32",
          "name": "",
          "type": "bytes32"
        }
      ],
      "stateMutability": "view",
      "type": "function"
    },
    {
      "inputs": [],
      "name": "ROLE_UNDERWRITER",
      "outputs": [
        {
          "internalType": "bytes32",
          "name": "",
          "type": "bytes32"
        }
      ],
      "stateMutability": "view",
      "type": "function"
    },
    {
      "inputs": [],
      "name": "SETTING_ENTITY_DELEGATE",
      "outputs": [
        {
          "internalType": "bytes32",
          "name": "",
          "type": "bytes32"
        }
      ],
      "stateMutability": "view",
      "type": "function"
    },
    {
      "inputs": [],
      "name": "SETTING_ENTITY_DEPLOYER",
      "outputs": [
        {
          "internalType": "bytes32",
          "name": "",
          "type": "bytes32"
        }
      ],
      "stateMutability": "view",
      "type": "function"
    },
    {
      "inputs": [],
      "name": "SETTING_ENTITY_IMPL",
      "outputs": [
        {
          "internalType": "bytes32",
          "name": "",
          "type": "bytes32"
        }
      ],
      "stateMutability": "view",
      "type": "function"
    },
    {
      "inputs": [],
      "name": "SETTING_ETHER_TOKEN",
      "outputs": [
        {
          "internalType": "bytes32",
          "name": "",
          "type": "bytes32"
        }
      ],
      "stateMutability": "view",
      "type": "function"
    },
    {
      "inputs": [],
      "name": "SETTING_FEEBANK",
      "outputs": [
        {
          "internalType": "bytes32",
          "name": "",
          "type": "bytes32"
        }
      ],
      "stateMutability": "view",
      "type": "function"
    },
    {
      "inputs": [],
      "name": "SETTING_FEEBANK_IMPL",
      "outputs": [
        {
          "internalType": "bytes32",
          "name": "",
          "type": "bytes32"
        }
      ],
      "stateMutability": "view",
      "type": "function"
    },
    {
      "inputs": [],
      "name": "SETTING_MARKET",
      "outputs": [
        {
          "internalType": "bytes32",
          "name": "",
          "type": "bytes32"
        }
      ],
      "stateMutability": "view",
      "type": "function"
    },
    {
      "inputs": [],
      "name": "SETTING_MARKET_IMPL",
      "outputs": [
        {
          "internalType": "bytes32",
          "name": "",
          "type": "bytes32"
        }
      ],
      "stateMutability": "view",
      "type": "function"
    },
    {
      "inputs": [],
      "name": "SETTING_POLICY_DELEGATE",
      "outputs": [
        {
          "internalType": "bytes32",
          "name": "",
          "type": "bytes32"
        }
      ],
      "stateMutability": "view",
      "type": "function"
    },
    {
      "inputs": [],
      "name": "SETTING_POLICY_IMPL",
      "outputs": [
        {
          "internalType": "bytes32",
          "name": "",
          "type": "bytes32"
        }
      ],
      "stateMutability": "view",
      "type": "function"
    },
    {
      "inputs": [],
      "name": "TRANCHE_STATE_ACTIVE",
      "outputs": [
        {
          "internalType": "uint256",
          "name": "",
          "type": "uint256"
        }
      ],
      "stateMutability": "view",
      "type": "function"
    },
    {
      "inputs": [],
      "name": "TRANCHE_STATE_CANCELLED",
      "outputs": [
        {
          "internalType": "uint256",
          "name": "",
          "type": "uint256"
        }
      ],
      "stateMutability": "view",
      "type": "function"
    },
    {
      "inputs": [],
      "name": "TRANCHE_STATE_CREATED",
      "outputs": [
        {
          "internalType": "uint256",
          "name": "",
          "type": "uint256"
        }
      ],
      "stateMutability": "view",
      "type": "function"
    },
    {
      "inputs": [],
      "name": "TRANCHE_STATE_MATURED",
      "outputs": [
        {
          "internalType": "uint256",
          "name": "",
          "type": "uint256"
        }
      ],
      "stateMutability": "view",
      "type": "function"
    },
    {
      "inputs": [],
      "name": "TRANCHE_STATE_SELLING",
      "outputs": [
        {
          "internalType": "uint256",
          "name": "",
          "type": "uint256"
        }
      ],
      "stateMutability": "view",
      "type": "function"
    },
    {
      "inputs": [],
      "name": "acl",
      "outputs": [
        {
          "internalType": "contract IACL",
          "name": "",
          "type": "address"
        }
      ],
      "stateMutability": "view",
      "type": "function"
    },
    {
      "inputs": [],
      "name": "aclContext",
      "outputs": [
        {
          "internalType": "bytes32",
          "name": "",
          "type": "bytes32"
        }
      ],
      "stateMutability": "view",
      "type": "function"
    },
    {
      "inputs": [],
      "name": "getSelectors",
      "outputs": [
        {
          "internalType": "bytes",
          "name": "",
          "type": "bytes"
        }
      ],
      "stateMutability": "pure",
      "type": "function"
    },
    {
      "inputs": [
        {
          "internalType": "address",
          "name": "_addr",
          "type": "address"
        },
        {
          "internalType": "bytes32",
          "name": "_roleGroup",
          "type": "bytes32"
        }
      ],
      "name": "inRoleGroup",
      "outputs": [
        {
          "internalType": "bool",
          "name": "",
          "type": "bool"
        }
      ],
      "stateMutability": "view",
      "type": "function"
    },
    {
      "inputs": [
        {
          "internalType": "bytes32",
          "name": "_ctx",
          "type": "bytes32"
        },
        {
          "internalType": "address",
          "name": "_addr",
          "type": "address"
        },
        {
          "internalType": "bytes32",
          "name": "_roleGroup",
          "type": "bytes32"
        }
      ],
      "name": "inRoleGroupWithContext",
      "outputs": [
        {
          "internalType": "bool",
          "name": "",
          "type": "bool"
        }
      ],
      "stateMutability": "view",
      "type": "function"
    },
    {
      "inputs": [
        {
          "internalType": "address",
          "name": "_addr",
          "type": "address"
        }
      ],
      "name": "isAdmin",
      "outputs": [
        {
          "internalType": "bool",
          "name": "",
          "type": "bool"
        }
      ],
      "stateMutability": "view",
      "type": "function"
    },
    {
      "inputs": [],
      "name": "settings",
      "outputs": [
        {
          "internalType": "contract ISettings",
          "name": "",
          "type": "address"
        }
      ],
      "stateMutability": "view",
      "type": "function"
    },
    {
      "inputs": [
        {
          "internalType": "uint256",
          "name": "_orderId",
          "type": "uint256"
        }
      ],
      "name": "treasuryCancelOrder",
      "outputs": [],
      "stateMutability": "nonpayable",
      "type": "function"
    },
    {
      "inputs": [
        {
          "internalType": "bytes32",
          "name": "_type",
          "type": "bytes32"
        },
        {
          "internalType": "address",
          "name": "_sellUnit",
          "type": "address"
        },
        {
          "internalType": "uint256",
          "name": "_sellAmount",
          "type": "uint256"
        },
        {
          "internalType": "address",
          "name": "_buyUnit",
          "type": "address"
        },
        {
          "internalType": "uint256",
          "name": "_buyAmount",
          "type": "uint256"
        }
      ],
      "name": "treasuryCreateOrder",
      "outputs": [],
      "stateMutability": "nonpayable",
      "type": "function"
    },
    {
      "inputs": [
        {
          "internalType": "uint256",
          "name": "_amount",
          "type": "uint256"
        }
      ],
      "name": "treasuryIncPolicyBalance",
      "outputs": [],
      "stateMutability": "nonpayable",
      "type": "function"
    },
    {
      "inputs": [
        {
          "internalType": "address",
          "name": "_recipient",
          "type": "address"
        },
        {
          "internalType": "uint256",
          "name": "_amount",
          "type": "uint256"
        }
      ],
      "name": "treasuryPayClaim",
      "outputs": [],
      "stateMutability": "nonpayable",
      "type": "function"
    },
    {
      "inputs": [
        {
          "internalType": "uint256",
          "name": "_amount",
          "type": "uint256"
        }
      ],
      "name": "treasurySetMinPolicyBalance",
      "outputs": [],
      "stateMutability": "nonpayable",
      "type": "function"
    }
  ],
  "bytecode": "0x60806040523480156200001157600080fd5b506040516200153738038062001537833981016040819052620000349162000244565b80808180600060405162000056906773657474696e677360c01b815260080190565b90815260405190819003602001902080546001600160a01b03929092166001600160a01b03199092169190911790556200008f62000181565b60405163a1e31a6560e01b81523060048201526001600160a01b03919091169063a1e31a659060240160206040518083038186803b158015620000d157600080fd5b505afa158015620000e6573d6000803e3d6000fd5b505050506040513d601f19601f820116820180604052508101906200010c91906200026b565b60408051691858db10dbdb9d195e1d60b21b81526001600a820152815190819003602a018120929092556773657474696e677360c01b8252600060088301525160289181900391909101902080546001600160a01b0319166001600160a01b0393909316929092179091555062000285915050565b600080604051620001a0906773657474696e677360c01b815260080190565b90815260408051602092819003830181205463de28735960e01b825291516001600160a01b039092169263de28735992600480840193829003018186803b158015620001eb57600080fd5b505afa15801562000200573d6000803e3d6000fd5b505050506040513d601f19601f8201168201806040525081019062000226919062000244565b905090565b6001600160a01b03811681146200024157600080fd5b50565b6000602082840312156200025757600080fd5b815162000264816200022b565b9392505050565b6000602082840312156200027e57600080fd5b5051919050565b6112a280620002956000396000f3fe608060405234801561001057600080fd5b506004361061045f5760003560e01c8063877d17231161024c578063bd17aec411610146578063def26bce116100c3578063eebb74e011610087578063eebb74e014610bd8578063ef4a28b9146104d5578063f67d882c14610bff578063fa4a215c14610c07578063fbc0276414610c2e57600080fd5b8063def26bce14610b34578063e06174e414610b5b578063e0892bad14610b63578063e3097dc214610b8a578063e5bb5d0714610bb157600080fd5b8063db691b141161010a578063db691b1414610ac6578063db974500146108d4578063de28735914610aed578063de764acf146108d4578063de841bac14610b0d57600080fd5b8063bd17aec414610a71578063c820fa75146106a3578063c935431514610a84578063ca77fcd714610a97578063cf45439114610a9f57600080fd5b8063a01dac13116101d4578063abda824711610198578063abda824714610464578063b32ef75614610a1b578063b3f438aa14610a42578063b46b88fe14610a4a578063b85548111461047f57600080fd5b8063a01dac13146108d4578063a1dead4114610993578063a32fc162146109a6578063a3cf5fdf146109cd578063a87c785f146109f457600080fd5b80639479ab2a1161021b5780639479ab2a1461090357806394b6d14d1461092a578063990fa0e5146109325780639ae5f378146109455780639f6e37a71461096c57600080fd5b8063877d172314610464578063899a0ec7146108c1578063910f5ca9146108d45780639424cf5e146108dc57600080fd5b80633f42ffef1161035d57806355d48c07116102e557806365335828116102a9578063653358281461047f57806372bef9c614610825578063741cb7d61461084c578063767974b5146108735780638398389a1461089a57600080fd5b806355d48c07146107b057806359dab7581461047f5780635db79855146107d75780635dddee31146107fe578063645b129f146106a357600080fd5b806347bf603d1161032c57806347bf603d146106da5780634b503f0b146107015780634b7d215e146107625780634cf1f77214610464578063551e385a1461078957600080fd5b80633f42ffef1461067c57806341bb4897146106a3578063423d20f3146106ab578063468740a8146106b357600080fd5b806324d7806c116103eb5780632b521d47116103af5780632b521d47146105f25780633407d3cb1461061957806337d769831461064057806339f973b41461047f5780633e107d4a1461065557600080fd5b806324d7806c1461053357806324e076a21461055657806326f885351461057d578063297a012a146105a45780632a8873ef146105cb57600080fd5b8063161075521161043257806316107552146104d5578063165683181461046457806319efe072146104dd5780631adcdac6146104e55780631f9b28741461050c57600080fd5b806301750873146104645780630a079b2c1461047f5780630e0fc352146104875780631205d133146104ae575b600080fd5b61046c600181565b6040519081526020015b60405180910390f35b61046c600281565b61046c7f063693c9545b949ff498535f9e0aa95ada8e88c062d28e2f219b896e151e126681565b61046c7f098afcb3a137a2ba8835fbf7daecb275af5afb3479f12844d5b7bfb8134e7ced81565b61046c600481565b61046c600681565b61046c7f8858a0dfcbfa158449ee0a3b5dae898cecc0746569152b05bbab9526bcc1686481565b61046c7f5c6c7d4897f0ae38084370e7a61ea386e95c7f54629c0b793a0ac47751f1240581565b6105466105413660046110d3565b610c41565b6040519015158152602001610476565b61046c7f18ecf8d2173ca8a5766fd7dde3bdb54017dc5413dc07cd6ba1785b63e9c62b8281565b61046c7f5c7c2bcb0d2dfef15c423063aae2051d462fcd269b5e9b8c1733b3211e17bc8a81565b61046c7f6a4d660b9f1720511be22f039683db86d0d0d207c2ad9255325630800d4fb53981565b61046c7f325a96ceff51ae6b22de25dd7b4c8b9532dddf936add8ef16fc99219ff666a8481565b61046c7fcca1ad0e9fb374bbb9dc3d0cbfd073ef01bd1d01d5a35bd0a93403fbee64318d81565b61046c7f2623111b4a77e415ab5147aeb27da976c7a27950b6ec4022b4b9e7717626699281565b61065361064e3660046110f0565b610ccc565b005b61046c7f6f244974cc67342b1bd623d411fd8100ec9eddbac05348e71d1a9296de6264a581565b61046c7f1bf52521006d8a3718b0692b7f32c8ee781bfed9e9215eb5b8fc3b34749fb5b581565b61046c600381565b61046c610d36565b61046c7f65d0db34d07de31cfb8ca9f95dabc0463ce6084a447abb757f682f36ae3682e381565b61046c7f052b977cd6067e43b9140f08c53a22b88418f4d3ab7bd811716130d5a20cd8a381565b6040805163990fa0e560e01b602082015263a1dead4160e01b602482015263c935431560e01b6028820152632f45ebb160e21b602c8201526337d7698360e01b60308201528151601481830301815260349091019182905261047691611109565b61046c7f9574e138325b5c365da8d5cc75cf22323ed6f3ce52fac5621225020a162a4c6181565b61046c7fc72bfe3e0f1799ce0d90c4c72cf8f07d0cfa8121d51cb05d8c827f0896d8c0b681565b61046c7f807c518efb8285611b15c88a7701e4f40a0e9a38ce3e59946e587a8932410af881565b61046c7f428fa9969c6b3fab7bbdac20b73706f1f670a386be0a76d4060c185898b2aa2281565b61046c7f8d632412946eb879ebe5af90230c7db3f6d17c94c0ecea207c97e15fa9bb77c581565b61046c7f2db57b52c5f263c359ba92194f5590b4a7f5fc1f1ca02f10cea531182851fe2881565b61046c7f0922a3d5a8713fcf92ec8607b882fd2fcfefd8552a3c38c726d96fcde8b1d05381565b61046c7f9c259f9342405d034b902fd5e1bba083f008e305ea4eb6a0dce9ac9a6256b63a81565b61046c7fdd53f360aa973c3daf7ff269398ced1ce7713d025c750c443c2abbcd89438f8381565b6105466108cf36600461115e565b610d6b565b61046c600081565b61046c7fcfd13d23f7313d54f3a6d98c505045c58749561dd04531f9f2422a8818f0c5f881565b61046c7fa33a59233069411012cc12aa76a8a426fe6bd113968b520118fdc9cb6f49ae3081565b61046c600881565b6106536109403660046110f0565b610e06565b61046c7fab789755f97e00f29522efbee9df811265010c87cf80f8fd7d5fc5cb8a84795681565b61046c7f3bd41a6d84c7de1e9d18694bd113405090439b9e32d5ab69d575821d513d83b581565b6106536109a13660046110f0565b610e3b565b61046c7f7c23ac65f971ee875d4a6408607fabcb777f38cf73b3d6d891648646cee81f0581565b61046c7fd708193a9c8f5fbde4d1c80a1e6f79b5f38a27f85ca86eccac69e5a899120ead81565b61046c7f9f4d1dc1107c7d9d9f533f41b5aa5dbbb3b830e3b597338a8aee228ab083eb3a81565b61046c7f391db9b692991836c38aedfd24d7f4c9837739d4ee0664fe4ee6892a51e025a781565b61046c606481565b61046c7f0e8925aa0bfe65f831f6c9099dd95b0614eb69312630ef3497bee453d9ed40a981565b610653610a7f366004611196565b610e70565b610653610a923660046111e8565b610f39565b61046c600781565b61046c7fad56f8a5432d383c3e2c11b7b248f889e6ec544090486b3623f0f4ae1fad763b81565b61046c7f1d60d7146dec74c1b1a9dc17243aaa3b56533f607c16a718bcd78d8d852d6e5281565b610af5610fa1565b6040516001600160a01b039091168152602001610476565b61046c7f7f7cc8b2bac31c0e372310212be653d159f17ff3c41938a81446553db842afb681565b61046c7f610cf17b5a943fc722922fc6750fb40254c24c6b0efd32554aa7c03b4ca98e9c81565b610af5611046565b61046c7f737de6bdef2e959d9f968f058e3e78b7365d4eda8e4023ecac2d51e3dbfb140181565b61046c7fa449044fc5332c1625929b3afecb2f821955279285b4a8406a6ffa8968c1b7cf81565b61046c7f9c687089ee5ebd0bc2ba9c954ebc7a0304b4046890b9064e5742c8c6c7afeab281565b61046c7f251766d8c7c7a6b927647b0f20c99f490db1c283eb0c482446085aaaa44b5e7381565b61046c600581565b61046c7fc59d706f362a04b6cf4757dd3df6eb5babc7c26ab5dcc7c9c43b142f25da10a581565b610546610c3c3660046111e8565b611082565b6000610c4b610fa1565b604051630935e01b60e21b81526001600160a01b03848116600483015291909116906324d7806c9060240160206040518083038186803b158015610c8e57600080fd5b505afa158015610ca2573d6000803e3d6000fd5b505050506040513d601f19601f82011682018060405250810190610cc69190611214565b92915050565b610cd461109d565b6001600160a01b031663514fcac7826040518263ffffffff1660e01b8152600401610d0191815260200190565b600060405180830381600087803b158015610d1b57600080fd5b505af1158015610d2f573d6000803e3d6000fd5b5050505050565b60006001604051610d5790691858db10dbdb9d195e1d60b21b8152600a0190565b908152602001604051809103902054905090565b6000610d75610fa1565b6040516349fdb87160e01b8152600481018690526001600160a01b0385811660248301526044820185905291909116906349fdb8719060640160206040518083038186803b158015610dc657600080fd5b505afa158015610dda573d6000803e3d6000fd5b505050506040513d601f19601f82011682018060405250810190610dfe9190611214565b949350505050565b610e0e61109d565b6001600160a01b03166340d028f6826040518263ffffffff1660e01b8152600401610d0191815260200190565b610e4361109d565b6001600160a01b03166371c6c6f1826040518263ffffffff1660e01b8152600401610d0191815260200190565b610e7861109d565b60405163220df48960e01b8152600481018790526001600160a01b03868116602483015260448201869052848116606483015260848201849052600160a4830152600060c4830181905261010060e4840152610104830152919091169063220df4899061012401602060405180830381600087803b158015610ef957600080fd5b505af1158015610f0d573d6000803e3d6000fd5b505050506040513d601f19601f82011682018060405250810190610f319190611236565b505050505050565b610f4161109d565b6040516350802e3f60e01b81526001600160a01b0384811660048301526024820184905291909116906350802e3f90604401600060405180830381600087803b158015610f8d57600080fd5b505af1158015610f31573d6000803e3d6000fd5b600080604051610fbf906773657474696e677360c01b815260080190565b90815260408051602092819003830181205463de28735960e01b825291516001600160a01b039092169263de28735992600480840193829003018186803b15801561100957600080fd5b505afa15801561101d573d6000803e3d6000fd5b505050506040513d601f19601f82011682018060405250810190611041919061124f565b905090565b600080604051611064906773657474696e677360c01b815260080190565b908152604051908190036020019020546001600160a01b0316919050565b600061109661108f610d36565b8484610d6b565b9392505050565b6000806040516110649067747265617375727960c01b815260080190565b6001600160a01b03811681146110d057600080fd5b50565b6000602082840312156110e557600080fd5b8135611096816110bb565b60006020828403121561110257600080fd5b5035919050565b600060208083528351808285015260005b818110156111365785810183015185820160400152820161111a565b81811115611148576000604083870101525b50601f01601f1916929092016040019392505050565b60008060006060848603121561117357600080fd5b833592506020840135611185816110bb565b929592945050506040919091013590565b600080600080600060a086880312156111ae57600080fd5b8535945060208601356111c0816110bb565b93506040860135925060608601356111d7816110bb565b949793965091946080013592915050565b600080604083850312156111fb57600080fd5b8235611206816110bb565b946020939093013593505050565b60006020828403121561122657600080fd5b8151801515811461109657600080fd5b60006020828403121561124857600080fd5b5051919050565b60006020828403121561126157600080fd5b8151611096816110bb56fea26469706673582212203371f9df02a9497f7bce4a5ff286b853461e8166f3e3186fe78ecff3a93d55b764736f6c63430008090033",
  "linkReferences": {},
  "deployedLinkReferences": {}
}