{
  "_format": "hh-sol-artifact-1",
  "contractName": "DummyEntityFacet",
  "sourceName": "contracts/test/DummyEntityFacet.sol",
  "abi": [
    {
      "anonymous": false,
      "inputs": [
        {
          "indexed": true,
          "internalType": "address",
          "name": "caller",
          "type": "address"
        },
        {
          "indexed": true,
          "internalType": "address",
          "name": "unit",
          "type": "address"
        },
        {
          "indexed": true,
          "internalType": "uint256",
          "name": "amount",
          "type": "uint256"
        }
      ],
      "name": "EntityDeposit",
      "type": "event"
    },
    {
      "anonymous": false,
      "inputs": [
        {
          "indexed": true,
          "internalType": "address",
          "name": "caller",
          "type": "address"
        },
        {
          "indexed": true,
          "internalType": "address",
          "name": "unit",
          "type": "address"
        },
        {
          "indexed": true,
          "internalType": "uint256",
          "name": "amount",
          "type": "uint256"
        }
      ],
      "name": "EntityWithdraw",
      "type": "event"
    },
    {
      "anonymous": false,
      "inputs": [
        {
          "indexed": true,
          "internalType": "address",
          "name": "policy",
          "type": "address"
        },
        {
          "indexed": true,
          "internalType": "address",
          "name": "entity",
          "type": "address"
        },
        {
          "indexed": true,
          "internalType": "address",
          "name": "deployer",
          "type": "address"
        }
      ],
      "name": "NewPolicy",
      "type": "event"
    },
    {
      "inputs": [],
      "name": "allowPolicy",
      "outputs": [
        {
          "internalType": "bool",
          "name": "_allow",
          "type": "bool"
        }
      ],
      "stateMutability": "view",
      "type": "function"
    },
    {
      "inputs": [],
      "name": "allowSimplePolicy",
      "outputs": [
        {
          "internalType": "bool",
          "name": "_allow",
          "type": "bool"
        }
      ],
      "stateMutability": "view",
      "type": "function"
    },
    {
      "inputs": [
        {
          "internalType": "bytes32",
          "name": "_id",
          "type": "bytes32"
        }
      ],
      "name": "checkAndUpdateState",
      "outputs": [],
      "stateMutability": "nonpayable",
      "type": "function"
    },
    {
      "inputs": [
        {
          "internalType": "bytes32",
          "name": "_id",
          "type": "bytes32"
        },
        {
          "internalType": "uint256[]",
          "name": "_typeAndDatesAndCommissionsBP",
          "type": "uint256[]"
        },
        {
          "internalType": "address[]",
          "name": "_unitAndTreasuryAndStakeholders",
          "type": "address[]"
        },
        {
          "internalType": "uint256[][]",
          "name": "_trancheData",
          "type": "uint256[][]"
        },
        {
          "internalType": "bytes[]",
          "name": "_approvalSignatures",
          "type": "bytes[]"
        }
      ],
      "name": "createPolicy",
      "outputs": [],
      "stateMutability": "nonpayable",
      "type": "function"
    },
    {
      "inputs": [
        {
          "internalType": "bytes32",
          "name": "_id",
          "type": "bytes32"
        },
        {
          "internalType": "uint256",
          "name": "_startDate",
          "type": "uint256"
        },
        {
          "internalType": "uint256",
          "name": "_maturationDate",
          "type": "uint256"
        },
        {
          "internalType": "address",
          "name": "_unit",
          "type": "address"
        },
        {
          "internalType": "uint256",
          "name": "_limit",
          "type": "uint256"
        },
        {
          "internalType": "address[]",
          "name": "_stakeholders",
          "type": "address[]"
        },
        {
          "internalType": "bytes[]",
          "name": "_approvalSignatures",
          "type": "bytes[]"
        }
      ],
      "name": "createSimplePolicy",
      "outputs": [],
      "stateMutability": "nonpayable",
      "type": "function"
    },
    {
      "inputs": [
        {
          "internalType": "address",
          "name": "_unit",
          "type": "address"
        },
        {
          "internalType": "uint256",
          "name": "_amount",
          "type": "uint256"
        }
      ],
      "name": "deposit",
      "outputs": [],
      "stateMutability": "nonpayable",
      "type": "function"
    },
    {
      "inputs": [
        {
          "internalType": "address",
          "name": "",
          "type": "address"
        }
      ],
      "name": "getBalance",
      "outputs": [
        {
          "internalType": "uint256",
          "name": "",
          "type": "uint256"
        }
      ],
      "stateMutability": "view",
      "type": "function"
    },
    {
      "inputs": [],
      "name": "getEnabledCurrencies",
      "outputs": [
        {
          "internalType": "address[]",
          "name": "",
          "type": "address[]"
        }
      ],
      "stateMutability": "view",
      "type": "function"
    },
    {
      "inputs": [
        {
          "internalType": "address",
          "name": "_unit",
          "type": "address"
        }
      ],
      "name": "getEnabledCurrency",
      "outputs": [
        {
          "internalType": "uint256",
          "name": "collateralRatio_",
          "type": "uint256"
        },
        {
          "internalType": "uint256",
          "name": "maxCapital_",
          "type": "uint256"
        },
        {
          "internalType": "uint256",
          "name": "totalLimit_",
          "type": "uint256"
        }
      ],
      "stateMutability": "view",
      "type": "function"
    },
    {
      "inputs": [],
      "name": "getNumSimplePolicies",
      "outputs": [
        {
          "internalType": "uint256",
          "name": "_numPolicies",
          "type": "uint256"
        }
      ],
      "stateMutability": "view",
      "type": "function"
    },
    {
      "inputs": [
        {
          "internalType": "bytes32",
          "name": "_id",
          "type": "bytes32"
        }
      ],
      "name": "getPremiumsAndClaimsPaid",
      "outputs": [
        {
          "internalType": "uint256",
          "name": "premiumsPaid_",
          "type": "uint256"
        },
        {
          "internalType": "uint256",
          "name": "claimsPaid_",
          "type": "uint256"
        }
      ],
      "stateMutability": "view",
      "type": "function"
    },
    {
      "inputs": [],
      "name": "getSelectors",
      "outputs": [
        {
          "internalType": "bytes",
          "name": "",
          "type": "bytes"
        }
      ],
      "stateMutability": "pure",
      "type": "function"
    },
    {
      "inputs": [
        {
          "internalType": "uint256",
          "name": "_simplePolicyNumber",
          "type": "uint256"
        }
      ],
      "name": "getSimplePolicyId",
      "outputs": [
        {
          "internalType": "bytes32",
          "name": "id_",
          "type": "bytes32"
        }
      ],
      "stateMutability": "view",
      "type": "function"
    },
    {
      "inputs": [
        {
          "internalType": "bytes32",
          "name": "_id",
          "type": "bytes32"
        },
        {
          "internalType": "uint256",
          "name": "_amount",
          "type": "uint256"
        }
      ],
      "name": "paySimpleClaim",
      "outputs": [],
      "stateMutability": "payable",
      "type": "function"
    },
    {
      "inputs": [
        {
          "internalType": "bytes32",
          "name": "_id",
          "type": "bytes32"
        },
        {
          "internalType": "address",
          "name": "_entityAddress",
          "type": "address"
        },
        {
          "internalType": "uint256",
          "name": "_amount",
          "type": "uint256"
        }
      ],
      "name": "paySimplePremium",
      "outputs": [],
      "stateMutability": "nonpayable",
      "type": "function"
    },
    {
      "inputs": [
        {
          "internalType": "address",
          "name": "_policy",
          "type": "address"
        },
        {
          "internalType": "uint256",
          "name": "_trancheIndex",
          "type": "uint256"
        },
        {
          "internalType": "uint256",
          "name": "_amount",
          "type": "uint256"
        }
      ],
      "name": "payTranchePremium",
      "outputs": [],
      "stateMutability": "nonpayable",
      "type": "function"
    },
    {
      "inputs": [
        {
          "internalType": "address",
          "name": "_sellUnit",
          "type": "address"
        },
        {
          "internalType": "uint256",
          "name": "_sellAmount",
          "type": "uint256"
        },
        {
          "internalType": "address",
          "name": "_buyUnit",
          "type": "address"
        }
      ],
      "name": "sellAtBestPrice",
      "outputs": [],
      "stateMutability": "nonpayable",
      "type": "function"
    },
    {
      "inputs": [
        {
          "internalType": "address",
          "name": "_payUnit",
          "type": "address"
        },
        {
          "internalType": "uint256",
          "name": "_payAmount",
          "type": "uint256"
        },
        {
          "internalType": "address",
          "name": "_buyUnit",
          "type": "address"
        },
        {
          "internalType": "uint256",
          "name": "_buyAmount",
          "type": "uint256"
        }
      ],
      "name": "trade",
      "outputs": [
        {
          "internalType": "uint256",
          "name": "",
          "type": "uint256"
        }
      ],
      "stateMutability": "nonpayable",
      "type": "function"
    },
    {
      "inputs": [
        {
          "internalType": "bool",
          "name": "_allow",
          "type": "bool"
        }
      ],
      "name": "updateAllowPolicy",
      "outputs": [],
      "stateMutability": "nonpayable",
      "type": "function"
    },
    {
      "inputs": [
        {
          "internalType": "bool",
          "name": "_allow",
          "type": "bool"
        }
      ],
      "name": "updateAllowSimplePolicy",
      "outputs": [],
      "stateMutability": "nonpayable",
      "type": "function"
    },
    {
      "inputs": [
        {
          "internalType": "address",
          "name": "_unit",
          "type": "address"
        },
        {
          "internalType": "uint256",
          "name": "_collateralRatio",
          "type": "uint256"
        },
        {
          "internalType": "uint256",
          "name": "_maxCapital",
          "type": "uint256"
        }
      ],
      "name": "updateEnabledCurrency",
      "outputs": [],
      "stateMutability": "nonpayable",
      "type": "function"
    },
    {
      "inputs": [
        {
          "internalType": "address",
          "name": "_unit",
          "type": "address"
        },
        {
          "internalType": "uint256",
          "name": "_amount",
          "type": "uint256"
        }
      ],
      "name": "withdraw",
      "outputs": [],
      "stateMutability": "nonpayable",
      "type": "function"
    }
  ],
  "bytecode": "0x608060405234801561001057600080fd5b506107db806100206000396000f3fe6080604052600436106101355760003560e01c806381fc1256116100ab578063f3fef3a31161006f578063f3fef3a31461020f578063f6c5898e146101f4578063f84f904f14610301578063f8b2cb4f14610341578063faf7422414610362578063fb58672f1461039a57600080fd5b806381fc125614610280578063868fc9921461029b578063a59f48aa146102b6578063bb39a960146102dc578063e7fa8a6e1461029b57600080fd5b806335c102f4116100fd57806335c102f4146101e057806338cdb19b146101f457806347e7ef241461020f5780634b503f0b1461022a5780635bdec26f146102645780636ee6878e1461026457600080fd5b80630a4395f11461013a5780631d0b97a11461015a578063250955ed1461016c5780632ef028f81461018c578063356a9efa146101b1575b600080fd5b34801561014657600080fd5b506101586101553660046103b5565b50565b005b6101586101683660046103ce565b5050565b34801561017857600080fd5b5061015861018736600461040c565b505050565b34801561019857600080fd5b5060606040516101a89190610441565b60405180910390f35b3480156101bd57600080fd5b506101d26101cc3660046103b5565b50600090565b6040519081526020016101a8565b3480156101ec57600080fd5b5060006101d2565b34801561020057600080fd5b5061015861018736600461048e565b34801561021b57600080fd5b506101586101683660046104c1565b34801561023657600080fd5b506040805163f8b2cb4f60e01b6020820152815160048183030181526024909101918290526101a8916104eb565b34801561027057600080fd5b50604051600081526020016101a8565b34801561028c57600080fd5b50610158610187366004610540565b3480156102a757600080fd5b5061015861015536600461057c565b3480156102c257600080fd5b506101586102d13660046105f1565b505050505050505050565b3480156102e857600080fd5b506101d26102f73660046106c1565b6000949350505050565b34801561030d57600080fd5b5061032661031c366004610705565b5060009081908190565b604080519384526020840192909252908201526060016101a8565b34801561034d57600080fd5b506101d261035c366004610705565b50607b90565b34801561036e57600080fd5b5061038561037d3660046103b5565b600080915091565b604080519283526020830191909152016101a8565b3480156103a657600080fd5b506101586102d1366004610720565b6000602082840312156103c757600080fd5b5035919050565b600080604083850312156103e157600080fd5b50508035926020909101359150565b80356001600160a01b038116811461040757600080fd5b919050565b60008060006060848603121561042157600080fd5b83359250610431602085016103f0565b9150604084013590509250925092565b6020808252825182820181905260009190848201906040850190845b818110156104825783516001600160a01b03168352928401929184019160010161045d565b50909695505050505050565b6000806000606084860312156104a357600080fd5b6104ac846103f0565b95602085013595506040909401359392505050565b600080604083850312156104d457600080fd5b6104dd836103f0565b946020939093013593505050565b600060208083528351808285015260005b81811015610518578581018301518582016040015282016104fc565b8181111561052a576000604083870101525b50601f01601f1916929092016040019392505050565b60008060006060848603121561055557600080fd5b61055e846103f0565b925060208401359150610573604085016103f0565b90509250925092565b60006020828403121561058e57600080fd5b8135801515811461059e57600080fd5b9392505050565b60008083601f8401126105b757600080fd5b50813567ffffffffffffffff8111156105cf57600080fd5b6020830191508360208260051b85010111156105ea57600080fd5b9250929050565b600080600080600080600080600060a08a8c03121561060f57600080fd5b8935985060208a013567ffffffffffffffff8082111561062e57600080fd5b61063a8d838e016105a5565b909a50985060408c013591508082111561065357600080fd5b61065f8d838e016105a5565b909850965060608c013591508082111561067857600080fd5b6106848d838e016105a5565b909650945060808c013591508082111561069d57600080fd5b506106aa8c828d016105a5565b915080935050809150509295985092959850929598565b600080600080608085870312156106d757600080fd5b6106e0856103f0565b9350602085013592506106f5604086016103f0565b9396929550929360600135925050565b60006020828403121561071757600080fd5b61059e826103f0565b600080600080600080600080600060e08a8c03121561073e57600080fd5b8935985060208a0135975060408a0135965061075c60608b016103f0565b955060808a0135945060a08a013567ffffffffffffffff8082111561078057600080fd5b61078c8d838e016105a5565b909650945060c08c013591508082111561069d57600080fdfea2646970667358221220e1b8e701bad7a1e14797495cf9acb1343610ee38126d5909f766965ca72a510364736f6c63430008090033",
  "linkReferences": {},
  "deployedLinkReferences": {}
}