{
  "_format": "hh-sol-artifact-1",
  "contractName": "PolicyCommissionsFacet",
  "sourceName": "contracts/PolicyCommissionsFacet.sol",
  "abi": [
    {
      "inputs": [
        {
          "internalType": "address",
          "name": "_settings",
          "type": "address"
        }
      ],
      "stateMutability": "nonpayable",
      "type": "constructor"
    },
    {
      "anonymous": false,
      "inputs": [
        {
          "indexed": true,
          "internalType": "address",
          "name": "claimsAdmin",
          "type": "address"
        },
        {
          "indexed": true,
          "internalType": "address",
          "name": "broker",
          "type": "address"
        },
        {
          "indexed": true,
          "internalType": "address",
          "name": "underwriter",
          "type": "address"
        }
      ],
      "name": "PaidCommissions",
      "type": "event"
    },
    {
      "anonymous": false,
      "inputs": [
        {
          "indexed": true,
          "internalType": "uint256",
          "name": "state",
          "type": "uint256"
        },
        {
          "indexed": true,
          "internalType": "address",
          "name": "caller",
          "type": "address"
        }
      ],
      "name": "PolicyStateUpdated",
      "type": "event"
    },
    {
      "anonymous": false,
      "inputs": [
        {
          "indexed": true,
          "internalType": "uint256",
          "name": "trancheIndex",
          "type": "uint256"
        },
        {
          "indexed": true,
          "internalType": "uint256",
          "name": "state",
          "type": "uint256"
        },
        {
          "indexed": true,
          "internalType": "address",
          "name": "caller",
          "type": "address"
        }
      ],
      "name": "TrancheStateUpdated",
      "type": "event"
    },
    {
      "inputs": [],
      "name": "CANNOT_ASSIGN",
      "outputs": [
        {
          "internalType": "uint256",
          "name": "",
          "type": "uint256"
        }
      ],
      "stateMutability": "view",
      "type": "function"
    },
    {
      "inputs": [],
      "name": "CANNOT_ASSIGN_USER_NOT_APPROVED",
      "outputs": [
        {
          "internalType": "uint256",
          "name": "",
          "type": "uint256"
        }
      ],
      "stateMutability": "view",
      "type": "function"
    },
    {
      "inputs": [],
      "name": "CAN_ASSIGN_HAS_ROLE",
      "outputs": [
        {
          "internalType": "uint256",
          "name": "",
          "type": "uint256"
        }
      ],
      "stateMutability": "view",
      "type": "function"
    },
    {
      "inputs": [],
      "name": "CAN_ASSIGN_IS_ADMIN",
      "outputs": [
        {
          "internalType": "uint256",
          "name": "",
          "type": "uint256"
        }
      ],
      "stateMutability": "view",
      "type": "function"
    },
    {
      "inputs": [],
      "name": "CAN_ASSIGN_IS_OWN_CONTEXT",
      "outputs": [
        {
          "internalType": "uint256",
          "name": "",
          "type": "uint256"
        }
      ],
      "stateMutability": "view",
      "type": "function"
    },
    {
      "inputs": [],
      "name": "DOES_NOT_HAVE_ROLE",
      "outputs": [
        {
          "internalType": "uint256",
          "name": "",
          "type": "uint256"
        }
      ],
      "stateMutability": "view",
      "type": "function"
    },
    {
      "inputs": [],
      "name": "HAS_ROLE_CONTEXT",
      "outputs": [
        {
          "internalType": "uint256",
          "name": "",
          "type": "uint256"
        }
      ],
      "stateMutability": "view",
      "type": "function"
    },
    {
      "inputs": [],
      "name": "HAS_ROLE_SYSTEM_CONTEXT",
      "outputs": [
        {
          "internalType": "uint256",
          "name": "",
          "type": "uint256"
        }
      ],
      "stateMutability": "view",
      "type": "function"
    },
    {
      "inputs": [],
      "name": "POLICY_STATE_ACTIVE",
      "outputs": [
        {
          "internalType": "uint256",
          "name": "",
          "type": "uint256"
        }
      ],
      "stateMutability": "view",
      "type": "function"
    },
    {
      "inputs": [],
      "name": "POLICY_STATE_APPROVED",
      "outputs": [
        {
          "internalType": "uint256",
          "name": "",
          "type": "uint256"
        }
      ],
      "stateMutability": "view",
      "type": "function"
    },
    {
      "inputs": [],
      "name": "POLICY_STATE_BUYBACK",
      "outputs": [
        {
          "internalType": "uint256",
          "name": "",
          "type": "uint256"
        }
      ],
      "stateMutability": "view",
      "type": "function"
    },
    {
      "inputs": [],
      "name": "POLICY_STATE_CANCELLED",
      "outputs": [
        {
          "internalType": "uint256",
          "name": "",
          "type": "uint256"
        }
      ],
      "stateMutability": "view",
      "type": "function"
    },
    {
      "inputs": [],
      "name": "POLICY_STATE_CLOSED",
      "outputs": [
        {
          "internalType": "uint256",
          "name": "",
          "type": "uint256"
        }
      ],
      "stateMutability": "view",
      "type": "function"
    },
    {
      "inputs": [],
      "name": "POLICY_STATE_CREATED",
      "outputs": [
        {
          "internalType": "uint256",
          "name": "",
          "type": "uint256"
        }
      ],
      "stateMutability": "view",
      "type": "function"
    },
    {
      "inputs": [],
      "name": "POLICY_STATE_INITIATED",
      "outputs": [
        {
          "internalType": "uint256",
          "name": "",
          "type": "uint256"
        }
      ],
      "stateMutability": "view",
      "type": "function"
    },
    {
      "inputs": [],
      "name": "POLICY_STATE_IN_APPROVAL",
      "outputs": [
        {
          "internalType": "uint256",
          "name": "",
          "type": "uint256"
        }
      ],
      "stateMutability": "view",
      "type": "function"
    },
    {
      "inputs": [],
      "name": "POLICY_STATE_MATURED",
      "outputs": [
        {
          "internalType": "uint256",
          "name": "",
          "type": "uint256"
        }
      ],
      "stateMutability": "view",
      "type": "function"
    },
    {
      "inputs": [],
      "name": "ROLEGROUP_APPROVED_USERS",
      "outputs": [
        {
          "internalType": "bytes32",
          "name": "",
          "type": "bytes32"
        }
      ],
      "stateMutability": "view",
      "type": "function"
    },
    {
      "inputs": [],
      "name": "ROLEGROUP_BROKERS",
      "outputs": [
        {
          "internalType": "bytes32",
          "name": "",
          "type": "bytes32"
        }
      ],
      "stateMutability": "view",
      "type": "function"
    },
    {
      "inputs": [],
      "name": "ROLEGROUP_CAPITAL_PROVIDERS",
      "outputs": [
        {
          "internalType": "bytes32",
          "name": "",
          "type": "bytes32"
        }
      ],
      "stateMutability": "view",
      "type": "function"
    },
    {
      "inputs": [],
      "name": "ROLEGROUP_CLAIMS_ADMINS",
      "outputs": [
        {
          "internalType": "bytes32",
          "name": "",
          "type": "bytes32"
        }
      ],
      "stateMutability": "view",
      "type": "function"
    },
    {
      "inputs": [],
      "name": "ROLEGROUP_ENTITY_ADMINS",
      "outputs": [
        {
          "internalType": "bytes32",
          "name": "",
          "type": "bytes32"
        }
      ],
      "stateMutability": "view",
      "type": "function"
    },
    {
      "inputs": [],
      "name": "ROLEGROUP_ENTITY_MANAGERS",
      "outputs": [
        {
          "internalType": "bytes32",
          "name": "",
          "type": "bytes32"
        }
      ],
      "stateMutability": "view",
      "type": "function"
    },
    {
      "inputs": [],
      "name": "ROLEGROUP_ENTITY_REPS",
      "outputs": [
        {
          "internalType": "bytes32",
          "name": "",
          "type": "bytes32"
        }
      ],
      "stateMutability": "view",
      "type": "function"
    },
    {
      "inputs": [],
      "name": "ROLEGROUP_INSURED_PARTYS",
      "outputs": [
        {
          "internalType": "bytes32",
          "name": "",
          "type": "bytes32"
        }
      ],
      "stateMutability": "view",
      "type": "function"
    },
    {
      "inputs": [],
      "name": "ROLEGROUP_POLICY_CREATORS",
      "outputs": [
        {
          "internalType": "bytes32",
          "name": "",
          "type": "bytes32"
        }
      ],
      "stateMutability": "view",
      "type": "function"
    },
    {
      "inputs": [],
      "name": "ROLEGROUP_POLICY_OWNERS",
      "outputs": [
        {
          "internalType": "bytes32",
          "name": "",
          "type": "bytes32"
        }
      ],
      "stateMutability": "view",
      "type": "function"
    },
    {
      "inputs": [],
      "name": "ROLEGROUP_SYSTEM_ADMINS",
      "outputs": [
        {
          "internalType": "bytes32",
          "name": "",
          "type": "bytes32"
        }
      ],
      "stateMutability": "view",
      "type": "function"
    },
    {
      "inputs": [],
      "name": "ROLEGROUP_SYSTEM_MANAGERS",
      "outputs": [
        {
          "internalType": "bytes32",
          "name": "",
          "type": "bytes32"
        }
      ],
      "stateMutability": "view",
      "type": "function"
    },
    {
      "inputs": [],
      "name": "ROLEGROUP_TRADERS",
      "outputs": [
        {
          "internalType": "bytes32",
          "name": "",
          "type": "bytes32"
        }
      ],
      "stateMutability": "view",
      "type": "function"
    },
    {
      "inputs": [],
      "name": "ROLEGROUP_UNDERWRITERS",
      "outputs": [
        {
          "internalType": "bytes32",
          "name": "",
          "type": "bytes32"
        }
      ],
      "stateMutability": "view",
      "type": "function"
    },
    {
      "inputs": [],
      "name": "ROLE_APPROVED_USER",
      "outputs": [
        {
          "internalType": "bytes32",
          "name": "",
          "type": "bytes32"
        }
      ],
      "stateMutability": "view",
      "type": "function"
    },
    {
      "inputs": [],
      "name": "ROLE_BROKER",
      "outputs": [
        {
          "internalType": "bytes32",
          "name": "",
          "type": "bytes32"
        }
      ],
      "stateMutability": "view",
      "type": "function"
    },
    {
      "inputs": [],
      "name": "ROLE_CAPITAL_PROVIDER",
      "outputs": [
        {
          "internalType": "bytes32",
          "name": "",
          "type": "bytes32"
        }
      ],
      "stateMutability": "view",
      "type": "function"
    },
    {
      "inputs": [],
      "name": "ROLE_CLAIMS_ADMIN",
      "outputs": [
        {
          "internalType": "bytes32",
          "name": "",
          "type": "bytes32"
        }
      ],
      "stateMutability": "view",
      "type": "function"
    },
    {
      "inputs": [],
      "name": "ROLE_ENTITY_ADMIN",
      "outputs": [
        {
          "internalType": "bytes32",
          "name": "",
          "type": "bytes32"
        }
      ],
      "stateMutability": "view",
      "type": "function"
    },
    {
      "inputs": [],
      "name": "ROLE_ENTITY_MANAGER",
      "outputs": [
        {
          "internalType": "bytes32",
          "name": "",
          "type": "bytes32"
        }
      ],
      "stateMutability": "view",
      "type": "function"
    },
    {
      "inputs": [],
      "name": "ROLE_ENTITY_REP",
      "outputs": [
        {
          "internalType": "bytes32",
          "name": "",
          "type": "bytes32"
        }
      ],
      "stateMutability": "view",
      "type": "function"
    },
    {
      "inputs": [],
      "name": "ROLE_INSURED_PARTY",
      "outputs": [
        {
          "internalType": "bytes32",
          "name": "",
          "type": "bytes32"
        }
      ],
      "stateMutability": "view",
      "type": "function"
    },
    {
      "inputs": [],
      "name": "ROLE_PENDING_BROKER",
      "outputs": [
        {
          "internalType": "bytes32",
          "name": "",
          "type": "bytes32"
        }
      ],
      "stateMutability": "view",
      "type": "function"
    },
    {
      "inputs": [],
      "name": "ROLE_PENDING_CLAIMS_ADMIN",
      "outputs": [
        {
          "internalType": "bytes32",
          "name": "",
          "type": "bytes32"
        }
      ],
      "stateMutability": "view",
      "type": "function"
    },
    {
      "inputs": [],
      "name": "ROLE_PENDING_INSURED_PARTY",
      "outputs": [
        {
          "internalType": "bytes32",
          "name": "",
          "type": "bytes32"
        }
      ],
      "stateMutability": "view",
      "type": "function"
    },
    {
      "inputs": [],
      "name": "ROLE_PENDING_UNDERWRITER",
      "outputs": [
        {
          "internalType": "bytes32",
          "name": "",
          "type": "bytes32"
        }
      ],
      "stateMutability": "view",
      "type": "function"
    },
    {
      "inputs": [],
      "name": "ROLE_POLICY_CREATOR",
      "outputs": [
        {
          "internalType": "bytes32",
          "name": "",
          "type": "bytes32"
        }
      ],
      "stateMutability": "view",
      "type": "function"
    },
    {
      "inputs": [],
      "name": "ROLE_POLICY_OWNER",
      "outputs": [
        {
          "internalType": "bytes32",
          "name": "",
          "type": "bytes32"
        }
      ],
      "stateMutability": "view",
      "type": "function"
    },
    {
      "inputs": [],
      "name": "ROLE_SYSTEM_ADMIN",
      "outputs": [
        {
          "internalType": "bytes32",
          "name": "",
          "type": "bytes32"
        }
      ],
      "stateMutability": "view",
      "type": "function"
    },
    {
      "inputs": [],
      "name": "ROLE_SYSTEM_MANAGER",
      "outputs": [
        {
          "internalType": "bytes32",
          "name": "",
          "type": "bytes32"
        }
      ],
      "stateMutability": "view",
      "type": "function"
    },
    {
      "inputs": [],
      "name": "ROLE_UNDERWRITER",
      "outputs": [
        {
          "internalType": "bytes32",
          "name": "",
          "type": "bytes32"
        }
      ],
      "stateMutability": "view",
      "type": "function"
    },
    {
      "inputs": [],
      "name": "SETTING_ENTITY_DELEGATE",
      "outputs": [
        {
          "internalType": "bytes32",
          "name": "",
          "type": "bytes32"
        }
      ],
      "stateMutability": "view",
      "type": "function"
    },
    {
      "inputs": [],
      "name": "SETTING_ENTITY_DEPLOYER",
      "outputs": [
        {
          "internalType": "bytes32",
          "name": "",
          "type": "bytes32"
        }
      ],
      "stateMutability": "view",
      "type": "function"
    },
    {
      "inputs": [],
      "name": "SETTING_ENTITY_IMPL",
      "outputs": [
        {
          "internalType": "bytes32",
          "name": "",
          "type": "bytes32"
        }
      ],
      "stateMutability": "view",
      "type": "function"
    },
    {
      "inputs": [],
      "name": "SETTING_ETHER_TOKEN",
      "outputs": [
        {
          "internalType": "bytes32",
          "name": "",
          "type": "bytes32"
        }
      ],
      "stateMutability": "view",
      "type": "function"
    },
    {
      "inputs": [],
      "name": "SETTING_FEEBANK",
      "outputs": [
        {
          "internalType": "bytes32",
          "name": "",
          "type": "bytes32"
        }
      ],
      "stateMutability": "view",
      "type": "function"
    },
    {
      "inputs": [],
      "name": "SETTING_FEEBANK_IMPL",
      "outputs": [
        {
          "internalType": "bytes32",
          "name": "",
          "type": "bytes32"
        }
      ],
      "stateMutability": "view",
      "type": "function"
    },
    {
      "inputs": [],
      "name": "SETTING_MARKET",
      "outputs": [
        {
          "internalType": "bytes32",
          "name": "",
          "type": "bytes32"
        }
      ],
      "stateMutability": "view",
      "type": "function"
    },
    {
      "inputs": [],
      "name": "SETTING_MARKET_IMPL",
      "outputs": [
        {
          "internalType": "bytes32",
          "name": "",
          "type": "bytes32"
        }
      ],
      "stateMutability": "view",
      "type": "function"
    },
    {
      "inputs": [],
      "name": "SETTING_POLICY_DELEGATE",
      "outputs": [
        {
          "internalType": "bytes32",
          "name": "",
          "type": "bytes32"
        }
      ],
      "stateMutability": "view",
      "type": "function"
    },
    {
      "inputs": [],
      "name": "SETTING_POLICY_IMPL",
      "outputs": [
        {
          "internalType": "bytes32",
          "name": "",
          "type": "bytes32"
        }
      ],
      "stateMutability": "view",
      "type": "function"
    },
    {
      "inputs": [],
      "name": "TRANCHE_STATE_ACTIVE",
      "outputs": [
        {
          "internalType": "uint256",
          "name": "",
          "type": "uint256"
        }
      ],
      "stateMutability": "view",
      "type": "function"
    },
    {
      "inputs": [],
      "name": "TRANCHE_STATE_CANCELLED",
      "outputs": [
        {
          "internalType": "uint256",
          "name": "",
          "type": "uint256"
        }
      ],
      "stateMutability": "view",
      "type": "function"
    },
    {
      "inputs": [],
      "name": "TRANCHE_STATE_CREATED",
      "outputs": [
        {
          "internalType": "uint256",
          "name": "",
          "type": "uint256"
        }
      ],
      "stateMutability": "view",
      "type": "function"
    },
    {
      "inputs": [],
      "name": "TRANCHE_STATE_MATURED",
      "outputs": [
        {
          "internalType": "uint256",
          "name": "",
          "type": "uint256"
        }
      ],
      "stateMutability": "view",
      "type": "function"
    },
    {
      "inputs": [],
      "name": "TRANCHE_STATE_SELLING",
      "outputs": [
        {
          "internalType": "uint256",
          "name": "",
          "type": "uint256"
        }
      ],
      "stateMutability": "view",
      "type": "function"
    },
    {
      "inputs": [],
      "name": "acl",
      "outputs": [
        {
          "internalType": "contract IACL",
          "name": "",
          "type": "address"
        }
      ],
      "stateMutability": "view",
      "type": "function"
    },
    {
      "inputs": [],
      "name": "aclContext",
      "outputs": [
        {
          "internalType": "bytes32",
          "name": "",
          "type": "bytes32"
        }
      ],
      "stateMutability": "view",
      "type": "function"
    },
    {
      "inputs": [],
      "name": "getCommissionBalances",
      "outputs": [
        {
          "internalType": "uint256",
          "name": "brokerCommissionBalance_",
          "type": "uint256"
        },
        {
          "internalType": "uint256",
          "name": "claimsAdminCommissionBalance_",
          "type": "uint256"
        },
        {
          "internalType": "uint256",
          "name": "naymsCommissionBalance_",
          "type": "uint256"
        },
        {
          "internalType": "uint256",
          "name": "underwriterCommissionBalance_",
          "type": "uint256"
        }
      ],
      "stateMutability": "view",
      "type": "function"
    },
    {
      "inputs": [],
      "name": "getCommissionRates",
      "outputs": [
        {
          "internalType": "uint256",
          "name": "brokerCommissionBP_",
          "type": "uint256"
        },
        {
          "internalType": "uint256",
          "name": "claimsAdminCommissionBP_",
          "type": "uint256"
        },
        {
          "internalType": "uint256",
          "name": "naymsCommissionBP_",
          "type": "uint256"
        },
        {
          "internalType": "uint256",
          "name": "underwriterCommissionBP_",
          "type": "uint256"
        }
      ],
      "stateMutability": "view",
      "type": "function"
    },
    {
      "inputs": [],
      "name": "getSelectors",
      "outputs": [
        {
          "internalType": "bytes",
          "name": "",
          "type": "bytes"
        }
      ],
      "stateMutability": "pure",
      "type": "function"
    },
    {
      "inputs": [
        {
          "internalType": "address",
          "name": "_addr",
          "type": "address"
        },
        {
          "internalType": "bytes32",
          "name": "_roleGroup",
          "type": "bytes32"
        }
      ],
      "name": "inRoleGroup",
      "outputs": [
        {
          "internalType": "bool",
          "name": "",
          "type": "bool"
        }
      ],
      "stateMutability": "view",
      "type": "function"
    },
    {
      "inputs": [
        {
          "internalType": "bytes32",
          "name": "_ctx",
          "type": "bytes32"
        },
        {
          "internalType": "address",
          "name": "_addr",
          "type": "address"
        },
        {
          "internalType": "bytes32",
          "name": "_roleGroup",
          "type": "bytes32"
        }
      ],
      "name": "inRoleGroupWithContext",
      "outputs": [
        {
          "internalType": "bool",
          "name": "",
          "type": "bool"
        }
      ],
      "stateMutability": "view",
      "type": "function"
    },
    {
      "inputs": [
        {
          "internalType": "address",
          "name": "_addr",
          "type": "address"
        }
      ],
      "name": "isAdmin",
      "outputs": [
        {
          "internalType": "bool",
          "name": "",
          "type": "bool"
        }
      ],
      "stateMutability": "view",
      "type": "function"
    },
    {
      "inputs": [],
      "name": "payCommissions",
      "outputs": [],
      "stateMutability": "nonpayable",
      "type": "function"
    },
    {
      "inputs": [],
      "name": "settings",
      "outputs": [
        {
          "internalType": "contract ISettings",
          "name": "",
          "type": "address"
        }
      ],
      "stateMutability": "view",
      "type": "function"
    }
  ],
  "bytecode": "0x60806040526001600b553480156200001657600080fd5b5060405162001da438038062001da4833981016040819052620000399162000249565b8080818060006040516200005b906773657474696e677360c01b815260080190565b90815260405190819003602001902080546001600160a01b03929092166001600160a01b03199092169190911790556200009462000186565b60405163a1e31a6560e01b81523060048201526001600160a01b03919091169063a1e31a659060240160206040518083038186803b158015620000d657600080fd5b505afa158015620000eb573d6000803e3d6000fd5b505050506040513d601f19601f8201168201806040525081019062000111919062000270565b60408051691858db10dbdb9d195e1d60b21b81526001600a820152815190819003602a018120929092556773657474696e677360c01b8252600060088301525160289181900391909101902080546001600160a01b0319166001600160a01b039390931692909217909155506200028a915050565b600080604051620001a5906773657474696e677360c01b815260080190565b90815260408051602092819003830181205463de28735960e01b825291516001600160a01b039092169263de28735992600480840193829003018186803b158015620001f057600080fd5b505afa15801562000205573d6000803e3d6000fd5b505050506040513d601f19601f820116820180604052508101906200022b919062000249565b905090565b6001600160a01b03811681146200024657600080fd5b50565b6000602082840312156200025c57600080fd5b8151620002698162000230565b9392505050565b6000602082840312156200028357600080fd5b5051919050565b611b0a806200029a6000396000f3fe608060405234801561001057600080fd5b50600436106104335760003560e01c80638398389a11610236578063c820fa751161013b578063e06174e4116100c3578063ef4a28b911610087578063ef4a28b9146104b3578063f54dc80214610b8a578063f67d882c14610b92578063fa4a215c14610b9a578063fbc0276414610bc157600080fd5b8063e06174e414610ae6578063e0892bad14610aee578063e3097dc214610b15578063e5bb5d0714610b3c578063eebb74e014610b6357600080fd5b8063db9745001161010a578063db97450014610883578063de28735914610a78578063de764acf14610883578063de841bac14610a98578063def26bce14610abf57600080fd5b8063c820fa751461066c578063ca77fcd714610a22578063cf45439114610a2a578063db691b1414610a5157600080fd5b80639f6e37a7116101be578063a87c785f1161018d578063a87c785f146109a5578063abda824714610438578063b32ef756146109cc578063b3f438aa146109f3578063b46b88fe146109fb57600080fd5b80639f6e37a714610930578063a01dac1314610883578063a32fc16214610957578063a3cf5fdf1461097e57600080fd5b80639424cf5e116102055780639424cf5e1461088b5780639479ab2a146108b257806394b6d14d146108d9578063999152cf146108e15780639ae5f3781461090957600080fd5b80638398389a14610849578063877d172314610438578063899a0ec714610870578063910f5ca91461088357600080fd5b80633e107d4a1161033c57806355d48c07116102c4578063645b129f11610293578063645b129f1461066c578063653358281461045357806372bef9c6146107d4578063741cb7d6146107fb578063767974b51461082257600080fd5b806355d48c071461075f57806359dab758146104535780635db79855146107865780635dddee31146107ad57600080fd5b8063468740a81161030b578063468740a81461067c57806347bf603d146106a35780634b503f0b146106ca5780634b7d215e14610711578063551e385a1461073857600080fd5b80633e107d4a1461061e5780633f42ffef1461064557806341bb48971461066c578063423d20f31461067457600080fd5b80631f9b2874116103bf578063297a012a1161038e578063297a012a146105825780632a8873ef146105a95780632b521d47146105d05780633407d3cb146105f757806339f973b41461045357600080fd5b80631f9b2874146104ea57806324d7806c1461051157806324e076a21461053457806326f885351461055b57600080fd5b80631205d133116104065780631205d1331461048c57806316107552146104b3578063165683181461043857806319efe072146104bb5780631adcdac6146104c357600080fd5b806301750873146104385780630a079b2c146104535780630ad4cbbd1461045b5780630e0fc35214610465575b600080fd5b610440600181565b6040519081526020015b60405180910390f35b610440600281565b610463610bd4565b005b6104407f063693c9545b949ff498535f9e0aa95ada8e88c062d28e2f219b896e151e126681565b6104407f098afcb3a137a2ba8835fbf7daecb275af5afb3479f12844d5b7bfb8134e7ced81565b610440600481565b610440600681565b6104407f8858a0dfcbfa158449ee0a3b5dae898cecc0746569152b05bbab9526bcc1686481565b6104407f5c6c7d4897f0ae38084370e7a61ea386e95c7f54629c0b793a0ac47751f1240581565b61052461051f36600461187e565b611360565b604051901515815260200161044a565b6104407f18ecf8d2173ca8a5766fd7dde3bdb54017dc5413dc07cd6ba1785b63e9c62b8281565b6104407f5c7c2bcb0d2dfef15c423063aae2051d462fcd269b5e9b8c1733b3211e17bc8a81565b6104407f6a4d660b9f1720511be22f039683db86d0d0d207c2ad9255325630800d4fb53981565b6104407f325a96ceff51ae6b22de25dd7b4c8b9532dddf936add8ef16fc99219ff666a8481565b6104407fcca1ad0e9fb374bbb9dc3d0cbfd073ef01bd1d01d5a35bd0a93403fbee64318d81565b6104407f2623111b4a77e415ab5147aeb27da976c7a27950b6ec4022b4b9e7717626699281565b6104407f6f244974cc67342b1bd623d411fd8100ec9eddbac05348e71d1a9296de6264a581565b6104407f1bf52521006d8a3718b0692b7f32c8ee781bfed9e9215eb5b8fc3b34749fb5b581565b610440600381565b6104406113eb565b6104407f65d0db34d07de31cfb8ca9f95dabc0463ce6084a447abb757f682f36ae3682e381565b6104407f052b977cd6067e43b9140f08c53a22b88418f4d3ab7bd811716130d5a20cd8a381565b60408051630ad4cbbd60e01b6020820152637aa6e40160e11b602482015263999152cf60e01b60288201528151600c818303018152602c9091019182905261044a9161189b565b6104407f9574e138325b5c365da8d5cc75cf22323ed6f3ce52fac5621225020a162a4c6181565b6104407fc72bfe3e0f1799ce0d90c4c72cf8f07d0cfa8121d51cb05d8c827f0896d8c0b681565b6104407f807c518efb8285611b15c88a7701e4f40a0e9a38ce3e59946e587a8932410af881565b6104407f428fa9969c6b3fab7bbdac20b73706f1f670a386be0a76d4060c185898b2aa2281565b6104407f8d632412946eb879ebe5af90230c7db3f6d17c94c0ecea207c97e15fa9bb77c581565b6104407f2db57b52c5f263c359ba92194f5590b4a7f5fc1f1ca02f10cea531182851fe2881565b6104407f0922a3d5a8713fcf92ec8607b882fd2fcfefd8552a3c38c726d96fcde8b1d05381565b6104407f9c259f9342405d034b902fd5e1bba083f008e305ea4eb6a0dce9ac9a6256b63a81565b6104407fdd53f360aa973c3daf7ff269398ced1ce7713d025c750c443c2abbcd89438f8381565b61052461087e3660046118f0565b611420565b610440600081565b6104407fcfd13d23f7313d54f3a6d98c505045c58749561dd04531f9f2422a8818f0c5f881565b6104407fa33a59233069411012cc12aa76a8a426fe6bd113968b520118fdc9cb6f49ae3081565b610440600881565b6108e96114bb565b60408051948552602085019390935291830152606082015260800161044a565b6104407fab789755f97e00f29522efbee9df811265010c87cf80f8fd7d5fc5cb8a84795681565b6104407f3bd41a6d84c7de1e9d18694bd113405090439b9e32d5ab69d575821d513d83b581565b6104407f7c23ac65f971ee875d4a6408607fabcb777f38cf73b3d6d891648646cee81f0581565b6104407fd708193a9c8f5fbde4d1c80a1e6f79b5f38a27f85ca86eccac69e5a899120ead81565b6104407f9f4d1dc1107c7d9d9f533f41b5aa5dbbb3b830e3b597338a8aee228ab083eb3a81565b6104407f391db9b692991836c38aedfd24d7f4c9837739d4ee0664fe4ee6892a51e025a781565b610440606481565b6104407f0e8925aa0bfe65f831f6c9099dd95b0614eb69312630ef3497bee453d9ed40a981565b610440600781565b6104407fad56f8a5432d383c3e2c11b7b248f889e6ec544090486b3623f0f4ae1fad763b81565b6104407f1d60d7146dec74c1b1a9dc17243aaa3b56533f607c16a718bcd78d8d852d6e5281565b610a806115a5565b6040516001600160a01b03909116815260200161044a565b6104407f7f7cc8b2bac31c0e372310212be653d159f17ff3c41938a81446553db842afb681565b6104407f610cf17b5a943fc722922fc6750fb40254c24c6b0efd32554aa7c03b4ca98e9c81565b610a8061164a565b6104407f737de6bdef2e959d9f968f058e3e78b7365d4eda8e4023ecac2d51e3dbfb140181565b6104407fa449044fc5332c1625929b3afecb2f821955279285b4a8406a6ffa8968c1b7cf81565b6104407f9c687089ee5ebd0bc2ba9c954ebc7a0304b4046890b9064e5742c8c6c7afeab281565b6104407f251766d8c7c7a6b927647b0f20c99f490db1c283eb0c482446085aaaa44b5e7381565b6108e9611686565b610440600581565b6104407fc59d706f362a04b6cf4757dd3df6eb5babc7c26ab5dcc7c9c43b142f25da10a581565b610524610bcf366004611928565b611743565b6002600b541415610c2c5760405162461bcd60e51b815260206004820152601f60248201527f5265656e7472616e637947756172643a207265656e7472616e742063616c6c0060448201526064015b60405180910390fd5b6002600b5560405164737461746560d81b8152600090600390600501908152602001604051809103902054905060058114158015610c6957508015155b610ca85760405162461bcd60e51b815260206004820152601060248201526f1b5d5cdd08189948185c1c1c9bdd995960821b6044820152606401610c23565b6000610cd37f391db9b692991836c38aedfd24d7f4c9837739d4ee0664fe4ee6892a51e025a761175e565b90506000610d007f2623111b4a77e415ab5147aeb27da976c7a27950b6ec4022b4b9e7717626699261175e565b90506000610d2d7f8858a0dfcbfa158449ee0a3b5dae898cecc0746569152b05bbab9526bcc1686461175e565b90506000610d3961164a565b60405163a8d37cb960e01b81527f6a4d660b9f1720511be22f039683db86d0d0d207c2ad9255325630800d4fb53960048201526001600160a01b03919091169063a8d37cb99060240160206040518083038186803b158015610d9a57600080fd5b505afa158015610dae573d6000803e3d6000fd5b505050506040513d601f19601f82011682018060405250810190610dd29190611964565b9050600080604051610dee90631d5b9a5d60e21b815260040190565b908152604051908190036020018120546001600160a01b03169150600090600390610e2a90600080516020611ab58339815191528152601c0190565b9081526020016040518091039020541115610f3757806001600160a01b031663a9059cbb866003604051610e6f90600080516020611ab58339815191528152601c0190565b908152604051908190036020018120546001600160e01b031960e085901b168252610eb192916004016001600160a01b03929092168252602082015260400190565b602060405180830381600087803b158015610ecb57600080fd5b505af1158015610edf573d6000803e3d6000fd5b505050506040513d601f19601f82011682018060405250810190610f039190611981565b5060006003604051610f2690600080516020611ab58339815191528152601c0190565b908152604051908190036020019020555b60006003604051610f65907662726f6b6572436f6d6d697373696f6e42616c616e636560481b815260170190565b908152602001604051809103902054111561108a57806001600160a01b031663a9059cbb856003604051610fb6907662726f6b6572436f6d6d697373696f6e42616c616e636560481b815260170190565b908152604051908190036020018120546001600160e01b031960e085901b168252610ff892916004016001600160a01b03929092168252602082015260400190565b602060405180830381600087803b15801561101257600080fd5b505af1158015611026573d6000803e3d6000fd5b505050506040513d601f19601f8201168201806040525081019061104a9190611981565b5060006003604051611079907662726f6b6572436f6d6d697373696f6e42616c616e636560481b815260170190565b908152604051908190036020019020555b600060036040516110b790756e61796d73436f6d6d697373696f6e42616c616e636560501b815260160190565b90815260200160405180910390205411156111da57806001600160a01b031663a9059cbb83600360405161110790756e61796d73436f6d6d697373696f6e42616c616e636560501b815260160190565b908152604051908190036020018120546001600160e01b031960e085901b16825261114992916004016001600160a01b03929092168252602082015260400190565b602060405180830381600087803b15801561116357600080fd5b505af1158015611177573d6000803e3d6000fd5b505050506040513d601f19601f8201168201806040525081019061119b9190611981565b50600060036040516111c990756e61796d73436f6d6d697373696f6e42616c616e636560501b815260160190565b908152604051908190036020019020555b600060036040516111fc90600080516020611a958339815191528152601c0190565b908152602001604051809103902054111561130957806001600160a01b031663a9059cbb84600360405161124190600080516020611a958339815191528152601c0190565b908152604051908190036020018120546001600160e01b031960e085901b16825261128392916004016001600160a01b03929092168252602082015260400190565b602060405180830381600087803b15801561129d57600080fd5b505af11580156112b1573d6000803e3d6000fd5b505050506040513d601f19601f820116820180604052508101906112d59190611981565b50600060036040516112f890600080516020611a958339815191528152601c0190565b908152604051908190036020019020555b826001600160a01b0316846001600160a01b0316866001600160a01b03167f5882cde589b15daf405abe9ef23238bccb3d01d5b0a3bf0db2c099838ee61f2760405160405180910390a450506001600b5550505050565b600061136a6115a5565b604051630935e01b60e21b81526001600160a01b03848116600483015291909116906324d7806c9060240160206040518083038186803b1580156113ad57600080fd5b505afa1580156113c1573d6000803e3d6000fd5b505050506040513d601f19601f820116820180604052508101906113e59190611981565b92915050565b6000600160405161140c90691858db10dbdb9d195e1d60b21b8152600a0190565b908152602001604051809103902054905090565b600061142a6115a5565b6040516349fdb87160e01b8152600481018690526001600160a01b0385811660248301526044820185905291909116906349fdb8719060640160206040518083038186803b15801561147b57600080fd5b505afa15801561148f573d6000803e3d6000fd5b505050506040513d601f19601f820116820180604052508101906114b39190611981565b949350505050565b60008060008060036040516114e89071062726f6b6572436f6d6d697373696f6e42560741b815260120190565b908152604051908190036020018120547f636c61696d7341646d696e436f6d6d697373696f6e425000000000000000000082529450600390601701908152604051908190036020018120547006e61796d73436f6d6d697373696f6e425607c1b82529350600390601101908152604051908190036020018120547f756e646572777269746572436f6d6d697373696f6e4250000000000000000000825292506003906017015b908152602001604051809103902054905090919293565b6000806040516115c3906773657474696e677360c01b815260080190565b90815260408051602092819003830181205463de28735960e01b825291516001600160a01b039092169263de28735992600480840193829003018186803b15801561160d57600080fd5b505afa158015611621573d6000803e3d6000fd5b505050506040513d601f19601f820116820180604052508101906116459190611964565b905090565b600080604051611668906773657474696e677360c01b815260080190565b908152604051908190036020019020546001600160a01b0316919050565b60008060008060036040516116b8907662726f6b6572436f6d6d697373696f6e42616c616e636560481b815260170190565b90815260405190819003602001812054600080516020611ab583398151915282529450600390601c0190815260405190819003602001812054756e61796d73436f6d6d697373696f6e42616c616e636560501b8252935060039060160190815260405190819003602001812054600080516020611a9583398151915282529250600390601c0161158e565b60006117576117506113eb565b8484611420565b9392505050565b6000806117696115a5565b6001600160a01b031663dae0faf261177f6113eb565b856040518363ffffffff1660e01b81526004016117a6929190918252602082015260400190565b60006040518083038186803b1580156117be57600080fd5b505afa1580156117d2573d6000803e3d6000fd5b505050506040513d6000823e601f3d908101601f191682016040526117fa91908101906119b9565b905060008151116118435760405162461bcd60e51b81526020600482015260136024820152726e6f20656e74697479207769746820726f6c6560681b6044820152606401610c23565b8060008151811061185657611856611a7e565b6020026020010151915050919050565b6001600160a01b038116811461187b57600080fd5b50565b60006020828403121561189057600080fd5b813561175781611866565b600060208083528351808285015260005b818110156118c8578581018301518582016040015282016118ac565b818111156118da576000604083870101525b50601f01601f1916929092016040019392505050565b60008060006060848603121561190557600080fd5b83359250602084013561191781611866565b929592945050506040919091013590565b6000806040838503121561193b57600080fd5b823561194681611866565b946020939093013593505050565b805161195f81611866565b919050565b60006020828403121561197657600080fd5b815161175781611866565b60006020828403121561199357600080fd5b8151801515811461175757600080fd5b634e487b7160e01b600052604160045260246000fd5b600060208083850312156119cc57600080fd5b825167ffffffffffffffff808211156119e457600080fd5b818501915085601f8301126119f857600080fd5b815181811115611a0a57611a0a6119a3565b8060051b604051601f19603f83011681018181108582111715611a2f57611a2f6119a3565b604052918252848201925083810185019188831115611a4d57600080fd5b938501935b82851015611a7257611a6385611954565b84529385019392850192611a52565b98975050505050505050565b634e487b7160e01b600052603260045260246000fdfe756e646572777269746572436f6d6d697373696f6e42616c616e636500000000636c61696d7341646d696e436f6d6d697373696f6e42616c616e636500000000a264697066735822122014e50ee23c2acba8a2b53dfabfef7c0458b2b558c831d0692c262a7bc551861b64736f6c63430008090033",
  "linkReferences": {},
  "deployedLinkReferences": {}
}