{
  "_format": "hh-sol-artifact-1",
  "contractName": "PolicyPremiumsFacet",
  "sourceName": "contracts/PolicyPremiumsFacet.sol",
  "abi": [
    {
      "inputs": [
        {
          "internalType": "address",
          "name": "_settings",
          "type": "address"
        }
      ],
      "stateMutability": "nonpayable",
      "type": "constructor"
    },
    {
      "anonymous": false,
      "inputs": [
        {
          "indexed": true,
          "internalType": "uint256",
          "name": "state",
          "type": "uint256"
        },
        {
          "indexed": true,
          "internalType": "address",
          "name": "caller",
          "type": "address"
        }
      ],
      "name": "PolicyStateUpdated",
      "type": "event"
    },
    {
      "anonymous": false,
      "inputs": [
        {
          "indexed": true,
          "internalType": "uint256",
          "name": "trancheIndex",
          "type": "uint256"
        },
        {
          "indexed": true,
          "internalType": "uint256",
          "name": "amount",
          "type": "uint256"
        },
        {
          "indexed": true,
          "internalType": "address",
          "name": "caller",
          "type": "address"
        }
      ],
      "name": "PremiumPayment",
      "type": "event"
    },
    {
      "anonymous": false,
      "inputs": [
        {
          "indexed": true,
          "internalType": "uint256",
          "name": "trancheIndex",
          "type": "uint256"
        },
        {
          "indexed": true,
          "internalType": "uint256",
          "name": "state",
          "type": "uint256"
        },
        {
          "indexed": true,
          "internalType": "address",
          "name": "caller",
          "type": "address"
        }
      ],
      "name": "TrancheStateUpdated",
      "type": "event"
    },
    {
      "inputs": [],
      "name": "CANNOT_ASSIGN",
      "outputs": [
        {
          "internalType": "uint256",
          "name": "",
          "type": "uint256"
        }
      ],
      "stateMutability": "view",
      "type": "function"
    },
    {
      "inputs": [],
      "name": "CANNOT_ASSIGN_USER_NOT_APPROVED",
      "outputs": [
        {
          "internalType": "uint256",
          "name": "",
          "type": "uint256"
        }
      ],
      "stateMutability": "view",
      "type": "function"
    },
    {
      "inputs": [],
      "name": "CAN_ASSIGN_HAS_ROLE",
      "outputs": [
        {
          "internalType": "uint256",
          "name": "",
          "type": "uint256"
        }
      ],
      "stateMutability": "view",
      "type": "function"
    },
    {
      "inputs": [],
      "name": "CAN_ASSIGN_IS_ADMIN",
      "outputs": [
        {
          "internalType": "uint256",
          "name": "",
          "type": "uint256"
        }
      ],
      "stateMutability": "view",
      "type": "function"
    },
    {
      "inputs": [],
      "name": "CAN_ASSIGN_IS_OWN_CONTEXT",
      "outputs": [
        {
          "internalType": "uint256",
          "name": "",
          "type": "uint256"
        }
      ],
      "stateMutability": "view",
      "type": "function"
    },
    {
      "inputs": [],
      "name": "DOES_NOT_HAVE_ROLE",
      "outputs": [
        {
          "internalType": "uint256",
          "name": "",
          "type": "uint256"
        }
      ],
      "stateMutability": "view",
      "type": "function"
    },
    {
      "inputs": [],
      "name": "HAS_ROLE_CONTEXT",
      "outputs": [
        {
          "internalType": "uint256",
          "name": "",
          "type": "uint256"
        }
      ],
      "stateMutability": "view",
      "type": "function"
    },
    {
      "inputs": [],
      "name": "HAS_ROLE_SYSTEM_CONTEXT",
      "outputs": [
        {
          "internalType": "uint256",
          "name": "",
          "type": "uint256"
        }
      ],
      "stateMutability": "view",
      "type": "function"
    },
    {
      "inputs": [],
      "name": "POLICY_STATE_ACTIVE",
      "outputs": [
        {
          "internalType": "uint256",
          "name": "",
          "type": "uint256"
        }
      ],
      "stateMutability": "view",
      "type": "function"
    },
    {
      "inputs": [],
      "name": "POLICY_STATE_APPROVED",
      "outputs": [
        {
          "internalType": "uint256",
          "name": "",
          "type": "uint256"
        }
      ],
      "stateMutability": "view",
      "type": "function"
    },
    {
      "inputs": [],
      "name": "POLICY_STATE_BUYBACK",
      "outputs": [
        {
          "internalType": "uint256",
          "name": "",
          "type": "uint256"
        }
      ],
      "stateMutability": "view",
      "type": "function"
    },
    {
      "inputs": [],
      "name": "POLICY_STATE_CANCELLED",
      "outputs": [
        {
          "internalType": "uint256",
          "name": "",
          "type": "uint256"
        }
      ],
      "stateMutability": "view",
      "type": "function"
    },
    {
      "inputs": [],
      "name": "POLICY_STATE_CLOSED",
      "outputs": [
        {
          "internalType": "uint256",
          "name": "",
          "type": "uint256"
        }
      ],
      "stateMutability": "view",
      "type": "function"
    },
    {
      "inputs": [],
      "name": "POLICY_STATE_CREATED",
      "outputs": [
        {
          "internalType": "uint256",
          "name": "",
          "type": "uint256"
        }
      ],
      "stateMutability": "view",
      "type": "function"
    },
    {
      "inputs": [],
      "name": "POLICY_STATE_INITIATED",
      "outputs": [
        {
          "internalType": "uint256",
          "name": "",
          "type": "uint256"
        }
      ],
      "stateMutability": "view",
      "type": "function"
    },
    {
      "inputs": [],
      "name": "POLICY_STATE_IN_APPROVAL",
      "outputs": [
        {
          "internalType": "uint256",
          "name": "",
          "type": "uint256"
        }
      ],
      "stateMutability": "view",
      "type": "function"
    },
    {
      "inputs": [],
      "name": "POLICY_STATE_MATURED",
      "outputs": [
        {
          "internalType": "uint256",
          "name": "",
          "type": "uint256"
        }
      ],
      "stateMutability": "view",
      "type": "function"
    },
    {
      "inputs": [],
      "name": "ROLEGROUP_APPROVED_USERS",
      "outputs": [
        {
          "internalType": "bytes32",
          "name": "",
          "type": "bytes32"
        }
      ],
      "stateMutability": "view",
      "type": "function"
    },
    {
      "inputs": [],
      "name": "ROLEGROUP_BROKERS",
      "outputs": [
        {
          "internalType": "bytes32",
          "name": "",
          "type": "bytes32"
        }
      ],
      "stateMutability": "view",
      "type": "function"
    },
    {
      "inputs": [],
      "name": "ROLEGROUP_CAPITAL_PROVIDERS",
      "outputs": [
        {
          "internalType": "bytes32",
          "name": "",
          "type": "bytes32"
        }
      ],
      "stateMutability": "view",
      "type": "function"
    },
    {
      "inputs": [],
      "name": "ROLEGROUP_CLAIMS_ADMINS",
      "outputs": [
        {
          "internalType": "bytes32",
          "name": "",
          "type": "bytes32"
        }
      ],
      "stateMutability": "view",
      "type": "function"
    },
    {
      "inputs": [],
      "name": "ROLEGROUP_ENTITY_ADMINS",
      "outputs": [
        {
          "internalType": "bytes32",
          "name": "",
          "type": "bytes32"
        }
      ],
      "stateMutability": "view",
      "type": "function"
    },
    {
      "inputs": [],
      "name": "ROLEGROUP_ENTITY_MANAGERS",
      "outputs": [
        {
          "internalType": "bytes32",
          "name": "",
          "type": "bytes32"
        }
      ],
      "stateMutability": "view",
      "type": "function"
    },
    {
      "inputs": [],
      "name": "ROLEGROUP_ENTITY_REPS",
      "outputs": [
        {
          "internalType": "bytes32",
          "name": "",
          "type": "bytes32"
        }
      ],
      "stateMutability": "view",
      "type": "function"
    },
    {
      "inputs": [],
      "name": "ROLEGROUP_INSURED_PARTYS",
      "outputs": [
        {
          "internalType": "bytes32",
          "name": "",
          "type": "bytes32"
        }
      ],
      "stateMutability": "view",
      "type": "function"
    },
    {
      "inputs": [],
      "name": "ROLEGROUP_POLICY_CREATORS",
      "outputs": [
        {
          "internalType": "bytes32",
          "name": "",
          "type": "bytes32"
        }
      ],
      "stateMutability": "view",
      "type": "function"
    },
    {
      "inputs": [],
      "name": "ROLEGROUP_POLICY_OWNERS",
      "outputs": [
        {
          "internalType": "bytes32",
          "name": "",
          "type": "bytes32"
        }
      ],
      "stateMutability": "view",
      "type": "function"
    },
    {
      "inputs": [],
      "name": "ROLEGROUP_SYSTEM_ADMINS",
      "outputs": [
        {
          "internalType": "bytes32",
          "name": "",
          "type": "bytes32"
        }
      ],
      "stateMutability": "view",
      "type": "function"
    },
    {
      "inputs": [],
      "name": "ROLEGROUP_SYSTEM_MANAGERS",
      "outputs": [
        {
          "internalType": "bytes32",
          "name": "",
          "type": "bytes32"
        }
      ],
      "stateMutability": "view",
      "type": "function"
    },
    {
      "inputs": [],
      "name": "ROLEGROUP_TRADERS",
      "outputs": [
        {
          "internalType": "bytes32",
          "name": "",
          "type": "bytes32"
        }
      ],
      "stateMutability": "view",
      "type": "function"
    },
    {
      "inputs": [],
      "name": "ROLEGROUP_UNDERWRITERS",
      "outputs": [
        {
          "internalType": "bytes32",
          "name": "",
          "type": "bytes32"
        }
      ],
      "stateMutability": "view",
      "type": "function"
    },
    {
      "inputs": [],
      "name": "ROLE_APPROVED_USER",
      "outputs": [
        {
          "internalType": "bytes32",
          "name": "",
          "type": "bytes32"
        }
      ],
      "stateMutability": "view",
      "type": "function"
    },
    {
      "inputs": [],
      "name": "ROLE_BROKER",
      "outputs": [
        {
          "internalType": "bytes32",
          "name": "",
          "type": "bytes32"
        }
      ],
      "stateMutability": "view",
      "type": "function"
    },
    {
      "inputs": [],
      "name": "ROLE_CAPITAL_PROVIDER",
      "outputs": [
        {
          "internalType": "bytes32",
          "name": "",
          "type": "bytes32"
        }
      ],
      "stateMutability": "view",
      "type": "function"
    },
    {
      "inputs": [],
      "name": "ROLE_CLAIMS_ADMIN",
      "outputs": [
        {
          "internalType": "bytes32",
          "name": "",
          "type": "bytes32"
        }
      ],
      "stateMutability": "view",
      "type": "function"
    },
    {
      "inputs": [],
      "name": "ROLE_ENTITY_ADMIN",
      "outputs": [
        {
          "internalType": "bytes32",
          "name": "",
          "type": "bytes32"
        }
      ],
      "stateMutability": "view",
      "type": "function"
    },
    {
      "inputs": [],
      "name": "ROLE_ENTITY_MANAGER",
      "outputs": [
        {
          "internalType": "bytes32",
          "name": "",
          "type": "bytes32"
        }
      ],
      "stateMutability": "view",
      "type": "function"
    },
    {
      "inputs": [],
      "name": "ROLE_ENTITY_REP",
      "outputs": [
        {
          "internalType": "bytes32",
          "name": "",
          "type": "bytes32"
        }
      ],
      "stateMutability": "view",
      "type": "function"
    },
    {
      "inputs": [],
      "name": "ROLE_INSURED_PARTY",
      "outputs": [
        {
          "internalType": "bytes32",
          "name": "",
          "type": "bytes32"
        }
      ],
      "stateMutability": "view",
      "type": "function"
    },
    {
      "inputs": [],
      "name": "ROLE_PENDING_BROKER",
      "outputs": [
        {
          "internalType": "bytes32",
          "name": "",
          "type": "bytes32"
        }
      ],
      "stateMutability": "view",
      "type": "function"
    },
    {
      "inputs": [],
      "name": "ROLE_PENDING_CLAIMS_ADMIN",
      "outputs": [
        {
          "internalType": "bytes32",
          "name": "",
          "type": "bytes32"
        }
      ],
      "stateMutability": "view",
      "type": "function"
    },
    {
      "inputs": [],
      "name": "ROLE_PENDING_INSURED_PARTY",
      "outputs": [
        {
          "internalType": "bytes32",
          "name": "",
          "type": "bytes32"
        }
      ],
      "stateMutability": "view",
      "type": "function"
    },
    {
      "inputs": [],
      "name": "ROLE_PENDING_UNDERWRITER",
      "outputs": [
        {
          "internalType": "bytes32",
          "name": "",
          "type": "bytes32"
        }
      ],
      "stateMutability": "view",
      "type": "function"
    },
    {
      "inputs": [],
      "name": "ROLE_POLICY_CREATOR",
      "outputs": [
        {
          "internalType": "bytes32",
          "name": "",
          "type": "bytes32"
        }
      ],
      "stateMutability": "view",
      "type": "function"
    },
    {
      "inputs": [],
      "name": "ROLE_POLICY_OWNER",
      "outputs": [
        {
          "internalType": "bytes32",
          "name": "",
          "type": "bytes32"
        }
      ],
      "stateMutability": "view",
      "type": "function"
    },
    {
      "inputs": [],
      "name": "ROLE_SYSTEM_ADMIN",
      "outputs": [
        {
          "internalType": "bytes32",
          "name": "",
          "type": "bytes32"
        }
      ],
      "stateMutability": "view",
      "type": "function"
    },
    {
      "inputs": [],
      "name": "ROLE_SYSTEM_MANAGER",
      "outputs": [
        {
          "internalType": "bytes32",
          "name": "",
          "type": "bytes32"
        }
      ],
      "stateMutability": "view",
      "type": "function"
    },
    {
      "inputs": [],
      "name": "ROLE_UNDERWRITER",
      "outputs": [
        {
          "internalType": "bytes32",
          "name": "",
          "type": "bytes32"
        }
      ],
      "stateMutability": "view",
      "type": "function"
    },
    {
      "inputs": [],
      "name": "SETTING_ENTITY_DELEGATE",
      "outputs": [
        {
          "internalType": "bytes32",
          "name": "",
          "type": "bytes32"
        }
      ],
      "stateMutability": "view",
      "type": "function"
    },
    {
      "inputs": [],
      "name": "SETTING_ENTITY_DEPLOYER",
      "outputs": [
        {
          "internalType": "bytes32",
          "name": "",
          "type": "bytes32"
        }
      ],
      "stateMutability": "view",
      "type": "function"
    },
    {
      "inputs": [],
      "name": "SETTING_ENTITY_IMPL",
      "outputs": [
        {
          "internalType": "bytes32",
          "name": "",
          "type": "bytes32"
        }
      ],
      "stateMutability": "view",
      "type": "function"
    },
    {
      "inputs": [],
      "name": "SETTING_ETHER_TOKEN",
      "outputs": [
        {
          "internalType": "bytes32",
          "name": "",
          "type": "bytes32"
        }
      ],
      "stateMutability": "view",
      "type": "function"
    },
    {
      "inputs": [],
      "name": "SETTING_FEEBANK",
      "outputs": [
        {
          "internalType": "bytes32",
          "name": "",
          "type": "bytes32"
        }
      ],
      "stateMutability": "view",
      "type": "function"
    },
    {
      "inputs": [],
      "name": "SETTING_FEEBANK_IMPL",
      "outputs": [
        {
          "internalType": "bytes32",
          "name": "",
          "type": "bytes32"
        }
      ],
      "stateMutability": "view",
      "type": "function"
    },
    {
      "inputs": [],
      "name": "SETTING_MARKET",
      "outputs": [
        {
          "internalType": "bytes32",
          "name": "",
          "type": "bytes32"
        }
      ],
      "stateMutability": "view",
      "type": "function"
    },
    {
      "inputs": [],
      "name": "SETTING_MARKET_IMPL",
      "outputs": [
        {
          "internalType": "bytes32",
          "name": "",
          "type": "bytes32"
        }
      ],
      "stateMutability": "view",
      "type": "function"
    },
    {
      "inputs": [],
      "name": "SETTING_POLICY_DELEGATE",
      "outputs": [
        {
          "internalType": "bytes32",
          "name": "",
          "type": "bytes32"
        }
      ],
      "stateMutability": "view",
      "type": "function"
    },
    {
      "inputs": [],
      "name": "SETTING_POLICY_IMPL",
      "outputs": [
        {
          "internalType": "bytes32",
          "name": "",
          "type": "bytes32"
        }
      ],
      "stateMutability": "view",
      "type": "function"
    },
    {
      "inputs": [],
      "name": "TRANCHE_STATE_ACTIVE",
      "outputs": [
        {
          "internalType": "uint256",
          "name": "",
          "type": "uint256"
        }
      ],
      "stateMutability": "view",
      "type": "function"
    },
    {
      "inputs": [],
      "name": "TRANCHE_STATE_CANCELLED",
      "outputs": [
        {
          "internalType": "uint256",
          "name": "",
          "type": "uint256"
        }
      ],
      "stateMutability": "view",
      "type": "function"
    },
    {
      "inputs": [],
      "name": "TRANCHE_STATE_CREATED",
      "outputs": [
        {
          "internalType": "uint256",
          "name": "",
          "type": "uint256"
        }
      ],
      "stateMutability": "view",
      "type": "function"
    },
    {
      "inputs": [],
      "name": "TRANCHE_STATE_MATURED",
      "outputs": [
        {
          "internalType": "uint256",
          "name": "",
          "type": "uint256"
        }
      ],
      "stateMutability": "view",
      "type": "function"
    },
    {
      "inputs": [],
      "name": "TRANCHE_STATE_SELLING",
      "outputs": [
        {
          "internalType": "uint256",
          "name": "",
          "type": "uint256"
        }
      ],
      "stateMutability": "view",
      "type": "function"
    },
    {
      "inputs": [],
      "name": "acl",
      "outputs": [
        {
          "internalType": "contract IACL",
          "name": "",
          "type": "address"
        }
      ],
      "stateMutability": "view",
      "type": "function"
    },
    {
      "inputs": [],
      "name": "aclContext",
      "outputs": [
        {
          "internalType": "bytes32",
          "name": "",
          "type": "bytes32"
        }
      ],
      "stateMutability": "view",
      "type": "function"
    },
    {
      "inputs": [],
      "name": "getSelectors",
      "outputs": [
        {
          "internalType": "bytes",
          "name": "",
          "type": "bytes"
        }
      ],
      "stateMutability": "pure",
      "type": "function"
    },
    {
      "inputs": [
        {
          "internalType": "uint256",
          "name": "_trancheIndex",
          "type": "uint256"
        },
        {
          "internalType": "uint256",
          "name": "_premiumIndex",
          "type": "uint256"
        }
      ],
      "name": "getTranchePremiumInfo",
      "outputs": [
        {
          "internalType": "uint256",
          "name": "amount_",
          "type": "uint256"
        },
        {
          "internalType": "uint256",
          "name": "dueAt_",
          "type": "uint256"
        },
        {
          "internalType": "uint256",
          "name": "paidSoFar_",
          "type": "uint256"
        },
        {
          "internalType": "uint256",
          "name": "fullyPaidAt_",
          "type": "uint256"
        }
      ],
      "stateMutability": "view",
      "type": "function"
    },
    {
      "inputs": [
        {
          "internalType": "uint256",
          "name": "_trancheIndex",
          "type": "uint256"
        }
      ],
      "name": "getTranchePremiumsInfo",
      "outputs": [
        {
          "internalType": "uint256",
          "name": "numPremiums_",
          "type": "uint256"
        },
        {
          "internalType": "uint256",
          "name": "nextPremiumAmount_",
          "type": "uint256"
        },
        {
          "internalType": "uint256",
          "name": "nextPremiumDueAt_",
          "type": "uint256"
        },
        {
          "internalType": "uint256",
          "name": "nextPremiumPaidSoFar_",
          "type": "uint256"
        },
        {
          "internalType": "uint256",
          "name": "premiumPaymentsMissed_",
          "type": "uint256"
        },
        {
          "internalType": "uint256",
          "name": "numPremiumsPaid_",
          "type": "uint256"
        }
      ],
      "stateMutability": "view",
      "type": "function"
    },
    {
      "inputs": [
        {
          "internalType": "address",
          "name": "_addr",
          "type": "address"
        },
        {
          "internalType": "bytes32",
          "name": "_roleGroup",
          "type": "bytes32"
        }
      ],
      "name": "inRoleGroup",
      "outputs": [
        {
          "internalType": "bool",
          "name": "",
          "type": "bool"
        }
      ],
      "stateMutability": "view",
      "type": "function"
    },
    {
      "inputs": [
        {
          "internalType": "bytes32",
          "name": "_ctx",
          "type": "bytes32"
        },
        {
          "internalType": "address",
          "name": "_addr",
          "type": "address"
        },
        {
          "internalType": "bytes32",
          "name": "_roleGroup",
          "type": "bytes32"
        }
      ],
      "name": "inRoleGroupWithContext",
      "outputs": [
        {
          "internalType": "bool",
          "name": "",
          "type": "bool"
        }
      ],
      "stateMutability": "view",
      "type": "function"
    },
    {
      "inputs": [
        {
          "internalType": "address",
          "name": "_addr",
          "type": "address"
        }
      ],
      "name": "isAdmin",
      "outputs": [
        {
          "internalType": "bool",
          "name": "",
          "type": "bool"
        }
      ],
      "stateMutability": "view",
      "type": "function"
    },
    {
      "inputs": [
        {
          "internalType": "uint256",
          "name": "_index",
          "type": "uint256"
        },
        {
          "internalType": "uint256",
          "name": "_amount",
          "type": "uint256"
        }
      ],
      "name": "payTranchePremium",
      "outputs": [],
      "stateMutability": "nonpayable",
      "type": "function"
    },
    {
      "inputs": [],
      "name": "settings",
      "outputs": [
        {
          "internalType": "contract ISettings",
          "name": "",
          "type": "address"
        }
      ],
      "stateMutability": "view",
      "type": "function"
    }
  ],
  "bytecode": "0x60806040523480156200001157600080fd5b506040516200242c3803806200242c833981016040819052620000349162000244565b80808180600060405162000056906773657474696e677360c01b815260080190565b90815260405190819003602001902080546001600160a01b03929092166001600160a01b03199092169190911790556200008f62000181565b60405163a1e31a6560e01b81523060048201526001600160a01b03919091169063a1e31a659060240160206040518083038186803b158015620000d157600080fd5b505afa158015620000e6573d6000803e3d6000fd5b505050506040513d601f19601f820116820180604052508101906200010c91906200026b565b60408051691858db10dbdb9d195e1d60b21b81526001600a820152815190819003602a018120929092556773657474696e677360c01b8252600060088301525160289181900391909101902080546001600160a01b0319166001600160a01b0393909316929092179091555062000285915050565b600080604051620001a0906773657474696e677360c01b815260080190565b90815260408051602092819003830181205463de28735960e01b825291516001600160a01b039092169263de28735992600480840193829003018186803b158015620001eb57600080fd5b505afa15801562000200573d6000803e3d6000fd5b505050506040513d601f19601f8201168201806040525081019062000226919062000244565b905090565b6001600160a01b03811681146200024157600080fd5b50565b6000602082840312156200025757600080fd5b815162000264816200022b565b9392505050565b6000602082840312156200027e57600080fd5b5051919050565b61219780620002956000396000f3fe608060405234801561001057600080fd5b50600436106104335760003560e01c8063767974b511610236578063b46b88fe1161013b578063def26bce116100c3578063eebb74e011610087578063eebb74e014610bb9578063ef4a28b9146104a9578063f67d882c14610be0578063fa4a215c14610be8578063fbc0276414610c0f57600080fd5b8063def26bce14610b15578063e06174e414610b3c578063e0892bad14610b44578063e3097dc214610b6b578063e5bb5d0714610b9257600080fd5b8063db691b141161010a578063db691b1414610aa7578063db974500146108ec578063de28735914610ace578063de764acf146108ec578063de841bac14610aee57600080fd5b8063b46b88fe14610a51578063c820fa7514610695578063ca77fcd714610a78578063cf45439114610a8057600080fd5b80639ae5f378116101be578063a3cf5fdf1161018d578063a3cf5fdf146109d4578063a87c785f146109fb578063abda824714610438578063b32ef75614610a22578063b3f438aa14610a4957600080fd5b80639ae5f3781461095f5780639f6e37a714610986578063a01dac13146108ec578063a32fc162146109ad57600080fd5b8063910f5ca911610205578063910f5ca9146108ec5780639288c7a4146108f45780639424cf5e146109095780639479ab2a1461093057806394b6d14d1461095757600080fd5b8063767974b51461088b5780638398389a146108b2578063877d172314610438578063899a0ec7146108d957600080fd5b80633e107d4a1161033c57806355d48c07116102c45780636262ce90116102935780636262ce90146107fd578063645b129f14610695578063653358281461045357806372bef9c61461083d578063741cb7d61461086457600080fd5b806355d48c071461078857806359dab758146104535780635db79855146107af5780635dddee31146107d657600080fd5b8063468740a81161030b578063468740a8146106a557806347bf603d146106cc5780634b503f0b146106f35780634b7d215e1461073a578063551e385a1461076157600080fd5b80633e107d4a146106475780633f42ffef1461066e57806341bb489714610695578063423d20f31461069d57600080fd5b806320527938116103bf578063297a012a1161038e578063297a012a146105ab5780632a8873ef146105d25780632b521d47146105f95780633407d3cb1461062057806339f973b41461045357600080fd5b8063205279381461050757806324d7806c1461053a57806324e076a21461055d57806326f885351461058457600080fd5b8063161075521161040657806316107552146104a9578063165683181461043857806319efe072146104b15780631adcdac6146104b95780631f9b2874146104e057600080fd5b806301750873146104385780630a079b2c146104535780630e0fc3521461045b5780631205d13314610482575b600080fd5b610440600181565b6040519081526020015b60405180910390f35b610440600281565b6104407f063693c9545b949ff498535f9e0aa95ada8e88c062d28e2f219b896e151e126681565b6104407f098afcb3a137a2ba8835fbf7daecb275af5afb3479f12844d5b7bfb8134e7ced81565b610440600481565b610440600681565b6104407f8858a0dfcbfa158449ee0a3b5dae898cecc0746569152b05bbab9526bcc1686481565b6104407f5c6c7d4897f0ae38084370e7a61ea386e95c7f54629c0b793a0ac47751f1240581565b61051a610515366004611ef6565b610c22565b60408051948552602085019390935291830152606082015260800161044a565b61054d610548366004611f30565b610d73565b604051901515815260200161044a565b6104407f18ecf8d2173ca8a5766fd7dde3bdb54017dc5413dc07cd6ba1785b63e9c62b8281565b6104407f5c7c2bcb0d2dfef15c423063aae2051d462fcd269b5e9b8c1733b3211e17bc8a81565b6104407f6a4d660b9f1720511be22f039683db86d0d0d207c2ad9255325630800d4fb53981565b6104407f325a96ceff51ae6b22de25dd7b4c8b9532dddf936add8ef16fc99219ff666a8481565b6104407fcca1ad0e9fb374bbb9dc3d0cbfd073ef01bd1d01d5a35bd0a93403fbee64318d81565b6104407f2623111b4a77e415ab5147aeb27da976c7a27950b6ec4022b4b9e7717626699281565b6104407f6f244974cc67342b1bd623d411fd8100ec9eddbac05348e71d1a9296de6264a581565b6104407f1bf52521006d8a3718b0692b7f32c8ee781bfed9e9215eb5b8fc3b34749fb5b581565b610440600381565b610440610dfe565b6104407f65d0db34d07de31cfb8ca9f95dabc0463ce6084a447abb757f682f36ae3682e381565b6104407f052b977cd6067e43b9140f08c53a22b88418f4d3ab7bd811716130d5a20cd8a381565b604080516306262ce960e41b602082015263040a4f2760e31b60248201526324a231e960e21b60288201528151600c818303018152602c9091019182905261044a91611f7d565b6104407f9574e138325b5c365da8d5cc75cf22323ed6f3ce52fac5621225020a162a4c6181565b6104407fc72bfe3e0f1799ce0d90c4c72cf8f07d0cfa8121d51cb05d8c827f0896d8c0b681565b6104407f807c518efb8285611b15c88a7701e4f40a0e9a38ce3e59946e587a8932410af881565b6104407f428fa9969c6b3fab7bbdac20b73706f1f670a386be0a76d4060c185898b2aa2281565b6104407f8d632412946eb879ebe5af90230c7db3f6d17c94c0ecea207c97e15fa9bb77c581565b61081061080b366004611fb0565b610e33565b604080519687526020870195909552938501929092526060840152608083015260a082015260c00161044a565b6104407f2db57b52c5f263c359ba92194f5590b4a7f5fc1f1ca02f10cea531182851fe2881565b6104407f0922a3d5a8713fcf92ec8607b882fd2fcfefd8552a3c38c726d96fcde8b1d05381565b6104407f9c259f9342405d034b902fd5e1bba083f008e305ea4eb6a0dce9ac9a6256b63a81565b6104407fdd53f360aa973c3daf7ff269398ced1ce7713d025c750c443c2abbcd89438f8381565b61054d6108e7366004611fc9565b610efe565b610440600081565b610907610902366004611ef6565b610f99565b005b6104407fcfd13d23f7313d54f3a6d98c505045c58749561dd04531f9f2422a8818f0c5f881565b6104407fa33a59233069411012cc12aa76a8a426fe6bd113968b520118fdc9cb6f49ae3081565b610440600881565b6104407fab789755f97e00f29522efbee9df811265010c87cf80f8fd7d5fc5cb8a84795681565b6104407f3bd41a6d84c7de1e9d18694bd113405090439b9e32d5ab69d575821d513d83b581565b6104407f7c23ac65f971ee875d4a6408607fabcb777f38cf73b3d6d891648646cee81f0581565b6104407fd708193a9c8f5fbde4d1c80a1e6f79b5f38a27f85ca86eccac69e5a899120ead81565b6104407f9f4d1dc1107c7d9d9f533f41b5aa5dbbb3b830e3b597338a8aee228ab083eb3a81565b6104407f391db9b692991836c38aedfd24d7f4c9837739d4ee0664fe4ee6892a51e025a781565b610440606481565b6104407f0e8925aa0bfe65f831f6c9099dd95b0614eb69312630ef3497bee453d9ed40a981565b610440600781565b6104407fad56f8a5432d383c3e2c11b7b248f889e6ec544090486b3623f0f4ae1fad763b81565b6104407f1d60d7146dec74c1b1a9dc17243aaa3b56533f607c16a718bcd78d8d852d6e5281565b610ad6610ffa565b6040516001600160a01b03909116815260200161044a565b6104407f7f7cc8b2bac31c0e372310212be653d159f17ff3c41938a81446553db842afb681565b6104407f610cf17b5a943fc722922fc6750fb40254c24c6b0efd32554aa7c03b4ca98e9c81565b610ad661109f565b6104407f737de6bdef2e959d9f968f058e3e78b7365d4eda8e4023ecac2d51e3dbfb140181565b6104407fa449044fc5332c1625929b3afecb2f821955279285b4a8406a6ffa8968c1b7cf81565b6104407f9c687089ee5ebd0bc2ba9c954ebc7a0304b4046890b9064e5742c8c6c7afeab281565b6104407f251766d8c7c7a6b927647b0f20c99f490db1c283eb0c482446085aaaa44b5e7381565b610440600581565b6104407fc59d706f362a04b6cf4757dd3df6eb5babc7c26ab5dcc7c9c43b142f25da10a581565b61054d610c1d366004612001565b6110db565b6000806000806003610c5a87876040518060400160405280600d81526020016c1c1c995b5a5d5b505b5bdd5b9d609a1b8152506110f6565b604051610c67919061202d565b90815260200160405180910390205493506003610ca987876040518060400160405280600c81526020016b1c1c995b5a5d5b511d59505d60a21b8152506110f6565b604051610cb6919061202d565b90815260200160405180910390205492506003610cfc87876040518060400160405280601081526020016f383932b6b4bab6a830b4b229b7a330b960811b8152506110f6565b604051610d09919061202d565b90815260200160405180910390205491506003610d4c87876040518060400160405280600d81526020016c1c1c995b5a5d5b54185a59105d609a1b8152506110f6565b604051610d59919061202d565b908152602001604051809103902054905092959194509250565b6000610d7d610ffa565b604051630935e01b60e21b81526001600160a01b03848116600483015291909116906324d7806c9060240160206040518083038186803b158015610dc057600080fd5b505afa158015610dd4573d6000803e3d6000fd5b505050506040513d601f19601f82011682018060405250810190610df89190612049565b92915050565b60006001604051610e1f90691858db10dbdb9d195e1d60b21b8152600a0190565b908152602001604051809103902054905090565b6000806000806000806003610e6b886040518060400160405280600b81526020016a6e756d5072656d69756d7360a81b815250611125565b604051610e78919061202d565b9081526020016040518091039020549550610e9287611151565b91965094509250610ea2876112a2565b91506003610ed7886040518060400160405280600f81526020016e1b9d5b541c995b5a5d5b5cd4185a59608a1b815250611125565b604051610ee4919061202d565b908152602001604051809103902054905091939550919395565b6000610f08610ffa565b6040516349fdb87160e01b8152600481018690526001600160a01b0385811660248301526044820185905291909116906349fdb8719060640160206040518083038186803b158015610f5957600080fd5b505afa158015610f6d573d6000803e3d6000fd5b505050506040513d601f19601f82011682018060405250810190610f919190612049565b949350505050565b306001600160a01b031663a100ce4f6040518163ffffffff1660e01b8152600401600060405180830381600087803b158015610fd457600080fd5b505af1158015610fe8573d6000803e3d6000fd5b50505050610ff682826113f0565b5050565b600080604051611018906773657474696e677360c01b815260080190565b90815260408051602092819003830181205463de28735960e01b825291516001600160a01b039092169263de28735992600480840193829003018186803b15801561106257600080fd5b505afa158015611076573d6000803e3d6000fd5b505050506040513d601f19601f8201168201806040525081019061109a919061206b565b905090565b6000806040516110bd906773657474696e677360c01b815260080190565b908152604051908190036020019020546001600160a01b0316919050565b60006110ef6110e8610dfe565b8484610efe565b9392505050565b606083838360405160200161110d93929190612088565b60405160208183030381529060405290509392505050565b6060828260405160200161113a9291906120b5565b604051602081830303815290604052905092915050565b600080600080600361118a866040518060400160405280600f81526020016e1b9d5b541c995b5a5d5b5cd4185a59608a1b815250611125565b604051611197919061202d565b908152602001604051809103902054905060036111da86836040518060400160405280600d81526020016c1c1c995b5a5d5b505b5bdd5b9d609a1b8152506110f6565b6040516111e7919061202d565b908152602001604051809103902054600361122787846040518060400160405280600c81526020016b1c1c995b5a5d5b511d59505d60a21b8152506110f6565b604051611234919061202d565b908152602001604051809103902054600361127888856040518060400160405280601081526020016f383932b6b4bab6a830b4b229b7a330b960811b8152506110f6565b604051611285919061202d565b908152602001604051809103902054935093509350509193909250565b60008060036112d4846040518060400160405280600b81526020016a6e756d5072656d69756d7360a81b815250611125565b6040516112e1919061202d565b908152602001604051809103902054905060006003611327856040518060400160405280600f81526020016e1b9d5b541c995b5a5d5b5cd4185a59608a1b815250611125565b604051611334919061202d565b90815260200160405180910390205490506000805b808411156113ca576000600361138488846040518060400160405280600c81526020016b1c1c995b5a5d5b511d59505d60a21b8152506110f6565b604051611391919061202d565b90815260200160405180910390205490504281116113b7576113b46001846120f1565b92505b506113c36001826120f1565b9050611349565b508181106113e5576113dc8282612109565b95945050505050565b506000949350505050565b816000600361141c8360405180604001604052806005815260200164737461746560d81b815250611125565b604051611429919061202d565b90815260200160405180910390205490506004811415801561144c575060038114155b6114935760405162461bcd60e51b81526020600482015260136024820152721c185e5b595b9d081b9bdd08185b1b1bddd959606a1b60448201526064015b60405180910390fd5b6000805b6000851180156114ad57506114ab86611a02565b155b156117d35760008060006114c089611151565b919450925090504282101561150a5760405162461bcd60e51b815260206004820152601060248201526f7061796d656e7420746f6f206c61746560801b604482015260640161148a565b60006115168285612109565b90506000600361154d8c6040518060400160405280600f81526020016e1b9d5b541c995b5a5d5b5cd4185a59608a1b815250611125565b60405161155a919061202d565b9081526020016040518091039020549050818a106116f45761157c8b83611aaf565b61158690876120f1565b955061159282886120f1565b965061159e828b612109565b99506115ab8160016120f1565b60036115de8d6040518060400160405280600f81526020016e1b9d5b541c995b5a5d5b5cd4185a59608a1b815250611125565b6040516115eb919061202d565b9081526020016040518091039020819055504260036116308d846040518060400160405280600d81526020016c1c1c995b5a5d5b54185a59105d609a1b8152506110f6565b60405161163d919061202d565b90815260200160405180910390208190555060036116818c836040518060400160405280600d81526020016c1c1c995b5a5d5b505b5bdd5b9d609a1b8152506110f6565b60405161168e919061202d565b90815260200160405180910390205460036116d28d846040518060400160405280601081526020016f383932b6b4bab6a830b4b229b7a330b960811b8152506110f6565b6040516116df919061202d565b908152604051908190036020019020556117c9565b6116fe8b8b611aaf565b61170890876120f1565b95506117148a886120f1565b965089600361174c8d846040518060400160405280601081526020016f383932b6b4bab6a830b4b229b7a330b960811b8152506110f6565b604051611759919061202d565b90815260200160405180910390205461177291906120f1565b60036117a78d846040518060400160405280601081526020016f383932b6b4bab6a830b4b229b7a330b960811b8152506110f6565b6040516117b4919061202d565b90815260405190819003602001902055600099505b5050505050611497565b6000806040516117ed90631d5b9a5d60e21b815260040190565b908152604051908190036020019020546001600160a01b0316905060006118148385612109565b6040516323b872dd60e01b8152336004820152306024820152604481018290529091506001600160a01b038316906323b872dd90606401602060405180830381600087803b15801561186557600080fd5b505af1158015611879573d6000803e3d6000fd5b505050506040513d601f19601f8201168201806040525081019061189d9190612049565b50816001600160a01b03166323b872dd3360006040516118cb9067747265617375727960c01b815260080190565b908152604051908190036020018120546001600160e01b031960e085901b1682526001600160a01b03928316600483015291909116602482015260448101869052606401602060405180830381600087803b15801561192957600080fd5b505af115801561193d573d6000803e3d6000fd5b505050506040513d601f19601f820116820180604052508101906119619190612049565b5061196a611ed8565b6001600160a01b03166340d028f6846040518263ffffffff1660e01b815260040161199791815260200190565b600060405180830381600087803b1580156119b157600080fd5b505af11580156119c5573d6000803e3d6000fd5b50506040513392508691508a907f76025cd4e367cdbc13e0fd0d095c427976e5ac4846bd38382b59742d4e070a7a90600090a45050505050505050565b6000806003611a34846040518060400160405280600b81526020016a6e756d5072656d69756d7360a81b815250611125565b604051611a41919061202d565b908152602001604051809103902054905060006003611a87856040518060400160405280600f81526020016e1b9d5b541c995b5a5d5b5cd4185a59608a1b815250611125565b604051611a94919061202d565b90815260405190819003602001902054919091149392505050565b600080612710836003604051611add9071062726f6b6572436f6d6d697373696f6e42560741b815260120190565b908152602001604051809103902054611af69190612120565b611b00919061213f565b90506000612710846003604051611b3a907f636c61696d7341646d696e436f6d6d697373696f6e4250000000000000000000815260170190565b908152602001604051809103902054611b539190612120565b611b5d919061213f565b90506000612710856003604051611b8b907006e61796d73436f6d6d697373696f6e425607c1b815260110190565b908152602001604051809103902054611ba49190612120565b611bae919061213f565b90506000612710866003604051611be8907f756e646572777269746572436f6d6d697373696f6e4250000000000000000000815260170190565b908152602001604051809103902054611c019190612120565b611c0b919061213f565b9050836003604051611c3a907662726f6b6572436f6d6d697373696f6e42616c616e636560481b815260170190565b908152602001604051809103902054611c5391906120f1565b6040517662726f6b6572436f6d6d697373696f6e42616c616e636560481b8152600390601701908152604051908190036020018120919091557f636c61696d7341646d696e436f6d6d697373696f6e42616c616e63650000000081528390600390601c01908152602001604051809103902054611cd091906120f1565b6040517f636c61696d7341646d696e436f6d6d697373696f6e42616c616e6365000000008152600390601c0190815260405190819003602001812091909155756e61796d73436f6d6d697373696f6e42616c616e636560501b81528290600390601601908152602001604051809103902054611d4c91906120f1565b604051756e61796d73436f6d6d697373696f6e42616c616e636560501b8152600390601601908152604051908190036020018120919091557f756e646572777269746572436f6d6d697373696f6e42616c616e63650000000081528190600390601c01908152602001604051809103902054611dc891906120f1565b6040517f756e646572777269746572436f6d6d697373696f6e42616c616e6365000000008152600390601c019081526040519081900360200190205560008183611e1286886120f1565b611e1c91906120f1565b611e2691906120f1565b611e309088612109565b9050806003611e5e8a6040518060400160405280600781526020016662616c616e636560c81b815250611125565b604051611e6b919061202d565b908152602001604051809103902054611e8491906120f1565b6003611eaf8a6040518060400160405280600781526020016662616c616e636560c81b815250611125565b604051611ebc919061202d565b9081526040519081900360200190205594505050505092915050565b6000806040516110bd9067747265617375727960c01b815260080190565b60008060408385031215611f0957600080fd5b50508035926020909101359150565b6001600160a01b0381168114611f2d57600080fd5b50565b600060208284031215611f4257600080fd5b81356110ef81611f18565b60005b83811015611f68578181015183820152602001611f50565b83811115611f77576000848401525b50505050565b6020815260008251806020840152611f9c816040850160208701611f4d565b601f01601f19169190910160400192915050565b600060208284031215611fc257600080fd5b5035919050565b600080600060608486031215611fde57600080fd5b833592506020840135611ff081611f18565b929592945050506040919091013590565b6000806040838503121561201457600080fd5b823561201f81611f18565b946020939093013593505050565b6000825161203f818460208701611f4d565b9190910192915050565b60006020828403121561205b57600080fd5b815180151581146110ef57600080fd5b60006020828403121561207d57600080fd5b81516110ef81611f18565b838152826020820152600082516120a6816040850160208701611f4d565b91909101604001949350505050565b828152600082516120cd816020850160208701611f4d565b919091016020019392505050565b634e487b7160e01b600052601160045260246000fd5b60008219821115612104576121046120db565b500190565b60008282101561211b5761211b6120db565b500390565b600081600019048311821515161561213a5761213a6120db565b500290565b60008261215c57634e487b7160e01b600052601260045260246000fd5b50049056fea26469706673582212201c55b90f1b4479945253ae2ed9d002466ce73bd7f62e7f940913740623f188d564736f6c63430008090033",
  "linkReferences": {},
  "deployedLinkReferences": {}
}