{
  "_format": "hh-sol-artifact-1",
  "contractName": "TrancheToken",
  "sourceName": "contracts/TrancheToken.sol",
  "abi": [
    {
      "inputs": [
        {
          "internalType": "address",
          "name": "_impl",
          "type": "address"
        },
        {
          "internalType": "uint256",
          "name": "_index",
          "type": "uint256"
        }
      ],
      "stateMutability": "nonpayable",
      "type": "constructor"
    },
    {
      "anonymous": false,
      "inputs": [
        {
          "indexed": true,
          "internalType": "address",
          "name": "owner",
          "type": "address"
        },
        {
          "indexed": true,
          "internalType": "address",
          "name": "spender",
          "type": "address"
        },
        {
          "indexed": false,
          "internalType": "uint256",
          "name": "value",
          "type": "uint256"
        }
      ],
      "name": "Approval",
      "type": "event"
    },
    {
      "anonymous": false,
      "inputs": [
        {
          "indexed": true,
          "internalType": "address",
          "name": "from",
          "type": "address"
        },
        {
          "indexed": true,
          "internalType": "address",
          "name": "to",
          "type": "address"
        },
        {
          "indexed": false,
          "internalType": "uint256",
          "name": "value",
          "type": "uint256"
        }
      ],
      "name": "Transfer",
      "type": "event"
    },
    {
      "inputs": [
        {
          "internalType": "address",
          "name": "owner",
          "type": "address"
        },
        {
          "internalType": "address",
          "name": "spender",
          "type": "address"
        }
      ],
      "name": "allowance",
      "outputs": [
        {
          "internalType": "uint256",
          "name": "",
          "type": "uint256"
        }
      ],
      "stateMutability": "view",
      "type": "function"
    },
    {
      "inputs": [
        {
          "internalType": "address",
          "name": "spender",
          "type": "address"
        },
        {
          "internalType": "uint256",
          "name": "value",
          "type": "uint256"
        }
      ],
      "name": "approve",
      "outputs": [
        {
          "internalType": "bool",
          "name": "",
          "type": "bool"
        }
      ],
      "stateMutability": "nonpayable",
      "type": "function"
    },
    {
      "inputs": [
        {
          "internalType": "address",
          "name": "owner",
          "type": "address"
        }
      ],
      "name": "balanceOf",
      "outputs": [
        {
          "internalType": "uint256",
          "name": "",
          "type": "uint256"
        }
      ],
      "stateMutability": "view",
      "type": "function"
    },
    {
      "inputs": [],
      "name": "decimals",
      "outputs": [
        {
          "internalType": "uint8",
          "name": "",
          "type": "uint8"
        }
      ],
      "stateMutability": "view",
      "type": "function"
    },
    {
      "inputs": [],
      "name": "impl",
      "outputs": [
        {
          "internalType": "contract IPolicyTrancheTokensFacet",
          "name": "",
          "type": "address"
        }
      ],
      "stateMutability": "view",
      "type": "function"
    },
    {
      "inputs": [],
      "name": "index",
      "outputs": [
        {
          "internalType": "uint256",
          "name": "",
          "type": "uint256"
        }
      ],
      "stateMutability": "view",
      "type": "function"
    },
    {
      "inputs": [],
      "name": "isNaymsPlatformToken",
      "outputs": [
        {
          "internalType": "bool",
          "name": "",
          "type": "bool"
        }
      ],
      "stateMutability": "view",
      "type": "function"
    },
    {
      "inputs": [],
      "name": "isPlatformToken",
      "outputs": [
        {
          "internalType": "bool",
          "name": "",
          "type": "bool"
        }
      ],
      "stateMutability": "view",
      "type": "function"
    },
    {
      "inputs": [],
      "name": "name",
      "outputs": [
        {
          "internalType": "string",
          "name": "",
          "type": "string"
        }
      ],
      "stateMutability": "view",
      "type": "function"
    },
    {
      "inputs": [],
      "name": "symbol",
      "outputs": [
        {
          "internalType": "string",
          "name": "",
          "type": "string"
        }
      ],
      "stateMutability": "view",
      "type": "function"
    },
    {
      "inputs": [],
      "name": "totalSupply",
      "outputs": [
        {
          "internalType": "uint256",
          "name": "",
          "type": "uint256"
        }
      ],
      "stateMutability": "view",
      "type": "function"
    },
    {
      "inputs": [
        {
          "internalType": "address",
          "name": "to",
          "type": "address"
        },
        {
          "internalType": "uint256",
          "name": "value",
          "type": "uint256"
        }
      ],
      "name": "transfer",
      "outputs": [
        {
          "internalType": "bool",
          "name": "",
          "type": "bool"
        }
      ],
      "stateMutability": "nonpayable",
      "type": "function"
    },
    {
      "inputs": [
        {
          "internalType": "address",
          "name": "from",
          "type": "address"
        },
        {
          "internalType": "address",
          "name": "to",
          "type": "address"
        },
        {
          "internalType": "uint256",
          "name": "value",
          "type": "uint256"
        }
      ],
      "name": "transferFrom",
      "outputs": [
        {
          "internalType": "bool",
          "name": "",
          "type": "bool"
        }
      ],
      "stateMutability": "nonpayable",
      "type": "function"
    }
  ],
  "bytecode": "0x60806040526000805460ff1916600117905534801561001d57600080fd5b506040516109c23803806109c283398101604081905261003c9161006b565b600080546001600160a01b0390931661010002610100600160a81b0319909316929092179091556001556100a5565b6000806040838503121561007e57600080fd5b82516001600160a01b038116811461009557600080fd5b6020939093015192949293505050565b61090e806100b46000396000f3fe608060405234801561001057600080fd5b50600436106100cf5760003560e01c80634edb221e1161008c57806395d89b411161006657806395d89b41146101a4578063a9059cbb146101ac578063ac50f131146101bf578063dd62ed3e146101cc57600080fd5b80634edb221e1461015657806370a08231146101615780638abf60771461017457600080fd5b806306fdde03146100d4578063095ea7b3146100f257806318160ddd1461011557806323b872dd1461012b5780632986c0e51461013e578063313ce56714610147575b600080fd5b6100dc6101df565b6040516100e991906106f9565b60405180910390f35b610105610100366004610748565b61026f565b60405190151581526020016100e9565b61011d610337565b6040519081526020016100e9565b610105610139366004610772565b6103bc565b61011d60015481565b604051601281526020016100e9565b60005460ff16610105565b61011d61016f3660046107ae565b610499565b60005461018c9061010090046001600160a01b031681565b6040516001600160a01b0390911681526020016100e9565b6100dc61052e565b6101056101ba366004610748565b610569565b6000546101059060ff1681565b61011d6101da3660046107c9565b61062b565b6000546001546040516378b7f2ab60e01b8152600481019190915260609161010090046001600160a01b0316906378b7f2ab906024015b60006040518083038186803b15801561022e57600080fd5b505afa158015610242573d6000803e3d6000fd5b505050506040513d6000823e601f3d908101601f1916820160405261026a9190810190610812565b905090565b60008054600154604051630ce4cccb60e21b815260048101919091526001600160a01b0385811660248301523360448301526064820185905261010090920490911690633393332c90608401600060405180830381600087803b1580156102d557600080fd5b505af11580156102e9573d6000803e3d6000fd5b50506040518481526001600160a01b03861692503391507f8c5be1e5ebec7d5bd14f71427d1e84f3dd0314c0f7b2291e5b200ac8c7c3b925906020015b60405180910390a350600192915050565b6000805460015460405163046de5a760e31b815260048101919091526101009091046001600160a01b03169063236f2d389060240160206040518083038186803b15801561038457600080fd5b505afa158015610398573d6000803e3d6000fd5b505050506040513d601f19601f8201168201806040525081019061026a91906108bf565b6000805460015460405163bc4be85960e01b815260048101919091523360248201526001600160a01b0386811660448301528581166064830152608482018590526101009092049091169063bc4be8599060a401600060405180830381600087803b15801561042a57600080fd5b505af115801561043e573d6000803e3d6000fd5b50505050826001600160a01b0316846001600160a01b03167fddf252ad1be2c89b69c2b068fc378daa952ba7f163c4a11628f55a4df523b3ef8460405161048791815260200190565b60405180910390a35060019392505050565b6000805460015460405163156e453b60e31b815260048101919091526001600160a01b0384811660248301526101009092049091169063ab7229d89060440160206040518083038186803b1580156104f057600080fd5b505afa158015610504573d6000803e3d6000fd5b505050506040513d601f19601f8201168201806040525081019061052891906108bf565b92915050565b600054600154604051632fc8f75760e11b8152600481019190915260609161010090046001600160a01b031690635f91eeae90602401610216565b6000805460015460405163bc4be85960e01b81526004810191909152336024820181905260448201526001600160a01b038581166064830152608482018590526101009092049091169063bc4be8599060a401600060405180830381600087803b1580156105d657600080fd5b505af11580156105ea573d6000803e3d6000fd5b50506040518481526001600160a01b03861692503391507fddf252ad1be2c89b69c2b068fc378daa952ba7f163c4a11628f55a4df523b3ef90602001610326565b600080546001546040516305ead49f60e31b815260048101919091526001600160a01b038481166024830152858116604483015261010090920490911690632f56a4f89060640160206040518083038186803b15801561068a57600080fd5b505afa15801561069e573d6000803e3d6000fd5b505050506040513d601f19601f820116820180604052508101906106c291906108bf565b9392505050565b60005b838110156106e45781810151838201526020016106cc565b838111156106f3576000848401525b50505050565b60208152600082518060208401526107188160408501602087016106c9565b601f01601f19169190910160400192915050565b80356001600160a01b038116811461074357600080fd5b919050565b6000806040838503121561075b57600080fd5b6107648361072c565b946020939093013593505050565b60008060006060848603121561078757600080fd5b6107908461072c565b925061079e6020850161072c565b9150604084013590509250925092565b6000602082840312156107c057600080fd5b6106c28261072c565b600080604083850312156107dc57600080fd5b6107e58361072c565b91506107f36020840161072c565b90509250929050565b634e487b7160e01b600052604160045260246000fd5b60006020828403121561082457600080fd5b815167ffffffffffffffff8082111561083c57600080fd5b818401915084601f83011261085057600080fd5b815181811115610862576108626107fc565b604051601f8201601f19908116603f0116810190838211818310171561088a5761088a6107fc565b816040528281528760208487010111156108a357600080fd5b6108b48360208301602088016106c9565b979650505050505050565b6000602082840312156108d157600080fd5b505191905056fea26469706673582212201303eb9a0b708e04f6dbd898878a8bf1d37f02ff44f87584aa50e8f44c0ce12b64736f6c63430008090033",
  "linkReferences": {},
  "deployedLinkReferences": {}
}