{
  "_format": "hh-sol-artifact-1",
  "contractName": "EntityTreasuryTestFacet",
  "sourceName": "contracts/test/EntityTreasuryTestFacet.sol",
  "abi": [
    {
      "inputs": [],
      "name": "getSelectors",
      "outputs": [
        {
          "internalType": "bytes",
          "name": "",
          "type": "bytes"
        }
      ],
      "stateMutability": "pure",
      "type": "function"
    },
    {
      "inputs": [
        {
          "internalType": "address",
          "name": "_unit",
          "type": "address"
        },
        {
          "internalType": "uint256",
          "name": "_bal",
          "type": "uint256"
        }
      ],
      "name": "setRealBalance",
      "outputs": [],
      "stateMutability": "nonpayable",
      "type": "function"
    }
  ],
  "bytecode": "0x608060405234801561001057600080fd5b50610230806100206000396000f3fe608060405234801561001057600080fd5b50600436106100365760003560e01c80633edaf4951461003b5780634b503f0b14610050575b600080fd5b61004e61004936600461010b565b610086565b005b60408051633edaf49560e01b60208201528151600481830301815260249091019182905261007d91610173565b60405180910390f35b8060036100be846040518060400160405280601381526020017274726561737572795265616c42616c616e636560681b8152506100df565b6040516100cb91906101a6565b908152604051908190036020019020555050565b606082826040516020016100f49291906101c2565b604051602081830303815290604052905092915050565b6000806040838503121561011e57600080fd5b82356001600160a01b038116811461013557600080fd5b946020939093013593505050565b60005b8381101561015e578181015183820152602001610146565b8381111561016d576000848401525b50505050565b6020815260008251806020840152610192816040850160208701610143565b601f01601f19169190910160400192915050565b600082516101b8818460208701610143565b9190910192915050565b6bffffffffffffffffffffffff198360601b168152600082516101ec816014850160208701610143565b91909101601401939250505056fea2646970667358221220ab375fa7380bc29f5ea48a7adc4436cf33c487cddc07f682fca12cfc52c3c28464736f6c63430008090033",
  "linkReferences": {},
  "deployedLinkReferences": {}
}