{
  "_format": "hh-sol-artifact-1",
  "contractName": "DummyMarketObserver",
  "sourceName": "contracts/test/DummyMarketObserver.sol",
  "abi": [
    {
      "anonymous": false,
      "inputs": [
        {
          "indexed": false,
          "internalType": "uint256",
          "name": "orderId",
          "type": "uint256"
        }
      ],
      "name": "CLOSURE",
      "type": "event"
    },
    {
      "anonymous": false,
      "inputs": [
        {
          "indexed": false,
          "internalType": "uint256",
          "name": "orderId",
          "type": "uint256"
        }
      ],
      "name": "TRADE",
      "type": "event"
    },
    {
      "inputs": [
        {
          "internalType": "uint256",
          "name": "orderId",
          "type": "uint256"
        }
      ],
      "name": "getOrder",
      "outputs": [
        {
          "internalType": "enum IDummyMarketObserver.ORDER_TYPE",
          "name": "_type",
          "type": "uint8"
        },
        {
          "internalType": "bytes",
          "name": "_data",
          "type": "bytes"
        }
      ],
      "stateMutability": "view",
      "type": "function"
    },
    {
      "inputs": [
        {
          "internalType": "uint256",
          "name": "_offerId",
          "type": "uint256"
        },
        {
          "internalType": "uint256",
          "name": "",
          "type": "uint256"
        },
        {
          "internalType": "uint256",
          "name": "",
          "type": "uint256"
        },
        {
          "internalType": "bytes",
          "name": "_data",
          "type": "bytes"
        }
      ],
      "name": "handleClosure",
      "outputs": [],
      "stateMutability": "nonpayable",
      "type": "function"
    },
    {
      "inputs": [
        {
          "internalType": "uint256",
          "name": "_offerId",
          "type": "uint256"
        },
        {
          "internalType": "uint256",
          "name": "",
          "type": "uint256"
        },
        {
          "internalType": "uint256",
          "name": "",
          "type": "uint256"
        },
        {
          "internalType": "address",
          "name": "",
          "type": "address"
        },
        {
          "internalType": "uint256",
          "name": "",
          "type": "uint256"
        },
        {
          "internalType": "address",
          "name": "",
          "type": "address"
        },
        {
          "internalType": "bytes",
          "name": "_data",
          "type": "bytes"
        }
      ],
      "name": "handleTrade",
      "outputs": [],
      "stateMutability": "nonpayable",
      "type": "function"
    }
  ],
  "bytecode": "0x608060405234801561001057600080fd5b5061055f806100206000396000f3fe608060405234801561001057600080fd5b50600436106100415760003560e01c80630e4a30ce14610046578063d09ef2411461005b578063f2c4259e14610085575b600080fd5b61005961005436600461037b565b610098565b005b61006e610069366004610400565b610105565b60405161007c929190610419565b60405180910390f35b610059610093366004610494565b6101ba565b600087815260208181526040808320805460ff19166001908117909155825290912082516100c892840190610223565b506040518781527fe4678cb4d783cb9dbe2976c97e410c3f052b32599ac33255dcb4a24f2fe6ec059060200160405180910390a150505050505050565b6000818152602081815260408083205460019092528220805460609260ff1691908190610131906104ee565b80601f016020809104026020016040519081016040528092919081815260200182805461015d906104ee565b80156101aa5780601f1061017f576101008083540402835291602001916101aa565b820191906000526020600020905b81548152906001019060200180831161018d57829003601f168201915b5050505050905091509150915091565b600084815260208181526040808320805460ff191660021790556001825290912082516101e992840190610223565b506040518481527f42e2da9467599a3e2c62d2b3f304b9ce67fad569955e2b0dc068dd111090d3169060200160405180910390a150505050565b82805461022f906104ee565b90600052602060002090601f0160209004810192826102515760008555610297565b82601f1061026a57805160ff1916838001178555610297565b82800160010185558215610297579182015b8281111561029757825182559160200191906001019061027c565b506102a39291506102a7565b5090565b5b808211156102a357600081556001016102a8565b80356001600160a01b03811681146102d357600080fd5b919050565b634e487b7160e01b600052604160045260246000fd5b600082601f8301126102ff57600080fd5b813567ffffffffffffffff8082111561031a5761031a6102d8565b604051601f8301601f19908116603f01168101908282118183101715610342576103426102d8565b8160405283815286602085880101111561035b57600080fd5b836020870160208301376000602085830101528094505050505092915050565b600080600080600080600060e0888a03121561039657600080fd5b8735965060208801359550604088013594506103b4606089016102bc565b9350608088013592506103c960a089016102bc565b915060c088013567ffffffffffffffff8111156103e557600080fd5b6103f18a828b016102ee565b91505092959891949750929550565b60006020828403121561041257600080fd5b5035919050565b60006003841061043957634e487b7160e01b600052602160045260246000fd5b8382526020604081840152835180604085015260005b8181101561046b5785810183015185820160600152820161044f565b8181111561047d576000606083870101525b50601f01601f191692909201606001949350505050565b600080600080608085870312156104aa57600080fd5b843593506020850135925060408501359150606085013567ffffffffffffffff8111156104d657600080fd5b6104e2878288016102ee565b91505092959194509250565b600181811c9082168061050257607f821691505b6020821081141561052357634e487b7160e01b600052602260045260246000fd5b5091905056fea2646970667358221220704bdfee0eb89ec47cc12f2e536ec930359f4369f0f6c40c521c1f0125d8981e64736f6c63430008090033",
  "linkReferences": {},
  "deployedLinkReferences": {}
}