{
  "_format": "hh-sol-artifact-1",
  "contractName": "DummyToken",
  "sourceName": "contracts/DummyToken.sol",
  "abi": [
    {
      "inputs": [
        {
          "internalType": "string",
          "name": "_name",
          "type": "string"
        },
        {
          "internalType": "string",
          "name": "_symbol",
          "type": "string"
        },
        {
          "internalType": "uint8",
          "name": "_decimals",
          "type": "uint8"
        },
        {
          "internalType": "uint256",
          "name": "_initialSupply",
          "type": "uint256"
        },
        {
          "internalType": "bool",
          "name": "_isPlatformToken",
          "type": "bool"
        }
      ],
      "stateMutability": "nonpayable",
      "type": "constructor"
    },
    {
      "anonymous": false,
      "inputs": [
        {
          "indexed": true,
          "internalType": "address",
          "name": "owner",
          "type": "address"
        },
        {
          "indexed": true,
          "internalType": "address",
          "name": "spender",
          "type": "address"
        },
        {
          "indexed": false,
          "internalType": "uint256",
          "name": "value",
          "type": "uint256"
        }
      ],
      "name": "Approval",
      "type": "event"
    },
    {
      "anonymous": false,
      "inputs": [
        {
          "indexed": true,
          "internalType": "address",
          "name": "sender",
          "type": "address"
        },
        {
          "indexed": false,
          "internalType": "uint256",
          "name": "value",
          "type": "uint256"
        }
      ],
      "name": "Deposit",
      "type": "event"
    },
    {
      "anonymous": false,
      "inputs": [
        {
          "indexed": true,
          "internalType": "address",
          "name": "from",
          "type": "address"
        },
        {
          "indexed": true,
          "internalType": "address",
          "name": "to",
          "type": "address"
        },
        {
          "indexed": false,
          "internalType": "uint256",
          "name": "value",
          "type": "uint256"
        }
      ],
      "name": "Transfer",
      "type": "event"
    },
    {
      "anonymous": false,
      "inputs": [
        {
          "indexed": true,
          "internalType": "address",
          "name": "receiver",
          "type": "address"
        },
        {
          "indexed": false,
          "internalType": "uint256",
          "name": "value",
          "type": "uint256"
        }
      ],
      "name": "Withdrawal",
      "type": "event"
    },
    {
      "inputs": [
        {
          "internalType": "address",
          "name": "owner",
          "type": "address"
        },
        {
          "internalType": "address",
          "name": "spender",
          "type": "address"
        }
      ],
      "name": "allowance",
      "outputs": [
        {
          "internalType": "uint256",
          "name": "",
          "type": "uint256"
        }
      ],
      "stateMutability": "view",
      "type": "function"
    },
    {
      "inputs": [
        {
          "internalType": "address",
          "name": "spender",
          "type": "address"
        },
        {
          "internalType": "uint256",
          "name": "amount",
          "type": "uint256"
        }
      ],
      "name": "approve",
      "outputs": [
        {
          "internalType": "bool",
          "name": "",
          "type": "bool"
        }
      ],
      "stateMutability": "nonpayable",
      "type": "function"
    },
    {
      "inputs": [
        {
          "internalType": "address",
          "name": "account",
          "type": "address"
        }
      ],
      "name": "balanceOf",
      "outputs": [
        {
          "internalType": "uint256",
          "name": "",
          "type": "uint256"
        }
      ],
      "stateMutability": "view",
      "type": "function"
    },
    {
      "inputs": [],
      "name": "decimals",
      "outputs": [
        {
          "internalType": "uint8",
          "name": "",
          "type": "uint8"
        }
      ],
      "stateMutability": "view",
      "type": "function"
    },
    {
      "inputs": [],
      "name": "deposit",
      "outputs": [],
      "stateMutability": "payable",
      "type": "function"
    },
    {
      "inputs": [],
      "name": "isNaymsPlatformToken",
      "outputs": [
        {
          "internalType": "bool",
          "name": "",
          "type": "bool"
        }
      ],
      "stateMutability": "view",
      "type": "function"
    },
    {
      "inputs": [],
      "name": "isPlatformToken",
      "outputs": [
        {
          "internalType": "bool",
          "name": "",
          "type": "bool"
        }
      ],
      "stateMutability": "view",
      "type": "function"
    },
    {
      "inputs": [],
      "name": "name",
      "outputs": [
        {
          "internalType": "string",
          "name": "",
          "type": "string"
        }
      ],
      "stateMutability": "view",
      "type": "function"
    },
    {
      "inputs": [],
      "name": "symbol",
      "outputs": [
        {
          "internalType": "string",
          "name": "",
          "type": "string"
        }
      ],
      "stateMutability": "view",
      "type": "function"
    },
    {
      "inputs": [],
      "name": "totalSupply",
      "outputs": [
        {
          "internalType": "uint256",
          "name": "",
          "type": "uint256"
        }
      ],
      "stateMutability": "view",
      "type": "function"
    },
    {
      "inputs": [
        {
          "internalType": "address",
          "name": "recipient",
          "type": "address"
        },
        {
          "internalType": "uint256",
          "name": "amount",
          "type": "uint256"
        }
      ],
      "name": "transfer",
      "outputs": [
        {
          "internalType": "bool",
          "name": "",
          "type": "bool"
        }
      ],
      "stateMutability": "nonpayable",
      "type": "function"
    },
    {
      "inputs": [
        {
          "internalType": "address",
          "name": "sender",
          "type": "address"
        },
        {
          "internalType": "address",
          "name": "recipient",
          "type": "address"
        },
        {
          "internalType": "uint256",
          "name": "amount",
          "type": "uint256"
        }
      ],
      "name": "transferFrom",
      "outputs": [
        {
          "internalType": "bool",
          "name": "",
          "type": "bool"
        }
      ],
      "stateMutability": "nonpayable",
      "type": "function"
    },
    {
      "inputs": [
        {
          "internalType": "uint256",
          "name": "value",
          "type": "uint256"
        }
      ],
      "name": "withdraw",
      "outputs": [],
      "stateMutability": "nonpayable",
      "type": "function"
    }
  ],
  "bytecode": "0x60806040526000805460ff191660011790553480156200001e57600080fd5b5060405162000cd538038062000cd5833981016040819052620000419162000220565b845162000056906003906020880190620000ad565b5083516200006c906004906020870190620000ad565b506005805460ff90941660ff199485161790556006829055336000908152600160205260408120929092558154901515921691909117905550620003069050565b828054620000bb90620002c9565b90600052602060002090601f016020900481019282620000df57600085556200012a565b82601f10620000fa57805160ff19168380011785556200012a565b828001600101855582156200012a579182015b828111156200012a5782518255916020019190600101906200010d565b50620001389291506200013c565b5090565b5b808211156200013857600081556001016200013d565b634e487b7160e01b600052604160045260246000fd5b600082601f8301126200017b57600080fd5b81516001600160401b038082111562000198576200019862000153565b604051601f8301601f19908116603f01168101908282118183101715620001c357620001c362000153565b81604052838152602092508683858801011115620001e057600080fd5b600091505b83821015620002045785820183015181830184015290820190620001e5565b83821115620002165760008385830101525b9695505050505050565b600080600080600060a086880312156200023957600080fd5b85516001600160401b03808211156200025157600080fd5b6200025f89838a0162000169565b965060208801519150808211156200027657600080fd5b50620002858882890162000169565b945050604086015160ff811681146200029d57600080fd5b6060870151608088015191945092508015158114620002bb57600080fd5b809150509295509295909350565b600181811c90821680620002de57607f821691505b602082108114156200030057634e487b7160e01b600052602260045260246000fd5b50919050565b6109bf80620003166000396000f3fe6080604052600436106100c25760003560e01c80634edb221e1161007f578063a9059cbb11610059578063a9059cbb14610217578063ac50f13114610237578063d0e30db014610251578063dd62ed3e1461025957600080fd5b80634edb221e146101b457806370a08231146101cc57806395d89b411461020257600080fd5b806306fdde03146100c7578063095ea7b3146100f257806318160ddd1461012257806323b872dd146101465780632e1a7d4d14610166578063313ce56714610188575b600080fd5b3480156100d357600080fd5b506100dc61029f565b6040516100e991906107c4565b60405180910390f35b3480156100fe57600080fd5b5061011261010d366004610835565b61032d565b60405190151581526020016100e9565b34801561012e57600080fd5b5061013860065481565b6040519081526020016100e9565b34801561015257600080fd5b5061011261016136600461085f565b610343565b34801561017257600080fd5b5061018661018136600461089b565b610419565b005b34801561019457600080fd5b506005546101a29060ff1681565b60405160ff90911681526020016100e9565b3480156101c057600080fd5b5060005460ff16610112565b3480156101d857600080fd5b506101386101e73660046108b4565b6001600160a01b031660009081526001602052604090205490565b34801561020e57600080fd5b506100dc610505565b34801561022357600080fd5b50610112610232366004610835565b610512565b34801561024357600080fd5b506000546101129060ff1681565b61018661051f565b34801561026557600080fd5b506101386102743660046108d6565b6001600160a01b03918216600090815260026020908152604080832093909416825291909152205490565b600380546102ac90610909565b80601f01602080910402602001604051908101604052809291908181526020018280546102d890610909565b80156103255780601f106102fa57610100808354040283529160200191610325565b820191906000526020600020905b81548152906001019060200180831161030857829003601f168201915b505050505081565b600061033a338484610592565b50600192915050565b6001600160a01b03831660009081526002602090815260408083203384529091528120548211156103d15760405162461bcd60e51b815260206004820152602d60248201527f44756d6d79546f6b656e3a207472616e7366657220616d6f756e74206578636560448201526c65647320616c6c6f77616e636560981b60648201526084015b60405180910390fd5b6001600160a01b038416600090815260026020908152604080832033808552925290912054610404918691859003610592565b61040f84848461065a565b5060019392505050565b336000908152600160205260409020548111156104785760405162461bcd60e51b815260206004820181905260248201527f44756d6d79546f6b656e3a20696e73756666696369656e742062616c616e636560448201526064016103c8565b3360009081526001602052604090208054829003905560065461049c90829061095a565b600655604051339082156108fc029083906000818181858888f193505050501580156104cc573d6000803e3d6000fd5b5060405181815233907f7fcf532c15f0a6db0bd6d0e038bea71d30d808c7d98cb3bf7268a95bf5081b659060200160405180910390a250565b600480546102ac90610909565b600061033a33848461065a565b3360009081526001602052604090205461053a903490610971565b33600090815260016020526040902055600654610558903490610971565b60065560405134815233907fe1fffcc4923d04b559f4d29a8bfc6cda04eb5b0d3c460751c2402c5c5cc9109c9060200160405180910390a2565b6001600160a01b0382166105f85760405162461bcd60e51b815260206004820152602760248201527f44756d6d79546f6b656e3a20617070726f766520746f20746865207a65726f206044820152666164647265737360c81b60648201526084016103c8565b6001600160a01b0383811660008181526002602090815260408083209487168084529482529182902085905590518481527f8c5be1e5ebec7d5bd14f71427d1e84f3dd0314c0f7b2291e5b200ac8c7c3b92591015b60405180910390a3505050565b6001600160a01b0382166106c15760405162461bcd60e51b815260206004820152602860248201527f44756d6d79546f6b656e3a207472616e7366657220746f20746865207a65726f604482015267206164647265737360c01b60648201526084016103c8565b6001600160a01b03831660009081526001602052604090205481111561073d5760405162461bcd60e51b815260206004820152602b60248201527f44756d6d79546f6b656e3a207472616e7366657220616d6f756e74206578636560448201526a6564732062616c616e636560a81b60648201526084016103c8565b6001600160a01b038084166000908152600160205260408082208054859003905591841681522054610770908290610971565b6001600160a01b0380841660008181526001602052604090819020939093559151908516907fddf252ad1be2c89b69c2b068fc378daa952ba7f163c4a11628f55a4df523b3ef9061064d9085815260200190565b600060208083528351808285015260005b818110156107f1578581018301518582016040015282016107d5565b81811115610803576000604083870101525b50601f01601f1916929092016040019392505050565b80356001600160a01b038116811461083057600080fd5b919050565b6000806040838503121561084857600080fd5b61085183610819565b946020939093013593505050565b60008060006060848603121561087457600080fd5b61087d84610819565b925061088b60208501610819565b9150604084013590509250925092565b6000602082840312156108ad57600080fd5b5035919050565b6000602082840312156108c657600080fd5b6108cf82610819565b9392505050565b600080604083850312156108e957600080fd5b6108f283610819565b915061090060208401610819565b90509250929050565b600181811c9082168061091d57607f821691505b6020821081141561093e57634e487b7160e01b600052602260045260246000fd5b50919050565b634e487b7160e01b600052601160045260246000fd5b60008282101561096c5761096c610944565b500390565b6000821982111561098457610984610944565b50019056fea26469706673582212206a607508b65abefc29ce1d1a7fb61a516faacc9b47ae30166805adf178c60a6064736f6c63430008090033",
  "linkReferences": {},
  "deployedLinkReferences": {}
}