{
  "_format": "hh-sol-artifact-1",
  "contractName": "FreezeUpgradesFacet",
  "sourceName": "contracts/test/FreezeUpgradesFacet.sol",
  "abi": [
    {
      "inputs": [],
      "name": "getSelectors",
      "outputs": [
        {
          "internalType": "bytes",
          "name": "",
          "type": "bytes"
        }
      ],
      "stateMutability": "pure",
      "type": "function"
    },
    {
      "inputs": [],
      "name": "getVersionInfo",
      "outputs": [
        {
          "internalType": "string",
          "name": "_num",
          "type": "string"
        },
        {
          "internalType": "uint256",
          "name": "_date",
          "type": "uint256"
        },
        {
          "internalType": "string",
          "name": "_hash",
          "type": "string"
        }
      ],
      "stateMutability": "pure",
      "type": "function"
    },
    {
      "inputs": [
        {
          "internalType": "address[]",
          "name": "",
          "type": "address[]"
        }
      ],
      "name": "upgrade",
      "outputs": [],
      "stateMutability": "nonpayable",
      "type": "function"
    }
  ],
  "bytecode": "0x608060405234801561001057600080fd5b506102b0806100206000396000f3fe608060405234801561001057600080fd5b50600436106100415760003560e01c80630183592b14610046578063164e63741461005b5780634b503f0b14610078575b600080fd5b610059610054366004610119565b6100b2565b005b606060008160405161006f9392919061022b565b60405180910390f35b60408051630183592b60e01b602082015263059398dd60e21b60248201528151600881830301815260289091019182905261006f91610260565b60405162461bcd60e51b8152602060048201526006602482015265333937bd32b760d11b604482015260640160405180910390fd5b634e487b7160e01b600052604160045260246000fd5b80356001600160a01b038116811461011457600080fd5b919050565b6000602080838503121561012c57600080fd5b823567ffffffffffffffff8082111561014457600080fd5b818501915085601f83011261015857600080fd5b81358181111561016a5761016a6100e7565b8060051b604051601f19603f8301168101818110858211171561018f5761018f6100e7565b6040529182528482019250838101850191888311156101ad57600080fd5b938501935b828510156101d2576101c3856100fd565b845293850193928501926101b2565b98975050505050505050565b6000815180845260005b81811015610204576020818501810151868301820152016101e8565b81811115610216576000602083870101525b50601f01601f19169290920160200192915050565b60608152600061023e60608301866101de565b846020840152828103604084015261025681856101de565b9695505050505050565b60208152600061027360208301846101de565b939250505056fea26469706673582212200b10ed5dd4272f66689b6b81e23ed26175e520ed02f1884691b1814c6a7ee52e64736f6c63430008090033",
  "linkReferences": {},
  "deployedLinkReferences": {}
}