{
  "_format": "hh-sol-artifact-1",
  "contractName": "EntityToken",
  "sourceName": "contracts/EntityToken.sol",
  "abi": [
    {
      "inputs": [
        {
          "internalType": "address",
          "name": "_impl",
          "type": "address"
        },
        {
          "internalType": "address",
          "name": "_unit",
          "type": "address"
        }
      ],
      "stateMutability": "nonpayable",
      "type": "constructor"
    },
    {
      "anonymous": false,
      "inputs": [
        {
          "indexed": true,
          "internalType": "address",
          "name": "owner",
          "type": "address"
        },
        {
          "indexed": true,
          "internalType": "address",
          "name": "spender",
          "type": "address"
        },
        {
          "indexed": false,
          "internalType": "uint256",
          "name": "value",
          "type": "uint256"
        }
      ],
      "name": "Approval",
      "type": "event"
    },
    {
      "anonymous": false,
      "inputs": [
        {
          "indexed": true,
          "internalType": "address",
          "name": "from",
          "type": "address"
        },
        {
          "indexed": true,
          "internalType": "address",
          "name": "to",
          "type": "address"
        },
        {
          "indexed": false,
          "internalType": "uint256",
          "name": "value",
          "type": "uint256"
        }
      ],
      "name": "Transfer",
      "type": "event"
    },
    {
      "inputs": [
        {
          "internalType": "address",
          "name": "owner",
          "type": "address"
        },
        {
          "internalType": "address",
          "name": "spender",
          "type": "address"
        }
      ],
      "name": "allowance",
      "outputs": [
        {
          "internalType": "uint256",
          "name": "",
          "type": "uint256"
        }
      ],
      "stateMutability": "view",
      "type": "function"
    },
    {
      "inputs": [
        {
          "internalType": "address",
          "name": "spender",
          "type": "address"
        },
        {
          "internalType": "uint256",
          "name": "value",
          "type": "uint256"
        }
      ],
      "name": "approve",
      "outputs": [
        {
          "internalType": "bool",
          "name": "",
          "type": "bool"
        }
      ],
      "stateMutability": "nonpayable",
      "type": "function"
    },
    {
      "inputs": [
        {
          "internalType": "address",
          "name": "owner",
          "type": "address"
        }
      ],
      "name": "balanceOf",
      "outputs": [
        {
          "internalType": "uint256",
          "name": "",
          "type": "uint256"
        }
      ],
      "stateMutability": "view",
      "type": "function"
    },
    {
      "inputs": [],
      "name": "decimals",
      "outputs": [
        {
          "internalType": "uint8",
          "name": "",
          "type": "uint8"
        }
      ],
      "stateMutability": "view",
      "type": "function"
    },
    {
      "inputs": [],
      "name": "impl",
      "outputs": [
        {
          "internalType": "contract IEntityTokensFacet",
          "name": "",
          "type": "address"
        }
      ],
      "stateMutability": "view",
      "type": "function"
    },
    {
      "inputs": [],
      "name": "isNaymsPlatformToken",
      "outputs": [
        {
          "internalType": "bool",
          "name": "",
          "type": "bool"
        }
      ],
      "stateMutability": "view",
      "type": "function"
    },
    {
      "inputs": [],
      "name": "isPlatformToken",
      "outputs": [
        {
          "internalType": "bool",
          "name": "",
          "type": "bool"
        }
      ],
      "stateMutability": "view",
      "type": "function"
    },
    {
      "inputs": [],
      "name": "name",
      "outputs": [
        {
          "internalType": "string",
          "name": "",
          "type": "string"
        }
      ],
      "stateMutability": "view",
      "type": "function"
    },
    {
      "inputs": [],
      "name": "symbol",
      "outputs": [
        {
          "internalType": "string",
          "name": "",
          "type": "string"
        }
      ],
      "stateMutability": "view",
      "type": "function"
    },
    {
      "inputs": [],
      "name": "totalSupply",
      "outputs": [
        {
          "internalType": "uint256",
          "name": "",
          "type": "uint256"
        }
      ],
      "stateMutability": "view",
      "type": "function"
    },
    {
      "inputs": [
        {
          "internalType": "address",
          "name": "to",
          "type": "address"
        },
        {
          "internalType": "uint256",
          "name": "value",
          "type": "uint256"
        }
      ],
      "name": "transfer",
      "outputs": [
        {
          "internalType": "bool",
          "name": "",
          "type": "bool"
        }
      ],
      "stateMutability": "nonpayable",
      "type": "function"
    },
    {
      "inputs": [
        {
          "internalType": "address",
          "name": "from",
          "type": "address"
        },
        {
          "internalType": "address",
          "name": "to",
          "type": "address"
        },
        {
          "internalType": "uint256",
          "name": "value",
          "type": "uint256"
        }
      ],
      "name": "transferFrom",
      "outputs": [
        {
          "internalType": "bool",
          "name": "",
          "type": "bool"
        }
      ],
      "stateMutability": "nonpayable",
      "type": "function"
    }
  ],
  "bytecode": "0x60806040526000805460ff1916600117905534801561001d57600080fd5b506040516109b83803806109b883398101604081905261003c91610093565b60008054610100600160a81b0319166101006001600160a01b0394851602179055600180546001600160a01b031916919092161790556100c6565b80516001600160a01b038116811461008e57600080fd5b919050565b600080604083850312156100a657600080fd5b6100af83610077565b91506100bd60208401610077565b90509250929050565b6108e3806100d56000396000f3fe608060405234801561001057600080fd5b50600436106100b45760003560e01c806370a082311161007157806370a082311461013d5780638abf60771461015057806395d89b4114610180578063a9059cbb14610188578063ac50f1311461019b578063dd62ed3e146101a857600080fd5b806306fdde03146100b9578063095ea7b3146100d757806318160ddd146100fa57806323b872dd14610110578063313ce567146101235780634edb221e14610132575b600080fd5b6100c16101bb565b6040516100ce91906106ce565b60405180910390f35b6100ea6100e536600461071d565b61024d565b60405190151581526020016100ce565b610102610313565b6040519081526020016100ce565b6100ea61011e366004610747565b610397565b604051601281526020016100ce565b60005460ff166100ea565b61010261014b366004610783565b610472565b6000546101689061010090046001600160a01b031681565b6040516001600160a01b0390911681526020016100ce565b6100c1610505565b6100ea61019636600461071d565b610542565b6000546100ea9060ff1681565b6101026101b636600461079e565b610602565b600054600154604051631b7bc50760e11b81526001600160a01b0391821660048201526060926101009004909116906336f78a0e906024015b60006040518083038186803b15801561020c57600080fd5b505afa158015610220573d6000803e3d6000fd5b505050506040513d6000823e601f3d908101601f1916820160405261024891908101906107e7565b905090565b60008054600154604051631694a25760e11b81526001600160a01b0391821660048201528582166024820152336044820152606481018590526101009092041690632d2944ae90608401600060405180830381600087803b1580156102b157600080fd5b505af11580156102c5573d6000803e3d6000fd5b50506040518481526001600160a01b03861692503391507f8c5be1e5ebec7d5bd14f71427d1e84f3dd0314c0f7b2291e5b200ac8c7c3b925906020015b60405180910390a350600192915050565b600080546001546040516209d59d60ec1b81526001600160a01b0391821660048201526101009092041690639d59d0009060240160206040518083038186803b15801561035f57600080fd5b505afa158015610373573d6000803e3d6000fd5b505050506040513d601f19601f820116820180604052508101906102489190610894565b6000805460015460405163e472ed2960e01b81526001600160a01b0391821660048201523360248201528682166044820152858216606482015260848101859052610100909204169063e472ed299060a401600060405180830381600087803b15801561040357600080fd5b505af1158015610417573d6000803e3d6000fd5b50505050826001600160a01b0316846001600160a01b03167fddf252ad1be2c89b69c2b068fc378daa952ba7f163c4a11628f55a4df523b3ef8460405161046091815260200190565b60405180910390a35060019392505050565b60008054600154604051635f5c15f960e11b81526001600160a01b0391821660048201528482166024820152610100909204169063beb82bf29060440160206040518083038186803b1580156104c757600080fd5b505afa1580156104db573d6000803e3d6000fd5b505050506040513d601f19601f820116820180604052508101906104ff9190610894565b92915050565b600054600154604051638049caf160e01b81526001600160a01b039182166004820152606092610100900490911690638049caf1906024016101f4565b6000805460015460405163e472ed2960e01b81526001600160a01b03918216600482015233602482018190526044820152858216606482015260848101859052610100909204169063e472ed299060a401600060405180830381600087803b1580156105ad57600080fd5b505af11580156105c1573d6000803e3d6000fd5b50506040518481526001600160a01b03861692503391507fddf252ad1be2c89b69c2b068fc378daa952ba7f163c4a11628f55a4df523b3ef90602001610302565b600080546001546040516399b686ef60e01b81526001600160a01b0391821660048201528482166024820152858216604482015261010090920416906399b686ef9060640160206040518083038186803b15801561065f57600080fd5b505afa158015610673573d6000803e3d6000fd5b505050506040513d601f19601f820116820180604052508101906106979190610894565b9392505050565b60005b838110156106b95781810151838201526020016106a1565b838111156106c8576000848401525b50505050565b60208152600082518060208401526106ed81604085016020870161069e565b601f01601f19169190910160400192915050565b80356001600160a01b038116811461071857600080fd5b919050565b6000806040838503121561073057600080fd5b61073983610701565b946020939093013593505050565b60008060006060848603121561075c57600080fd5b61076584610701565b925061077360208501610701565b9150604084013590509250925092565b60006020828403121561079557600080fd5b61069782610701565b600080604083850312156107b157600080fd5b6107ba83610701565b91506107c860208401610701565b90509250929050565b634e487b7160e01b600052604160045260246000fd5b6000602082840312156107f957600080fd5b815167ffffffffffffffff8082111561081157600080fd5b818401915084601f83011261082557600080fd5b815181811115610837576108376107d1565b604051601f8201601f19908116603f0116810190838211818310171561085f5761085f6107d1565b8160405282815287602084870101111561087857600080fd5b61088983602083016020880161069e565b979650505050505050565b6000602082840312156108a657600080fd5b505191905056fea264697066735822122046d827cc5647cabec3f11ea2eec75e70dbf312d95dee560ef65a7622099791ab64736f6c63430008090033",
  "linkReferences": {},
  "deployedLinkReferences": {}
}