{
  "_format": "hh-sol-artifact-1",
  "contractName": "DiamondCutter",
  "sourceName": "contracts/base/DiamondCutter.sol",
  "abi": [
    {
      "anonymous": false,
      "inputs": [
        {
          "indexed": false,
          "internalType": "bytes[]",
          "name": "_diamondCut",
          "type": "bytes[]"
        }
      ],
      "name": "DiamondCut",
      "type": "event"
    },
    {
      "inputs": [
        {
          "internalType": "bytes[]",
          "name": "_diamondCut",
          "type": "bytes[]"
        }
      ],
      "name": "diamondCut",
      "outputs": [],
      "stateMutability": "nonpayable",
      "type": "function"
    }
  ],
  "bytecode": "0x608060405234801561001057600080fd5b5061099f806100206000396000f3fe608060405234801561001057600080fd5b506004361061002b5760003560e01c806399f5f52e14610030575b600080fd5b61004361003e3660046106e7565b610045565b005b6040805160c08101825260006020820181905291810182905260608101829052608080820183905260a08201929092527fc8fcad8db84d3cc18b4c41d551ea0ee66dd599cde068d998e57d5e09332c131e548082527fc8fcad8db84d3cc18b4c41d551ea0ee66dd599cde068d998e57d5e09332c131c926fffffffffffffffffffffffffffffffff821691901c80156100f1576000828152600185016020908152604090912054908401525b60005b855181101561062557600086828151811061011157610111610800565b6020026020010151905060148151116101715760405162461bcd60e51b815260206004820152601f60248201527f4d697373696e67206661636574206f722073656c6563746f7220696e666f2e0060448201526064015b60405180910390fd5b602081015181516001600160601b03198216906000906004906101969060149061082c565b6101a09190610843565b90506034821561035c5760005b8281101561035657858201516101c4600484610865565b6001600160e01b03198216600090815260208e90526040902054909350806102b7576001600160e01b03198216600090815260208e8152604091829020918c901b88178d17909155610217908b9061087d565b6001600160e01b03198316901c61022f8b602061087d565b60208e0180516001600160e01b031990921c19909116919091179052896102558161089c565b9a505089600814156102ab578b602001518d60010160008d8152602001908152602001600020819055506000801b8c6020018181525050600099508a8061029b9061089c565b600060a08f01529b506103419050565b600160a08d0152610341565b6001600160601b031981811690871614156103145760405162461bcd60e51b815260206004820152601b60248201527f46756e6374696f6e2063757420746f2073616d652066616365742e00000000006044820152606401610168565b6001600160e01b03198216600090815260208e9052604090206bffffffffffffffffffffffff8216871790555b5050808061034e9061089c565b9150506101ad565b5061060d565b60005b8281101561060b5785820151610376600484610865565b6001600160e01b03198216600090815260208e90526040902054909350806103ee5760405162461bcd60e51b815260206004820152602560248201527f46756e6374696f6e20646f65736e27742065786973742e2043616e277420726560448201526436b7bb329760d91b6064820152608401610168565b60208c0151610428578a610401816108b7565b9b50508c60010160008c8152602001908152602001600020548c6020018181525050600899505b67ffffffffffffffff811660408d81019190915281901c63ffffffff1660608d0152600061045760018c61082c565b61046290602061087d565b8d60200151901b90508b8d604001511461051c578d60010160008e604001518152602001908152602001600020548d60800181815250508c6060015160206104aa919061087d565b816001600160e01b031916901c8d6060015160206104c8919061087d565b6001600160e01b031960001b901c198e6080015116178d60800181815250508c608001518e60010160008f604001518152602001908152602001600020819055508a80610514906108b7565b9b5050610574565b60608d015161052c90602061087d565b816001600160e01b031916901c8d60600151602061054a919061087d565b60208f0180516001600160e01b031990921c199091169190911790528a610570816108b7565b9b50505b8a6105925760008c815260018f016020908152604082208290558e01525b6001600160e01b0319818116908416146105de576001600160e01b03198116600090815260208f90526040902080546001600160601b0319166bffffffffffffffffffffffff84161790555b50506001600160e01b031916600090815260208c90526040812055806106038161089c565b91505061035f565b505b5050505050808061061d9061089c565b9150506100f4565b508251608082901b831790811461063e57600285018190555b8360a0015115610661576020808501516000858152600188019092526040909120555b7f6ace155508eb66f4d8afce32f392ee3b0a8ab3c0133964f1f3c613e497da45fe8660405161069091906108ce565b60405180910390a1505050505050565b634e487b7160e01b600052604160045260246000fd5b604051601f8201601f1916810167ffffffffffffffff811182821017156106df576106df6106a0565b604052919050565b600060208083850312156106fa57600080fd5b823567ffffffffffffffff8082111561071257600080fd5b8185019150601f868184011261072757600080fd5b823582811115610739576107396106a0565b8060051b6107488682016106b6565b918252848101860191868101908a84111561076257600080fd5b87870192505b838310156107f2578235868111156107805760008081fd5b8701603f81018c136107925760008081fd5b888101356040888211156107a8576107a86106a0565b6107b9828901601f19168c016106b6565b8281528e828486010111156107ce5760008081fd5b828285018d83013760009281018c0192909252508352509187019190870190610768565b9a9950505050505050505050565b634e487b7160e01b600052603260045260246000fd5b634e487b7160e01b600052601160045260246000fd5b60008282101561083e5761083e610816565b500390565b60008261086057634e487b7160e01b600052601260045260246000fd5b500490565b6000821982111561087857610878610816565b500190565b600081600019048311821515161561089757610897610816565b500290565b60006000198214156108b0576108b0610816565b5060010190565b6000816108c6576108c6610816565b506000190190565b6000602080830181845280855180835260408601915060408160051b87010192508387016000805b8381101561095b57888603603f1901855282518051808852835b8181101561092b578281018a01518982018b01528901610910565b8181111561093b57848a838b0101525b50601f01601f1916969096018701955093860193918601916001016108f6565b50939897505050505050505056fea2646970667358221220d8e00cf35ae5dc1e4e679daf9d7e02a36acd47bc75733f3829f2c247fb94a95864736f6c63430008090033",
  "linkReferences": {},
  "deployedLinkReferences": {}
}