{
  "_format": "hh-sol-artifact-1",
  "contractName": "MarketCoreFacet",
  "sourceName": "contracts/MarketCoreFacet.sol",
  "abi": [
    {
      "inputs": [
        {
          "internalType": "address",
          "name": "_settings",
          "type": "address"
        }
      ],
      "stateMutability": "nonpayable",
      "type": "constructor"
    },
    {
      "inputs": [],
      "name": "CANNOT_ASSIGN",
      "outputs": [
        {
          "internalType": "uint256",
          "name": "",
          "type": "uint256"
        }
      ],
      "stateMutability": "view",
      "type": "function"
    },
    {
      "inputs": [],
      "name": "CANNOT_ASSIGN_USER_NOT_APPROVED",
      "outputs": [
        {
          "internalType": "uint256",
          "name": "",
          "type": "uint256"
        }
      ],
      "stateMutability": "view",
      "type": "function"
    },
    {
      "inputs": [],
      "name": "CAN_ASSIGN_HAS_ROLE",
      "outputs": [
        {
          "internalType": "uint256",
          "name": "",
          "type": "uint256"
        }
      ],
      "stateMutability": "view",
      "type": "function"
    },
    {
      "inputs": [],
      "name": "CAN_ASSIGN_IS_ADMIN",
      "outputs": [
        {
          "internalType": "uint256",
          "name": "",
          "type": "uint256"
        }
      ],
      "stateMutability": "view",
      "type": "function"
    },
    {
      "inputs": [],
      "name": "CAN_ASSIGN_IS_OWN_CONTEXT",
      "outputs": [
        {
          "internalType": "uint256",
          "name": "",
          "type": "uint256"
        }
      ],
      "stateMutability": "view",
      "type": "function"
    },
    {
      "inputs": [],
      "name": "DOES_NOT_HAVE_ROLE",
      "outputs": [
        {
          "internalType": "uint256",
          "name": "",
          "type": "uint256"
        }
      ],
      "stateMutability": "view",
      "type": "function"
    },
    {
      "inputs": [],
      "name": "FEE_SCHEDULE_PLATFORM_ACTION",
      "outputs": [
        {
          "internalType": "uint256",
          "name": "",
          "type": "uint256"
        }
      ],
      "stateMutability": "view",
      "type": "function"
    },
    {
      "inputs": [],
      "name": "FEE_SCHEDULE_STANDARD",
      "outputs": [
        {
          "internalType": "uint256",
          "name": "",
          "type": "uint256"
        }
      ],
      "stateMutability": "view",
      "type": "function"
    },
    {
      "inputs": [],
      "name": "HAS_ROLE_CONTEXT",
      "outputs": [
        {
          "internalType": "uint256",
          "name": "",
          "type": "uint256"
        }
      ],
      "stateMutability": "view",
      "type": "function"
    },
    {
      "inputs": [],
      "name": "HAS_ROLE_SYSTEM_CONTEXT",
      "outputs": [
        {
          "internalType": "uint256",
          "name": "",
          "type": "uint256"
        }
      ],
      "stateMutability": "view",
      "type": "function"
    },
    {
      "inputs": [],
      "name": "OFFER_STATE_ACTIVE",
      "outputs": [
        {
          "internalType": "uint256",
          "name": "",
          "type": "uint256"
        }
      ],
      "stateMutability": "view",
      "type": "function"
    },
    {
      "inputs": [],
      "name": "OFFER_STATE_CANCELLED",
      "outputs": [
        {
          "internalType": "uint256",
          "name": "",
          "type": "uint256"
        }
      ],
      "stateMutability": "view",
      "type": "function"
    },
    {
      "inputs": [],
      "name": "OFFER_STATE_FULFILLED",
      "outputs": [
        {
          "internalType": "uint256",
          "name": "",
          "type": "uint256"
        }
      ],
      "stateMutability": "view",
      "type": "function"
    },
    {
      "inputs": [],
      "name": "ROLEGROUP_APPROVED_USERS",
      "outputs": [
        {
          "internalType": "bytes32",
          "name": "",
          "type": "bytes32"
        }
      ],
      "stateMutability": "view",
      "type": "function"
    },
    {
      "inputs": [],
      "name": "ROLEGROUP_BROKERS",
      "outputs": [
        {
          "internalType": "bytes32",
          "name": "",
          "type": "bytes32"
        }
      ],
      "stateMutability": "view",
      "type": "function"
    },
    {
      "inputs": [],
      "name": "ROLEGROUP_CAPITAL_PROVIDERS",
      "outputs": [
        {
          "internalType": "bytes32",
          "name": "",
          "type": "bytes32"
        }
      ],
      "stateMutability": "view",
      "type": "function"
    },
    {
      "inputs": [],
      "name": "ROLEGROUP_CLAIMS_ADMINS",
      "outputs": [
        {
          "internalType": "bytes32",
          "name": "",
          "type": "bytes32"
        }
      ],
      "stateMutability": "view",
      "type": "function"
    },
    {
      "inputs": [],
      "name": "ROLEGROUP_ENTITY_ADMINS",
      "outputs": [
        {
          "internalType": "bytes32",
          "name": "",
          "type": "bytes32"
        }
      ],
      "stateMutability": "view",
      "type": "function"
    },
    {
      "inputs": [],
      "name": "ROLEGROUP_ENTITY_MANAGERS",
      "outputs": [
        {
          "internalType": "bytes32",
          "name": "",
          "type": "bytes32"
        }
      ],
      "stateMutability": "view",
      "type": "function"
    },
    {
      "inputs": [],
      "name": "ROLEGROUP_ENTITY_REPS",
      "outputs": [
        {
          "internalType": "bytes32",
          "name": "",
          "type": "bytes32"
        }
      ],
      "stateMutability": "view",
      "type": "function"
    },
    {
      "inputs": [],
      "name": "ROLEGROUP_INSURED_PARTYS",
      "outputs": [
        {
          "internalType": "bytes32",
          "name": "",
          "type": "bytes32"
        }
      ],
      "stateMutability": "view",
      "type": "function"
    },
    {
      "inputs": [],
      "name": "ROLEGROUP_POLICY_CREATORS",
      "outputs": [
        {
          "internalType": "bytes32",
          "name": "",
          "type": "bytes32"
        }
      ],
      "stateMutability": "view",
      "type": "function"
    },
    {
      "inputs": [],
      "name": "ROLEGROUP_POLICY_OWNERS",
      "outputs": [
        {
          "internalType": "bytes32",
          "name": "",
          "type": "bytes32"
        }
      ],
      "stateMutability": "view",
      "type": "function"
    },
    {
      "inputs": [],
      "name": "ROLEGROUP_SYSTEM_ADMINS",
      "outputs": [
        {
          "internalType": "bytes32",
          "name": "",
          "type": "bytes32"
        }
      ],
      "stateMutability": "view",
      "type": "function"
    },
    {
      "inputs": [],
      "name": "ROLEGROUP_SYSTEM_MANAGERS",
      "outputs": [
        {
          "internalType": "bytes32",
          "name": "",
          "type": "bytes32"
        }
      ],
      "stateMutability": "view",
      "type": "function"
    },
    {
      "inputs": [],
      "name": "ROLEGROUP_TRADERS",
      "outputs": [
        {
          "internalType": "bytes32",
          "name": "",
          "type": "bytes32"
        }
      ],
      "stateMutability": "view",
      "type": "function"
    },
    {
      "inputs": [],
      "name": "ROLEGROUP_UNDERWRITERS",
      "outputs": [
        {
          "internalType": "bytes32",
          "name": "",
          "type": "bytes32"
        }
      ],
      "stateMutability": "view",
      "type": "function"
    },
    {
      "inputs": [],
      "name": "ROLE_APPROVED_USER",
      "outputs": [
        {
          "internalType": "bytes32",
          "name": "",
          "type": "bytes32"
        }
      ],
      "stateMutability": "view",
      "type": "function"
    },
    {
      "inputs": [],
      "name": "ROLE_BROKER",
      "outputs": [
        {
          "internalType": "bytes32",
          "name": "",
          "type": "bytes32"
        }
      ],
      "stateMutability": "view",
      "type": "function"
    },
    {
      "inputs": [],
      "name": "ROLE_CAPITAL_PROVIDER",
      "outputs": [
        {
          "internalType": "bytes32",
          "name": "",
          "type": "bytes32"
        }
      ],
      "stateMutability": "view",
      "type": "function"
    },
    {
      "inputs": [],
      "name": "ROLE_CLAIMS_ADMIN",
      "outputs": [
        {
          "internalType": "bytes32",
          "name": "",
          "type": "bytes32"
        }
      ],
      "stateMutability": "view",
      "type": "function"
    },
    {
      "inputs": [],
      "name": "ROLE_ENTITY_ADMIN",
      "outputs": [
        {
          "internalType": "bytes32",
          "name": "",
          "type": "bytes32"
        }
      ],
      "stateMutability": "view",
      "type": "function"
    },
    {
      "inputs": [],
      "name": "ROLE_ENTITY_MANAGER",
      "outputs": [
        {
          "internalType": "bytes32",
          "name": "",
          "type": "bytes32"
        }
      ],
      "stateMutability": "view",
      "type": "function"
    },
    {
      "inputs": [],
      "name": "ROLE_ENTITY_REP",
      "outputs": [
        {
          "internalType": "bytes32",
          "name": "",
          "type": "bytes32"
        }
      ],
      "stateMutability": "view",
      "type": "function"
    },
    {
      "inputs": [],
      "name": "ROLE_INSURED_PARTY",
      "outputs": [
        {
          "internalType": "bytes32",
          "name": "",
          "type": "bytes32"
        }
      ],
      "stateMutability": "view",
      "type": "function"
    },
    {
      "inputs": [],
      "name": "ROLE_PENDING_BROKER",
      "outputs": [
        {
          "internalType": "bytes32",
          "name": "",
          "type": "bytes32"
        }
      ],
      "stateMutability": "view",
      "type": "function"
    },
    {
      "inputs": [],
      "name": "ROLE_PENDING_CLAIMS_ADMIN",
      "outputs": [
        {
          "internalType": "bytes32",
          "name": "",
          "type": "bytes32"
        }
      ],
      "stateMutability": "view",
      "type": "function"
    },
    {
      "inputs": [],
      "name": "ROLE_PENDING_INSURED_PARTY",
      "outputs": [
        {
          "internalType": "bytes32",
          "name": "",
          "type": "bytes32"
        }
      ],
      "stateMutability": "view",
      "type": "function"
    },
    {
      "inputs": [],
      "name": "ROLE_PENDING_UNDERWRITER",
      "outputs": [
        {
          "internalType": "bytes32",
          "name": "",
          "type": "bytes32"
        }
      ],
      "stateMutability": "view",
      "type": "function"
    },
    {
      "inputs": [],
      "name": "ROLE_POLICY_CREATOR",
      "outputs": [
        {
          "internalType": "bytes32",
          "name": "",
          "type": "bytes32"
        }
      ],
      "stateMutability": "view",
      "type": "function"
    },
    {
      "inputs": [],
      "name": "ROLE_POLICY_OWNER",
      "outputs": [
        {
          "internalType": "bytes32",
          "name": "",
          "type": "bytes32"
        }
      ],
      "stateMutability": "view",
      "type": "function"
    },
    {
      "inputs": [],
      "name": "ROLE_SYSTEM_ADMIN",
      "outputs": [
        {
          "internalType": "bytes32",
          "name": "",
          "type": "bytes32"
        }
      ],
      "stateMutability": "view",
      "type": "function"
    },
    {
      "inputs": [],
      "name": "ROLE_SYSTEM_MANAGER",
      "outputs": [
        {
          "internalType": "bytes32",
          "name": "",
          "type": "bytes32"
        }
      ],
      "stateMutability": "view",
      "type": "function"
    },
    {
      "inputs": [],
      "name": "ROLE_UNDERWRITER",
      "outputs": [
        {
          "internalType": "bytes32",
          "name": "",
          "type": "bytes32"
        }
      ],
      "stateMutability": "view",
      "type": "function"
    },
    {
      "inputs": [],
      "name": "SETTING_ENTITY_DELEGATE",
      "outputs": [
        {
          "internalType": "bytes32",
          "name": "",
          "type": "bytes32"
        }
      ],
      "stateMutability": "view",
      "type": "function"
    },
    {
      "inputs": [],
      "name": "SETTING_ENTITY_DEPLOYER",
      "outputs": [
        {
          "internalType": "bytes32",
          "name": "",
          "type": "bytes32"
        }
      ],
      "stateMutability": "view",
      "type": "function"
    },
    {
      "inputs": [],
      "name": "SETTING_ENTITY_IMPL",
      "outputs": [
        {
          "internalType": "bytes32",
          "name": "",
          "type": "bytes32"
        }
      ],
      "stateMutability": "view",
      "type": "function"
    },
    {
      "inputs": [],
      "name": "SETTING_ETHER_TOKEN",
      "outputs": [
        {
          "internalType": "bytes32",
          "name": "",
          "type": "bytes32"
        }
      ],
      "stateMutability": "view",
      "type": "function"
    },
    {
      "inputs": [],
      "name": "SETTING_FEEBANK",
      "outputs": [
        {
          "internalType": "bytes32",
          "name": "",
          "type": "bytes32"
        }
      ],
      "stateMutability": "view",
      "type": "function"
    },
    {
      "inputs": [],
      "name": "SETTING_FEEBANK_IMPL",
      "outputs": [
        {
          "internalType": "bytes32",
          "name": "",
          "type": "bytes32"
        }
      ],
      "stateMutability": "view",
      "type": "function"
    },
    {
      "inputs": [],
      "name": "SETTING_MARKET",
      "outputs": [
        {
          "internalType": "bytes32",
          "name": "",
          "type": "bytes32"
        }
      ],
      "stateMutability": "view",
      "type": "function"
    },
    {
      "inputs": [],
      "name": "SETTING_MARKET_IMPL",
      "outputs": [
        {
          "internalType": "bytes32",
          "name": "",
          "type": "bytes32"
        }
      ],
      "stateMutability": "view",
      "type": "function"
    },
    {
      "inputs": [],
      "name": "SETTING_POLICY_DELEGATE",
      "outputs": [
        {
          "internalType": "bytes32",
          "name": "",
          "type": "bytes32"
        }
      ],
      "stateMutability": "view",
      "type": "function"
    },
    {
      "inputs": [],
      "name": "SETTING_POLICY_IMPL",
      "outputs": [
        {
          "internalType": "bytes32",
          "name": "",
          "type": "bytes32"
        }
      ],
      "stateMutability": "view",
      "type": "function"
    },
    {
      "inputs": [],
      "name": "acl",
      "outputs": [
        {
          "internalType": "contract IACL",
          "name": "",
          "type": "address"
        }
      ],
      "stateMutability": "view",
      "type": "function"
    },
    {
      "inputs": [],
      "name": "aclContext",
      "outputs": [
        {
          "internalType": "bytes32",
          "name": "",
          "type": "bytes32"
        }
      ],
      "stateMutability": "view",
      "type": "function"
    },
    {
      "inputs": [
        {
          "internalType": "uint256",
          "name": "_offerId",
          "type": "uint256"
        },
        {
          "internalType": "uint256",
          "name": "_amount",
          "type": "uint256"
        }
      ],
      "name": "buy",
      "outputs": [],
      "stateMutability": "nonpayable",
      "type": "function"
    },
    {
      "inputs": [
        {
          "internalType": "uint256",
          "name": "_offerId",
          "type": "uint256"
        }
      ],
      "name": "cancel",
      "outputs": [],
      "stateMutability": "nonpayable",
      "type": "function"
    },
    {
      "inputs": [
        {
          "internalType": "address",
          "name": "_sellToken",
          "type": "address"
        },
        {
          "internalType": "uint256",
          "name": "_sellAmount",
          "type": "uint256"
        },
        {
          "internalType": "address",
          "name": "_buyToken",
          "type": "address"
        },
        {
          "internalType": "uint256",
          "name": "_buyAmount",
          "type": "uint256"
        },
        {
          "internalType": "uint256",
          "name": "_feeSchedule",
          "type": "uint256"
        },
        {
          "internalType": "address",
          "name": "_notify",
          "type": "address"
        },
        {
          "internalType": "bytes",
          "name": "_notifyData",
          "type": "bytes"
        }
      ],
      "name": "executeLimitOffer",
      "outputs": [
        {
          "internalType": "uint256",
          "name": "",
          "type": "uint256"
        }
      ],
      "stateMutability": "nonpayable",
      "type": "function"
    },
    {
      "inputs": [
        {
          "internalType": "address",
          "name": "_sellToken",
          "type": "address"
        },
        {
          "internalType": "uint256",
          "name": "_sellAmount",
          "type": "uint256"
        },
        {
          "internalType": "address",
          "name": "_buyToken",
          "type": "address"
        }
      ],
      "name": "executeMarketOffer",
      "outputs": [],
      "stateMutability": "nonpayable",
      "type": "function"
    },
    {
      "inputs": [],
      "name": "getSelectors",
      "outputs": [
        {
          "internalType": "bytes",
          "name": "",
          "type": "bytes"
        }
      ],
      "stateMutability": "pure",
      "type": "function"
    },
    {
      "inputs": [
        {
          "internalType": "address",
          "name": "_addr",
          "type": "address"
        },
        {
          "internalType": "bytes32",
          "name": "_roleGroup",
          "type": "bytes32"
        }
      ],
      "name": "inRoleGroup",
      "outputs": [
        {
          "internalType": "bool",
          "name": "",
          "type": "bool"
        }
      ],
      "stateMutability": "view",
      "type": "function"
    },
    {
      "inputs": [
        {
          "internalType": "bytes32",
          "name": "_ctx",
          "type": "bytes32"
        },
        {
          "internalType": "address",
          "name": "_addr",
          "type": "address"
        },
        {
          "internalType": "bytes32",
          "name": "_roleGroup",
          "type": "bytes32"
        }
      ],
      "name": "inRoleGroupWithContext",
      "outputs": [
        {
          "internalType": "bool",
          "name": "",
          "type": "bool"
        }
      ],
      "stateMutability": "view",
      "type": "function"
    },
    {
      "inputs": [
        {
          "internalType": "address",
          "name": "_addr",
          "type": "address"
        }
      ],
      "name": "isAdmin",
      "outputs": [
        {
          "internalType": "bool",
          "name": "",
          "type": "bool"
        }
      ],
      "stateMutability": "view",
      "type": "function"
    },
    {
      "inputs": [],
      "name": "settings",
      "outputs": [
        {
          "internalType": "contract ISettings",
          "name": "",
          "type": "address"
        }
      ],
      "stateMutability": "view",
      "type": "function"
    }
  ],
  "bytecode": "0x60806040526001600b553480156200001657600080fd5b50604051620048eb380380620048eb833981016040819052620000399162000249565b8080818060006040516200005b906773657474696e677360c01b815260080190565b90815260405190819003602001902080546001600160a01b03929092166001600160a01b03199092169190911790556200009462000186565b60405163a1e31a6560e01b81523060048201526001600160a01b03919091169063a1e31a659060240160206040518083038186803b158015620000d657600080fd5b505afa158015620000eb573d6000803e3d6000fd5b505050506040513d601f19601f8201168201806040525081019062000111919062000270565b60408051691858db10dbdb9d195e1d60b21b81526001600a820152815190819003602a018120929092556773657474696e677360c01b8252600060088301525160289181900391909101902080546001600160a01b0319166001600160a01b039390931692909217909155506200028a915050565b600080604051620001a5906773657474696e677360c01b815260080190565b90815260408051602092819003830181205463de28735960e01b825291516001600160a01b039092169263de28735992600480840193829003018186803b158015620001f057600080fd5b505afa15801562000205573d6000803e3d6000fd5b505050506040513d601f19601f820116820180604052508101906200022b919062000249565b905090565b6001600160a01b03811681146200024657600080fd5b50565b6000602082840312156200025c57600080fd5b8151620002698162000230565b9392505050565b6000602082840312156200028357600080fd5b5051919050565b614651806200029a6000396000f3fe608060405234801561001057600080fd5b50600436106103db5760003560e01c8063741cb7d61161020a578063b46b88fe11610125578063def26bce116100b8578063e5bb5d0711610087578063e5bb5d0714610aed578063eebb74e014610b14578063f2f692651461060f578063fa4a215c14610b3b578063fbc0276414610b6257600080fd5b8063def26bce14610a70578063e06174e414610a97578063e0892bad14610a9f578063e3097dc214610ac657600080fd5b8063db691b14116100f4578063db691b1414610a02578063de28735914610a29578063de764acf146108e2578063de841bac14610a4957600080fd5b8063b46b88fe146109a1578063b8554811146103fb578063cf454391146109c8578063d6febde8146109ef57600080fd5b80639f6e37a71161019d578063a58f18d01161016c578063a58f18d014610938578063a87c785f1461094b578063b32ef75614610972578063b3f438aa1461099957600080fd5b80639f6e37a7146108bb578063a01dac13146108e2578063a32fc162146108ea578063a3cf5fdf1461091157600080fd5b8063899a0ec7116101d9578063899a0ec7146108335780639424cf5e146108465780639479ab2a1461086d5780639ae5f3781461089457600080fd5b8063741cb7d6146107be578063767974b5146107e55780638398389a1461080c578063877d1723146103e057600080fd5b80633f42ffef116102fa5780634b7d215e1161028d57806359dab7581161025c57806359dab758146103fb5780635db79855146107495780635dddee311461077057806372bef9c61461079757600080fd5b80634b7d215e146106d45780634cf1f772146103e0578063551e385a146106fb57806355d48c071461072257600080fd5b8063436b3529116102c9578063436b35291461061f578063468740a81461063257806347bf603d146106595780634b503f0b1461068057600080fd5b80633f42ffef146105d357806340e58ee5146105fa57806341bb48971461060f578063423d20f31461061757600080fd5b806324e076a2116103725780632a8873ef116103415780632a8873ef146105375780632b521d471461055e5780633407d3cb146105855780633e107d4a146105ac57600080fd5b806324e076a2146104c257806326f19861146103e057806326f88535146104e9578063297a012a1461051057600080fd5b80631919a5ef116103ae5780631919a5ef146103fb5780631adcdac6146104515780631f9b28741461047857806324d7806c1461049f57600080fd5b806301750873146103e05780630a079b2c146103fb5780630e0fc352146104035780631205d1331461042a575b600080fd5b6103e8600181565b6040519081526020015b60405180910390f35b6103e8600281565b6103e87f063693c9545b949ff498535f9e0aa95ada8e88c062d28e2f219b896e151e126681565b6103e87f098afcb3a137a2ba8835fbf7daecb275af5afb3479f12844d5b7bfb8134e7ced81565b6103e87f8858a0dfcbfa158449ee0a3b5dae898cecc0746569152b05bbab9526bcc1686481565b6103e87f5c6c7d4897f0ae38084370e7a61ea386e95c7f54629c0b793a0ac47751f1240581565b6104b26104ad36600461415a565b610b75565b60405190151581526020016103f2565b6103e87f18ecf8d2173ca8a5766fd7dde3bdb54017dc5413dc07cd6ba1785b63e9c62b8281565b6103e87f5c7c2bcb0d2dfef15c423063aae2051d462fcd269b5e9b8c1733b3211e17bc8a81565b6103e87f6a4d660b9f1720511be22f039683db86d0d0d207c2ad9255325630800d4fb53981565b6103e87f325a96ceff51ae6b22de25dd7b4c8b9532dddf936add8ef16fc99219ff666a8481565b6103e87fcca1ad0e9fb374bbb9dc3d0cbfd073ef01bd1d01d5a35bd0a93403fbee64318d81565b6103e87f2623111b4a77e415ab5147aeb27da976c7a27950b6ec4022b4b9e7717626699281565b6103e87f6f244974cc67342b1bd623d411fd8100ec9eddbac05348e71d1a9296de6264a581565b6103e87f1bf52521006d8a3718b0692b7f32c8ee781bfed9e9215eb5b8fc3b34749fb5b581565b61060d610608366004614177565b610c00565b005b6103e8600381565b6103e8610db6565b61060d61062d366004614190565b610deb565b6103e87f65d0db34d07de31cfb8ca9f95dabc0463ce6084a447abb757f682f36ae3682e381565b6103e87f052b977cd6067e43b9140f08c53a22b88418f4d3ab7bd811716130d5a20cd8a381565b60408051630a58f18d60e41b602082015263436b352960e01b6024820152631adfd7bd60e31b60288201526340e58ee560e01b602c820152815160108183030181526030909101918290526103f29161422e565b6103e87f9574e138325b5c365da8d5cc75cf22323ed6f3ce52fac5621225020a162a4c6181565b6103e87fc72bfe3e0f1799ce0d90c4c72cf8f07d0cfa8121d51cb05d8c827f0896d8c0b681565b6103e87f807c518efb8285611b15c88a7701e4f40a0e9a38ce3e59946e587a8932410af881565b6103e87f428fa9969c6b3fab7bbdac20b73706f1f670a386be0a76d4060c185898b2aa2281565b6103e87f8d632412946eb879ebe5af90230c7db3f6d17c94c0ecea207c97e15fa9bb77c581565b6103e87f2db57b52c5f263c359ba92194f5590b4a7f5fc1f1ca02f10cea531182851fe2881565b6103e87f0922a3d5a8713fcf92ec8607b882fd2fcfefd8552a3c38c726d96fcde8b1d05381565b6103e87f9c259f9342405d034b902fd5e1bba083f008e305ea4eb6a0dce9ac9a6256b63a81565b6103e87fdd53f360aa973c3daf7ff269398ced1ce7713d025c750c443c2abbcd89438f8381565b6104b2610841366004614241565b610f1a565b6103e87fcfd13d23f7313d54f3a6d98c505045c58749561dd04531f9f2422a8818f0c5f881565b6103e87fa33a59233069411012cc12aa76a8a426fe6bd113968b520118fdc9cb6f49ae3081565b6103e87fab789755f97e00f29522efbee9df811265010c87cf80f8fd7d5fc5cb8a84795681565b6103e87f3bd41a6d84c7de1e9d18694bd113405090439b9e32d5ab69d575821d513d83b581565b6103e8600081565b6103e87f7c23ac65f971ee875d4a6408607fabcb777f38cf73b3d6d891648646cee81f0581565b6103e87fd708193a9c8f5fbde4d1c80a1e6f79b5f38a27f85ca86eccac69e5a899120ead81565b6103e861094636600461428f565b610fb5565b6103e87f9f4d1dc1107c7d9d9f533f41b5aa5dbbb3b830e3b597338a8aee228ab083eb3a81565b6103e87f391db9b692991836c38aedfd24d7f4c9837739d4ee0664fe4ee6892a51e025a781565b6103e8606481565b6103e87f0e8925aa0bfe65f831f6c9099dd95b0614eb69312630ef3497bee453d9ed40a981565b6103e87fad56f8a5432d383c3e2c11b7b248f889e6ec544090486b3623f0f4ae1fad763b81565b61060d6109fd366004614395565b611093565b6103e87f1d60d7146dec74c1b1a9dc17243aaa3b56533f607c16a718bcd78d8d852d6e5281565b610a31611162565b6040516001600160a01b0390911681526020016103f2565b6103e87f7f7cc8b2bac31c0e372310212be653d159f17ff3c41938a81446553db842afb681565b6103e87f610cf17b5a943fc722922fc6750fb40254c24c6b0efd32554aa7c03b4ca98e9c81565b610a31611207565b6103e87f737de6bdef2e959d9f968f058e3e78b7365d4eda8e4023ecac2d51e3dbfb140181565b6103e87fa449044fc5332c1625929b3afecb2f821955279285b4a8406a6ffa8968c1b7cf81565b6103e87f9c687089ee5ebd0bc2ba9c954ebc7a0304b4046890b9064e5742c8c6c7afeab281565b6103e87f251766d8c7c7a6b927647b0f20c99f490db1c283eb0c482446085aaaa44b5e7381565b6103e87fc59d706f362a04b6cf4757dd3df6eb5babc7c26ab5dcc7c9c43b142f25da10a581565b6104b2610b703660046143b7565b611243565b6000610b7f611162565b604051630935e01b60e21b81526001600160a01b03848116600483015291909116906324d7806c9060240160206040518083038186803b158015610bc257600080fd5b505afa158015610bd6573d6000803e3d6000fd5b505050506040513d601f19601f82011682018060405250810190610bfa91906143e3565b92915050565b8060016003610c2c8360405180604001604052806005815260200164737461746560d81b81525061125e565b604051610c399190614405565b90815260200160405180910390205414610c8d5760405162461bcd60e51b815260206004820152601060248201526f6f66666572206e6f742061637469766560801b60448201526064015b60405180910390fd5b6002600b541415610cb05760405162461bcd60e51b8152600401610c8490614421565b6002600b81905550600080610ce4846040518060400160405280600781526020016631b932b0ba37b960c91b81525061125e565b604051610cf19190614405565b908152604051908190036020019020546001600160a01b03169050338114610d5b5760405162461bcd60e51b815260206004820152601760248201527f6f6e6c792063726561746f722063616e2063616e63656c0000000000000000006044820152606401610c84565b60026003610d868560405180604001604052806005815260200164737461746560d81b81525061125e565b604051610d939190614405565b90815260405190819003602001902055610dac8361128a565b50506001600b5550565b60006001604051610dd790691858db10dbdb9d195e1d60b21b8152600a0190565b908152602001604051809103902054905090565b6002600b541415610e0e5760405162461bcd60e51b8152600401610c8490614421565b6002600b55610e2183838360018061165b565b6000806000610e46868686600080604051806020016040528060008152506001611c52565b919450925090508115610e9b5760405162461bcd60e51b815260206004820152601b60248201527f6e6f7420656e6f756768206f726465727320696e206d61726b657400000000006044820152606401610c84565b6000610ebe87878785600133604051806020016040528060008152506001611e56565b9050826003610eef836040518060400160405280600a8152602001691cd95b1b105b5bdd5b9d60b21b81525061125e565b604051610efc9190614405565b9081526040519081900360200190205550506001600b555050505050565b6000610f24611162565b6040516349fdb87160e01b8152600481018690526001600160a01b0385811660248301526044820185905291909116906349fdb8719060640160206040518083038186803b158015610f7557600080fd5b505afa158015610f89573d6000803e3d6000fd5b505050506040513d601f19601f82011682018060405250810190610fad91906143e3565b949350505050565b60006002600b541415610fda5760405162461bcd60e51b8152600401610c8490614421565b6002600b55610fec888888888861165b565b610ff988888888886123da565b5060008061100d8a8a8a8a89896000611c52565b50909250905081158015906110225750600081115b801561104f575060405163191d5cdd60e21b81526003906004019081526020016040518091039020548110155b1561107c5760006110678b838b868b8b8b6000611e56565b905061107281612516565b9250611083915050565b6000925050505b6001600b55979650505050505050565b81600160036110bf8360405180604001604052806005815260200164737461746560d81b81525061125e565b6040516110cc9190614405565b9081526020016040518091039020541461111b5760405162461bcd60e51b815260206004820152601060248201526f6f66666572206e6f742061637469766560801b6044820152606401610c84565b6002600b54141561113e5760405162461bcd60e51b8152600401610c8490614421565b6002600b81905550610dac838360006040518060200160405280600081525061296b565b600080604051611180906773657474696e677360c01b815260080190565b90815260408051602092819003830181205463de28735960e01b825291516001600160a01b039092169263de28735992600480840193829003018186803b1580156111ca57600080fd5b505afa1580156111de573d6000803e3d6000fd5b505050506040513d601f19601f820116820180604052508101906112029190614458565b905090565b600080604051611225906773657474696e677360c01b815260080190565b908152604051908190036020019020546001600160a01b0316919050565b6000611257611250610db6565b8484610f1a565b9392505050565b60608282604051602001611273929190614475565b604051602081830303815290604052905092915050565b61129381612cf1565b156112a1576112a181612e9a565b6000806112cd836040518060400160405280600781526020016631b932b0ba37b960c91b81525061125e565b6040516112da9190614405565b90815260408051918290036020908101832054838301909252600983526839b2b6362a37b5b2b760b91b908301526001600160a01b03169150600090819061132390859061125e565b6040516113309190614405565b90815260408051918290036020908101832054838301909252600a8352691cd95b1b105b5bdd5b9d60b21b908301526001600160a01b0316915060009060039061137b90869061125e565b6040516113889190614405565b9081526020016040518091039020549050600060036113c88660405180604001604052806009815260200168189d5e505b5bdd5b9d60ba1b81525061125e565b6040516113d59190614405565b908152602001604051809103902054905060008061141187604051806040016040528060068152602001656e6f7469667960d01b81525061125e565b60405161141e9190614405565b90815260408051918290036020908101832054838301909252600a8352696e6f746966794461746160b01b908301526001600160a01b0316915060009060069061146990899061125e565b6040516114769190614405565b9081526020016040518091039020805461148f9061449b565b80601f01602080910402602001604051908101604052809291908181526020018280546114bb9061449b565b80156115085780601f106114dd57610100808354040283529160200191611508565b820191906000526020600020905b8154815290600101906020018083116114eb57829003601f168201915b5050505050905060008411156115de5760405163a9059cbb60e01b81526001600160a01b0387811660048301526024820186905286169063a9059cbb90604401602060405180830381600087803b15801561156257600080fd5b505af1158015611576573d6000803e3d6000fd5b505050506040513d601f19601f8201168201806040525081019061159a91906143e3565b6115de5760405162461bcd60e51b81526020600482015260156024820152741c99599d5b990818dc99585d1bdc8819985a5b1959605a1b6044820152606401610c84565b6001600160a01b038216156116525760405163796212cf60e11b81526001600160a01b0383169063f2c4259e9061161f908a908890889087906004016144d6565b600060405180830381600087803b15801561163957600080fd5b505af115801561164d573d6000803e3d6000fd5b505050505b50505050505050565b83846001600160801b0316146116b35760405162461bcd60e51b815260206004820152601b60248201527f73656c6c20616d6f756e74206d7573742062652075696e7431323800000000006044820152606401610c84565b81826001600160801b03161461170b5760405162461bcd60e51b815260206004820152601a60248201527f62757920616d6f756e74206d7573742062652075696e743132380000000000006044820152606401610c84565b600084116117545760405162461bcd60e51b8152602060048201526016602482015275073656c6c20616d6f756e74206d757374206265203e360541b6044820152606401610c84565b6001600160a01b0385166117aa5760405162461bcd60e51b815260206004820152601860248201527f73656c6c20746f6b656e206d7573742062652076616c696400000000000000006044820152606401610c84565b600082116117f25760405162461bcd60e51b8152602060048201526015602482015274062757920616d6f756e74206d757374206265203e3605c1b6044820152606401610c84565b6001600160a01b0383166118485760405162461bcd60e51b815260206004820152601760248201527f62757920746f6b656e206d7573742062652076616c69640000000000000000006044820152606401610c84565b826001600160a01b0316856001600160a01b031614156118aa5760405162461bcd60e51b815260206004820152601e60248201527f63616e6e6f742073656c6c20616e64206275792073616d6520746f6b656e00006044820152606401610c84565b6002811415611c4b576000336001600160a01b03166380f760216040518163ffffffff1660e01b815260040160206040518083038186803b1580156118ee57600080fd5b505afa158015611902573d6000803e3d6000fd5b505050506040513d601f19601f820116820180604052508101906119269190614458565b60405163422dbb5760e11b81523360048201529091506001600160a01b0382169063845b76ae9060240160206040518083038186803b15801561196857600080fd5b505afa15801561197c573d6000803e3d6000fd5b505050506040513d601f19601f820116820180604052508101906119a091906143e3565b6119ec5760405162461bcd60e51b815260206004820152601860248201527f666565207363686564756c653a2062616420706172656e7400000000000000006044820152606401610c84565b60006119f6611207565b60405163a8d37cb960e01b81527f1bf52521006d8a3718b0692b7f32c8ee781bfed9e9215eb5b8fc3b34749fb5b560048201526001600160a01b03919091169063a8d37cb99060240160206040518083038186803b158015611a5757600080fd5b505afa158015611a6b573d6000803e3d6000fd5b505050506040513d601f19601f82011682018060405250810190611a8f9190614458565b9050806001600160a01b0316826001600160a01b031614611652576000826001600160a01b03166380f760216040518163ffffffff1660e01b815260040160206040518083038186803b158015611ae557600080fd5b505afa158015611af9573d6000803e3d6000fd5b505050506040513d601f19601f82011682018060405250810190611b1d9190614458565b60405163422dbb5760e11b81526001600160a01b0385811660048301529192509082169063845b76ae9060240160206040518083038186803b158015611b6257600080fd5b505afa158015611b76573d6000803e3d6000fd5b505050506040513d601f19601f82011682018060405250810190611b9a91906143e3565b611be65760405162461bcd60e51b815260206004820152601d60248201527f666565207363686564756c653a20626164206772616e64706172656e740000006044820152606401610c84565b816001600160a01b0316816001600160a01b031614611c475760405162461bcd60e51b815260206004820152601c60248201527f666565207363686564756c653a20626164206465706c6f796d656e74000000006044820152606401610c84565b5050505b5050505050565b838660005b8115801590611c6c575082151580611c6c5750835b15611e495760006003611ca560008b8e6040518060400160405280600b81526020016a18995cdd13d999995c925960aa1b81525061354e565b604051611cb29190614405565b90815260200160405180910390205490508060001415611cd25750611e49565b60006003611d018360405180604001604052806009815260200168189d5e505b5bdd5b9d60ba1b81525061125e565b604051611d0e9190614405565b908152602001604051809103902054905060006003611d4f846040518060400160405280600a8152602001691cd95b1b105b5bdd5b9d60b21b81525061125e565b604051611d5c9190614405565b90815260200160405180910390205490508615611da257611d7d8282613580565b611d8f86670de0b6b3a764000061451b565b1015611d9d57505050611e49565b611df0565b80858784611db0848461451b565b611dba919061453a565b611dc4919061453a565b611dce919061453a565b611dd8919061453a565b611de2878461451b565b1115611df057505050611e49565b6000858310611dff5785611e01565b825b9050611e0d818661453a565b9450611e1b84828c8c61296b565b85611e268282614552565b965080611e33898961451b565b611e3d9190614569565b97505050505050611c57565b9750975097945050505050565b600060016003604051611e7a906a1b185cdd13d999995c925960aa1b8152600b0190565b90815260200160405180910390206000828254611e97919061453a565b9091555050604080516a1b185cdd13d999995c925960aa1b81526003600b820152815190819003602b01812054818301909252600781526631b932b0ba37b960c91b60208201523390600090611eee90849061125e565b604051611efb9190614405565b908152602001604051809103902060006101000a8154816001600160a01b0302191690836001600160a01b03160217905550896000611f5b836040518060400160405280600981526020016839b2b6362a37b5b2b760b91b81525061125e565b604051611f689190614405565b908152602001604051809103902060006101000a8154816001600160a01b0302191690836001600160a01b03160217905550886003611fc9836040518060400160405280600a8152602001691cd95b1b105b5bdd5b9d60b21b81525061125e565b604051611fd69190614405565b90815260200160405180910390208190555088600361201e83604051806040016040528060118152602001701cd95b1b105b5bdd5b9d125b9a5d1a585b607a1b81525061125e565b60405161202b9190614405565b90815260200160405180910390208190555087600061206a8360405180604001604052806008815260200167313abcaa37b5b2b760c11b81525061125e565b6040516120779190614405565b908152602001604051809103902060006101000a8154816001600160a01b0302191690836001600160a01b031602179055508660036120d78360405180604001604052806009815260200168189d5e505b5bdd5b9d60ba1b81525061125e565b6040516120e49190614405565b90815260200160405180910390208190555086600361212b836040518060400160405280601081526020016f189d5e505b5bdd5b9d125b9a5d1a585b60821b81525061125e565b6040516121389190614405565b90815260200160405180910390208190555085600361217a836040518060400160405280600b81526020016a6665655363686564756c6560a81b81525061125e565b6040516121879190614405565b9081526020016040518091039020819055508460006121c483604051806040016040528060068152602001656e6f7469667960d01b81525061125e565b6040516121d19190614405565b908152602001604051809103902060006101000a8154816001600160a01b0302191690836001600160a01b03160217905550836006612232836040518060400160405280600a8152602001696e6f746966794461746160b01b81525061125e565b60405161223f9190614405565b908152602001604051809103902090805190602001906122609291906140a9565b5082156122b3576003806122918360405180604001604052806005815260200164737461746560d81b81525061125e565b60405161229e9190614405565b908152604051908190036020019020556123cd565b600160036122de8360405180604001604052806005815260200164737461746560d81b81525061125e565b6040516122eb9190614405565b908152604051908190036020018120919091556323b872dd60e01b8152336004820152306024820152604481018a90526001600160a01b038b16906323b872dd90606401602060405180830381600087803b15801561234957600080fd5b505af115801561235d573d6000803e3d6000fd5b505050506040513d601f19601f8201168201806040525081019061238191906143e3565b6123cd5760405162461bcd60e51b815260206004820152601760248201527f756e61626c6520746f20657363726f7720746f6b656e730000000000000000006044820152606401610c84565b9998505050505050505050565b604080518082019091526000808252602082015260006123f9876135b4565b90506000612406866135b4565b905081806124115750805b801561242457508180156124225750805b155b6124705760405162461bcd60e51b815260206004820152601a60248201527f6d757374206265206f6e6520706c6174666f726d20746f6b656e0000000000006044820152606401610c84565b6000600360405161248c9064066656542560dc1b815260050190565b908152602001604051809103902054905082156124d0576001600160a01b03871684526127106124bc878361451b565b6124c69190614569565b60208501526124f9565b6001600160a01b03891684526127106124e9898361451b565b6124f39190614569565b60208501525b600285141561250a57600060208501525b50505095945050505050565b61251f81612cf1565b156125675760405162461bcd60e51b81526020600482015260186024820152771bd999995c881b9bdd081a5b881cdbdc9d1959081b1a5cdd60421b6044820152606401610c84565b600080612595836040518060400160405280600981526020016839b2b6362a37b5b2b760b91b81525061125e565b6040516125a29190614405565b908152604080519182900360209081018320548383019092526008835267313abcaa37b5b2b760c11b908301526001600160a01b0316915060009081906125ea90859061125e565b6040516125f79190614405565b908152602001604051809103902060009054906101000a90046001600160a01b031690506000806003612650600086866040518060400160405280600b81526020016a18995cdd13d999995c925960aa1b81525061354e565b60405161265d9190614405565b908152602001604051809103902054905060005b81158015906126855750612685868361362b565b156126dc5781905060036126b983604051806040016040528060088152602001673930b735a83932bb60c11b81525061125e565b6040516126c69190614405565b9081526020016040518091039020549150612671565b8080156127c857600361270f82604051806040016040528060088152602001673930b735a83932bb60c11b81525061125e565b60405161271c9190614405565b908152602001604051809103902054935086600361275a83604051806040016040528060088152602001673930b735a83932bb60c11b81525061125e565b6040516127679190614405565b9081526020016040518091039020819055508060036127a689604051806040016040528060088152602001671c985b9ad3995e1d60c21b81525061125e565b6040516127b39190614405565b90815260405190819003602001902055612869565b60036127fa600088886040518060400160405280600b81526020016a18995cdd13d999995c925960aa1b81525061354e565b6040516128079190614405565b908152602001604051809103902054935086600361284b600089896040518060400160405280600b81526020016a18995cdd13d999995c925960aa1b81525061354e565b6040516128589190614405565b908152604051908190036020019020555b83156129065786600361289c86604051806040016040528060088152602001671c985b9ad3995e1d60c21b81525061125e565b6040516128a99190614405565b9081526020016040518091039020819055508360036128e889604051806040016040528060088152602001673930b735a83932bb60c11b81525061125e565b6040516128f59190614405565b908152604051908190036020019020555b60016003612933600089896040518060400160405280600481526020016339b830b760e11b81525061354e565b6040516129409190614405565b9081526020016040518091039020600082825461295d919061453a565b909155505050505050505050565b60008061297786613784565b9150915060008160200151836020015187612992919061451b565b61299c9190614569565b90506129a9878288613905565b600080612a0b84600001518987600001518660036129ea8f6040518060400160405280600b81526020016a6665655363686564756c6560a81b81525061125e565b6040516129f79190614405565b908152602001604051809103902054613bcb565b9150915083600001516001600160a01b03166323b872dd336000612a4e8d6040518060400160405280600781526020016631b932b0ba37b960c91b81525061125e565b604051612a5b9190614405565b908152604051908190036020018120546001600160e01b031960e085901b1682526001600160a01b039283166004830152919091166024820152604481018b9052606401602060405180830381600087803b158015612ab957600080fd5b505af1158015612acd573d6000803e3d6000fd5b505050506040513d601f19601f82011682018060405250810190612af191906143e3565b612b475760405162461bcd60e51b815260206004820152602160248201527f73656e646572202d3e2063726561746f72207472616e73666572206661696c656044820152601960fa1b6064820152608401610c84565b845160405163a9059cbb60e01b8152336004820152602481018490526001600160a01b039091169063a9059cbb90604401602060405180830381600087803b158015612b9257600080fd5b505af1158015612ba6573d6000803e3d6000fd5b505050506040513d601f19601f82011682018060405250810190612bca91906143e3565b612c165760405162461bcd60e51b815260206004820181905260248201527f6d61726b6574202d3e2073656e646572207472616e73666572206661696c65646044820152606401610c84565b612c2489848a848b8b613e10565b60405163191d5cdd60e21b81526003906004019081526020016040518091039020546003612c748b6040518060400160405280600a8152602001691cd95b1b105b5bdd5b9d60b21b81525061125e565b604051612c819190614405565b9081526020016040518091039020541015612ce657600380612cc08b60405180604001604052806005815260200164737461746560d81b81525061125e565b604051612ccd9190614405565b90815260405190819003602001902055612ce68961128a565b505050505050505050565b6000806000612d21846040518060400160405280600981526020016839b2b6362a37b5b2b760b91b81525061125e565b604051612d2e9190614405565b908152604080519182900360209081018320548383019092526008835267313abcaa37b5b2b760c11b908301526001600160a01b031691506000908190612d7690869061125e565b604051612d839190614405565b9081526040805191829003602090810183205483830190925260088352671c985b9ad3995e1d60c21b908301526001600160a01b03169150600390612dc990869061125e565b604051612dd69190614405565b9081526020016040518091039020546000141580612e3c57506003612e1b85604051806040016040528060088152602001673930b735a83932bb60c11b81525061125e565b604051612e289190614405565b908152602001604051809103902054600014155b80610fad5750836003612e75600085856040518060400160405280600b81526020016a18995cdd13d999995c925960aa1b81525061354e565b604051612e829190614405565b90815260200160405180910390205414949350505050565b612ea381612cf1565b612eea5760405162461bcd60e51b81526020600482015260186024820152771bd999995c881b9bdd081a5b881cdbdc9d1959081b1a5cdd60421b6044820152606401610c84565b600080612f18836040518060400160405280600981526020016839b2b6362a37b5b2b760b91b81525061125e565b604051612f259190614405565b908152604080519182900360209081018320548383019092526008835267313abcaa37b5b2b760c11b908301526001600160a01b031691506000908190612f6d90859061125e565b604051612f7a9190614405565b908152602001604051809103902060009054906101000a90046001600160a01b0316905060006003612fcb600085856040518060400160405280600481526020016339b830b760e11b81525061354e565b604051612fd89190614405565b908152602001604051809103902054116130425760405162461bcd60e51b815260206004820152602560248201527f746f6b656e207061697220736f72746564206c69737420646f6573206e6f7420604482015264195e1a5cdd60da1b6064820152608401610c84565b6003613074600084846040518060400160405280600b81526020016a18995cdd13d999995c925960aa1b81525061354e565b6040516130819190614405565b908152602001604051809103902054831461320357600060036130c485604051806040016040528060088152602001671c985b9ad3995e1d60c21b81525061125e565b6040516130d19190614405565b908152602001604051809103902054905083600361310f83604051806040016040528060088152602001673930b735a83932bb60c11b81525061125e565b60405161311c9190614405565b9081526020016040518091039020541461316c5760405162461bcd60e51b81526020600482015260116024820152701cdbdc9d0818da1958dac819985a5b1959607a1b6044820152606401610c84565b600361319885604051806040016040528060088152602001673930b735a83932bb60c11b81525061125e565b6040516131a59190614405565b90815260200160405180910390205460036131e083604051806040016040528060088152602001673930b735a83932bb60c11b81525061125e565b6040516131ed9190614405565b908152604051908190036020019020555061329b565b600361322f84604051806040016040528060088152602001673930b735a83932bb60c11b81525061125e565b60405161323c9190614405565b908152602001604051809103902054600361327d600085856040518060400160405280600b81526020016a18995cdd13d999995c925960aa1b81525061354e565b60405161328a9190614405565b908152604051908190036020019020555b60036132c784604051806040016040528060088152602001673930b735a83932bb60c11b81525061125e565b6040516132d49190614405565b908152602001604051809103902054600014613453576000600361331885604051806040016040528060088152602001673930b735a83932bb60c11b81525061125e565b6040516133259190614405565b908152602001604051809103902054905083600361336383604051806040016040528060088152602001671c985b9ad3995e1d60c21b81525061125e565b6040516133709190614405565b908152602001604051809103902054146133c05760405162461bcd60e51b81526020600482015260116024820152701cdbdc9d0818da1958dac819985a5b1959607a1b6044820152606401610c84565b60036133ec85604051806040016040528060088152602001671c985b9ad3995e1d60c21b81525061125e565b6040516133f99190614405565b908152602001604051809103902054600361343483604051806040016040528060088152602001671c985b9ad3995e1d60c21b81525061125e565b6040516134419190614405565b90815260405190819003602001902055505b6000600361348185604051806040016040528060088152602001671c985b9ad3995e1d60c21b81525061125e565b60405161348e9190614405565b908152602001604051809103902081905550600060036134ce85604051806040016040528060088152602001673930b735a83932bb60c11b81525061125e565b6040516134db9190614405565b9081526020016040518091039020819055506001600361351a600085856040518060400160405280600481526020016339b830b760e11b81525061354e565b6040516135279190614405565b908152602001604051809103902060008282546135449190614552565b9091555050505050565b606084848484604051602001613567949392919061458b565b6040516020818303038152906040529050949350505050565b60008161358e600282614569565b6135a085670de0b6b3a764000061451b565b6135aa919061453a565b6112579190614569565b6000816001600160a01b0316634edb221e6040518163ffffffff1660e01b815260040160206040518083038186803b1580156135ef57600080fd5b505afa92505050801561361f575060408051601f3d908101601f1916820190925261361c918101906143e3565b60015b610bfa57506000919050565b600080600361365c856040518060400160405280600a8152602001691cd95b1b105b5bdd5b9d60b21b81525061125e565b6040516136699190614405565b9081526020016040518091039020549050600060036136a98660405180604001604052806009815260200168189d5e505b5bdd5b9d60ba1b81525061125e565b6040516136b69190614405565b9081526020016040518091039020549050600060036136f7866040518060400160405280600a8152602001691cd95b1b105b5bdd5b9d60b21b81525061125e565b6040516137049190614405565b9081526020016040518091039020549050600060036137448760405180604001604052806009815260200168189d5e505b5bdd5b9d60ba1b81525061125e565b6040516137519190614405565b90815260405190819003602001902054905061376d848261451b565b613777838561451b565b1015979650505050505050565b6040805180820190915260008082526020820152604080518082019091526000808252602082015260006137d9846040518060400160405280600981526020016839b2b6362a37b5b2b760b91b81525061125e565b6040516137e69190614405565b9081526040805160209281900383019020546001600160a01b031684528051808201909152600a8152691cd95b1b105b5bdd5b9d60b21b9181019190915260039061383290859061125e565b60405161383f9190614405565b90815260200160405180910390205482602001818152505060006138838460405180604001604052806008815260200167313abcaa37b5b2b760c11b81525061125e565b6040516138909190614405565b9081526040805160209281900383019020546001600160a01b0316835280518082019091526009815268189d5e505b5bdd5b9d60ba1b918101919091526003906138db90859061125e565b6040516138e89190614405565b908152602001604051809103902054816020018181525050915091565b60008061391185613784565b9150915082836001600160801b03161461396d5760405162461bcd60e51b815260206004820152601c60248201527f62757920616d6f756e74206578636565647320696e74206c696d6974000000006044820152606401610c84565b83846001600160801b0316146139c55760405162461bcd60e51b815260206004820152601d60248201527f73656c6c20616d6f756e74206578636565647320696e74206c696d69740000006044820152606401610c84565b60008311613a155760405162461bcd60e51b815260206004820152601960248201527f7265717565737465642062757920616d6f756e742069732030000000000000006044820152606401610c84565b8060200151831115613a695760405162461bcd60e51b815260206004820152601e60248201527f7265717565737465642062757920616d6f756e7420746f6f206c6172676500006044820152606401610c84565b60008411613ab95760405162461bcd60e51b815260206004820152601b60248201527f63616c63756c617465642073656c6c20616d6f756e74206973203000000000006044820152606401610c84565b8160200151841115613b0d5760405162461bcd60e51b815260206004820181905260248201527f63616c63756c617465642073656c6c20616d6f756e7420746f6f206c617267656044820152606401610c84565b838260200151613b1d9190614552565b6003613b4b876040518060400160405280600a8152602001691cd95b1b105b5bdd5b9d60b21b81525061125e565b604051613b589190614405565b908152602001604051809103902081905550828160200151613b7a9190614552565b6003613ba78760405180604001604052806009815260200168189d5e505b5bdd5b9d60ba1b81525061125e565b604051613bb49190614405565b908152604051908190036020019020555050505050565b6000613be7604080518082019091526000808252602082015290565b6000613bf161403e565b9050849250613c0388888888886123da565b9150876001600160a01b031682600001516001600160a01b03161415613d115760208201516040516323b872dd60e01b81523360048201526001600160a01b0383811660248301526044820192909252908916906323b872dd90606401602060405180830381600087803b158015613c7a57600080fd5b505af1158015613c8e573d6000803e3d6000fd5b505050506040513d601f19601f82011682018060405250810190613cb291906143e3565b613d0c5760405162461bcd60e51b815260206004820152602560248201527f73656e646572202d3e2066656562616e6b20666565207472616e736665722066604482015264185a5b195960da1b6064820152608401610c84565b613e05565b6020820151613d209084614552565b602083015160405163a9059cbb60e01b81526001600160a01b038481166004830152602482019290925291945087169063a9059cbb90604401602060405180830381600087803b158015613d7357600080fd5b505af1158015613d87573d6000803e3d6000fd5b505050506040513d601f19601f82011682018060405250810190613dab91906143e3565b613e055760405162461bcd60e51b815260206004820152602560248201527f6d61726b6574202d3e2066656562616e6b20666565207472616e736665722066604482015264185a5b195960da1b6064820152608401610c84565b509550959350505050565b600080613e3b88604051806040016040528060068152602001656e6f7469667960d01b81525061125e565b604051613e489190614405565b90815260408051918290036020908101832054838301909252600a8352696e6f746966794461746160b01b908301526001600160a01b03169150600090600690613e93908a9061125e565b604051613ea09190614405565b90815260200160405180910390208054613eb99061449b565b80601f0160208091040260200160405190810160405280929190818152602001828054613ee59061449b565b8015613f325780601f10613f0757610100808354040283529160200191613f32565b820191906000526020600020905b815481529060010190602001808311613f1557829003601f168201915b509394505050506001600160a01b038516159050613fb85784516020860151604051630725186760e11b81526001600160a01b03871692630e4a30ce92613f85928d928d928d9233908c906004016145d8565b600060405180830381600087803b158015613f9f57600080fd5b505af1158015613fb3573d6000803e3d6000fd5b505050505b6001600160a01b03821615611c475784516020860151604051630725186760e11b81526001600160a01b03851692630e4a30ce92614002928d928d928d9233908a906004016145d8565b600060405180830381600087803b15801561401c57600080fd5b505af1158015614030573d6000803e3d6000fd5b505050505050505050505050565b6000614048611207565b60405163a8d37cb960e01b81527f6a4d660b9f1720511be22f039683db86d0d0d207c2ad9255325630800d4fb53960048201526001600160a01b03919091169063a8d37cb99060240160206040518083038186803b1580156111ca57600080fd5b8280546140b59061449b565b90600052602060002090601f0160209004810192826140d7576000855561411d565b82601f106140f057805160ff191683800117855561411d565b8280016001018555821561411d579182015b8281111561411d578251825591602001919060010190614102565b5061412992915061412d565b5090565b5b80821115614129576000815560010161412e565b6001600160a01b038116811461415757600080fd5b50565b60006020828403121561416c57600080fd5b813561125781614142565b60006020828403121561418957600080fd5b5035919050565b6000806000606084860312156141a557600080fd5b83356141b081614142565b92506020840135915060408401356141c781614142565b809150509250925092565b60005b838110156141ed5781810151838201526020016141d5565b838111156141fc576000848401525b50505050565b6000815180845261421a8160208601602086016141d2565b601f01601f19169290920160200192915050565b6020815260006112576020830184614202565b60008060006060848603121561425657600080fd5b83359250602084013561426881614142565b929592945050506040919091013590565b634e487b7160e01b600052604160045260246000fd5b600080600080600080600060e0888a0312156142aa57600080fd5b87356142b581614142565b96506020880135955060408801356142cc81614142565b9450606088013593506080880135925060a08801356142ea81614142565b915060c088013567ffffffffffffffff8082111561430757600080fd5b818a0191508a601f83011261431b57600080fd5b81358181111561432d5761432d614279565b604051601f8201601f19908116603f0116810190838211818310171561435557614355614279565b816040528281528d602084870101111561436e57600080fd5b82602086016020830137600060208483010152809550505050505092959891949750929550565b600080604083850312156143a857600080fd5b50508035926020909101359150565b600080604083850312156143ca57600080fd5b82356143d581614142565b946020939093013593505050565b6000602082840312156143f557600080fd5b8151801515811461125757600080fd5b600082516144178184602087016141d2565b9190910192915050565b6020808252601f908201527f5265656e7472616e637947756172643a207265656e7472616e742063616c6c00604082015260600190565b60006020828403121561446a57600080fd5b815161125781614142565b8281526000825161448d8160208501602087016141d2565b919091016020019392505050565b600181811c908216806144af57607f821691505b602082108114156144d057634e487b7160e01b600052602260045260246000fd5b50919050565b8481528360208201528260408201526080606082015260006144fb6080830184614202565b9695505050505050565b634e487b7160e01b600052601160045260246000fd5b600081600019048311821515161561453557614535614505565b500290565b6000821982111561454d5761454d614505565b500190565b60008282101561456457614564614505565b500390565b60008261458657634e487b7160e01b600052601260045260246000fd5b500490565b84815260006bffffffffffffffffffffffff19808660601b166020840152808560601b1660348401525082516145c88160488501602087016141d2565b9190910160480195945050505050565b878152866020820152856040820152600060018060a01b03808716606084015285608084015280851660a08401525060e060c08301526123cd60e083018461420256fea264697066735822122008fdc1bd65d61cf5c4487ef9bad363f98e77e36e7741f72db136a9297d92167864736f6c63430008090033",
  "linkReferences": {},
  "deployedLinkReferences": {}
}