{
  "_format": "hh-sol-artifact-1",
  "contractName": "Settings",
  "sourceName": "contracts/Settings.sol",
  "abi": [
    {
      "inputs": [
        {
          "internalType": "address",
          "name": "_acl",
          "type": "address"
        }
      ],
      "stateMutability": "nonpayable",
      "type": "constructor"
    },
    {
      "anonymous": false,
      "inputs": [
        {
          "indexed": true,
          "internalType": "address",
          "name": "context",
          "type": "address"
        },
        {
          "indexed": true,
          "internalType": "bytes32",
          "name": "key",
          "type": "bytes32"
        },
        {
          "indexed": true,
          "internalType": "address",
          "name": "caller",
          "type": "address"
        },
        {
          "indexed": false,
          "internalType": "string",
          "name": "keyType",
          "type": "string"
        }
      ],
      "name": "SettingChanged",
      "type": "event"
    },
    {
      "inputs": [],
      "name": "SETTING_ENTITY_DELEGATE",
      "outputs": [
        {
          "internalType": "bytes32",
          "name": "",
          "type": "bytes32"
        }
      ],
      "stateMutability": "view",
      "type": "function"
    },
    {
      "inputs": [],
      "name": "SETTING_ENTITY_DEPLOYER",
      "outputs": [
        {
          "internalType": "bytes32",
          "name": "",
          "type": "bytes32"
        }
      ],
      "stateMutability": "view",
      "type": "function"
    },
    {
      "inputs": [],
      "name": "SETTING_ENTITY_IMPL",
      "outputs": [
        {
          "internalType": "bytes32",
          "name": "",
          "type": "bytes32"
        }
      ],
      "stateMutability": "view",
      "type": "function"
    },
    {
      "inputs": [],
      "name": "SETTING_ETHER_TOKEN",
      "outputs": [
        {
          "internalType": "bytes32",
          "name": "",
          "type": "bytes32"
        }
      ],
      "stateMutability": "view",
      "type": "function"
    },
    {
      "inputs": [],
      "name": "SETTING_FEEBANK",
      "outputs": [
        {
          "internalType": "bytes32",
          "name": "",
          "type": "bytes32"
        }
      ],
      "stateMutability": "view",
      "type": "function"
    },
    {
      "inputs": [],
      "name": "SETTING_FEEBANK_IMPL",
      "outputs": [
        {
          "internalType": "bytes32",
          "name": "",
          "type": "bytes32"
        }
      ],
      "stateMutability": "view",
      "type": "function"
    },
    {
      "inputs": [],
      "name": "SETTING_MARKET",
      "outputs": [
        {
          "internalType": "bytes32",
          "name": "",
          "type": "bytes32"
        }
      ],
      "stateMutability": "view",
      "type": "function"
    },
    {
      "inputs": [],
      "name": "SETTING_MARKET_IMPL",
      "outputs": [
        {
          "internalType": "bytes32",
          "name": "",
          "type": "bytes32"
        }
      ],
      "stateMutability": "view",
      "type": "function"
    },
    {
      "inputs": [],
      "name": "SETTING_POLICY_DELEGATE",
      "outputs": [
        {
          "internalType": "bytes32",
          "name": "",
          "type": "bytes32"
        }
      ],
      "stateMutability": "view",
      "type": "function"
    },
    {
      "inputs": [],
      "name": "SETTING_POLICY_IMPL",
      "outputs": [
        {
          "internalType": "bytes32",
          "name": "",
          "type": "bytes32"
        }
      ],
      "stateMutability": "view",
      "type": "function"
    },
    {
      "inputs": [],
      "name": "acl",
      "outputs": [
        {
          "internalType": "contract IACL",
          "name": "",
          "type": "address"
        }
      ],
      "stateMutability": "view",
      "type": "function"
    },
    {
      "inputs": [
        {
          "internalType": "address",
          "name": "_context",
          "type": "address"
        },
        {
          "internalType": "bytes32",
          "name": "_key",
          "type": "bytes32"
        }
      ],
      "name": "getAddress",
      "outputs": [
        {
          "internalType": "address",
          "name": "",
          "type": "address"
        }
      ],
      "stateMutability": "view",
      "type": "function"
    },
    {
      "inputs": [
        {
          "internalType": "address",
          "name": "_context",
          "type": "address"
        },
        {
          "internalType": "bytes32",
          "name": "_key",
          "type": "bytes32"
        }
      ],
      "name": "getAddresses",
      "outputs": [
        {
          "internalType": "address[]",
          "name": "",
          "type": "address[]"
        }
      ],
      "stateMutability": "view",
      "type": "function"
    },
    {
      "inputs": [
        {
          "internalType": "address",
          "name": "_context",
          "type": "address"
        },
        {
          "internalType": "bytes32",
          "name": "_key",
          "type": "bytes32"
        }
      ],
      "name": "getBool",
      "outputs": [
        {
          "internalType": "bool",
          "name": "",
          "type": "bool"
        }
      ],
      "stateMutability": "view",
      "type": "function"
    },
    {
      "inputs": [
        {
          "internalType": "bytes32",
          "name": "_key",
          "type": "bytes32"
        }
      ],
      "name": "getRootAddress",
      "outputs": [
        {
          "internalType": "address",
          "name": "",
          "type": "address"
        }
      ],
      "stateMutability": "view",
      "type": "function"
    },
    {
      "inputs": [
        {
          "internalType": "bytes32",
          "name": "_key",
          "type": "bytes32"
        }
      ],
      "name": "getRootAddresses",
      "outputs": [
        {
          "internalType": "address[]",
          "name": "",
          "type": "address[]"
        }
      ],
      "stateMutability": "view",
      "type": "function"
    },
    {
      "inputs": [
        {
          "internalType": "bytes32",
          "name": "_key",
          "type": "bytes32"
        }
      ],
      "name": "getRootBool",
      "outputs": [
        {
          "internalType": "bool",
          "name": "",
          "type": "bool"
        }
      ],
      "stateMutability": "view",
      "type": "function"
    },
    {
      "inputs": [
        {
          "internalType": "bytes32",
          "name": "_key",
          "type": "bytes32"
        }
      ],
      "name": "getRootString",
      "outputs": [
        {
          "internalType": "string",
          "name": "",
          "type": "string"
        }
      ],
      "stateMutability": "view",
      "type": "function"
    },
    {
      "inputs": [
        {
          "internalType": "bytes32",
          "name": "_key",
          "type": "bytes32"
        }
      ],
      "name": "getRootUint256",
      "outputs": [
        {
          "internalType": "uint256",
          "name": "",
          "type": "uint256"
        }
      ],
      "stateMutability": "view",
      "type": "function"
    },
    {
      "inputs": [
        {
          "internalType": "address",
          "name": "_context",
          "type": "address"
        },
        {
          "internalType": "bytes32",
          "name": "_key",
          "type": "bytes32"
        }
      ],
      "name": "getString",
      "outputs": [
        {
          "internalType": "string",
          "name": "",
          "type": "string"
        }
      ],
      "stateMutability": "view",
      "type": "function"
    },
    {
      "inputs": [],
      "name": "getTime",
      "outputs": [
        {
          "internalType": "uint256",
          "name": "",
          "type": "uint256"
        }
      ],
      "stateMutability": "view",
      "type": "function"
    },
    {
      "inputs": [
        {
          "internalType": "address",
          "name": "_context",
          "type": "address"
        },
        {
          "internalType": "bytes32",
          "name": "_key",
          "type": "bytes32"
        }
      ],
      "name": "getUint256",
      "outputs": [
        {
          "internalType": "uint256",
          "name": "",
          "type": "uint256"
        }
      ],
      "stateMutability": "view",
      "type": "function"
    },
    {
      "inputs": [
        {
          "internalType": "address",
          "name": "_context",
          "type": "address"
        },
        {
          "internalType": "bytes32",
          "name": "_key",
          "type": "bytes32"
        },
        {
          "internalType": "address",
          "name": "_value",
          "type": "address"
        }
      ],
      "name": "setAddress",
      "outputs": [],
      "stateMutability": "nonpayable",
      "type": "function"
    },
    {
      "inputs": [
        {
          "internalType": "address",
          "name": "_context",
          "type": "address"
        },
        {
          "internalType": "bytes32",
          "name": "_key",
          "type": "bytes32"
        },
        {
          "internalType": "address[]",
          "name": "_value",
          "type": "address[]"
        }
      ],
      "name": "setAddresses",
      "outputs": [],
      "stateMutability": "nonpayable",
      "type": "function"
    },
    {
      "inputs": [
        {
          "internalType": "address",
          "name": "_context",
          "type": "address"
        },
        {
          "internalType": "bytes32",
          "name": "_key",
          "type": "bytes32"
        },
        {
          "internalType": "bool",
          "name": "_value",
          "type": "bool"
        }
      ],
      "name": "setBool",
      "outputs": [],
      "stateMutability": "nonpayable",
      "type": "function"
    },
    {
      "inputs": [
        {
          "internalType": "address",
          "name": "_context",
          "type": "address"
        },
        {
          "internalType": "bytes32",
          "name": "_key",
          "type": "bytes32"
        },
        {
          "internalType": "string",
          "name": "_value",
          "type": "string"
        }
      ],
      "name": "setString",
      "outputs": [],
      "stateMutability": "nonpayable",
      "type": "function"
    },
    {
      "inputs": [
        {
          "internalType": "address",
          "name": "_context",
          "type": "address"
        },
        {
          "internalType": "bytes32",
          "name": "_key",
          "type": "bytes32"
        },
        {
          "internalType": "uint256",
          "name": "_value",
          "type": "uint256"
        }
      ],
      "name": "setUint256",
      "outputs": [],
      "stateMutability": "nonpayable",
      "type": "function"
    }
  ],
  "bytecode": "0x608060405234801561001057600080fd5b5060405161144938038061144983398101604081905261002f9161007d565b80600060405161004890621858db60ea1b815260030190565b90815260405190819003602001902080546001600160a01b03929092166001600160a01b0319909216919091179055506100ad565b60006020828403121561008f57600080fd5b81516001600160a01b03811681146100a657600080fd5b9392505050565b61138d806100bc6000396000f3fe608060405234801561001057600080fd5b50600436106101a95760003560e01c806383596060116100f9578063de28735911610097578063e97a9bb611610071578063e97a9bb61461046a578063eb6117b21461047d578063f4f20e7114610490578063fb827478146104a357600080fd5b8063de28735914610428578063e3097dc214610430578063e318de731461045757600080fd5b8063a8d37cb9116100d3578063a8d37cb9146103c6578063b46b88fe146103d9578063be15aea914610400578063da548d6b1461041557600080fd5b8063835960601461038057806394995510146103a05780639d74b37d146103b357600080fd5b80633f42ffef11610166578063551e385a11610140578063551e385a14610315578063557ed1ba1461033c578063769a5213146103425780637ac4ed641461035557600080fd5b80633f42ffef146102a75780634b7d215e146102ce57806350d677b0146102f557600080fd5b80630e0fc352146101ae5780631205d133146101e85780631f9b28741461020f578063297a012a146102365780632c044a161461025d5780633e107d4a14610280575b600080fd5b6101d57f063693c9545b949ff498535f9e0aa95ada8e88c062d28e2f219b896e151e126681565b6040519081526020015b60405180910390f35b6101d57f098afcb3a137a2ba8835fbf7daecb275af5afb3479f12844d5b7bfb8134e7ced81565b6101d57f5c6c7d4897f0ae38084370e7a61ea386e95c7f54629c0b793a0ac47751f1240581565b6101d57f6a4d660b9f1720511be22f039683db86d0d0d207c2ad9255325630800d4fb53981565b61027061026b366004610f2c565b6104b6565b60405190151581526020016101df565b6101d57f6f244974cc67342b1bd623d411fd8100ec9eddbac05348e71d1a9296de6264a581565b6101d57f1bf52521006d8a3718b0692b7f32c8ee781bfed9e9215eb5b8fc3b34749fb5b581565b6101d57f9574e138325b5c365da8d5cc75cf22323ed6f3ce52fac5621225020a162a4c6181565b610308610303366004610f2c565b6104c8565b6040516101df9190610f45565b6101d57fc72bfe3e0f1799ce0d90c4c72cf8f07d0cfa8121d51cb05d8c827f0896d8c0b681565b426101d5565b6101d5610350366004610f2c565b6104d4565b610368610363366004610fae565b6104e0565b6040516001600160a01b0390911681526020016101df565b61039361038e366004610f2c565b61051b565b6040516101df9190611008565b6101d56103ae366004610fae565b610527565b6102706103c1366004610fae565b610559565b6103686103d4366004610f2c565b61058f565b6101d57f0e8925aa0bfe65f831f6c9099dd95b0614eb69312630ef3497bee453d9ed40a981565b61041361040e36600461103b565b61059b565b005b6104136104233660046110c5565b610713565b61036861087f565b6101d57fa449044fc5332c1625929b3afecb2f821955279285b4a8406a6ffa8968c1b7cf81565b610393610465366004610fae565b6108b6565b610413610478366004611101565b610970565b61030861048b366004610fae565b610ac4565b61041361049e36600461114a565b610b47565b6104136104b1366004611226565b610caa565b60006104c23083610559565b92915050565b60606104c23083610ac4565b60006104c23083610527565b6000806104ed8484610e02565b6040516104fa9190611266565b908152604051908190036020019020546001600160a01b0316905092915050565b60606104c230836108b6565b600060036105358484610e02565b6040516105429190611266565b908152602001604051809103902054905092915050565b600060046105678484610e02565b6040516105749190611266565b9081526040519081900360200190205460ff16905092915050565b60006104c230836104e0565b836001600160a01b038116301415610658576105b561087f565b604051630935e01b60e21b81523360048201526001600160a01b0391909116906324d7806c9060240160206040518083038186803b1580156105f657600080fd5b505afa15801561060a573d6000803e3d6000fd5b505050506040513d601f19601f8201168201806040525081019061062e9190611282565b6106535760405162461bcd60e51b815260040161064a906112a6565b60405180910390fd5b610680565b336001600160a01b038216146106805760405162461bcd60e51b815260040161064a906112cd565b8282600761068e8888610e02565b60405161069b9190611266565b9081526040519081900360200190206106b5929091610e40565b50336001600160a01b031684866001600160a01b03166000805160206113388339815191526040516107049060208082526009908201526861646472657373657360b81b604082015260600190565b60405180910390a45050505050565b826001600160a01b0381163014156107c75761072d61087f565b604051630935e01b60e21b81523360048201526001600160a01b0391909116906324d7806c9060240160206040518083038186803b15801561076e57600080fd5b505afa158015610782573d6000803e3d6000fd5b505050506040513d601f19601f820116820180604052508101906107a69190611282565b6107c25760405162461bcd60e51b815260040161064a906112a6565b6107ef565b336001600160a01b038216146107ef5760405162461bcd60e51b815260040161064a906112cd565b8160006107fc8686610e02565b6040516108099190611266565b90815260405190819003602001812080546001600160a01b039384166001600160a01b0319909116179055339185919087169060008051602061133883398151915290610871906020808252600790820152666164647265737360c81b604082015260600190565b60405180910390a450505050565b60008060405161089890621858db60ea1b815260030190565b908152604051908190036020019020546001600160a01b0316919050565b606060056108c48484610e02565b6040516108d19190611266565b908152602001604051809103902080546108ea906112fc565b80601f0160208091040260200160405190810160405280929190818152602001828054610916906112fc565b80156109635780601f1061093857610100808354040283529160200191610963565b820191906000526020600020905b81548152906001019060200180831161094657829003601f168201915b5050505050905092915050565b826001600160a01b038116301415610a245761098a61087f565b604051630935e01b60e21b81523360048201526001600160a01b0391909116906324d7806c9060240160206040518083038186803b1580156109cb57600080fd5b505afa1580156109df573d6000803e3d6000fd5b505050506040513d601f19601f82011682018060405250810190610a039190611282565b610a1f5760405162461bcd60e51b815260040161064a906112a6565b610a4c565b336001600160a01b03821614610a4c5760405162461bcd60e51b815260040161064a906112cd565b816003610a598686610e02565b604051610a669190611266565b908152602001604051809103902081905550336001600160a01b031683856001600160a01b0316600080516020611338833981519152604051610871906020808252600790820152663ab4b73a191a9b60c91b604082015260600190565b60606007610ad28484610e02565b604051610adf9190611266565b908152604080519182900360209081018320805480830285018301909352828452919083018282801561096357602002820191906000526020600020905b81546001600160a01b03168152600190910190602001808311610b1d575050505050905092915050565b826001600160a01b038116301415610bfb57610b6161087f565b604051630935e01b60e21b81523360048201526001600160a01b0391909116906324d7806c9060240160206040518083038186803b158015610ba257600080fd5b505afa158015610bb6573d6000803e3d6000fd5b505050506040513d601f19601f82011682018060405250810190610bda9190611282565b610bf65760405162461bcd60e51b815260040161064a906112a6565b610c23565b336001600160a01b03821614610c235760405162461bcd60e51b815260040161064a906112cd565b816005610c308686610e02565b604051610c3d9190611266565b90815260200160405180910390209080519060200190610c5e929190610ea3565b50336001600160a01b031683856001600160a01b031660008051602061133883398151915260405161087190602080825260069082015265737472696e6760d01b604082015260600190565b826001600160a01b038116301415610d5e57610cc461087f565b604051630935e01b60e21b81523360048201526001600160a01b0391909116906324d7806c9060240160206040518083038186803b158015610d0557600080fd5b505afa158015610d19573d6000803e3d6000fd5b505050506040513d601f19601f82011682018060405250810190610d3d9190611282565b610d595760405162461bcd60e51b815260040161064a906112a6565b610d86565b336001600160a01b03821614610d865760405162461bcd60e51b815260040161064a906112cd565b816004610d938686610e02565b604051610da09190611266565b908152604051908190036020018120805492151560ff1990931692909217909155339084906001600160a01b038716906000805160206113388339815191529061087190602080825260049082015263189bdbdb60e21b604082015260600190565b604051606083811b6bffffffffffffffffffffffff191660208301526034820183905290605401604051602081830303815290604052905092915050565b828054828255906000526020600020908101928215610e93579160200282015b82811115610e935781546001600160a01b0319166001600160a01b03843516178255602090920191600190910190610e60565b50610e9f929150610f17565b5090565b828054610eaf906112fc565b90600052602060002090601f016020900481019282610ed15760008555610e93565b82601f10610eea57805160ff1916838001178555610e93565b82800160010185558215610e93579182015b82811115610e93578251825591602001919060010190610efc565b5b80821115610e9f5760008155600101610f18565b600060208284031215610f3e57600080fd5b5035919050565b6020808252825182820181905260009190848201906040850190845b81811015610f865783516001600160a01b031683529284019291840191600101610f61565b50909695505050505050565b80356001600160a01b0381168114610fa957600080fd5b919050565b60008060408385031215610fc157600080fd5b610fca83610f92565b946020939093013593505050565b60005b83811015610ff3578181015183820152602001610fdb565b83811115611002576000848401525b50505050565b6020815260008251806020840152611027816040850160208701610fd8565b601f01601f19169190910160400192915050565b6000806000806060858703121561105157600080fd5b61105a85610f92565b935060208501359250604085013567ffffffffffffffff8082111561107e57600080fd5b818701915087601f83011261109257600080fd5b8135818111156110a157600080fd5b8860208260051b85010111156110b657600080fd5b95989497505060200194505050565b6000806000606084860312156110da57600080fd5b6110e384610f92565b9250602084013591506110f860408501610f92565b90509250925092565b60008060006060848603121561111657600080fd5b61111f84610f92565b95602085013595506040909401359392505050565b634e487b7160e01b600052604160045260246000fd5b60008060006060848603121561115f57600080fd5b61116884610f92565b925060208401359150604084013567ffffffffffffffff8082111561118c57600080fd5b818601915086601f8301126111a057600080fd5b8135818111156111b2576111b2611134565b604051601f8201601f19908116603f011681019083821181831017156111da576111da611134565b816040528281528960208487010111156111f357600080fd5b8260208601602083013760006020848301015280955050505050509250925092565b801515811461122357600080fd5b50565b60008060006060848603121561123b57600080fd5b61124484610f92565b925060208401359150604084013561125b81611215565b809150509250925092565b60008251611278818460208701610fd8565b9190910192915050565b60006020828403121561129457600080fd5b815161129f81611215565b9392505050565b6020808252600d908201526c36bab9ba1031329030b236b4b760991b604082015260600190565b60208082526015908201527436bab9ba1031329031b7b73a32bc3a1037bbb732b960591b604082015260600190565b600181811c9082168061131057607f821691505b6020821081141561133157634e487b7160e01b600052602260045260246000fd5b5091905056fe5d317d8e1adc26490e91fcc1de31d4a8f70f3b1f8d25d98c75b2854ee242df97a26469706673582212208b043360932816c65c86162d059a673b9177dc290599f6d0c89c96b293d9732d64736f6c63430008090033",
  "linkReferences": {},
  "deployedLinkReferences": {}
}