{
  "_format": "hh-sol-artifact-1",
  "contractName": "DummyMarketCaller",
  "sourceName": "contracts/test/DummyMarketCaller.sol",
  "abi": [
    {
      "inputs": [
        {
          "internalType": "address",
          "name": "_market",
          "type": "address"
        },
        {
          "internalType": "address",
          "name": "_parent",
          "type": "address"
        }
      ],
      "stateMutability": "nonpayable",
      "type": "constructor"
    },
    {
      "inputs": [
        {
          "internalType": "address",
          "name": "c",
          "type": "address"
        }
      ],
      "name": "addChild",
      "outputs": [],
      "stateMutability": "nonpayable",
      "type": "function"
    },
    {
      "inputs": [
        {
          "internalType": "uint256",
          "name": "_index",
          "type": "uint256"
        }
      ],
      "name": "getChild",
      "outputs": [
        {
          "internalType": "address",
          "name": "",
          "type": "address"
        }
      ],
      "stateMutability": "view",
      "type": "function"
    },
    {
      "inputs": [],
      "name": "getNumChildren",
      "outputs": [
        {
          "internalType": "uint256",
          "name": "",
          "type": "uint256"
        }
      ],
      "stateMutability": "view",
      "type": "function"
    },
    {
      "inputs": [],
      "name": "getParent",
      "outputs": [
        {
          "internalType": "address",
          "name": "",
          "type": "address"
        }
      ],
      "stateMutability": "view",
      "type": "function"
    },
    {
      "inputs": [
        {
          "internalType": "address",
          "name": "_child",
          "type": "address"
        }
      ],
      "name": "hasChild",
      "outputs": [
        {
          "internalType": "bool",
          "name": "",
          "type": "bool"
        }
      ],
      "stateMutability": "view",
      "type": "function"
    },
    {
      "inputs": [
        {
          "internalType": "address",
          "name": "_sellToken",
          "type": "address"
        },
        {
          "internalType": "uint256",
          "name": "_sellAmount",
          "type": "uint256"
        },
        {
          "internalType": "address",
          "name": "_buyToken",
          "type": "address"
        },
        {
          "internalType": "uint256",
          "name": "_buyAmount",
          "type": "uint256"
        },
        {
          "internalType": "uint256",
          "name": "_feeSchedule",
          "type": "uint256"
        }
      ],
      "name": "trade",
      "outputs": [
        {
          "internalType": "uint256",
          "name": "",
          "type": "uint256"
        }
      ],
      "stateMutability": "nonpayable",
      "type": "function"
    }
  ],
  "bytecode": "0x608060405234801561001057600080fd5b506040516108cc3803806108cc83398101604081905261002f9161013a565b600b80546001600160a01b0319166001600160a01b0384161790556100538161005a565b505061016d565b604051651c185c995b9d60d21b81526000908190600601908152604051908190036020019020546001600160a01b0316146100d05760405162461bcd60e51b81526020600482015260126024820152711c185c995b9d08185b1c9958591e481cd95d60721b604482015260640160405180910390fd5b8060006040516100ec90651c185c995b9d60d21b815260060190565b90815260405190819003602001902080546001600160a01b03929092166001600160a01b031990921691909117905550565b80516001600160a01b038116811461013557600080fd5b919050565b6000806040838503121561014d57600080fd5b6101568361011e565b91506101646020840161011e565b90509250929050565b6107508061017c6000396000f3fe608060405234801561001057600080fd5b50600436106100625760003560e01c80631eee993a146100675780637149af0c1461007c57806380f7602114610097578063845b76ae146100b757806387948591146100da578063c909ea42146100ed575b600080fd5b61007a610075366004610584565b610100565b005b61008461010c565b6040519081526020015b60405180910390f35b61009f610148565b6040516001600160a01b03909116815260200161008e565b6100ca6100c5366004610584565b610182565b604051901515815260200161008e565b6100846100e83660046105a6565b6101dd565b61009f6100fb3660046105f4565b61037d565b610109816103db565b50565b6000600360405161013490706e756d4368696c64436f6e74726163747360781b815260110190565b908152602001604051809103902054905090565b60008060405161016490651c185c995b9d60d21b815260060190565b908152604051908190036020019020546001600160a01b0316919050565b600060046101b7836040518060400160405280600f81526020016e1a5cd0da1a5b1910dbdb9d1c9858dd608a1b815250610527565b6040516101c49190610648565b9081526040519081900360200190205460ff1692915050565b600b546000906001600160a01b038088169163095ea7b3911661020188600261066a565b6040516001600160e01b031960e085901b1681526001600160a01b0390921660048301526024820152604401602060405180830381600087803b15801561024757600080fd5b505af115801561025b573d6000803e3d6000fd5b505050506040513d601f19601f8201168201806040525081019061027f9190610689565b6102c15760405162461bcd60e51b815260206004820152600f60248201526e185c1c1c9bdd985b0819985a5b1959608a1b604482015260640160405180910390fd5b600b54604051630a58f18d60e41b81526001600160a01b0388811660048301526024820188905286811660448301526064820186905260848201859052600060a4830181905260e060c484015260e48301529091169063a58f18d09061010401602060405180830381600087803b15801561033b57600080fd5b505af115801561034f573d6000803e3d6000fd5b505050506040513d601f19601f8201168201806040525081019061037391906106ab565b9695505050505050565b6000806103af836040518060400160405280600d81526020016c18da1a5b1910dbdb9d1c9858dd609a1b815250610553565b6040516103bc9190610648565b908152604051908190036020019020546001600160a01b031692915050565b60016004610410836040518060400160405280600f81526020016e1a5cd0da1a5b1910dbdb9d1c9858dd608a1b815250610527565b60405161041d9190610648565b908152604051908190036020018120805492151560ff1990931692909217909155706e756d4368696c64436f6e74726163747360781b81526001906003906011019081526020016040518091039020600082825461047b91906106c4565b925050819055508060006104e860036040516104ae90706e756d4368696c64436f6e74726163747360781b815260110190565b9081526020016040518091039020546040518060400160405280600d81526020016c18da1a5b1910dbdb9d1c9858dd609a1b815250610553565b6040516104f59190610648565b90815260405190819003602001902080546001600160a01b03929092166001600160a01b031990921691909117905550565b6060828260405160200161053c9291906106dc565b604051602081830303815290604052905092915050565b6060828260405160200161053c929190610708565b80356001600160a01b038116811461057f57600080fd5b919050565b60006020828403121561059657600080fd5b61059f82610568565b9392505050565b600080600080600060a086880312156105be57600080fd5b6105c786610568565b9450602086013593506105dc60408701610568565b94979396509394606081013594506080013592915050565b60006020828403121561060657600080fd5b5035919050565b6000815160005b8181101561062e5760208185018101518683015201610614565b8181111561063d576000828601525b509290920192915050565b600061059f828461060d565b634e487b7160e01b600052601160045260246000fd5b600081600019048311821515161561068457610684610654565b500290565b60006020828403121561069b57600080fd5b8151801515811461059f57600080fd5b6000602082840312156106bd57600080fd5b5051919050565b600082198211156106d7576106d7610654565b500190565b6bffffffffffffffffffffffff198360601b1681526000610700601483018461060d565b949350505050565b8281526000610700602083018461060d56fea2646970667358221220899b1c0d88f1a3c6498bbdcb6ec34142aaaa5881500daef396b45d2404f5c57564736f6c63430008090033",
  "linkReferences": {},
  "deployedLinkReferences": {}
}