{
  "_format": "hh-sol-artifact-1",
  "contractName": "DummyParent",
  "sourceName": "contracts/test/DummyMarketCaller.sol",
  "abi": [
    {
      "inputs": [
        {
          "internalType": "address",
          "name": "c",
          "type": "address"
        }
      ],
      "name": "addChild",
      "outputs": [],
      "stateMutability": "nonpayable",
      "type": "function"
    },
    {
      "inputs": [
        {
          "internalType": "uint256",
          "name": "_index",
          "type": "uint256"
        }
      ],
      "name": "getChild",
      "outputs": [
        {
          "internalType": "address",
          "name": "",
          "type": "address"
        }
      ],
      "stateMutability": "view",
      "type": "function"
    },
    {
      "inputs": [],
      "name": "getNumChildren",
      "outputs": [
        {
          "internalType": "uint256",
          "name": "",
          "type": "uint256"
        }
      ],
      "stateMutability": "view",
      "type": "function"
    },
    {
      "inputs": [
        {
          "internalType": "address",
          "name": "_child",
          "type": "address"
        }
      ],
      "name": "hasChild",
      "outputs": [
        {
          "internalType": "bool",
          "name": "",
          "type": "bool"
        }
      ],
      "stateMutability": "view",
      "type": "function"
    }
  ],
  "bytecode": "0x608060405234801561001057600080fd5b50610487806100206000396000f3fe608060405234801561001057600080fd5b506004361061004c5760003560e01c80631eee993a146100515780637149af0c14610066578063845b76ae14610081578063c909ea42146100a4575b600080fd5b61006461005f36600461035d565b6100cf565b005b61006e6100db565b6040519081526020015b60405180910390f35b61009461008f36600461035d565b610117565b6040519015158152602001610078565b6100b76100b236600461038d565b610172565b6040516001600160a01b039091168152602001610078565b6100d8816101d0565b50565b6000600360405161010390706e756d4368696c64436f6e74726163747360781b815260110190565b908152602001604051809103902054905090565b6000600461014c836040518060400160405280600f81526020016e1a5cd0da1a5b1910dbdb9d1c9858dd608a1b81525061031c565b60405161015991906103e1565b9081526040519081900360200190205460ff1692915050565b6000806101a4836040518060400160405280600d81526020016c18da1a5b1910dbdb9d1c9858dd609a1b815250610348565b6040516101b191906103e1565b908152604051908190036020019020546001600160a01b031692915050565b60016004610205836040518060400160405280600f81526020016e1a5cd0da1a5b1910dbdb9d1c9858dd608a1b81525061031c565b60405161021291906103e1565b908152604051908190036020018120805492151560ff1990931692909217909155706e756d4368696c64436f6e74726163747360781b81526001906003906011019081526020016040518091039020600082825461027091906103ed565b925050819055508060006102dd60036040516102a390706e756d4368696c64436f6e74726163747360781b815260110190565b9081526020016040518091039020546040518060400160405280600d81526020016c18da1a5b1910dbdb9d1c9858dd609a1b815250610348565b6040516102ea91906103e1565b90815260405190819003602001902080546001600160a01b03929092166001600160a01b031990921691909117905550565b60608282604051602001610331929190610413565b604051602081830303815290604052905092915050565b6060828260405160200161033192919061043f565b60006020828403121561036f57600080fd5b81356001600160a01b038116811461038657600080fd5b9392505050565b60006020828403121561039f57600080fd5b5035919050565b6000815160005b818110156103c757602081850181015186830152016103ad565b818111156103d6576000828601525b509290920192915050565b600061038682846103a6565b6000821982111561040e57634e487b7160e01b600052601160045260246000fd5b500190565b6bffffffffffffffffffffffff198360601b168152600061043760148301846103a6565b949350505050565b828152600061043760208301846103a656fea2646970667358221220af47c531092cbf75c780989fe648daee16aa392ece8e6ad94f0d5b826abed87864736f6c63430008090033",
  "linkReferences": {},
  "deployedLinkReferences": {}
}