{
  "_format": "hh-sol-artifact-1",
  "contractName": "EntityTreasuryBridgeFacet",
  "sourceName": "contracts/EntityTreasuryBridgeFacet.sol",
  "abi": [
    {
      "inputs": [
        {
          "internalType": "address",
          "name": "_settings",
          "type": "address"
        }
      ],
      "stateMutability": "nonpayable",
      "type": "constructor"
    },
    {
      "anonymous": false,
      "inputs": [
        {
          "indexed": true,
          "internalType": "address",
          "name": "policy",
          "type": "address"
        },
        {
          "indexed": true,
          "internalType": "uint256",
          "name": "bal",
          "type": "uint256"
        }
      ],
      "name": "SetMinPolicyBalance",
      "type": "event"
    },
    {
      "anonymous": false,
      "inputs": [
        {
          "indexed": true,
          "internalType": "address",
          "name": "caller",
          "type": "address"
        },
        {
          "indexed": true,
          "internalType": "address",
          "name": "unit",
          "type": "address"
        },
        {
          "indexed": true,
          "internalType": "uint256",
          "name": "amount",
          "type": "uint256"
        }
      ],
      "name": "TransferFromTreasury",
      "type": "event"
    },
    {
      "anonymous": false,
      "inputs": [
        {
          "indexed": true,
          "internalType": "address",
          "name": "caller",
          "type": "address"
        },
        {
          "indexed": true,
          "internalType": "address",
          "name": "unit",
          "type": "address"
        },
        {
          "indexed": true,
          "internalType": "uint256",
          "name": "amount",
          "type": "uint256"
        }
      ],
      "name": "TransferToTreasury",
      "type": "event"
    },
    {
      "anonymous": false,
      "inputs": [
        {
          "indexed": true,
          "internalType": "address",
          "name": "policy",
          "type": "address"
        },
        {
          "indexed": true,
          "internalType": "uint256",
          "name": "newBal",
          "type": "uint256"
        }
      ],
      "name": "UpdatePolicyBalance",
      "type": "event"
    },
    {
      "inputs": [],
      "name": "CANNOT_ASSIGN",
      "outputs": [
        {
          "internalType": "uint256",
          "name": "",
          "type": "uint256"
        }
      ],
      "stateMutability": "view",
      "type": "function"
    },
    {
      "inputs": [],
      "name": "CANNOT_ASSIGN_USER_NOT_APPROVED",
      "outputs": [
        {
          "internalType": "uint256",
          "name": "",
          "type": "uint256"
        }
      ],
      "stateMutability": "view",
      "type": "function"
    },
    {
      "inputs": [],
      "name": "CAN_ASSIGN_HAS_ROLE",
      "outputs": [
        {
          "internalType": "uint256",
          "name": "",
          "type": "uint256"
        }
      ],
      "stateMutability": "view",
      "type": "function"
    },
    {
      "inputs": [],
      "name": "CAN_ASSIGN_IS_ADMIN",
      "outputs": [
        {
          "internalType": "uint256",
          "name": "",
          "type": "uint256"
        }
      ],
      "stateMutability": "view",
      "type": "function"
    },
    {
      "inputs": [],
      "name": "CAN_ASSIGN_IS_OWN_CONTEXT",
      "outputs": [
        {
          "internalType": "uint256",
          "name": "",
          "type": "uint256"
        }
      ],
      "stateMutability": "view",
      "type": "function"
    },
    {
      "inputs": [],
      "name": "DOES_NOT_HAVE_ROLE",
      "outputs": [
        {
          "internalType": "uint256",
          "name": "",
          "type": "uint256"
        }
      ],
      "stateMutability": "view",
      "type": "function"
    },
    {
      "inputs": [],
      "name": "FEE_SCHEDULE_PLATFORM_ACTION",
      "outputs": [
        {
          "internalType": "uint256",
          "name": "",
          "type": "uint256"
        }
      ],
      "stateMutability": "view",
      "type": "function"
    },
    {
      "inputs": [],
      "name": "FEE_SCHEDULE_STANDARD",
      "outputs": [
        {
          "internalType": "uint256",
          "name": "",
          "type": "uint256"
        }
      ],
      "stateMutability": "view",
      "type": "function"
    },
    {
      "inputs": [],
      "name": "HAS_ROLE_CONTEXT",
      "outputs": [
        {
          "internalType": "uint256",
          "name": "",
          "type": "uint256"
        }
      ],
      "stateMutability": "view",
      "type": "function"
    },
    {
      "inputs": [],
      "name": "HAS_ROLE_SYSTEM_CONTEXT",
      "outputs": [
        {
          "internalType": "uint256",
          "name": "",
          "type": "uint256"
        }
      ],
      "stateMutability": "view",
      "type": "function"
    },
    {
      "inputs": [],
      "name": "ORDER_TYPE_TOKEN_BUYBACK",
      "outputs": [
        {
          "internalType": "bytes32",
          "name": "",
          "type": "bytes32"
        }
      ],
      "stateMutability": "view",
      "type": "function"
    },
    {
      "inputs": [],
      "name": "ORDER_TYPE_TOKEN_SALE",
      "outputs": [
        {
          "internalType": "bytes32",
          "name": "",
          "type": "bytes32"
        }
      ],
      "stateMutability": "view",
      "type": "function"
    },
    {
      "inputs": [],
      "name": "ROLEGROUP_APPROVED_USERS",
      "outputs": [
        {
          "internalType": "bytes32",
          "name": "",
          "type": "bytes32"
        }
      ],
      "stateMutability": "view",
      "type": "function"
    },
    {
      "inputs": [],
      "name": "ROLEGROUP_BROKERS",
      "outputs": [
        {
          "internalType": "bytes32",
          "name": "",
          "type": "bytes32"
        }
      ],
      "stateMutability": "view",
      "type": "function"
    },
    {
      "inputs": [],
      "name": "ROLEGROUP_CAPITAL_PROVIDERS",
      "outputs": [
        {
          "internalType": "bytes32",
          "name": "",
          "type": "bytes32"
        }
      ],
      "stateMutability": "view",
      "type": "function"
    },
    {
      "inputs": [],
      "name": "ROLEGROUP_CLAIMS_ADMINS",
      "outputs": [
        {
          "internalType": "bytes32",
          "name": "",
          "type": "bytes32"
        }
      ],
      "stateMutability": "view",
      "type": "function"
    },
    {
      "inputs": [],
      "name": "ROLEGROUP_ENTITY_ADMINS",
      "outputs": [
        {
          "internalType": "bytes32",
          "name": "",
          "type": "bytes32"
        }
      ],
      "stateMutability": "view",
      "type": "function"
    },
    {
      "inputs": [],
      "name": "ROLEGROUP_ENTITY_MANAGERS",
      "outputs": [
        {
          "internalType": "bytes32",
          "name": "",
          "type": "bytes32"
        }
      ],
      "stateMutability": "view",
      "type": "function"
    },
    {
      "inputs": [],
      "name": "ROLEGROUP_ENTITY_REPS",
      "outputs": [
        {
          "internalType": "bytes32",
          "name": "",
          "type": "bytes32"
        }
      ],
      "stateMutability": "view",
      "type": "function"
    },
    {
      "inputs": [],
      "name": "ROLEGROUP_INSURED_PARTYS",
      "outputs": [
        {
          "internalType": "bytes32",
          "name": "",
          "type": "bytes32"
        }
      ],
      "stateMutability": "view",
      "type": "function"
    },
    {
      "inputs": [],
      "name": "ROLEGROUP_POLICY_CREATORS",
      "outputs": [
        {
          "internalType": "bytes32",
          "name": "",
          "type": "bytes32"
        }
      ],
      "stateMutability": "view",
      "type": "function"
    },
    {
      "inputs": [],
      "name": "ROLEGROUP_POLICY_OWNERS",
      "outputs": [
        {
          "internalType": "bytes32",
          "name": "",
          "type": "bytes32"
        }
      ],
      "stateMutability": "view",
      "type": "function"
    },
    {
      "inputs": [],
      "name": "ROLEGROUP_SYSTEM_ADMINS",
      "outputs": [
        {
          "internalType": "bytes32",
          "name": "",
          "type": "bytes32"
        }
      ],
      "stateMutability": "view",
      "type": "function"
    },
    {
      "inputs": [],
      "name": "ROLEGROUP_SYSTEM_MANAGERS",
      "outputs": [
        {
          "internalType": "bytes32",
          "name": "",
          "type": "bytes32"
        }
      ],
      "stateMutability": "view",
      "type": "function"
    },
    {
      "inputs": [],
      "name": "ROLEGROUP_TRADERS",
      "outputs": [
        {
          "internalType": "bytes32",
          "name": "",
          "type": "bytes32"
        }
      ],
      "stateMutability": "view",
      "type": "function"
    },
    {
      "inputs": [],
      "name": "ROLEGROUP_UNDERWRITERS",
      "outputs": [
        {
          "internalType": "bytes32",
          "name": "",
          "type": "bytes32"
        }
      ],
      "stateMutability": "view",
      "type": "function"
    },
    {
      "inputs": [],
      "name": "ROLE_APPROVED_USER",
      "outputs": [
        {
          "internalType": "bytes32",
          "name": "",
          "type": "bytes32"
        }
      ],
      "stateMutability": "view",
      "type": "function"
    },
    {
      "inputs": [],
      "name": "ROLE_BROKER",
      "outputs": [
        {
          "internalType": "bytes32",
          "name": "",
          "type": "bytes32"
        }
      ],
      "stateMutability": "view",
      "type": "function"
    },
    {
      "inputs": [],
      "name": "ROLE_CAPITAL_PROVIDER",
      "outputs": [
        {
          "internalType": "bytes32",
          "name": "",
          "type": "bytes32"
        }
      ],
      "stateMutability": "view",
      "type": "function"
    },
    {
      "inputs": [],
      "name": "ROLE_CLAIMS_ADMIN",
      "outputs": [
        {
          "internalType": "bytes32",
          "name": "",
          "type": "bytes32"
        }
      ],
      "stateMutability": "view",
      "type": "function"
    },
    {
      "inputs": [],
      "name": "ROLE_ENTITY_ADMIN",
      "outputs": [
        {
          "internalType": "bytes32",
          "name": "",
          "type": "bytes32"
        }
      ],
      "stateMutability": "view",
      "type": "function"
    },
    {
      "inputs": [],
      "name": "ROLE_ENTITY_MANAGER",
      "outputs": [
        {
          "internalType": "bytes32",
          "name": "",
          "type": "bytes32"
        }
      ],
      "stateMutability": "view",
      "type": "function"
    },
    {
      "inputs": [],
      "name": "ROLE_ENTITY_REP",
      "outputs": [
        {
          "internalType": "bytes32",
          "name": "",
          "type": "bytes32"
        }
      ],
      "stateMutability": "view",
      "type": "function"
    },
    {
      "inputs": [],
      "name": "ROLE_INSURED_PARTY",
      "outputs": [
        {
          "internalType": "bytes32",
          "name": "",
          "type": "bytes32"
        }
      ],
      "stateMutability": "view",
      "type": "function"
    },
    {
      "inputs": [],
      "name": "ROLE_PENDING_BROKER",
      "outputs": [
        {
          "internalType": "bytes32",
          "name": "",
          "type": "bytes32"
        }
      ],
      "stateMutability": "view",
      "type": "function"
    },
    {
      "inputs": [],
      "name": "ROLE_PENDING_CLAIMS_ADMIN",
      "outputs": [
        {
          "internalType": "bytes32",
          "name": "",
          "type": "bytes32"
        }
      ],
      "stateMutability": "view",
      "type": "function"
    },
    {
      "inputs": [],
      "name": "ROLE_PENDING_INSURED_PARTY",
      "outputs": [
        {
          "internalType": "bytes32",
          "name": "",
          "type": "bytes32"
        }
      ],
      "stateMutability": "view",
      "type": "function"
    },
    {
      "inputs": [],
      "name": "ROLE_PENDING_UNDERWRITER",
      "outputs": [
        {
          "internalType": "bytes32",
          "name": "",
          "type": "bytes32"
        }
      ],
      "stateMutability": "view",
      "type": "function"
    },
    {
      "inputs": [],
      "name": "ROLE_POLICY_CREATOR",
      "outputs": [
        {
          "internalType": "bytes32",
          "name": "",
          "type": "bytes32"
        }
      ],
      "stateMutability": "view",
      "type": "function"
    },
    {
      "inputs": [],
      "name": "ROLE_POLICY_OWNER",
      "outputs": [
        {
          "internalType": "bytes32",
          "name": "",
          "type": "bytes32"
        }
      ],
      "stateMutability": "view",
      "type": "function"
    },
    {
      "inputs": [],
      "name": "ROLE_SYSTEM_ADMIN",
      "outputs": [
        {
          "internalType": "bytes32",
          "name": "",
          "type": "bytes32"
        }
      ],
      "stateMutability": "view",
      "type": "function"
    },
    {
      "inputs": [],
      "name": "ROLE_SYSTEM_MANAGER",
      "outputs": [
        {
          "internalType": "bytes32",
          "name": "",
          "type": "bytes32"
        }
      ],
      "stateMutability": "view",
      "type": "function"
    },
    {
      "inputs": [],
      "name": "ROLE_UNDERWRITER",
      "outputs": [
        {
          "internalType": "bytes32",
          "name": "",
          "type": "bytes32"
        }
      ],
      "stateMutability": "view",
      "type": "function"
    },
    {
      "inputs": [],
      "name": "SETTING_ENTITY_DELEGATE",
      "outputs": [
        {
          "internalType": "bytes32",
          "name": "",
          "type": "bytes32"
        }
      ],
      "stateMutability": "view",
      "type": "function"
    },
    {
      "inputs": [],
      "name": "SETTING_ENTITY_DEPLOYER",
      "outputs": [
        {
          "internalType": "bytes32",
          "name": "",
          "type": "bytes32"
        }
      ],
      "stateMutability": "view",
      "type": "function"
    },
    {
      "inputs": [],
      "name": "SETTING_ENTITY_IMPL",
      "outputs": [
        {
          "internalType": "bytes32",
          "name": "",
          "type": "bytes32"
        }
      ],
      "stateMutability": "view",
      "type": "function"
    },
    {
      "inputs": [],
      "name": "SETTING_ETHER_TOKEN",
      "outputs": [
        {
          "internalType": "bytes32",
          "name": "",
          "type": "bytes32"
        }
      ],
      "stateMutability": "view",
      "type": "function"
    },
    {
      "inputs": [],
      "name": "SETTING_FEEBANK",
      "outputs": [
        {
          "internalType": "bytes32",
          "name": "",
          "type": "bytes32"
        }
      ],
      "stateMutability": "view",
      "type": "function"
    },
    {
      "inputs": [],
      "name": "SETTING_FEEBANK_IMPL",
      "outputs": [
        {
          "internalType": "bytes32",
          "name": "",
          "type": "bytes32"
        }
      ],
      "stateMutability": "view",
      "type": "function"
    },
    {
      "inputs": [],
      "name": "SETTING_MARKET",
      "outputs": [
        {
          "internalType": "bytes32",
          "name": "",
          "type": "bytes32"
        }
      ],
      "stateMutability": "view",
      "type": "function"
    },
    {
      "inputs": [],
      "name": "SETTING_MARKET_IMPL",
      "outputs": [
        {
          "internalType": "bytes32",
          "name": "",
          "type": "bytes32"
        }
      ],
      "stateMutability": "view",
      "type": "function"
    },
    {
      "inputs": [],
      "name": "SETTING_POLICY_DELEGATE",
      "outputs": [
        {
          "internalType": "bytes32",
          "name": "",
          "type": "bytes32"
        }
      ],
      "stateMutability": "view",
      "type": "function"
    },
    {
      "inputs": [],
      "name": "SETTING_POLICY_IMPL",
      "outputs": [
        {
          "internalType": "bytes32",
          "name": "",
          "type": "bytes32"
        }
      ],
      "stateMutability": "view",
      "type": "function"
    },
    {
      "inputs": [],
      "name": "acl",
      "outputs": [
        {
          "internalType": "contract IACL",
          "name": "",
          "type": "address"
        }
      ],
      "stateMutability": "view",
      "type": "function"
    },
    {
      "inputs": [],
      "name": "aclContext",
      "outputs": [
        {
          "internalType": "bytes32",
          "name": "",
          "type": "bytes32"
        }
      ],
      "stateMutability": "view",
      "type": "function"
    },
    {
      "inputs": [
        {
          "internalType": "uint256",
          "name": "_index",
          "type": "uint256"
        }
      ],
      "name": "getChild",
      "outputs": [
        {
          "internalType": "address",
          "name": "",
          "type": "address"
        }
      ],
      "stateMutability": "view",
      "type": "function"
    },
    {
      "inputs": [],
      "name": "getNumChildren",
      "outputs": [
        {
          "internalType": "uint256",
          "name": "",
          "type": "uint256"
        }
      ],
      "stateMutability": "view",
      "type": "function"
    },
    {
      "inputs": [],
      "name": "getSelectors",
      "outputs": [
        {
          "internalType": "bytes",
          "name": "",
          "type": "bytes"
        }
      ],
      "stateMutability": "pure",
      "type": "function"
    },
    {
      "inputs": [
        {
          "internalType": "address",
          "name": "_child",
          "type": "address"
        }
      ],
      "name": "hasChild",
      "outputs": [
        {
          "internalType": "bool",
          "name": "",
          "type": "bool"
        }
      ],
      "stateMutability": "view",
      "type": "function"
    },
    {
      "inputs": [
        {
          "internalType": "address",
          "name": "_addr",
          "type": "address"
        },
        {
          "internalType": "bytes32",
          "name": "_roleGroup",
          "type": "bytes32"
        }
      ],
      "name": "inRoleGroup",
      "outputs": [
        {
          "internalType": "bool",
          "name": "",
          "type": "bool"
        }
      ],
      "stateMutability": "view",
      "type": "function"
    },
    {
      "inputs": [
        {
          "internalType": "bytes32",
          "name": "_ctx",
          "type": "bytes32"
        },
        {
          "internalType": "address",
          "name": "_addr",
          "type": "address"
        },
        {
          "internalType": "bytes32",
          "name": "_roleGroup",
          "type": "bytes32"
        }
      ],
      "name": "inRoleGroupWithContext",
      "outputs": [
        {
          "internalType": "bool",
          "name": "",
          "type": "bool"
        }
      ],
      "stateMutability": "view",
      "type": "function"
    },
    {
      "inputs": [
        {
          "internalType": "address",
          "name": "_addr",
          "type": "address"
        }
      ],
      "name": "isAdmin",
      "outputs": [
        {
          "internalType": "bool",
          "name": "",
          "type": "bool"
        }
      ],
      "stateMutability": "view",
      "type": "function"
    },
    {
      "inputs": [],
      "name": "settings",
      "outputs": [
        {
          "internalType": "contract ISettings",
          "name": "",
          "type": "address"
        }
      ],
      "stateMutability": "view",
      "type": "function"
    },
    {
      "inputs": [
        {
          "internalType": "address",
          "name": "_unit",
          "type": "address"
        },
        {
          "internalType": "uint256",
          "name": "_amount",
          "type": "uint256"
        }
      ],
      "name": "transferFromTreasury",
      "outputs": [],
      "stateMutability": "nonpayable",
      "type": "function"
    },
    {
      "inputs": [
        {
          "internalType": "address",
          "name": "_unit",
          "type": "address"
        },
        {
          "internalType": "uint256",
          "name": "_amount",
          "type": "uint256"
        }
      ],
      "name": "transferToTreasury",
      "outputs": [],
      "stateMutability": "nonpayable",
      "type": "function"
    }
  ],
  "bytecode": "0x60806040523480156200001157600080fd5b506040516200205c3803806200205c833981016040819052620000349162000244565b80808180600060405162000056906773657474696e677360c01b815260080190565b90815260405190819003602001902080546001600160a01b03929092166001600160a01b03199092169190911790556200008f62000181565b60405163a1e31a6560e01b81523060048201526001600160a01b03919091169063a1e31a659060240160206040518083038186803b158015620000d157600080fd5b505afa158015620000e6573d6000803e3d6000fd5b505050506040513d601f19601f820116820180604052508101906200010c91906200026b565b60408051691858db10dbdb9d195e1d60b21b81526001600a820152815190819003602a018120929092556773657474696e677360c01b8252600060088301525160289181900391909101902080546001600160a01b0319166001600160a01b0393909316929092179091555062000285915050565b600080604051620001a0906773657474696e677360c01b815260080190565b90815260408051602092819003830181205463de28735960e01b825291516001600160a01b039092169263de28735992600480840193829003018186803b158015620001eb57600080fd5b505afa15801562000200573d6000803e3d6000fd5b505050506040513d601f19601f8201168201806040525081019062000226919062000244565b905090565b6001600160a01b03811681146200024157600080fd5b50565b6000602082840312156200025757600080fd5b815162000264816200022b565b9392505050565b6000602082840312156200027e57600080fd5b5051919050565b611dc780620002956000396000f3fe608060405234801561001057600080fd5b50600436106103db5760003560e01c80638398389a1161020a578063b855481111610125578063de841bac116100b8578063e3097dc211610087578063e3097dc214610b02578063e5bb5d0714610b29578063eebb74e014610b50578063fa4a215c14610b77578063fbc0276414610b9e57600080fd5b8063de841bac14610a85578063def26bce14610aac578063e06174e414610ad3578063e0892bad14610adb57600080fd5b8063cf454391116100f4578063cf45439114610a2f578063db691b1414610a56578063de28735914610a7d578063de764acf146108e357600080fd5b8063b8554811146103fb578063bb11dd71146109b6578063c909ea42146109dd578063cef6ee4514610a0857600080fd5b80639f6e37a71161019d578063a87c785f1161016c578063a87c785f14610939578063b32ef75614610960578063b3f438aa14610987578063b46b88fe1461098f57600080fd5b80639f6e37a7146108bc578063a01dac13146108e3578063a32fc162146108eb578063a3cf5fdf1461091257600080fd5b80639424cf5e116101d95780639424cf5e146108345780639479ab2a1461085b5780639ae5f378146108825780639dd267e6146108a957600080fd5b80638398389a146107e7578063845b76ae1461080e578063877d1723146103e0578063899a0ec71461082157600080fd5b8063423d20f3116102fa57806355d48c071161028d5780637149af0c1161025c5780637149af0c1461076a57806372bef9c614610772578063741cb7d614610799578063767974b5146107c057600080fd5b806355d48c07146106f557806359dab758146103fb5780635db798551461071c5780635dddee311461074357600080fd5b80634b503f0b116102c95780634b503f0b1461066d5780634b7d215e146106a75780634cf1f772146103e0578063551e385a146106ce57600080fd5b8063423d20f314610602578063468740a81461060a57806347bf603d1461063157806348a490fb1461065857600080fd5b806326f88535116103725780633407d3cb116103415780633407d3cb146105855780633e107d4a146105ac5780633f42ffef146105d357806341bb4897146105fa57600080fd5b806326f88535146104e9578063297a012a146105105780632a8873ef146105375780632b521d471461055e57600080fd5b80631adcdac6116103ae5780631adcdac6146104515780631f9b28741461047857806324d7806c1461049f57806324e076a2146104c257600080fd5b806301750873146103e05780630a079b2c146103fb5780630e0fc352146104035780631205d1331461042a575b600080fd5b6103e8600181565b6040519081526020015b60405180910390f35b6103e8600281565b6103e87f063693c9545b949ff498535f9e0aa95ada8e88c062d28e2f219b896e151e126681565b6103e87f098afcb3a137a2ba8835fbf7daecb275af5afb3479f12844d5b7bfb8134e7ced81565b6103e87f8858a0dfcbfa158449ee0a3b5dae898cecc0746569152b05bbab9526bcc1686481565b6103e87f5c6c7d4897f0ae38084370e7a61ea386e95c7f54629c0b793a0ac47751f1240581565b6104b26104ad366004611ad8565b610bb1565b60405190151581526020016103f2565b6103e87f18ecf8d2173ca8a5766fd7dde3bdb54017dc5413dc07cd6ba1785b63e9c62b8281565b6103e87f5c7c2bcb0d2dfef15c423063aae2051d462fcd269b5e9b8c1733b3211e17bc8a81565b6103e87f6a4d660b9f1720511be22f039683db86d0d0d207c2ad9255325630800d4fb53981565b6103e87f325a96ceff51ae6b22de25dd7b4c8b9532dddf936add8ef16fc99219ff666a8481565b6103e87fcca1ad0e9fb374bbb9dc3d0cbfd073ef01bd1d01d5a35bd0a93403fbee64318d81565b6103e87f2623111b4a77e415ab5147aeb27da976c7a27950b6ec4022b4b9e7717626699281565b6103e87f6f244974cc67342b1bd623d411fd8100ec9eddbac05348e71d1a9296de6264a581565b6103e87f1bf52521006d8a3718b0692b7f32c8ee781bfed9e9215eb5b8fc3b34749fb5b581565b6103e8600381565b6103e8610c3c565b6103e87f65d0db34d07de31cfb8ca9f95dabc0463ce6084a447abb757f682f36ae3682e381565b6103e87f052b977cd6067e43b9140f08c53a22b88418f4d3ab7bd811716130d5a20cd8a381565b61066b610666366004611af5565b610c71565b005b604080516348a490fb60e01b6020820152634ee933f360e11b6024820152815160088183030181526028909101918290526103f291611b51565b6103e87f9574e138325b5c365da8d5cc75cf22323ed6f3ce52fac5621225020a162a4c6181565b6103e87fc72bfe3e0f1799ce0d90c4c72cf8f07d0cfa8121d51cb05d8c827f0896d8c0b681565b6103e87f807c518efb8285611b15c88a7701e4f40a0e9a38ce3e59946e587a8932410af881565b6103e87f428fa9969c6b3fab7bbdac20b73706f1f670a386be0a76d4060c185898b2aa2281565b6103e87f8d632412946eb879ebe5af90230c7db3f6d17c94c0ecea207c97e15fa9bb77c581565b6103e8610e40565b6103e87f2db57b52c5f263c359ba92194f5590b4a7f5fc1f1ca02f10cea531182851fe2881565b6103e87f0922a3d5a8713fcf92ec8607b882fd2fcfefd8552a3c38c726d96fcde8b1d05381565b6103e87f9c259f9342405d034b902fd5e1bba083f008e305ea4eb6a0dce9ac9a6256b63a81565b6103e87fdd53f360aa973c3daf7ff269398ced1ce7713d025c750c443c2abbcd89438f8381565b6104b261081c366004611ad8565b610e68565b6104b261082f366004611b84565b610ec3565b6103e87fcfd13d23f7313d54f3a6d98c505045c58749561dd04531f9f2422a8818f0c5f881565b6103e87fa33a59233069411012cc12aa76a8a426fe6bd113968b520118fdc9cb6f49ae3081565b6103e87fab789755f97e00f29522efbee9df811265010c87cf80f8fd7d5fc5cb8a84795681565b61066b6108b7366004611af5565b610f5e565b6103e87f3bd41a6d84c7de1e9d18694bd113405090439b9e32d5ab69d575821d513d83b581565b6103e8600081565b6103e87f7c23ac65f971ee875d4a6408607fabcb777f38cf73b3d6d891648646cee81f0581565b6103e87fd708193a9c8f5fbde4d1c80a1e6f79b5f38a27f85ca86eccac69e5a899120ead81565b6103e87f9f4d1dc1107c7d9d9f533f41b5aa5dbbb3b830e3b597338a8aee228ab083eb3a81565b6103e87f391db9b692991836c38aedfd24d7f4c9837739d4ee0664fe4ee6892a51e025a781565b6103e8606481565b6103e87f0e8925aa0bfe65f831f6c9099dd95b0614eb69312630ef3497bee453d9ed40a981565b6103e87f54727092b015b3d280c3e42726b5e6008f8b85c202d92feae67d30b486fc630f81565b6109f06109eb366004611bbc565b6110cd565b6040516001600160a01b0390911681526020016103f2565b6103e87ffca7e79cb5091f353eb60204c9aee8a98531c6069472e235576044613bd7396181565b6103e87fad56f8a5432d383c3e2c11b7b248f889e6ec544090486b3623f0f4ae1fad763b81565b6103e87f1d60d7146dec74c1b1a9dc17243aaa3b56533f607c16a718bcd78d8d852d6e5281565b6109f061112b565b6103e87f7f7cc8b2bac31c0e372310212be653d159f17ff3c41938a81446553db842afb681565b6103e87f610cf17b5a943fc722922fc6750fb40254c24c6b0efd32554aa7c03b4ca98e9c81565b6109f06111d0565b6103e87f737de6bdef2e959d9f968f058e3e78b7365d4eda8e4023ecac2d51e3dbfb140181565b6103e87fa449044fc5332c1625929b3afecb2f821955279285b4a8406a6ffa8968c1b7cf81565b6103e87f9c687089ee5ebd0bc2ba9c954ebc7a0304b4046890b9064e5742c8c6c7afeab281565b6103e87f251766d8c7c7a6b927647b0f20c99f490db1c283eb0c482446085aaaa44b5e7381565b6103e87fc59d706f362a04b6cf4757dd3df6eb5babc7c26ab5dcc7c9c43b142f25da10a581565b6104b2610bac366004611af5565b61120c565b6000610bbb61112b565b604051630935e01b60e21b81526001600160a01b03848116600483015291909116906324d7806c9060240160206040518083038186803b158015610bfe57600080fd5b505afa158015610c12573d6000803e3d6000fd5b505050506040513d601f19601f82011682018060405250810190610c369190611bd5565b92915050565b60006001604051610c5d90691858db10dbdb9d195e1d60b21b8152600a0190565b908152602001604051809103902054905090565b6000610ca8836040518060400160405280601381526020017274726561737572795265616c42616c616e636560681b815250611227565b905081600382604051610cbb9190611bf7565b9081526020016040518091039020541015610d1d5760405162461bcd60e51b815260206004820152601860248201527f657863656564732074726561737572792062616c616e6365000000000000000060448201526064015b60405180910390fd5b81600382604051610d2e9190611bf7565b908152602001604051809103902054610d479190611c29565b600382604051610d579190611bf7565b908152602001604051809103902081905550816003610d95856040518060400160405280600781526020016662616c616e636560c81b815250611227565b604051610da29190611bf7565b908152602001604051809103902054610dbb9190611c40565b6003610de6856040518060400160405280600781526020016662616c616e636560c81b815250611227565b604051610df39190611bf7565b9081526040519081900360200181209190915582906001600160a01b0385169033907f2a1011e5888a110e56bdfdc1fcabf13196acf2c7659f441e8c55ba1da79b68b990600090a4505050565b60006003604051610c5d90706e756d4368696c64436f6e74726163747360781b815260110190565b60006004610e9d836040518060400160405280600f81526020016e1a5cd0da1a5b1910dbdb9d1c9858dd608a1b815250611227565b604051610eaa9190611bf7565b9081526040519081900360200190205460ff1692915050565b6000610ecd61112b565b6040516349fdb87160e01b8152600481018690526001600160a01b0385811660248301526044820185905291909116906349fdb8719060640160206040518083038186803b158015610f1e57600080fd5b505afa158015610f32573d6000803e3d6000fd5b505050506040513d601f19601f82011682018060405250810190610f569190611bd5565b949350505050565b610f688282611253565b806003610f94846040518060400160405280600781526020016662616c616e636560c81b815250611227565b604051610fa19190611bf7565b908152602001604051809103902054610fba9190611c29565b6003610fe5846040518060400160405280600781526020016662616c616e636560c81b815250611227565b604051610ff29190611bf7565b908152602001604051809103902081905550600061103b836040518060400160405280601381526020017274726561737572795265616c42616c616e636560681b815250611227565b90508160038260405161104e9190611bf7565b9081526020016040518091039020546110679190611c40565b6003826040516110779190611bf7565b90815260405190819003602001902055611090836112e6565b60405182906001600160a01b0385169033907f098d73659e8bb3ae59db9b3f19f73a3e0099f2543416a65c0a21f9a0fdade82490600090a4505050565b6000806110ff836040518060400160405280600d81526020016c18da1a5b1910dbdb9d1c9858dd609a1b8152506117fa565b60405161110c9190611bf7565b908152604051908190036020019020546001600160a01b031692915050565b600080604051611149906773657474696e677360c01b815260080190565b90815260408051602092819003830181205463de28735960e01b825291516001600160a01b039092169263de28735992600480840193829003018186803b15801561119357600080fd5b505afa1580156111a7573d6000803e3d6000fd5b505050506040513d601f19601f820116820180604052508101906111cb9190611c58565b905090565b6000806040516111ee906773657474696e677360c01b815260080190565b908152604051908190036020019020546001600160a01b0316919050565b6000611220611219610c3c565b8484610ec3565b9392505050565b6060828260405160200161123c929190611c75565b604051602081830303815290604052905092915050565b80600361127f846040518060400160405280600781526020016662616c616e636560c81b815250611227565b60405161128c9190611bf7565b90815260200160405180910390205410156112e25760405162461bcd60e51b81526020600482015260166024820152756578636565647320656e746974792062616c616e636560501b6044820152606401610d14565b5050565b60006003611317836040518060400160405280600b81526020016a18db185a5b5cd0dbdd5b9d60aa1b815250611227565b6040516113249190611bf7565b90815260200160405180910390205490506000600361136c846040518060400160405280601181526020017018db185a5b5cd55b9c185a5910dbdd5b9d607a1b815250611227565b6040516113799190611bf7565b908152602001604051809103902054826113939190611c29565b61139e906001611c40565b9050600082905060006113dc856040518060400160405280601381526020017274726561737572795265616c42616c616e636560681b815250611227565b9050600061141f866040518060400160405280601781526020017f636c61696d73556e70616964546f74616c416d6f756e74000000000000000000815250611227565b9050835b8381116117f157600461145882896040518060400160405280600981526020016818db185a5b54185a5960ba1b81525061180f565b6040516114659190611bf7565b9081526040519081900360200190205460ff166117df57600060036114ae838a6040518060400160405280600b81526020016a18db185a5b505b5bdd5b9d60aa1b81525061180f565b6040516114bb9190611bf7565b90815260200160405180910390205490506003846040516114dc9190611bf7565b90815260200160405180910390205481116117d757600080611522848b6040518060400160405280600b81526020016a636c61696d506f6c69637960a81b81525061180f565b60405161152f9190611bf7565b90815260408051918290036020908101832054838301909252601d83527f706f6c696379436c61696d73556e70616964546f74616c416d6f756e74000000908301526001600160a01b0316915060009061158a908390611227565b90508260038260405161159d9190611bf7565b9081526020016040518091039020546115b69190611c29565b6003826040516115c69190611bf7565b908152604051908190036020019020556115e0828461183e565b896001600160a01b031663a9059cbb6000611622878e6040518060400160405280600e81526020016d18db185a5b549958da5c1a595b9d60921b81525061180f565b60405161162f9190611bf7565b908152604051908190036020018120546001600160e01b031960e084901b1682526001600160a01b0316600482015260248101869052604401602060405180830381600087803b15801561168257600080fd5b505af1158015611696573d6000803e3d6000fd5b505050506040513d601f19601f820116820180604052508101906116ba9190611bd5565b50600160046116eb868d6040518060400160405280600981526020016818db185a5b54185a5960ba1b81525061180f565b6040516116f89190611bf7565b908152602001604051809103902060006101000a81548160ff021916908315150217905550600160036117548c6040518060400160405280601181526020017018db185a5b5cd55b9c185a5910dbdd5b9d607a1b815250611227565b6040516117619190611bf7565b9081526020016040518091039020600082825461177e9190611c29565b92505081905550826003866040516117969190611bf7565b9081526020016040518091039020546117af9190611c29565b6003866040516117bf9190611bf7565b90815260405190819003602001902055506117dd9050565b506117f1565b505b6117ea600182611c40565b9050611423565b50505050505050565b6060828260405160200161123c929190611cad565b606083838360405160200161182693929190611cd3565b60405160208183030381529060405290509392505050565b600061184983611a31565b9050600061187c846040518060400160405280600d81526020016c706f6c69637942616c616e636560981b815250611227565b905060006118b5836040518060400160405280601381526020017274726561737572795265616c42616c616e636560681b815250611227565b905060006118f1846040518060400160405280601681526020017574726561737572795669727475616c42616c616e636560501b815250611227565b9050846003836040516119049190611bf7565b90815260200160405180910390205461191d9190611c29565b60038360405161192d9190611bf7565b908152602001604051809103902081905550846003826040516119509190611bf7565b9081526020016040518091039020546119699190611c29565b6003826040516119799190611bf7565b9081526020016040518091039020819055508460038460405161199c9190611bf7565b9081526020016040518091039020546119b59190611c29565b6003846040516119c59190611bf7565b9081526020016040518091039020819055506003836040516119e79190611bf7565b90815260405190819003602001812054906001600160a01b038816907f30d14e53e9e62748ea489369d8b7fca01f39316037f55003a347712fc878585690600090a3505050505050565b600080600080600080866001600160a01b0316635a9b0b896040518163ffffffff1660e01b81526004016101206040518083038186803b158015611a7457600080fd5b505afa158015611a88573d6000803e3d6000fd5b505050506040513d601f19601f82011682018060405250810190611aac9190611d12565b50919e9d5050505050505050505050505050565b6001600160a01b0381168114611ad557600080fd5b50565b600060208284031215611aea57600080fd5b813561122081611ac0565b60008060408385031215611b0857600080fd5b8235611b1381611ac0565b946020939093013593505050565b60005b83811015611b3c578181015183820152602001611b24565b83811115611b4b576000848401525b50505050565b6020815260008251806020840152611b70816040850160208701611b21565b601f01601f19169190910160400192915050565b600080600060608486031215611b9957600080fd5b833592506020840135611bab81611ac0565b929592945050506040919091013590565b600060208284031215611bce57600080fd5b5035919050565b600060208284031215611be757600080fd5b8151801515811461122057600080fd5b60008251611c09818460208701611b21565b9190910192915050565b634e487b7160e01b600052601160045260246000fd5b600082821015611c3b57611c3b611c13565b500390565b60008219821115611c5357611c53611c13565b500190565b600060208284031215611c6a57600080fd5b815161122081611ac0565b6bffffffffffffffffffffffff198360601b16815260008251611c9f816014850160208701611b21565b919091016014019392505050565b82815260008251611cc5816020850160208701611b21565b919091016020019392505050565b8381526bffffffffffffffffffffffff198360601b16602082015260008251611d03816034850160208701611b21565b91909101603401949350505050565b60008060008060008060008060006101208a8c031215611d3157600080fd5b8951985060208a0151611d4381611ac0565b8098505060408a0151965060608a0151955060808a0151945060a08a0151611d6a81611ac0565b8094505060c08a0151925060e08a015191506101008a01519050929598509295985092959856fea264697066735822122085bc130e9aa1f858668a6752109f567b80edbdee5a61fdcacbc5488eda4897a864736f6c63430008090033",
  "linkReferences": {},
  "deployedLinkReferences": {}
}