{
  "_format": "hh-sol-artifact-1",
  "contractName": "EntityDeployer",
  "sourceName": "contracts/EntityDeployer.sol",
  "abi": [
    {
      "inputs": [
        {
          "internalType": "address",
          "name": "_settings",
          "type": "address"
        }
      ],
      "stateMutability": "nonpayable",
      "type": "constructor"
    },
    {
      "anonymous": false,
      "inputs": [
        {
          "indexed": true,
          "internalType": "address",
          "name": "entity",
          "type": "address"
        },
        {
          "indexed": true,
          "internalType": "address",
          "name": "deployer",
          "type": "address"
        }
      ],
      "name": "NewEntity",
      "type": "event"
    },
    {
      "inputs": [],
      "name": "CANNOT_ASSIGN",
      "outputs": [
        {
          "internalType": "uint256",
          "name": "",
          "type": "uint256"
        }
      ],
      "stateMutability": "view",
      "type": "function"
    },
    {
      "inputs": [],
      "name": "CANNOT_ASSIGN_USER_NOT_APPROVED",
      "outputs": [
        {
          "internalType": "uint256",
          "name": "",
          "type": "uint256"
        }
      ],
      "stateMutability": "view",
      "type": "function"
    },
    {
      "inputs": [],
      "name": "CAN_ASSIGN_HAS_ROLE",
      "outputs": [
        {
          "internalType": "uint256",
          "name": "",
          "type": "uint256"
        }
      ],
      "stateMutability": "view",
      "type": "function"
    },
    {
      "inputs": [],
      "name": "CAN_ASSIGN_IS_ADMIN",
      "outputs": [
        {
          "internalType": "uint256",
          "name": "",
          "type": "uint256"
        }
      ],
      "stateMutability": "view",
      "type": "function"
    },
    {
      "inputs": [],
      "name": "CAN_ASSIGN_IS_OWN_CONTEXT",
      "outputs": [
        {
          "internalType": "uint256",
          "name": "",
          "type": "uint256"
        }
      ],
      "stateMutability": "view",
      "type": "function"
    },
    {
      "inputs": [],
      "name": "DOES_NOT_HAVE_ROLE",
      "outputs": [
        {
          "internalType": "uint256",
          "name": "",
          "type": "uint256"
        }
      ],
      "stateMutability": "view",
      "type": "function"
    },
    {
      "inputs": [],
      "name": "HAS_ROLE_CONTEXT",
      "outputs": [
        {
          "internalType": "uint256",
          "name": "",
          "type": "uint256"
        }
      ],
      "stateMutability": "view",
      "type": "function"
    },
    {
      "inputs": [],
      "name": "HAS_ROLE_SYSTEM_CONTEXT",
      "outputs": [
        {
          "internalType": "uint256",
          "name": "",
          "type": "uint256"
        }
      ],
      "stateMutability": "view",
      "type": "function"
    },
    {
      "inputs": [],
      "name": "ROLEGROUP_APPROVED_USERS",
      "outputs": [
        {
          "internalType": "bytes32",
          "name": "",
          "type": "bytes32"
        }
      ],
      "stateMutability": "view",
      "type": "function"
    },
    {
      "inputs": [],
      "name": "ROLEGROUP_BROKERS",
      "outputs": [
        {
          "internalType": "bytes32",
          "name": "",
          "type": "bytes32"
        }
      ],
      "stateMutability": "view",
      "type": "function"
    },
    {
      "inputs": [],
      "name": "ROLEGROUP_CAPITAL_PROVIDERS",
      "outputs": [
        {
          "internalType": "bytes32",
          "name": "",
          "type": "bytes32"
        }
      ],
      "stateMutability": "view",
      "type": "function"
    },
    {
      "inputs": [],
      "name": "ROLEGROUP_CLAIMS_ADMINS",
      "outputs": [
        {
          "internalType": "bytes32",
          "name": "",
          "type": "bytes32"
        }
      ],
      "stateMutability": "view",
      "type": "function"
    },
    {
      "inputs": [],
      "name": "ROLEGROUP_ENTITY_ADMINS",
      "outputs": [
        {
          "internalType": "bytes32",
          "name": "",
          "type": "bytes32"
        }
      ],
      "stateMutability": "view",
      "type": "function"
    },
    {
      "inputs": [],
      "name": "ROLEGROUP_ENTITY_MANAGERS",
      "outputs": [
        {
          "internalType": "bytes32",
          "name": "",
          "type": "bytes32"
        }
      ],
      "stateMutability": "view",
      "type": "function"
    },
    {
      "inputs": [],
      "name": "ROLEGROUP_ENTITY_REPS",
      "outputs": [
        {
          "internalType": "bytes32",
          "name": "",
          "type": "bytes32"
        }
      ],
      "stateMutability": "view",
      "type": "function"
    },
    {
      "inputs": [],
      "name": "ROLEGROUP_INSURED_PARTYS",
      "outputs": [
        {
          "internalType": "bytes32",
          "name": "",
          "type": "bytes32"
        }
      ],
      "stateMutability": "view",
      "type": "function"
    },
    {
      "inputs": [],
      "name": "ROLEGROUP_POLICY_CREATORS",
      "outputs": [
        {
          "internalType": "bytes32",
          "name": "",
          "type": "bytes32"
        }
      ],
      "stateMutability": "view",
      "type": "function"
    },
    {
      "inputs": [],
      "name": "ROLEGROUP_POLICY_OWNERS",
      "outputs": [
        {
          "internalType": "bytes32",
          "name": "",
          "type": "bytes32"
        }
      ],
      "stateMutability": "view",
      "type": "function"
    },
    {
      "inputs": [],
      "name": "ROLEGROUP_SYSTEM_ADMINS",
      "outputs": [
        {
          "internalType": "bytes32",
          "name": "",
          "type": "bytes32"
        }
      ],
      "stateMutability": "view",
      "type": "function"
    },
    {
      "inputs": [],
      "name": "ROLEGROUP_SYSTEM_MANAGERS",
      "outputs": [
        {
          "internalType": "bytes32",
          "name": "",
          "type": "bytes32"
        }
      ],
      "stateMutability": "view",
      "type": "function"
    },
    {
      "inputs": [],
      "name": "ROLEGROUP_TRADERS",
      "outputs": [
        {
          "internalType": "bytes32",
          "name": "",
          "type": "bytes32"
        }
      ],
      "stateMutability": "view",
      "type": "function"
    },
    {
      "inputs": [],
      "name": "ROLEGROUP_UNDERWRITERS",
      "outputs": [
        {
          "internalType": "bytes32",
          "name": "",
          "type": "bytes32"
        }
      ],
      "stateMutability": "view",
      "type": "function"
    },
    {
      "inputs": [],
      "name": "ROLE_APPROVED_USER",
      "outputs": [
        {
          "internalType": "bytes32",
          "name": "",
          "type": "bytes32"
        }
      ],
      "stateMutability": "view",
      "type": "function"
    },
    {
      "inputs": [],
      "name": "ROLE_BROKER",
      "outputs": [
        {
          "internalType": "bytes32",
          "name": "",
          "type": "bytes32"
        }
      ],
      "stateMutability": "view",
      "type": "function"
    },
    {
      "inputs": [],
      "name": "ROLE_CAPITAL_PROVIDER",
      "outputs": [
        {
          "internalType": "bytes32",
          "name": "",
          "type": "bytes32"
        }
      ],
      "stateMutability": "view",
      "type": "function"
    },
    {
      "inputs": [],
      "name": "ROLE_CLAIMS_ADMIN",
      "outputs": [
        {
          "internalType": "bytes32",
          "name": "",
          "type": "bytes32"
        }
      ],
      "stateMutability": "view",
      "type": "function"
    },
    {
      "inputs": [],
      "name": "ROLE_ENTITY_ADMIN",
      "outputs": [
        {
          "internalType": "bytes32",
          "name": "",
          "type": "bytes32"
        }
      ],
      "stateMutability": "view",
      "type": "function"
    },
    {
      "inputs": [],
      "name": "ROLE_ENTITY_MANAGER",
      "outputs": [
        {
          "internalType": "bytes32",
          "name": "",
          "type": "bytes32"
        }
      ],
      "stateMutability": "view",
      "type": "function"
    },
    {
      "inputs": [],
      "name": "ROLE_ENTITY_REP",
      "outputs": [
        {
          "internalType": "bytes32",
          "name": "",
          "type": "bytes32"
        }
      ],
      "stateMutability": "view",
      "type": "function"
    },
    {
      "inputs": [],
      "name": "ROLE_INSURED_PARTY",
      "outputs": [
        {
          "internalType": "bytes32",
          "name": "",
          "type": "bytes32"
        }
      ],
      "stateMutability": "view",
      "type": "function"
    },
    {
      "inputs": [],
      "name": "ROLE_PENDING_BROKER",
      "outputs": [
        {
          "internalType": "bytes32",
          "name": "",
          "type": "bytes32"
        }
      ],
      "stateMutability": "view",
      "type": "function"
    },
    {
      "inputs": [],
      "name": "ROLE_PENDING_CLAIMS_ADMIN",
      "outputs": [
        {
          "internalType": "bytes32",
          "name": "",
          "type": "bytes32"
        }
      ],
      "stateMutability": "view",
      "type": "function"
    },
    {
      "inputs": [],
      "name": "ROLE_PENDING_INSURED_PARTY",
      "outputs": [
        {
          "internalType": "bytes32",
          "name": "",
          "type": "bytes32"
        }
      ],
      "stateMutability": "view",
      "type": "function"
    },
    {
      "inputs": [],
      "name": "ROLE_PENDING_UNDERWRITER",
      "outputs": [
        {
          "internalType": "bytes32",
          "name": "",
          "type": "bytes32"
        }
      ],
      "stateMutability": "view",
      "type": "function"
    },
    {
      "inputs": [],
      "name": "ROLE_POLICY_CREATOR",
      "outputs": [
        {
          "internalType": "bytes32",
          "name": "",
          "type": "bytes32"
        }
      ],
      "stateMutability": "view",
      "type": "function"
    },
    {
      "inputs": [],
      "name": "ROLE_POLICY_OWNER",
      "outputs": [
        {
          "internalType": "bytes32",
          "name": "",
          "type": "bytes32"
        }
      ],
      "stateMutability": "view",
      "type": "function"
    },
    {
      "inputs": [],
      "name": "ROLE_SYSTEM_ADMIN",
      "outputs": [
        {
          "internalType": "bytes32",
          "name": "",
          "type": "bytes32"
        }
      ],
      "stateMutability": "view",
      "type": "function"
    },
    {
      "inputs": [],
      "name": "ROLE_SYSTEM_MANAGER",
      "outputs": [
        {
          "internalType": "bytes32",
          "name": "",
          "type": "bytes32"
        }
      ],
      "stateMutability": "view",
      "type": "function"
    },
    {
      "inputs": [],
      "name": "ROLE_UNDERWRITER",
      "outputs": [
        {
          "internalType": "bytes32",
          "name": "",
          "type": "bytes32"
        }
      ],
      "stateMutability": "view",
      "type": "function"
    },
    {
      "inputs": [],
      "name": "SETTING_ENTITY_DELEGATE",
      "outputs": [
        {
          "internalType": "bytes32",
          "name": "",
          "type": "bytes32"
        }
      ],
      "stateMutability": "view",
      "type": "function"
    },
    {
      "inputs": [],
      "name": "SETTING_ENTITY_DEPLOYER",
      "outputs": [
        {
          "internalType": "bytes32",
          "name": "",
          "type": "bytes32"
        }
      ],
      "stateMutability": "view",
      "type": "function"
    },
    {
      "inputs": [],
      "name": "SETTING_ENTITY_IMPL",
      "outputs": [
        {
          "internalType": "bytes32",
          "name": "",
          "type": "bytes32"
        }
      ],
      "stateMutability": "view",
      "type": "function"
    },
    {
      "inputs": [],
      "name": "SETTING_ETHER_TOKEN",
      "outputs": [
        {
          "internalType": "bytes32",
          "name": "",
          "type": "bytes32"
        }
      ],
      "stateMutability": "view",
      "type": "function"
    },
    {
      "inputs": [],
      "name": "SETTING_FEEBANK",
      "outputs": [
        {
          "internalType": "bytes32",
          "name": "",
          "type": "bytes32"
        }
      ],
      "stateMutability": "view",
      "type": "function"
    },
    {
      "inputs": [],
      "name": "SETTING_FEEBANK_IMPL",
      "outputs": [
        {
          "internalType": "bytes32",
          "name": "",
          "type": "bytes32"
        }
      ],
      "stateMutability": "view",
      "type": "function"
    },
    {
      "inputs": [],
      "name": "SETTING_MARKET",
      "outputs": [
        {
          "internalType": "bytes32",
          "name": "",
          "type": "bytes32"
        }
      ],
      "stateMutability": "view",
      "type": "function"
    },
    {
      "inputs": [],
      "name": "SETTING_MARKET_IMPL",
      "outputs": [
        {
          "internalType": "bytes32",
          "name": "",
          "type": "bytes32"
        }
      ],
      "stateMutability": "view",
      "type": "function"
    },
    {
      "inputs": [],
      "name": "SETTING_POLICY_DELEGATE",
      "outputs": [
        {
          "internalType": "bytes32",
          "name": "",
          "type": "bytes32"
        }
      ],
      "stateMutability": "view",
      "type": "function"
    },
    {
      "inputs": [],
      "name": "SETTING_POLICY_IMPL",
      "outputs": [
        {
          "internalType": "bytes32",
          "name": "",
          "type": "bytes32"
        }
      ],
      "stateMutability": "view",
      "type": "function"
    },
    {
      "inputs": [],
      "name": "acl",
      "outputs": [
        {
          "internalType": "contract IACL",
          "name": "",
          "type": "address"
        }
      ],
      "stateMutability": "view",
      "type": "function"
    },
    {
      "inputs": [],
      "name": "aclContext",
      "outputs": [
        {
          "internalType": "bytes32",
          "name": "",
          "type": "bytes32"
        }
      ],
      "stateMutability": "view",
      "type": "function"
    },
    {
      "inputs": [
        {
          "internalType": "address",
          "name": "_entityAdmin",
          "type": "address"
        },
        {
          "internalType": "bytes32",
          "name": "_entityContext",
          "type": "bytes32"
        }
      ],
      "name": "deploy",
      "outputs": [],
      "stateMutability": "nonpayable",
      "type": "function"
    },
    {
      "inputs": [],
      "name": "destroy",
      "outputs": [],
      "stateMutability": "nonpayable",
      "type": "function"
    },
    {
      "inputs": [
        {
          "internalType": "uint256",
          "name": "_index",
          "type": "uint256"
        }
      ],
      "name": "getChild",
      "outputs": [
        {
          "internalType": "address",
          "name": "",
          "type": "address"
        }
      ],
      "stateMutability": "view",
      "type": "function"
    },
    {
      "inputs": [],
      "name": "getNumChildren",
      "outputs": [
        {
          "internalType": "uint256",
          "name": "",
          "type": "uint256"
        }
      ],
      "stateMutability": "view",
      "type": "function"
    },
    {
      "inputs": [
        {
          "internalType": "address",
          "name": "_child",
          "type": "address"
        }
      ],
      "name": "hasChild",
      "outputs": [
        {
          "internalType": "bool",
          "name": "",
          "type": "bool"
        }
      ],
      "stateMutability": "view",
      "type": "function"
    },
    {
      "inputs": [
        {
          "internalType": "address",
          "name": "_addr",
          "type": "address"
        },
        {
          "internalType": "bytes32",
          "name": "_roleGroup",
          "type": "bytes32"
        }
      ],
      "name": "inRoleGroup",
      "outputs": [
        {
          "internalType": "bool",
          "name": "",
          "type": "bool"
        }
      ],
      "stateMutability": "view",
      "type": "function"
    },
    {
      "inputs": [
        {
          "internalType": "bytes32",
          "name": "_ctx",
          "type": "bytes32"
        },
        {
          "internalType": "address",
          "name": "_addr",
          "type": "address"
        },
        {
          "internalType": "bytes32",
          "name": "_roleGroup",
          "type": "bytes32"
        }
      ],
      "name": "inRoleGroupWithContext",
      "outputs": [
        {
          "internalType": "bool",
          "name": "",
          "type": "bool"
        }
      ],
      "stateMutability": "view",
      "type": "function"
    },
    {
      "inputs": [
        {
          "internalType": "address",
          "name": "_addr",
          "type": "address"
        }
      ],
      "name": "isAdmin",
      "outputs": [
        {
          "internalType": "bool",
          "name": "",
          "type": "bool"
        }
      ],
      "stateMutability": "view",
      "type": "function"
    },
    {
      "inputs": [],
      "name": "settings",
      "outputs": [
        {
          "internalType": "contract ISettings",
          "name": "",
          "type": "address"
        }
      ],
      "stateMutability": "view",
      "type": "function"
    }
  ],
  "bytecode": "0x60806040523480156200001157600080fd5b5060405162003efb38038062003efb833981016040819052620000349162000246565b8080808180600060405162000057906773657474696e677360c01b815260080190565b90815260405190819003602001902080546001600160a01b03929092166001600160a01b03199092169190911790556200009062000183565b60405163a1e31a6560e01b81523060048201526001600160a01b03919091169063a1e31a659060240160206040518083038186803b158015620000d257600080fd5b505afa158015620000e7573d6000803e3d6000fd5b505050506040513d601f19601f820116820180604052508101906200010d91906200026d565b60408051691858db10dbdb9d195e1d60b21b81526001600a820152815190819003602a018120929092556773657474696e677360c01b8252600060088301525160289181900391909101902080546001600160a01b0319166001600160a01b039390931692909217909155506200028792505050565b600080604051620001a2906773657474696e677360c01b815260080190565b90815260408051602092819003830181205463de28735960e01b825291516001600160a01b039092169263de28735992600480840193829003018186803b158015620001ed57600080fd5b505afa15801562000202573d6000803e3d6000fd5b505050506040513d601f19601f8201168201806040525081019062000228919062000246565b905090565b6001600160a01b03811681146200024357600080fd5b50565b6000602082840312156200025957600080fd5b815162000266816200022d565b9392505050565b6000602082840312156200028057600080fd5b5051919050565b613c6480620002976000396000f3fe60806040523480156200001157600080fd5b5060043610620003f15760003560e01c806383197ef01162000211578063b46b88fe1162000125578063def26bce11620000bb578063e5bb5d071162000086578063e5bb5d071462000af7578063eebb74e01462000b1f578063fa4a215c1462000b47578063fbc027641462000b6f57600080fd5b8063def26bce1462000a75578063e06174e41462000a9d578063e0892bad1462000aa7578063e3097dc21462000acf57600080fd5b8063db691b1411620000fc578063db691b141462000a1b578063de2873591462000a43578063de764acf14620008e9578063de841bac1462000a4d57600080fd5b8063b46b88fe146200099b578063c909ea4214620009c3578063cf45439114620009f357600080fd5b80639ae5f37811620001a7578063a3cf5fdf1162000172578063a3cf5fdf146200091a578063a87c785f1462000942578063b32ef756146200096a578063b3f438aa146200099257600080fd5b80639ae5f37814620008995780639f6e37a714620008c1578063a01dac1314620008e9578063a32fc16214620008f257600080fd5b8063877d172311620001e8578063877d172314620003f6578063899a0ec714620008325780639424cf5e14620008495780639479ab2a146200087157600080fd5b806383197ef014620007e95780638398389a14620007f3578063845b76ae146200081b57600080fd5b80633f42ffef116200030957806355d48c07116200029f5780637149af0c116200026a5780637149af0c146200076757806372bef9c61462000771578063741cb7d61462000799578063767974b514620007c157600080fd5b806355d48c0714620006ef57806359dab75814620004125780635db7985514620007175780635dddee31146200073f57600080fd5b8063468740a811620002e0578063468740a8146200064f57806347bf603d14620006775780634b7d215e146200069f578063551e385a14620006c757600080fd5b80633f42ffef146200061457806341bb4897146200063c578063423d20f3146200064557600080fd5b806324e076a2116200038b5780632b521d4711620003565780632b521d47146200058357806332c02a1414620005ab5780633407d3cb14620005c45780633e107d4a14620005ec57600080fd5b806324e076a214620004e357806326f88535146200050b578063297a012a14620005335780632a8873ef146200055b57600080fd5b80631205d13311620003cc5780631205d13314620004435780631adcdac6146200046b5780631f9b2874146200049357806324d7806c14620004bb57600080fd5b80630175087314620003f65780630a079b2c14620004125780630e0fc352146200041b575b600080fd5b620003ff600181565b6040519081526020015b60405180910390f35b620003ff600281565b620003ff7f063693c9545b949ff498535f9e0aa95ada8e88c062d28e2f219b896e151e126681565b620003ff7f098afcb3a137a2ba8835fbf7daecb275af5afb3479f12844d5b7bfb8134e7ced81565b620003ff7f8858a0dfcbfa158449ee0a3b5dae898cecc0746569152b05bbab9526bcc1686481565b620003ff7f5c6c7d4897f0ae38084370e7a61ea386e95c7f54629c0b793a0ac47751f1240581565b620004d2620004cc36600462001216565b62000b86565b604051901515815260200162000409565b620003ff7f18ecf8d2173ca8a5766fd7dde3bdb54017dc5413dc07cd6ba1785b63e9c62b8281565b620003ff7f5c7c2bcb0d2dfef15c423063aae2051d462fcd269b5e9b8c1733b3211e17bc8a81565b620003ff7f6a4d660b9f1720511be22f039683db86d0d0d207c2ad9255325630800d4fb53981565b620003ff7f325a96ceff51ae6b22de25dd7b4c8b9532dddf936add8ef16fc99219ff666a8481565b620003ff7fcca1ad0e9fb374bbb9dc3d0cbfd073ef01bd1d01d5a35bd0a93403fbee64318d81565b620005c2620005bc36600462001236565b62000c17565b005b620003ff7f2623111b4a77e415ab5147aeb27da976c7a27950b6ec4022b4b9e7717626699281565b620003ff7f6f244974cc67342b1bd623d411fd8100ec9eddbac05348e71d1a9296de6264a581565b620003ff7f1bf52521006d8a3718b0692b7f32c8ee781bfed9e9215eb5b8fc3b34749fb5b581565b620003ff600381565b620003ff62000d40565b620003ff7f65d0db34d07de31cfb8ca9f95dabc0463ce6084a447abb757f682f36ae3682e381565b620003ff7f052b977cd6067e43b9140f08c53a22b88418f4d3ab7bd811716130d5a20cd8a381565b620003ff7f9574e138325b5c365da8d5cc75cf22323ed6f3ce52fac5621225020a162a4c6181565b620003ff7fc72bfe3e0f1799ce0d90c4c72cf8f07d0cfa8121d51cb05d8c827f0896d8c0b681565b620003ff7f807c518efb8285611b15c88a7701e4f40a0e9a38ce3e59946e587a8932410af881565b620003ff7f428fa9969c6b3fab7bbdac20b73706f1f670a386be0a76d4060c185898b2aa2281565b620003ff7f8d632412946eb879ebe5af90230c7db3f6d17c94c0ecea207c97e15fa9bb77c581565b620003ff62000d76565b620003ff7f2db57b52c5f263c359ba92194f5590b4a7f5fc1f1ca02f10cea531182851fe2881565b620003ff7f0922a3d5a8713fcf92ec8607b882fd2fcfefd8552a3c38c726d96fcde8b1d05381565b620003ff7f9c259f9342405d034b902fd5e1bba083f008e305ea4eb6a0dce9ac9a6256b63a81565b620005c262000d9f565b620003ff7fdd53f360aa973c3daf7ff269398ced1ce7713d025c750c443c2abbcd89438f8381565b620004d26200082c36600462001216565b62000deb565b620004d26200084336600462001265565b62000e4a565b620003ff7fcfd13d23f7313d54f3a6d98c505045c58749561dd04531f9f2422a8818f0c5f881565b620003ff7fa33a59233069411012cc12aa76a8a426fe6bd113968b520118fdc9cb6f49ae3081565b620003ff7fab789755f97e00f29522efbee9df811265010c87cf80f8fd7d5fc5cb8a84795681565b620003ff7f3bd41a6d84c7de1e9d18694bd113405090439b9e32d5ab69d575821d513d83b581565b620003ff600081565b620003ff7f7c23ac65f971ee875d4a6408607fabcb777f38cf73b3d6d891648646cee81f0581565b620003ff7fd708193a9c8f5fbde4d1c80a1e6f79b5f38a27f85ca86eccac69e5a899120ead81565b620003ff7f9f4d1dc1107c7d9d9f533f41b5aa5dbbb3b830e3b597338a8aee228ab083eb3a81565b620003ff7f391db9b692991836c38aedfd24d7f4c9837739d4ee0664fe4ee6892a51e025a781565b620003ff606481565b620003ff7f0e8925aa0bfe65f831f6c9099dd95b0614eb69312630ef3497bee453d9ed40a981565b620009da620009d4366004620012a0565b62000eeb565b6040516001600160a01b03909116815260200162000409565b620003ff7fad56f8a5432d383c3e2c11b7b248f889e6ec544090486b3623f0f4ae1fad763b81565b620003ff7f1d60d7146dec74c1b1a9dc17243aaa3b56533f607c16a718bcd78d8d852d6e5281565b620009da62000f4d565b620003ff7f7f7cc8b2bac31c0e372310212be653d159f17ff3c41938a81446553db842afb681565b620003ff7f610cf17b5a943fc722922fc6750fb40254c24c6b0efd32554aa7c03b4ca98e9c81565b620009da62000ff7565b620003ff7f737de6bdef2e959d9f968f058e3e78b7365d4eda8e4023ecac2d51e3dbfb140181565b620003ff7fa449044fc5332c1625929b3afecb2f821955279285b4a8406a6ffa8968c1b7cf81565b620003ff7f9c687089ee5ebd0bc2ba9c954ebc7a0304b4046890b9064e5742c8c6c7afeab281565b620003ff7f251766d8c7c7a6b927647b0f20c99f490db1c283eb0c482446085aaaa44b5e7381565b620003ff7fc59d706f362a04b6cf4757dd3df6eb5babc7c26ab5dcc7c9c43b142f25da10a581565b620004d262000b8036600462001236565b62001034565b600062000b9262000f4d565b604051630935e01b60e21b81526001600160a01b03848116600483015291909116906324d7806c9060240160206040518083038186803b15801562000bd657600080fd5b505afa15801562000beb573d6000803e3d6000fd5b505050506040513d601f19601f8201168201806040525081019062000c119190620012ba565b92915050565b62000c223362000b86565b8062000c55575062000c55337f7c23ac65f971ee875d4a6408607fabcb777f38cf73b3d6d891648646cee81f0562001034565b62000ca05760405162461bcd60e51b815260206004820152601660248201527536bab9ba1031329039bcb9ba32b69036b0b730b3b2b960511b60448201526064015b60405180910390fd5b600062000cac62000ff7565b838360405162000cbc90620011ef565b6001600160a01b0393841681529290911660208301526040820152606001604051809103906000f08015801562000cf7573d6000803e3d6000fd5b50905062000d058162001053565b60405133906001600160a01b038316907f394f98a179218b3af418193100d7049bb849650eea03bdb16814bd477972f66490600090a3505050565b6000600160405162000d6290691858db10dbdb9d195e1d60b21b8152600a0190565b908152602001604051809103902054905090565b6000600360405162000d6290706e756d4368696c64436f6e74726163747360781b815260110190565b62000daa3362000b86565b62000de85760405162461bcd60e51b815260206004820152600d60248201526c36bab9ba1031329030b236b4b760991b604482015260640162000c97565b33ff5b6000600462000e22836040518060400160405280600f81526020016e1a5cd0da1a5b1910dbdb9d1c9858dd608a1b815250620011aa565b60405162000e3191906200131c565b9081526040519081900360200190205460ff1692915050565b600062000e5662000f4d565b6040516349fdb87160e01b8152600481018690526001600160a01b0385811660248301526044820185905291909116906349fdb8719060640160206040518083038186803b15801562000ea857600080fd5b505afa15801562000ebd573d6000803e3d6000fd5b505050506040513d601f19601f8201168201806040525081019062000ee39190620012ba565b949350505050565b60008062000f1f836040518060400160405280600d81526020016c18da1a5b1910dbdb9d1c9858dd609a1b815250620011d8565b60405162000f2e91906200131c565b908152604051908190036020019020546001600160a01b031692915050565b60008060405162000f6c906773657474696e677360c01b815260080190565b90815260408051602092819003830181205463de28735960e01b825291516001600160a01b039092169263de28735992600480840193829003018186803b15801562000fb757600080fd5b505afa15801562000fcc573d6000803e3d6000fd5b505050506040513d601f19601f8201168201806040525081019062000ff291906200132a565b905090565b60008060405162001016906773657474696e677360c01b815260080190565b908152604051908190036020019020546001600160a01b0316919050565b60006200104c6200104462000d40565b848462000e4a565b9392505050565b600160046200108a836040518060400160405280600f81526020016e1a5cd0da1a5b1910dbdb9d1c9858dd608a1b815250620011aa565b6040516200109991906200131c565b908152604051908190036020018120805492151560ff1990931692909217909155706e756d4368696c64436f6e74726163747360781b815260019060039060110190815260200160405180910390206000828254620010f991906200134a565b925050819055508060006200116960036040516200112e90706e756d4368696c64436f6e74726163747360781b815260110190565b9081526020016040518091039020546040518060400160405280600d81526020016c18da1a5b1910dbdb9d1c9858dd609a1b815250620011d8565b6040516200117891906200131c565b90815260405190819003602001902080546001600160a01b03929092166001600160a01b031990921691909117905550565b60608282604051602001620011c192919062001371565b604051602081830303815290604052905092915050565b60608282604051602001620011c192919062001397565b61288380620013ac83390190565b6001600160a01b03811681146200121357600080fd5b50565b6000602082840312156200122957600080fd5b81356200104c81620011fd565b600080604083850312156200124a57600080fd5b82356200125781620011fd565b946020939093013593505050565b6000806000606084860312156200127b57600080fd5b8335925060208401356200128f81620011fd565b929592945050506040919091013590565b600060208284031215620012b357600080fd5b5035919050565b600060208284031215620012cd57600080fd5b815180151581146200104c57600080fd5b6000815160005b81811015620013015760208185018101518683015201620012e5565b8181111562001311576000828601525b509290920192915050565b60006200104c8284620012de565b6000602082840312156200133d57600080fd5b81516200104c81620011fd565b600082198211156200136c57634e487b7160e01b600052601160045260246000fd5b500190565b6bffffffffffffffffffffffff198360601b168152600062000ee36014830184620012de565b828152600062000ee36020830184620012de56fe60806040523480156200001157600080fd5b5060405162002883380380620028838339810160408190526200003491620005da565b82808180600060405162000056906773657474696e677360c01b815260080190565b90815260405190819003602001902080546001600160a01b03929092166001600160a01b03199092169190911790556200008f620003b1565b60405163a1e31a6560e01b81523060048201526001600160a01b03919091169063a1e31a659060240160206040518083038186803b158015620000d157600080fd5b505afa158015620000e6573d6000803e3d6000fd5b505050506040513d601f19601f820116820180604052508101906200010c919062000622565b604051691858db10dbdb9d195e1d60b21b8152600190600a01908152604051908190036020018120919091556773657474696e677360c01b815282915060009060080190815260405190819003602001812080546001600160a01b03939093166001600160a01b031990931692909217909155600092506200018f9150620005b3565b604051809103906000f080158015620001ac573d6000803e3d6000fd5b509050806000604051620001d3906c3234b0b6b7b73221baba3a32b960991b8152600d0190565b90815260405190819003602001902080546001600160a01b03929092166001600160a01b0319909216919091179055506200020e336200045b565b620002bf6200021c62000521565b60405163a8d37cb960e01b81527f063693c9545b949ff498535f9e0aa95ada8e88c062d28e2f219b896e151e126660048201526001600160a01b03919091169063a8d37cb99060240160206040518083038186803b1580156200027e57600080fd5b505afa15801562000293573d6000803e3d6000fd5b505050506040513d601f19601f82011682018060405250810190620002b991906200063c565b6200055e565b8015620002fd57806001604051620002e790691858db10dbdb9d195e1d60b21b8152600a0190565b90815260405190819003602001902055620003a8565b62000307620003b1565b6001600160a01b0316634091c6b26200031f6200057d565b60405160e083901b6001600160e01b031916815260048101919091526001600160a01b03851660248201527f0922a3d5a8713fcf92ec8607b882fd2fcfefd8552a3c38c726d96fcde8b1d0536044820152606401600060405180830381600087803b1580156200038e57600080fd5b505af1158015620003a3573d6000803e3d6000fd5b505050505b50505062000663565b600080604051620003d0906773657474696e677360c01b815260080190565b90815260408051602092819003830181205463de28735960e01b825291516001600160a01b039092169263de28735992600480840193829003018186803b1580156200041b57600080fd5b505afa15801562000430573d6000803e3d6000fd5b505050506040513d601f19601f820116820180604052508101906200045691906200063c565b905090565b604051651c185c995b9d60d21b81526000908190600601908152604051908190036020019020546001600160a01b031614620004d25760405162461bcd60e51b81526020600482015260126024820152711c185c995b9d08185b1c9958591e481cd95d60721b604482015260640160405180910390fd5b806000604051620004ef90651c185c995b9d60d21b815260060190565b90815260405190819003602001902080546001600160a01b03929092166001600160a01b031990921691909117905550565b60008060405162000540906773657474696e677360c01b815260080190565b908152604051908190036020019020546001600160a01b0316919050565b806000604051620004ef906764656c656761746560c01b815260080190565b600060016040516200059f90691858db10dbdb9d195e1d60b21b8152600a0190565b908152602001604051809103902054905090565b6109bf8062001ec483390190565b6001600160a01b0381168114620005d757600080fd5b50565b600080600060608486031215620005f057600080fd5b8351620005fd81620005c1565b60208501519093506200061081620005c1565b80925050604084015190509250925092565b6000602082840312156200063557600080fd5b5051919050565b6000602082840312156200064f57600080fd5b81516200065c81620005c1565b9392505050565b61185180620006736000396000f3fe6080604052600436106103905760003560e01c8063767974b5116101dc578063b46b88fe11610102578063def26bce116100a0578063e5bb5d071161006f578063e5bb5d0714610d69578063eebb74e014610d9d578063fa4a215c14610dd1578063fbc0276414610e0557610397565b8063def26bce14610cb8578063e06174e414610cec578063e0892bad14610d01578063e3097dc214610d3557610397565b8063db691b14116100dc578063db691b1414610c3b578063de28735914610c6f578063de764acf14610ac4578063de841bac14610c8457610397565b8063b46b88fe14610bbe578063b773e17114610bf2578063cf45439114610c0757610397565b80639ae5f3781161017a578063a3cf5fdf11610149578063a3cf5fdf14610b0d578063a87c785f14610b41578063b32ef75614610b75578063b3f438aa14610ba957610397565b80639ae5f37814610a5c5780639f6e37a714610a90578063a01dac1314610ac4578063a32fc16214610ad957610397565b8063877d1723116101b6578063877d172314610422578063899a0ec7146109d45780639424cf5e146109f45780639479ab2a14610a2857610397565b8063767974b51461095757806380f760211461098b5780638398389a146109a057610397565b80633e107d4a116102c1578063551e385a1161025f5780635dddee311161022e5780635dddee31146108835780636cc30a11146108b757806372bef9c6146108ef578063741cb7d61461092357610397565b8063551e385a146107e757806355d48c071461081b57806359dab7581461044a5780635db798551461084f57610397565b8063423d20f31161029b578063423d20f314610736578063468740a81461074b57806347bf603d1461077f5780634b7d215e146107b357610397565b80633e107d4a146106b95780633f42ffef146106ed57806341bb48971461072157610397565b806324d7806c1161032e578063297a012a11610308578063297a012a146105e95780632a8873ef1461061d5780632b521d47146106515780633407d3cb1461068557610397565b806324d7806c1461055157806324e076a21461058157806326f88535146105b557610397565b80631205d1331161036a5780631205d133146104935780631adcdac6146104c75780631b8ddadb146104fb5780631f9b28741461051d57610397565b806301750873146104225780630a079b2c1461044a5780630e0fc3521461045f57610397565b3661039757005b60006103ae6000356001600160e01b031916610e25565b90506001600160a01b0381166103fd5760405162461bcd60e51b815260206004820152600f60248201526e119858d95d081b9bdd08199bdd5b99608a1b60448201526064015b60405180910390fd5b60405136600082376000803683855af43d806000843e81801561041e578184f35b8184fd5b34801561042e57600080fd5b50610437600181565b6040519081526020015b60405180910390f35b34801561045657600080fd5b50610437600281565b34801561046b57600080fd5b506104377f063693c9545b949ff498535f9e0aa95ada8e88c062d28e2f219b896e151e126681565b34801561049f57600080fd5b506104377f098afcb3a137a2ba8835fbf7daecb275af5afb3479f12844d5b7bfb8134e7ced81565b3480156104d357600080fd5b506104377f8858a0dfcbfa158449ee0a3b5dae898cecc0746569152b05bbab9526bcc1686481565b34801561050757600080fd5b5061051b6105163660046114b1565b610ed6565b005b34801561052957600080fd5b506104377f5c6c7d4897f0ae38084370e7a61ea386e95c7f54629c0b793a0ac47751f1240581565b34801561055d57600080fd5b5061057161056c366004611563565b610f31565b6040519015158152602001610441565b34801561058d57600080fd5b506104377f18ecf8d2173ca8a5766fd7dde3bdb54017dc5413dc07cd6ba1785b63e9c62b8281565b3480156105c157600080fd5b506104377f5c7c2bcb0d2dfef15c423063aae2051d462fcd269b5e9b8c1733b3211e17bc8a81565b3480156105f557600080fd5b506104377f6a4d660b9f1720511be22f039683db86d0d0d207c2ad9255325630800d4fb53981565b34801561062957600080fd5b506104377f325a96ceff51ae6b22de25dd7b4c8b9532dddf936add8ef16fc99219ff666a8481565b34801561065d57600080fd5b506104377fcca1ad0e9fb374bbb9dc3d0cbfd073ef01bd1d01d5a35bd0a93403fbee64318d81565b34801561069157600080fd5b506104377f2623111b4a77e415ab5147aeb27da976c7a27950b6ec4022b4b9e7717626699281565b3480156106c557600080fd5b506104377f6f244974cc67342b1bd623d411fd8100ec9eddbac05348e71d1a9296de6264a581565b3480156106f957600080fd5b506104377f1bf52521006d8a3718b0692b7f32c8ee781bfed9e9215eb5b8fc3b34749fb5b581565b34801561072d57600080fd5b50610437600381565b34801561074257600080fd5b50610437610fb6565b34801561075757600080fd5b506104377f65d0db34d07de31cfb8ca9f95dabc0463ce6084a447abb757f682f36ae3682e381565b34801561078b57600080fd5b506104377f052b977cd6067e43b9140f08c53a22b88418f4d3ab7bd811716130d5a20cd8a381565b3480156107bf57600080fd5b506104377f9574e138325b5c365da8d5cc75cf22323ed6f3ce52fac5621225020a162a4c6181565b3480156107f357600080fd5b506104377fc72bfe3e0f1799ce0d90c4c72cf8f07d0cfa8121d51cb05d8c827f0896d8c0b681565b34801561082757600080fd5b506104377f807c518efb8285611b15c88a7701e4f40a0e9a38ce3e59946e587a8932410af881565b34801561085b57600080fd5b506104377f428fa9969c6b3fab7bbdac20b73706f1f670a386be0a76d4060c185898b2aa2281565b34801561088f57600080fd5b506104377f8d632412946eb879ebe5af90230c7db3f6d17c94c0ecea207c97e15fa9bb77c581565b3480156108c357600080fd5b506108d76108d2366004611580565b610e25565b6040516001600160a01b039091168152602001610441565b3480156108fb57600080fd5b506104377f2db57b52c5f263c359ba92194f5590b4a7f5fc1f1ca02f10cea531182851fe2881565b34801561092f57600080fd5b506104377f0922a3d5a8713fcf92ec8607b882fd2fcfefd8552a3c38c726d96fcde8b1d05381565b34801561096357600080fd5b506104377f9c259f9342405d034b902fd5e1bba083f008e305ea4eb6a0dce9ac9a6256b63a81565b34801561099757600080fd5b506108d7610feb565b3480156109ac57600080fd5b506104377fdd53f360aa973c3daf7ff269398ced1ce7713d025c750c443c2abbcd89438f8381565b3480156109e057600080fd5b506105716109ef3660046115aa565b611025565b348015610a0057600080fd5b506104377fcfd13d23f7313d54f3a6d98c505045c58749561dd04531f9f2422a8818f0c5f881565b348015610a3457600080fd5b506104377fa33a59233069411012cc12aa76a8a426fe6bd113968b520118fdc9cb6f49ae3081565b348015610a6857600080fd5b506104377fab789755f97e00f29522efbee9df811265010c87cf80f8fd7d5fc5cb8a84795681565b348015610a9c57600080fd5b506104377f3bd41a6d84c7de1e9d18694bd113405090439b9e32d5ab69d575821d513d83b581565b348015610ad057600080fd5b50610437600081565b348015610ae557600080fd5b506104377f7c23ac65f971ee875d4a6408607fabcb777f38cf73b3d6d891648646cee81f0581565b348015610b1957600080fd5b506104377fd708193a9c8f5fbde4d1c80a1e6f79b5f38a27f85ca86eccac69e5a899120ead81565b348015610b4d57600080fd5b506104377f9f4d1dc1107c7d9d9f533f41b5aa5dbbb3b830e3b597338a8aee228ab083eb3a81565b348015610b8157600080fd5b506104377f391db9b692991836c38aedfd24d7f4c9837739d4ee0664fe4ee6892a51e025a781565b348015610bb557600080fd5b50610437606481565b348015610bca57600080fd5b506104377f0e8925aa0bfe65f831f6c9099dd95b0614eb69312630ef3497bee453d9ed40a981565b348015610bfe57600080fd5b506108d76110c0565b348015610c1357600080fd5b506104377fad56f8a5432d383c3e2c11b7b248f889e6ec544090486b3623f0f4ae1fad763b81565b348015610c4757600080fd5b506104377f1d60d7146dec74c1b1a9dc17243aaa3b56533f607c16a718bcd78d8d852d6e5281565b348015610c7b57600080fd5b506108d76110de565b348015610c9057600080fd5b506104377f7f7cc8b2bac31c0e372310212be653d159f17ff3c41938a81446553db842afb681565b348015610cc457600080fd5b506104377f610cf17b5a943fc722922fc6750fb40254c24c6b0efd32554aa7c03b4ca98e9c81565b348015610cf857600080fd5b506108d7611183565b348015610d0d57600080fd5b506104377f737de6bdef2e959d9f968f058e3e78b7365d4eda8e4023ecac2d51e3dbfb140181565b348015610d4157600080fd5b506104377fa449044fc5332c1625929b3afecb2f821955279285b4a8406a6ffa8968c1b7cf81565b348015610d7557600080fd5b506104377f9c687089ee5ebd0bc2ba9c954ebc7a0304b4046890b9064e5742c8c6c7afeab281565b348015610da957600080fd5b506104377f251766d8c7c7a6b927647b0f20c99f490db1c283eb0c482446085aaaa44b5e7381565b348015610ddd57600080fd5b506104377fc59d706f362a04b6cf4757dd3df6eb5babc7c26ab5dcc7c9c43b142f25da10a581565b348015610e1157600080fd5b50610571610e203660046115e2565b6111a1565b600080604051610e43906764656c656761746560c01b815260080190565b90815260405190819003602001812054636cc30a1160e01b82526001600160e01b0319841660048301526001600160a01b031690636cc30a119060240160206040518083038186803b158015610e9857600080fd5b505afa158015610eac573d6000803e3d6000fd5b505050506040513d601f19601f82011682018060405250810190610ed0919061160e565b92915050565b333014610f255760405162461bcd60e51b815260206004820152601b60248201527f65787465726e616c2063616c6c6572206e6f7420616c6c6f776564000000000060448201526064016103f4565b610f2e816111bc565b50565b6000610f3b6110de565b604051630935e01b60e21b81526001600160a01b03848116600483015291909116906324d7806c9060240160206040518083038186803b158015610f7e57600080fd5b505afa158015610f92573d6000803e3d6000fd5b505050506040513d601f19601f82011682018060405250810190610ed0919061162b565b60006001604051610fd790691858db10dbdb9d195e1d60b21b8152600a0190565b908152602001604051809103902054905090565b60008060405161100790651c185c995b9d60d21b815260060190565b908152604051908190036020019020546001600160a01b0316919050565b600061102f6110de565b6040516349fdb87160e01b8152600481018690526001600160a01b0385811660248301526044820185905291909116906349fdb8719060640160206040518083038186803b15801561108057600080fd5b505afa158015611094573d6000803e3d6000fd5b505050506040513d601f19601f820116820180604052508101906110b8919061162b565b949350505050565b600080604051611007906764656c656761746560c01b815260080190565b6000806040516110fc906773657474696e677360c01b815260080190565b90815260408051602092819003830181205463de28735960e01b825291516001600160a01b039092169263de28735992600480840193829003018186803b15801561114657600080fd5b505afa15801561115a573d6000803e3d6000fd5b505050506040513d601f19601f8201168201806040525081019061117e919061160e565b905090565b600080604051611007906773657474696e677360c01b815260080190565b60006111b56111ae610fb6565b8484611025565b9392505050565b6000815167ffffffffffffffff8111156111d8576111d8611455565b60405190808252806020026020018201604052801561120b57816020015b60608152602001906001900390816111f65790505b50905060005b825181101561131f57600083828151811061122e5761122e61164d565b602002602001015190506000816001600160a01b0316634b503f0b6040518163ffffffff1660e01b815260040160006040518083038186803b15801561127357600080fd5b505afa158015611287573d6000803e3d6000fd5b505050506040513d6000823e601f3d908101601f191682016040526112af9190810190611693565b90508483815181106112c3576112c361164d565b6020026020010151816040516020016112dd929190611727565b6040516020818303038152906040528484815181106112fe576112fe61164d565b60200260200101819052505050600181611318919061175f565b9050611211565b506113298161132d565b5050565b60006399f5f52e60e01b826040516024016113489190611785565b60408051601f198184030181529181526020820180516001600160e01b03166001600160e01b03199094169390931790925290516c3234b0b6b7b73221baba3a32b960991b81529091506000908190600d01908152604051908190036020018120546001600160a01b0316906113bf9084906117ff565b600060405180830381855af49150503d80600081146113fa576040519150601f19603f3d011682016040523d82523d6000602084013e6113ff565b606091505b50509050806114505760405162461bcd60e51b815260206004820152601860248201527f416464696e672066756e6374696f6e73206661696c65642e000000000000000060448201526064016103f4565b505050565b634e487b7160e01b600052604160045260246000fd5b604051601f8201601f1916810167ffffffffffffffff8111828210171561149457611494611455565b604052919050565b6001600160a01b0381168114610f2e57600080fd5b600060208083850312156114c457600080fd5b823567ffffffffffffffff808211156114dc57600080fd5b818501915085601f8301126114f057600080fd5b81358181111561150257611502611455565b8060051b915061151384830161146b565b818152918301840191848101908884111561152d57600080fd5b938501935b8385101561155757843592506115478361149c565b8282529385019390850190611532565b98975050505050505050565b60006020828403121561157557600080fd5b81356111b58161149c565b60006020828403121561159257600080fd5b81356001600160e01b0319811681146111b557600080fd5b6000806000606084860312156115bf57600080fd5b8335925060208401356115d18161149c565b929592945050506040919091013590565b600080604083850312156115f557600080fd5b82356116008161149c565b946020939093013593505050565b60006020828403121561162057600080fd5b81516111b58161149c565b60006020828403121561163d57600080fd5b815180151581146111b557600080fd5b634e487b7160e01b600052603260045260246000fd5b60005b8381101561167e578181015183820152602001611666565b8381111561168d576000848401525b50505050565b6000602082840312156116a557600080fd5b815167ffffffffffffffff808211156116bd57600080fd5b818401915084601f8301126116d157600080fd5b8151818111156116e3576116e3611455565b6116f6601f8201601f191660200161146b565b915080825285602082850101111561170d57600080fd5b61171e816020840160208601611663565b50949350505050565b6bffffffffffffffffffffffff198360601b16815260008251611751816014850160208701611663565b919091016014019392505050565b6000821982111561178057634e487b7160e01b600052601160045260246000fd5b500190565b6000602080830181845280855180835260408601915060408160051b870101925083870160005b828110156117f257878503603f19018452815180518087526117d3818989018a8501611663565b601f01601f1916959095018601945092850192908501906001016117ac565b5092979650505050505050565b60008251611811818460208701611663565b919091019291505056fea26469706673582212202583fc4c4188e09769a227548bdfa8e8613bbd0afb7f0ed3336c519f4ee9039f64736f6c63430008090033608060405234801561001057600080fd5b5061099f806100206000396000f3fe608060405234801561001057600080fd5b506004361061002b5760003560e01c806399f5f52e14610030575b600080fd5b61004361003e3660046106e7565b610045565b005b6040805160c08101825260006020820181905291810182905260608101829052608080820183905260a08201929092527fc8fcad8db84d3cc18b4c41d551ea0ee66dd599cde068d998e57d5e09332c131e548082527fc8fcad8db84d3cc18b4c41d551ea0ee66dd599cde068d998e57d5e09332c131c926fffffffffffffffffffffffffffffffff821691901c80156100f1576000828152600185016020908152604090912054908401525b60005b855181101561062557600086828151811061011157610111610800565b6020026020010151905060148151116101715760405162461bcd60e51b815260206004820152601f60248201527f4d697373696e67206661636574206f722073656c6563746f7220696e666f2e0060448201526064015b60405180910390fd5b602081015181516001600160601b03198216906000906004906101969060149061082c565b6101a09190610843565b90506034821561035c5760005b8281101561035657858201516101c4600484610865565b6001600160e01b03198216600090815260208e90526040902054909350806102b7576001600160e01b03198216600090815260208e8152604091829020918c901b88178d17909155610217908b9061087d565b6001600160e01b03198316901c61022f8b602061087d565b60208e0180516001600160e01b031990921c19909116919091179052896102558161089c565b9a505089600814156102ab578b602001518d60010160008d8152602001908152602001600020819055506000801b8c6020018181525050600099508a8061029b9061089c565b600060a08f01529b506103419050565b600160a08d0152610341565b6001600160601b031981811690871614156103145760405162461bcd60e51b815260206004820152601b60248201527f46756e6374696f6e2063757420746f2073616d652066616365742e00000000006044820152606401610168565b6001600160e01b03198216600090815260208e9052604090206bffffffffffffffffffffffff8216871790555b5050808061034e9061089c565b9150506101ad565b5061060d565b60005b8281101561060b5785820151610376600484610865565b6001600160e01b03198216600090815260208e90526040902054909350806103ee5760405162461bcd60e51b815260206004820152602560248201527f46756e6374696f6e20646f65736e27742065786973742e2043616e277420726560448201526436b7bb329760d91b6064820152608401610168565b60208c0151610428578a610401816108b7565b9b50508c60010160008c8152602001908152602001600020548c6020018181525050600899505b67ffffffffffffffff811660408d81019190915281901c63ffffffff1660608d0152600061045760018c61082c565b61046290602061087d565b8d60200151901b90508b8d604001511461051c578d60010160008e604001518152602001908152602001600020548d60800181815250508c6060015160206104aa919061087d565b816001600160e01b031916901c8d6060015160206104c8919061087d565b6001600160e01b031960001b901c198e6080015116178d60800181815250508c608001518e60010160008f604001518152602001908152602001600020819055508a80610514906108b7565b9b5050610574565b60608d015161052c90602061087d565b816001600160e01b031916901c8d60600151602061054a919061087d565b60208f0180516001600160e01b031990921c199091169190911790528a610570816108b7565b9b50505b8a6105925760008c815260018f016020908152604082208290558e01525b6001600160e01b0319818116908416146105de576001600160e01b03198116600090815260208f90526040902080546001600160601b0319166bffffffffffffffffffffffff84161790555b50506001600160e01b031916600090815260208c90526040812055806106038161089c565b91505061035f565b505b5050505050808061061d9061089c565b9150506100f4565b508251608082901b831790811461063e57600285018190555b8360a0015115610661576020808501516000858152600188019092526040909120555b7f6ace155508eb66f4d8afce32f392ee3b0a8ab3c0133964f1f3c613e497da45fe8660405161069091906108ce565b60405180910390a1505050505050565b634e487b7160e01b600052604160045260246000fd5b604051601f8201601f1916810167ffffffffffffffff811182821017156106df576106df6106a0565b604052919050565b600060208083850312156106fa57600080fd5b823567ffffffffffffffff8082111561071257600080fd5b8185019150601f868184011261072757600080fd5b823582811115610739576107396106a0565b8060051b6107488682016106b6565b918252848101860191868101908a84111561076257600080fd5b87870192505b838310156107f2578235868111156107805760008081fd5b8701603f81018c136107925760008081fd5b888101356040888211156107a8576107a86106a0565b6107b9828901601f19168c016106b6565b8281528e828486010111156107ce5760008081fd5b828285018d83013760009281018c0192909252508352509187019190870190610768565b9a9950505050505050505050565b634e487b7160e01b600052603260045260246000fd5b634e487b7160e01b600052601160045260246000fd5b60008282101561083e5761083e610816565b500390565b60008261086057634e487b7160e01b600052601260045260246000fd5b500490565b6000821982111561087857610878610816565b500190565b600081600019048311821515161561089757610897610816565b500290565b60006000198214156108b0576108b0610816565b5060010190565b6000816108c6576108c6610816565b506000190190565b6000602080830181845280855180835260408601915060408160051b87010192508387016000805b8381101561095b57888603603f1901855282518051808852835b8181101561092b578281018a01518982018b01528901610910565b8181111561093b57848a838b0101525b50601f01601f1916969096018701955093860193918601916001016108f6565b50939897505050505050505056fea2646970667358221220d8e00cf35ae5dc1e4e679daf9d7e02a36acd47bc75733f3829f2c247fb94a95864736f6c63430008090033a264697066735822122054208fc9fd39bdb71a0bb5d1bf866cdd9abbc57218b9a6a7ace2bad8c8dad7f264736f6c63430008090033",
  "linkReferences": {},
  "deployedLinkReferences": {}
}