{
  "_format": "hh-sol-artifact-1",
  "contractName": "CommonUpgradeFacet",
  "sourceName": "contracts/CommonUpgradeFacet.sol",
  "abi": [
    {
      "inputs": [
        {
          "internalType": "address",
          "name": "_settings",
          "type": "address"
        }
      ],
      "stateMutability": "nonpayable",
      "type": "constructor"
    },
    {
      "inputs": [],
      "name": "CANNOT_ASSIGN",
      "outputs": [
        {
          "internalType": "uint256",
          "name": "",
          "type": "uint256"
        }
      ],
      "stateMutability": "view",
      "type": "function"
    },
    {
      "inputs": [],
      "name": "CANNOT_ASSIGN_USER_NOT_APPROVED",
      "outputs": [
        {
          "internalType": "uint256",
          "name": "",
          "type": "uint256"
        }
      ],
      "stateMutability": "view",
      "type": "function"
    },
    {
      "inputs": [],
      "name": "CAN_ASSIGN_HAS_ROLE",
      "outputs": [
        {
          "internalType": "uint256",
          "name": "",
          "type": "uint256"
        }
      ],
      "stateMutability": "view",
      "type": "function"
    },
    {
      "inputs": [],
      "name": "CAN_ASSIGN_IS_ADMIN",
      "outputs": [
        {
          "internalType": "uint256",
          "name": "",
          "type": "uint256"
        }
      ],
      "stateMutability": "view",
      "type": "function"
    },
    {
      "inputs": [],
      "name": "CAN_ASSIGN_IS_OWN_CONTEXT",
      "outputs": [
        {
          "internalType": "uint256",
          "name": "",
          "type": "uint256"
        }
      ],
      "stateMutability": "view",
      "type": "function"
    },
    {
      "inputs": [],
      "name": "DOES_NOT_HAVE_ROLE",
      "outputs": [
        {
          "internalType": "uint256",
          "name": "",
          "type": "uint256"
        }
      ],
      "stateMutability": "view",
      "type": "function"
    },
    {
      "inputs": [],
      "name": "HAS_ROLE_CONTEXT",
      "outputs": [
        {
          "internalType": "uint256",
          "name": "",
          "type": "uint256"
        }
      ],
      "stateMutability": "view",
      "type": "function"
    },
    {
      "inputs": [],
      "name": "HAS_ROLE_SYSTEM_CONTEXT",
      "outputs": [
        {
          "internalType": "uint256",
          "name": "",
          "type": "uint256"
        }
      ],
      "stateMutability": "view",
      "type": "function"
    },
    {
      "inputs": [],
      "name": "ROLEGROUP_APPROVED_USERS",
      "outputs": [
        {
          "internalType": "bytes32",
          "name": "",
          "type": "bytes32"
        }
      ],
      "stateMutability": "view",
      "type": "function"
    },
    {
      "inputs": [],
      "name": "ROLEGROUP_BROKERS",
      "outputs": [
        {
          "internalType": "bytes32",
          "name": "",
          "type": "bytes32"
        }
      ],
      "stateMutability": "view",
      "type": "function"
    },
    {
      "inputs": [],
      "name": "ROLEGROUP_CAPITAL_PROVIDERS",
      "outputs": [
        {
          "internalType": "bytes32",
          "name": "",
          "type": "bytes32"
        }
      ],
      "stateMutability": "view",
      "type": "function"
    },
    {
      "inputs": [],
      "name": "ROLEGROUP_CLAIMS_ADMINS",
      "outputs": [
        {
          "internalType": "bytes32",
          "name": "",
          "type": "bytes32"
        }
      ],
      "stateMutability": "view",
      "type": "function"
    },
    {
      "inputs": [],
      "name": "ROLEGROUP_ENTITY_ADMINS",
      "outputs": [
        {
          "internalType": "bytes32",
          "name": "",
          "type": "bytes32"
        }
      ],
      "stateMutability": "view",
      "type": "function"
    },
    {
      "inputs": [],
      "name": "ROLEGROUP_ENTITY_MANAGERS",
      "outputs": [
        {
          "internalType": "bytes32",
          "name": "",
          "type": "bytes32"
        }
      ],
      "stateMutability": "view",
      "type": "function"
    },
    {
      "inputs": [],
      "name": "ROLEGROUP_ENTITY_REPS",
      "outputs": [
        {
          "internalType": "bytes32",
          "name": "",
          "type": "bytes32"
        }
      ],
      "stateMutability": "view",
      "type": "function"
    },
    {
      "inputs": [],
      "name": "ROLEGROUP_INSURED_PARTYS",
      "outputs": [
        {
          "internalType": "bytes32",
          "name": "",
          "type": "bytes32"
        }
      ],
      "stateMutability": "view",
      "type": "function"
    },
    {
      "inputs": [],
      "name": "ROLEGROUP_POLICY_CREATORS",
      "outputs": [
        {
          "internalType": "bytes32",
          "name": "",
          "type": "bytes32"
        }
      ],
      "stateMutability": "view",
      "type": "function"
    },
    {
      "inputs": [],
      "name": "ROLEGROUP_POLICY_OWNERS",
      "outputs": [
        {
          "internalType": "bytes32",
          "name": "",
          "type": "bytes32"
        }
      ],
      "stateMutability": "view",
      "type": "function"
    },
    {
      "inputs": [],
      "name": "ROLEGROUP_SYSTEM_ADMINS",
      "outputs": [
        {
          "internalType": "bytes32",
          "name": "",
          "type": "bytes32"
        }
      ],
      "stateMutability": "view",
      "type": "function"
    },
    {
      "inputs": [],
      "name": "ROLEGROUP_SYSTEM_MANAGERS",
      "outputs": [
        {
          "internalType": "bytes32",
          "name": "",
          "type": "bytes32"
        }
      ],
      "stateMutability": "view",
      "type": "function"
    },
    {
      "inputs": [],
      "name": "ROLEGROUP_TRADERS",
      "outputs": [
        {
          "internalType": "bytes32",
          "name": "",
          "type": "bytes32"
        }
      ],
      "stateMutability": "view",
      "type": "function"
    },
    {
      "inputs": [],
      "name": "ROLEGROUP_UNDERWRITERS",
      "outputs": [
        {
          "internalType": "bytes32",
          "name": "",
          "type": "bytes32"
        }
      ],
      "stateMutability": "view",
      "type": "function"
    },
    {
      "inputs": [],
      "name": "ROLE_APPROVED_USER",
      "outputs": [
        {
          "internalType": "bytes32",
          "name": "",
          "type": "bytes32"
        }
      ],
      "stateMutability": "view",
      "type": "function"
    },
    {
      "inputs": [],
      "name": "ROLE_BROKER",
      "outputs": [
        {
          "internalType": "bytes32",
          "name": "",
          "type": "bytes32"
        }
      ],
      "stateMutability": "view",
      "type": "function"
    },
    {
      "inputs": [],
      "name": "ROLE_CAPITAL_PROVIDER",
      "outputs": [
        {
          "internalType": "bytes32",
          "name": "",
          "type": "bytes32"
        }
      ],
      "stateMutability": "view",
      "type": "function"
    },
    {
      "inputs": [],
      "name": "ROLE_CLAIMS_ADMIN",
      "outputs": [
        {
          "internalType": "bytes32",
          "name": "",
          "type": "bytes32"
        }
      ],
      "stateMutability": "view",
      "type": "function"
    },
    {
      "inputs": [],
      "name": "ROLE_ENTITY_ADMIN",
      "outputs": [
        {
          "internalType": "bytes32",
          "name": "",
          "type": "bytes32"
        }
      ],
      "stateMutability": "view",
      "type": "function"
    },
    {
      "inputs": [],
      "name": "ROLE_ENTITY_MANAGER",
      "outputs": [
        {
          "internalType": "bytes32",
          "name": "",
          "type": "bytes32"
        }
      ],
      "stateMutability": "view",
      "type": "function"
    },
    {
      "inputs": [],
      "name": "ROLE_ENTITY_REP",
      "outputs": [
        {
          "internalType": "bytes32",
          "name": "",
          "type": "bytes32"
        }
      ],
      "stateMutability": "view",
      "type": "function"
    },
    {
      "inputs": [],
      "name": "ROLE_INSURED_PARTY",
      "outputs": [
        {
          "internalType": "bytes32",
          "name": "",
          "type": "bytes32"
        }
      ],
      "stateMutability": "view",
      "type": "function"
    },
    {
      "inputs": [],
      "name": "ROLE_PENDING_BROKER",
      "outputs": [
        {
          "internalType": "bytes32",
          "name": "",
          "type": "bytes32"
        }
      ],
      "stateMutability": "view",
      "type": "function"
    },
    {
      "inputs": [],
      "name": "ROLE_PENDING_CLAIMS_ADMIN",
      "outputs": [
        {
          "internalType": "bytes32",
          "name": "",
          "type": "bytes32"
        }
      ],
      "stateMutability": "view",
      "type": "function"
    },
    {
      "inputs": [],
      "name": "ROLE_PENDING_INSURED_PARTY",
      "outputs": [
        {
          "internalType": "bytes32",
          "name": "",
          "type": "bytes32"
        }
      ],
      "stateMutability": "view",
      "type": "function"
    },
    {
      "inputs": [],
      "name": "ROLE_PENDING_UNDERWRITER",
      "outputs": [
        {
          "internalType": "bytes32",
          "name": "",
          "type": "bytes32"
        }
      ],
      "stateMutability": "view",
      "type": "function"
    },
    {
      "inputs": [],
      "name": "ROLE_POLICY_CREATOR",
      "outputs": [
        {
          "internalType": "bytes32",
          "name": "",
          "type": "bytes32"
        }
      ],
      "stateMutability": "view",
      "type": "function"
    },
    {
      "inputs": [],
      "name": "ROLE_POLICY_OWNER",
      "outputs": [
        {
          "internalType": "bytes32",
          "name": "",
          "type": "bytes32"
        }
      ],
      "stateMutability": "view",
      "type": "function"
    },
    {
      "inputs": [],
      "name": "ROLE_SYSTEM_ADMIN",
      "outputs": [
        {
          "internalType": "bytes32",
          "name": "",
          "type": "bytes32"
        }
      ],
      "stateMutability": "view",
      "type": "function"
    },
    {
      "inputs": [],
      "name": "ROLE_SYSTEM_MANAGER",
      "outputs": [
        {
          "internalType": "bytes32",
          "name": "",
          "type": "bytes32"
        }
      ],
      "stateMutability": "view",
      "type": "function"
    },
    {
      "inputs": [],
      "name": "ROLE_UNDERWRITER",
      "outputs": [
        {
          "internalType": "bytes32",
          "name": "",
          "type": "bytes32"
        }
      ],
      "stateMutability": "view",
      "type": "function"
    },
    {
      "inputs": [],
      "name": "SETTING_ENTITY_DELEGATE",
      "outputs": [
        {
          "internalType": "bytes32",
          "name": "",
          "type": "bytes32"
        }
      ],
      "stateMutability": "view",
      "type": "function"
    },
    {
      "inputs": [],
      "name": "SETTING_ENTITY_DEPLOYER",
      "outputs": [
        {
          "internalType": "bytes32",
          "name": "",
          "type": "bytes32"
        }
      ],
      "stateMutability": "view",
      "type": "function"
    },
    {
      "inputs": [],
      "name": "SETTING_ENTITY_IMPL",
      "outputs": [
        {
          "internalType": "bytes32",
          "name": "",
          "type": "bytes32"
        }
      ],
      "stateMutability": "view",
      "type": "function"
    },
    {
      "inputs": [],
      "name": "SETTING_ETHER_TOKEN",
      "outputs": [
        {
          "internalType": "bytes32",
          "name": "",
          "type": "bytes32"
        }
      ],
      "stateMutability": "view",
      "type": "function"
    },
    {
      "inputs": [],
      "name": "SETTING_FEEBANK",
      "outputs": [
        {
          "internalType": "bytes32",
          "name": "",
          "type": "bytes32"
        }
      ],
      "stateMutability": "view",
      "type": "function"
    },
    {
      "inputs": [],
      "name": "SETTING_FEEBANK_IMPL",
      "outputs": [
        {
          "internalType": "bytes32",
          "name": "",
          "type": "bytes32"
        }
      ],
      "stateMutability": "view",
      "type": "function"
    },
    {
      "inputs": [],
      "name": "SETTING_MARKET",
      "outputs": [
        {
          "internalType": "bytes32",
          "name": "",
          "type": "bytes32"
        }
      ],
      "stateMutability": "view",
      "type": "function"
    },
    {
      "inputs": [],
      "name": "SETTING_MARKET_IMPL",
      "outputs": [
        {
          "internalType": "bytes32",
          "name": "",
          "type": "bytes32"
        }
      ],
      "stateMutability": "view",
      "type": "function"
    },
    {
      "inputs": [],
      "name": "SETTING_POLICY_DELEGATE",
      "outputs": [
        {
          "internalType": "bytes32",
          "name": "",
          "type": "bytes32"
        }
      ],
      "stateMutability": "view",
      "type": "function"
    },
    {
      "inputs": [],
      "name": "SETTING_POLICY_IMPL",
      "outputs": [
        {
          "internalType": "bytes32",
          "name": "",
          "type": "bytes32"
        }
      ],
      "stateMutability": "view",
      "type": "function"
    },
    {
      "inputs": [],
      "name": "acl",
      "outputs": [
        {
          "internalType": "contract IACL",
          "name": "",
          "type": "address"
        }
      ],
      "stateMutability": "view",
      "type": "function"
    },
    {
      "inputs": [],
      "name": "aclContext",
      "outputs": [
        {
          "internalType": "bytes32",
          "name": "",
          "type": "bytes32"
        }
      ],
      "stateMutability": "view",
      "type": "function"
    },
    {
      "inputs": [],
      "name": "getSelectors",
      "outputs": [
        {
          "internalType": "bytes",
          "name": "",
          "type": "bytes"
        }
      ],
      "stateMutability": "pure",
      "type": "function"
    },
    {
      "inputs": [],
      "name": "getVersionInfo",
      "outputs": [
        {
          "internalType": "string",
          "name": "num_",
          "type": "string"
        },
        {
          "internalType": "uint256",
          "name": "date_",
          "type": "uint256"
        },
        {
          "internalType": "string",
          "name": "hash_",
          "type": "string"
        }
      ],
      "stateMutability": "pure",
      "type": "function"
    },
    {
      "inputs": [
        {
          "internalType": "address",
          "name": "_addr",
          "type": "address"
        },
        {
          "internalType": "bytes32",
          "name": "_roleGroup",
          "type": "bytes32"
        }
      ],
      "name": "inRoleGroup",
      "outputs": [
        {
          "internalType": "bool",
          "name": "",
          "type": "bool"
        }
      ],
      "stateMutability": "view",
      "type": "function"
    },
    {
      "inputs": [
        {
          "internalType": "bytes32",
          "name": "_ctx",
          "type": "bytes32"
        },
        {
          "internalType": "address",
          "name": "_addr",
          "type": "address"
        },
        {
          "internalType": "bytes32",
          "name": "_roleGroup",
          "type": "bytes32"
        }
      ],
      "name": "inRoleGroupWithContext",
      "outputs": [
        {
          "internalType": "bool",
          "name": "",
          "type": "bool"
        }
      ],
      "stateMutability": "view",
      "type": "function"
    },
    {
      "inputs": [
        {
          "internalType": "address",
          "name": "_addr",
          "type": "address"
        }
      ],
      "name": "isAdmin",
      "outputs": [
        {
          "internalType": "bool",
          "name": "",
          "type": "bool"
        }
      ],
      "stateMutability": "view",
      "type": "function"
    },
    {
      "inputs": [],
      "name": "settings",
      "outputs": [
        {
          "internalType": "contract ISettings",
          "name": "",
          "type": "address"
        }
      ],
      "stateMutability": "view",
      "type": "function"
    },
    {
      "inputs": [
        {
          "internalType": "address[]",
          "name": "_facets",
          "type": "address[]"
        }
      ],
      "name": "upgrade",
      "outputs": [],
      "stateMutability": "nonpayable",
      "type": "function"
    }
  ],
  "bytecode": "0x60806040523480156200001157600080fd5b50604051620013d4380380620013d4833981016040819052620000349162000244565b80808180600060405162000056906773657474696e677360c01b815260080190565b90815260405190819003602001902080546001600160a01b03929092166001600160a01b03199092169190911790556200008f62000181565b60405163a1e31a6560e01b81523060048201526001600160a01b03919091169063a1e31a659060240160206040518083038186803b158015620000d157600080fd5b505afa158015620000e6573d6000803e3d6000fd5b505050506040513d601f19601f820116820180604052508101906200010c91906200026b565b60408051691858db10dbdb9d195e1d60b21b81526001600a820152815190819003602a018120929092556773657474696e677360c01b8252600060088301525160289181900391909101902080546001600160a01b0319166001600160a01b0393909316929092179091555062000285915050565b600080604051620001a0906773657474696e677360c01b815260080190565b90815260408051602092819003830181205463de28735960e01b825291516001600160a01b039092169263de28735992600480840193829003018186803b158015620001eb57600080fd5b505afa15801562000200573d6000803e3d6000fd5b505050506040513d601f19601f8201168201806040525081019062000226919062000244565b905090565b6001600160a01b03811681146200024157600080fd5b50565b6000602082840312156200025757600080fd5b815162000264816200022b565b9392505050565b6000602082840312156200027e57600080fd5b5051919050565b61113f80620002956000396000f3fe608060405234801561001057600080fd5b506004361061038e5760003560e01c8063741cb7d6116101de578063b3f438aa1161010f578063def26bce116100ad578063e5bb5d071161007c578063e5bb5d0714610a64578063eebb74e014610a8b578063fa4a215c14610ab2578063fbc0276414610ad957600080fd5b8063def26bce146109e7578063e06174e414610a0e578063e0892bad14610a16578063e3097dc214610a3d57600080fd5b8063db691b14116100e9578063db691b1414610979578063de287359146109a0578063de764acf1461087f578063de841bac146109c057600080fd5b8063b3f438aa14610923578063b46b88fe1461092b578063cf4543911461095257600080fd5b80639ae5f3781161017c578063a32fc16211610156578063a32fc16214610887578063a3cf5fdf146108ae578063a87c785f146108d5578063b32ef756146108fc57600080fd5b80639ae5f378146108315780639f6e37a714610858578063a01dac131461087f57600080fd5b8063877d1723116101b8578063877d172314610393578063899a0ec7146107d05780639424cf5e146107e35780639479ab2a1461080a57600080fd5b8063741cb7d61461075b578063767974b5146107825780638398389a146107a957600080fd5b80633407d3cb116102c35780634b503f0b1161026157806359dab7581161023057806359dab758146103c35780635db79855146106e65780635dddee311461070d57806372bef9c61461073457600080fd5b80634b503f0b146106375780634b7d215e14610671578063551e385a1461069857806355d48c07146106bf57600080fd5b806341bb48971161029d57806341bb4897146105d9578063423d20f3146105e1578063468740a8146105e957806347bf603d1461061057600080fd5b80633407d3cb146105645780633e107d4a1461058b5780633f42ffef146105b257600080fd5b80631f9b28741161033057806326f885351161030a57806326f88535146104c8578063297a012a146104ef5780632a8873ef146105165780632b521d471461053d57600080fd5b80631f9b28741461045757806324d7806c1461047e57806324e076a2146104a157600080fd5b80630e0fc3521161036c5780630e0fc352146103cb5780631205d133146103f2578063164e6374146104195780631adcdac61461043057600080fd5b806301750873146103935780630183592b146103ae5780630a079b2c146103c3575b600080fd5b61039b600181565b6040519081526020015b60405180910390f35b6103c16103bc366004610e7a565b610aec565b005b61039b600281565b61039b7f063693c9545b949ff498535f9e0aa95ada8e88c062d28e2f219b896e151e126681565b61039b7f098afcb3a137a2ba8835fbf7daecb275af5afb3479f12844d5b7bfb8134e7ced81565b610421610b8d565b6040516103a593929190610f8c565b61039b7f8858a0dfcbfa158449ee0a3b5dae898cecc0746569152b05bbab9526bcc1686481565b61039b7f5c6c7d4897f0ae38084370e7a61ea386e95c7f54629c0b793a0ac47751f1240581565b61049161048c366004610fc1565b610be5565b60405190151581526020016103a5565b61039b7f18ecf8d2173ca8a5766fd7dde3bdb54017dc5413dc07cd6ba1785b63e9c62b8281565b61039b7f5c7c2bcb0d2dfef15c423063aae2051d462fcd269b5e9b8c1733b3211e17bc8a81565b61039b7f6a4d660b9f1720511be22f039683db86d0d0d207c2ad9255325630800d4fb53981565b61039b7f325a96ceff51ae6b22de25dd7b4c8b9532dddf936add8ef16fc99219ff666a8481565b61039b7fcca1ad0e9fb374bbb9dc3d0cbfd073ef01bd1d01d5a35bd0a93403fbee64318d81565b61039b7f2623111b4a77e415ab5147aeb27da976c7a27950b6ec4022b4b9e7717626699281565b61039b7f6f244974cc67342b1bd623d411fd8100ec9eddbac05348e71d1a9296de6264a581565b61039b7f1bf52521006d8a3718b0692b7f32c8ee781bfed9e9215eb5b8fc3b34749fb5b581565b61039b600381565b61039b610c70565b61039b7f65d0db34d07de31cfb8ca9f95dabc0463ce6084a447abb757f682f36ae3682e381565b61039b7f052b977cd6067e43b9140f08c53a22b88418f4d3ab7bd811716130d5a20cd8a381565b60408051630183592b60e01b602082015263059398dd60e21b6024820152815160088183030181526028909101918290526103a591610fde565b61039b7f9574e138325b5c365da8d5cc75cf22323ed6f3ce52fac5621225020a162a4c6181565b61039b7fc72bfe3e0f1799ce0d90c4c72cf8f07d0cfa8121d51cb05d8c827f0896d8c0b681565b61039b7f807c518efb8285611b15c88a7701e4f40a0e9a38ce3e59946e587a8932410af881565b61039b7f428fa9969c6b3fab7bbdac20b73706f1f670a386be0a76d4060c185898b2aa2281565b61039b7f8d632412946eb879ebe5af90230c7db3f6d17c94c0ecea207c97e15fa9bb77c581565b61039b7f2db57b52c5f263c359ba92194f5590b4a7f5fc1f1ca02f10cea531182851fe2881565b61039b7f0922a3d5a8713fcf92ec8607b882fd2fcfefd8552a3c38c726d96fcde8b1d05381565b61039b7f9c259f9342405d034b902fd5e1bba083f008e305ea4eb6a0dce9ac9a6256b63a81565b61039b7fdd53f360aa973c3daf7ff269398ced1ce7713d025c750c443c2abbcd89438f8381565b6104916107de366004610ff1565b610ca5565b61039b7fcfd13d23f7313d54f3a6d98c505045c58749561dd04531f9f2422a8818f0c5f881565b61039b7fa33a59233069411012cc12aa76a8a426fe6bd113968b520118fdc9cb6f49ae3081565b61039b7fab789755f97e00f29522efbee9df811265010c87cf80f8fd7d5fc5cb8a84795681565b61039b7f3bd41a6d84c7de1e9d18694bd113405090439b9e32d5ab69d575821d513d83b581565b61039b600081565b61039b7f7c23ac65f971ee875d4a6408607fabcb777f38cf73b3d6d891648646cee81f0581565b61039b7fd708193a9c8f5fbde4d1c80a1e6f79b5f38a27f85ca86eccac69e5a899120ead81565b61039b7f9f4d1dc1107c7d9d9f533f41b5aa5dbbb3b830e3b597338a8aee228ab083eb3a81565b61039b7f391db9b692991836c38aedfd24d7f4c9837739d4ee0664fe4ee6892a51e025a781565b61039b606481565b61039b7f0e8925aa0bfe65f831f6c9099dd95b0614eb69312630ef3497bee453d9ed40a981565b61039b7fad56f8a5432d383c3e2c11b7b248f889e6ec544090486b3623f0f4ae1fad763b81565b61039b7f1d60d7146dec74c1b1a9dc17243aaa3b56533f607c16a718bcd78d8d852d6e5281565b6109a8610d40565b6040516001600160a01b0390911681526020016103a5565b61039b7f7f7cc8b2bac31c0e372310212be653d159f17ff3c41938a81446553db842afb681565b61039b7f610cf17b5a943fc722922fc6750fb40254c24c6b0efd32554aa7c03b4ca98e9c81565b6109a8610de5565b61039b7f737de6bdef2e959d9f968f058e3e78b7365d4eda8e4023ecac2d51e3dbfb140181565b61039b7fa449044fc5332c1625929b3afecb2f821955279285b4a8406a6ffa8968c1b7cf81565b61039b7f9c687089ee5ebd0bc2ba9c954ebc7a0304b4046890b9064e5742c8c6c7afeab281565b61039b7f251766d8c7c7a6b927647b0f20c99f490db1c283eb0c482446085aaaa44b5e7381565b61039b7fc59d706f362a04b6cf4757dd3df6eb5babc7c26ab5dcc7c9c43b142f25da10a581565b610491610ae7366004611029565b610e21565b610af533610be5565b610b355760405162461bcd60e51b815260206004820152600d60248201526c36bab9ba1031329030b236b4b760991b604482015260640160405180910390fd5b604051631b8ddadb60e01b81523090631b8ddadb90610b58908490600401611055565b600060405180830381600087803b158015610b7257600080fd5b505af1158015610b86573d6000803e3d6000fd5b5050505050565b6060600060606040518060400160405280601081526020016f189718171816b13ab4b63217189c9a1b60811b81525092506362a1f92491506040518060600160405280602881526020016110e2602891399050909192565b6000610bef610d40565b604051630935e01b60e21b81526001600160a01b03848116600483015291909116906324d7806c9060240160206040518083038186803b158015610c3257600080fd5b505afa158015610c46573d6000803e3d6000fd5b505050506040513d601f19601f82011682018060405250810190610c6a91906110a2565b92915050565b60006001604051610c9190691858db10dbdb9d195e1d60b21b8152600a0190565b908152602001604051809103902054905090565b6000610caf610d40565b6040516349fdb87160e01b8152600481018690526001600160a01b0385811660248301526044820185905291909116906349fdb8719060640160206040518083038186803b158015610d0057600080fd5b505afa158015610d14573d6000803e3d6000fd5b505050506040513d601f19601f82011682018060405250810190610d3891906110a2565b949350505050565b600080604051610d5e906773657474696e677360c01b815260080190565b90815260408051602092819003830181205463de28735960e01b825291516001600160a01b039092169263de28735992600480840193829003018186803b158015610da857600080fd5b505afa158015610dbc573d6000803e3d6000fd5b505050506040513d601f19601f82011682018060405250810190610de091906110c4565b905090565b600080604051610e03906773657474696e677360c01b815260080190565b908152604051908190036020019020546001600160a01b0316919050565b6000610e35610e2e610c70565b8484610ca5565b9392505050565b634e487b7160e01b600052604160045260246000fd5b6001600160a01b0381168114610e6757600080fd5b50565b8035610e7581610e52565b919050565b60006020808385031215610e8d57600080fd5b823567ffffffffffffffff80821115610ea557600080fd5b818501915085601f830112610eb957600080fd5b813581811115610ecb57610ecb610e3c565b8060051b604051601f19603f83011681018181108582111715610ef057610ef0610e3c565b604052918252848201925083810185019188831115610f0e57600080fd5b938501935b82851015610f3357610f2485610e6a565b84529385019392850192610f13565b98975050505050505050565b6000815180845260005b81811015610f6557602081850181015186830182015201610f49565b81811115610f77576000602083870101525b50601f01601f19169290920160200192915050565b606081526000610f9f6060830186610f3f565b8460208401528281036040840152610fb78185610f3f565b9695505050505050565b600060208284031215610fd357600080fd5b8135610e3581610e52565b602081526000610e356020830184610f3f565b60008060006060848603121561100657600080fd5b83359250602084013561101881610e52565b929592945050506040919091013590565b6000806040838503121561103c57600080fd5b823561104781610e52565b946020939093013593505050565b6020808252825182820181905260009190848201906040850190845b818110156110965783516001600160a01b031683529284019291840191600101611071565b50909695505050505050565b6000602082840312156110b457600080fd5b81518015158114610e3557600080fd5b6000602082840312156110d657600080fd5b8151610e3581610e5256fe34343530316566636534613035336231323031363632656232666132303932653732386465303034a26469706673582212200d753afab463b2f0f5bf8b71a670f99db3836b6dd78d9738af12c1b86dd1a52364736f6c63430008090033",
  "linkReferences": {},
  "deployedLinkReferences": {}
}