{
  "_format": "hh-sol-artifact-1",
  "contractName": "EntitySimplePolicyDataFacet",
  "sourceName": "contracts/EntitySimplePolicyDataFacet.sol",
  "abi": [
    {
      "inputs": [
        {
          "internalType": "address",
          "name": "_settings",
          "type": "address"
        }
      ],
      "stateMutability": "nonpayable",
      "type": "constructor"
    },
    {
      "inputs": [],
      "name": "CANNOT_ASSIGN",
      "outputs": [
        {
          "internalType": "uint256",
          "name": "",
          "type": "uint256"
        }
      ],
      "stateMutability": "view",
      "type": "function"
    },
    {
      "inputs": [],
      "name": "CANNOT_ASSIGN_USER_NOT_APPROVED",
      "outputs": [
        {
          "internalType": "uint256",
          "name": "",
          "type": "uint256"
        }
      ],
      "stateMutability": "view",
      "type": "function"
    },
    {
      "inputs": [],
      "name": "CAN_ASSIGN_HAS_ROLE",
      "outputs": [
        {
          "internalType": "uint256",
          "name": "",
          "type": "uint256"
        }
      ],
      "stateMutability": "view",
      "type": "function"
    },
    {
      "inputs": [],
      "name": "CAN_ASSIGN_IS_ADMIN",
      "outputs": [
        {
          "internalType": "uint256",
          "name": "",
          "type": "uint256"
        }
      ],
      "stateMutability": "view",
      "type": "function"
    },
    {
      "inputs": [],
      "name": "CAN_ASSIGN_IS_OWN_CONTEXT",
      "outputs": [
        {
          "internalType": "uint256",
          "name": "",
          "type": "uint256"
        }
      ],
      "stateMutability": "view",
      "type": "function"
    },
    {
      "inputs": [],
      "name": "DOES_NOT_HAVE_ROLE",
      "outputs": [
        {
          "internalType": "uint256",
          "name": "",
          "type": "uint256"
        }
      ],
      "stateMutability": "view",
      "type": "function"
    },
    {
      "inputs": [],
      "name": "FEE_SCHEDULE_PLATFORM_ACTION",
      "outputs": [
        {
          "internalType": "uint256",
          "name": "",
          "type": "uint256"
        }
      ],
      "stateMutability": "view",
      "type": "function"
    },
    {
      "inputs": [],
      "name": "FEE_SCHEDULE_STANDARD",
      "outputs": [
        {
          "internalType": "uint256",
          "name": "",
          "type": "uint256"
        }
      ],
      "stateMutability": "view",
      "type": "function"
    },
    {
      "inputs": [],
      "name": "HAS_ROLE_CONTEXT",
      "outputs": [
        {
          "internalType": "uint256",
          "name": "",
          "type": "uint256"
        }
      ],
      "stateMutability": "view",
      "type": "function"
    },
    {
      "inputs": [],
      "name": "HAS_ROLE_SYSTEM_CONTEXT",
      "outputs": [
        {
          "internalType": "uint256",
          "name": "",
          "type": "uint256"
        }
      ],
      "stateMutability": "view",
      "type": "function"
    },
    {
      "inputs": [],
      "name": "ROLEGROUP_APPROVED_USERS",
      "outputs": [
        {
          "internalType": "bytes32",
          "name": "",
          "type": "bytes32"
        }
      ],
      "stateMutability": "view",
      "type": "function"
    },
    {
      "inputs": [],
      "name": "ROLEGROUP_BROKERS",
      "outputs": [
        {
          "internalType": "bytes32",
          "name": "",
          "type": "bytes32"
        }
      ],
      "stateMutability": "view",
      "type": "function"
    },
    {
      "inputs": [],
      "name": "ROLEGROUP_CAPITAL_PROVIDERS",
      "outputs": [
        {
          "internalType": "bytes32",
          "name": "",
          "type": "bytes32"
        }
      ],
      "stateMutability": "view",
      "type": "function"
    },
    {
      "inputs": [],
      "name": "ROLEGROUP_CLAIMS_ADMINS",
      "outputs": [
        {
          "internalType": "bytes32",
          "name": "",
          "type": "bytes32"
        }
      ],
      "stateMutability": "view",
      "type": "function"
    },
    {
      "inputs": [],
      "name": "ROLEGROUP_ENTITY_ADMINS",
      "outputs": [
        {
          "internalType": "bytes32",
          "name": "",
          "type": "bytes32"
        }
      ],
      "stateMutability": "view",
      "type": "function"
    },
    {
      "inputs": [],
      "name": "ROLEGROUP_ENTITY_MANAGERS",
      "outputs": [
        {
          "internalType": "bytes32",
          "name": "",
          "type": "bytes32"
        }
      ],
      "stateMutability": "view",
      "type": "function"
    },
    {
      "inputs": [],
      "name": "ROLEGROUP_ENTITY_REPS",
      "outputs": [
        {
          "internalType": "bytes32",
          "name": "",
          "type": "bytes32"
        }
      ],
      "stateMutability": "view",
      "type": "function"
    },
    {
      "inputs": [],
      "name": "ROLEGROUP_INSURED_PARTYS",
      "outputs": [
        {
          "internalType": "bytes32",
          "name": "",
          "type": "bytes32"
        }
      ],
      "stateMutability": "view",
      "type": "function"
    },
    {
      "inputs": [],
      "name": "ROLEGROUP_POLICY_CREATORS",
      "outputs": [
        {
          "internalType": "bytes32",
          "name": "",
          "type": "bytes32"
        }
      ],
      "stateMutability": "view",
      "type": "function"
    },
    {
      "inputs": [],
      "name": "ROLEGROUP_POLICY_OWNERS",
      "outputs": [
        {
          "internalType": "bytes32",
          "name": "",
          "type": "bytes32"
        }
      ],
      "stateMutability": "view",
      "type": "function"
    },
    {
      "inputs": [],
      "name": "ROLEGROUP_SYSTEM_ADMINS",
      "outputs": [
        {
          "internalType": "bytes32",
          "name": "",
          "type": "bytes32"
        }
      ],
      "stateMutability": "view",
      "type": "function"
    },
    {
      "inputs": [],
      "name": "ROLEGROUP_SYSTEM_MANAGERS",
      "outputs": [
        {
          "internalType": "bytes32",
          "name": "",
          "type": "bytes32"
        }
      ],
      "stateMutability": "view",
      "type": "function"
    },
    {
      "inputs": [],
      "name": "ROLEGROUP_TRADERS",
      "outputs": [
        {
          "internalType": "bytes32",
          "name": "",
          "type": "bytes32"
        }
      ],
      "stateMutability": "view",
      "type": "function"
    },
    {
      "inputs": [],
      "name": "ROLEGROUP_UNDERWRITERS",
      "outputs": [
        {
          "internalType": "bytes32",
          "name": "",
          "type": "bytes32"
        }
      ],
      "stateMutability": "view",
      "type": "function"
    },
    {
      "inputs": [],
      "name": "ROLE_APPROVED_USER",
      "outputs": [
        {
          "internalType": "bytes32",
          "name": "",
          "type": "bytes32"
        }
      ],
      "stateMutability": "view",
      "type": "function"
    },
    {
      "inputs": [],
      "name": "ROLE_BROKER",
      "outputs": [
        {
          "internalType": "bytes32",
          "name": "",
          "type": "bytes32"
        }
      ],
      "stateMutability": "view",
      "type": "function"
    },
    {
      "inputs": [],
      "name": "ROLE_CAPITAL_PROVIDER",
      "outputs": [
        {
          "internalType": "bytes32",
          "name": "",
          "type": "bytes32"
        }
      ],
      "stateMutability": "view",
      "type": "function"
    },
    {
      "inputs": [],
      "name": "ROLE_CLAIMS_ADMIN",
      "outputs": [
        {
          "internalType": "bytes32",
          "name": "",
          "type": "bytes32"
        }
      ],
      "stateMutability": "view",
      "type": "function"
    },
    {
      "inputs": [],
      "name": "ROLE_ENTITY_ADMIN",
      "outputs": [
        {
          "internalType": "bytes32",
          "name": "",
          "type": "bytes32"
        }
      ],
      "stateMutability": "view",
      "type": "function"
    },
    {
      "inputs": [],
      "name": "ROLE_ENTITY_MANAGER",
      "outputs": [
        {
          "internalType": "bytes32",
          "name": "",
          "type": "bytes32"
        }
      ],
      "stateMutability": "view",
      "type": "function"
    },
    {
      "inputs": [],
      "name": "ROLE_ENTITY_REP",
      "outputs": [
        {
          "internalType": "bytes32",
          "name": "",
          "type": "bytes32"
        }
      ],
      "stateMutability": "view",
      "type": "function"
    },
    {
      "inputs": [],
      "name": "ROLE_INSURED_PARTY",
      "outputs": [
        {
          "internalType": "bytes32",
          "name": "",
          "type": "bytes32"
        }
      ],
      "stateMutability": "view",
      "type": "function"
    },
    {
      "inputs": [],
      "name": "ROLE_PENDING_BROKER",
      "outputs": [
        {
          "internalType": "bytes32",
          "name": "",
          "type": "bytes32"
        }
      ],
      "stateMutability": "view",
      "type": "function"
    },
    {
      "inputs": [],
      "name": "ROLE_PENDING_CLAIMS_ADMIN",
      "outputs": [
        {
          "internalType": "bytes32",
          "name": "",
          "type": "bytes32"
        }
      ],
      "stateMutability": "view",
      "type": "function"
    },
    {
      "inputs": [],
      "name": "ROLE_PENDING_INSURED_PARTY",
      "outputs": [
        {
          "internalType": "bytes32",
          "name": "",
          "type": "bytes32"
        }
      ],
      "stateMutability": "view",
      "type": "function"
    },
    {
      "inputs": [],
      "name": "ROLE_PENDING_UNDERWRITER",
      "outputs": [
        {
          "internalType": "bytes32",
          "name": "",
          "type": "bytes32"
        }
      ],
      "stateMutability": "view",
      "type": "function"
    },
    {
      "inputs": [],
      "name": "ROLE_POLICY_CREATOR",
      "outputs": [
        {
          "internalType": "bytes32",
          "name": "",
          "type": "bytes32"
        }
      ],
      "stateMutability": "view",
      "type": "function"
    },
    {
      "inputs": [],
      "name": "ROLE_POLICY_OWNER",
      "outputs": [
        {
          "internalType": "bytes32",
          "name": "",
          "type": "bytes32"
        }
      ],
      "stateMutability": "view",
      "type": "function"
    },
    {
      "inputs": [],
      "name": "ROLE_SYSTEM_ADMIN",
      "outputs": [
        {
          "internalType": "bytes32",
          "name": "",
          "type": "bytes32"
        }
      ],
      "stateMutability": "view",
      "type": "function"
    },
    {
      "inputs": [],
      "name": "ROLE_SYSTEM_MANAGER",
      "outputs": [
        {
          "internalType": "bytes32",
          "name": "",
          "type": "bytes32"
        }
      ],
      "stateMutability": "view",
      "type": "function"
    },
    {
      "inputs": [],
      "name": "ROLE_UNDERWRITER",
      "outputs": [
        {
          "internalType": "bytes32",
          "name": "",
          "type": "bytes32"
        }
      ],
      "stateMutability": "view",
      "type": "function"
    },
    {
      "inputs": [],
      "name": "SETTING_ENTITY_DELEGATE",
      "outputs": [
        {
          "internalType": "bytes32",
          "name": "",
          "type": "bytes32"
        }
      ],
      "stateMutability": "view",
      "type": "function"
    },
    {
      "inputs": [],
      "name": "SETTING_ENTITY_DEPLOYER",
      "outputs": [
        {
          "internalType": "bytes32",
          "name": "",
          "type": "bytes32"
        }
      ],
      "stateMutability": "view",
      "type": "function"
    },
    {
      "inputs": [],
      "name": "SETTING_ENTITY_IMPL",
      "outputs": [
        {
          "internalType": "bytes32",
          "name": "",
          "type": "bytes32"
        }
      ],
      "stateMutability": "view",
      "type": "function"
    },
    {
      "inputs": [],
      "name": "SETTING_ETHER_TOKEN",
      "outputs": [
        {
          "internalType": "bytes32",
          "name": "",
          "type": "bytes32"
        }
      ],
      "stateMutability": "view",
      "type": "function"
    },
    {
      "inputs": [],
      "name": "SETTING_FEEBANK",
      "outputs": [
        {
          "internalType": "bytes32",
          "name": "",
          "type": "bytes32"
        }
      ],
      "stateMutability": "view",
      "type": "function"
    },
    {
      "inputs": [],
      "name": "SETTING_FEEBANK_IMPL",
      "outputs": [
        {
          "internalType": "bytes32",
          "name": "",
          "type": "bytes32"
        }
      ],
      "stateMutability": "view",
      "type": "function"
    },
    {
      "inputs": [],
      "name": "SETTING_MARKET",
      "outputs": [
        {
          "internalType": "bytes32",
          "name": "",
          "type": "bytes32"
        }
      ],
      "stateMutability": "view",
      "type": "function"
    },
    {
      "inputs": [],
      "name": "SETTING_MARKET_IMPL",
      "outputs": [
        {
          "internalType": "bytes32",
          "name": "",
          "type": "bytes32"
        }
      ],
      "stateMutability": "view",
      "type": "function"
    },
    {
      "inputs": [],
      "name": "SETTING_POLICY_DELEGATE",
      "outputs": [
        {
          "internalType": "bytes32",
          "name": "",
          "type": "bytes32"
        }
      ],
      "stateMutability": "view",
      "type": "function"
    },
    {
      "inputs": [],
      "name": "SETTING_POLICY_IMPL",
      "outputs": [
        {
          "internalType": "bytes32",
          "name": "",
          "type": "bytes32"
        }
      ],
      "stateMutability": "view",
      "type": "function"
    },
    {
      "inputs": [],
      "name": "acl",
      "outputs": [
        {
          "internalType": "contract IACL",
          "name": "",
          "type": "address"
        }
      ],
      "stateMutability": "view",
      "type": "function"
    },
    {
      "inputs": [],
      "name": "aclContext",
      "outputs": [
        {
          "internalType": "bytes32",
          "name": "",
          "type": "bytes32"
        }
      ],
      "stateMutability": "view",
      "type": "function"
    },
    {
      "inputs": [],
      "name": "allowSimplePolicy",
      "outputs": [
        {
          "internalType": "bool",
          "name": "_allow",
          "type": "bool"
        }
      ],
      "stateMutability": "view",
      "type": "function"
    },
    {
      "inputs": [
        {
          "internalType": "uint256",
          "name": "_index",
          "type": "uint256"
        }
      ],
      "name": "getChild",
      "outputs": [
        {
          "internalType": "address",
          "name": "",
          "type": "address"
        }
      ],
      "stateMutability": "view",
      "type": "function"
    },
    {
      "inputs": [],
      "name": "getEnabledCurrencies",
      "outputs": [
        {
          "internalType": "address[]",
          "name": "",
          "type": "address[]"
        }
      ],
      "stateMutability": "view",
      "type": "function"
    },
    {
      "inputs": [
        {
          "internalType": "address",
          "name": "_unit",
          "type": "address"
        }
      ],
      "name": "getEnabledCurrency",
      "outputs": [
        {
          "internalType": "uint256",
          "name": "collateralRatio_",
          "type": "uint256"
        },
        {
          "internalType": "uint256",
          "name": "maxCapital_",
          "type": "uint256"
        },
        {
          "internalType": "uint256",
          "name": "totalLimit_",
          "type": "uint256"
        }
      ],
      "stateMutability": "view",
      "type": "function"
    },
    {
      "inputs": [],
      "name": "getNumChildren",
      "outputs": [
        {
          "internalType": "uint256",
          "name": "",
          "type": "uint256"
        }
      ],
      "stateMutability": "view",
      "type": "function"
    },
    {
      "inputs": [],
      "name": "getNumSimplePolicies",
      "outputs": [
        {
          "internalType": "uint256",
          "name": "_numPolicies",
          "type": "uint256"
        }
      ],
      "stateMutability": "view",
      "type": "function"
    },
    {
      "inputs": [
        {
          "internalType": "bytes32",
          "name": "_id",
          "type": "bytes32"
        }
      ],
      "name": "getPremiumsAndClaimsPaid",
      "outputs": [
        {
          "internalType": "uint256",
          "name": "premiumsPaid_",
          "type": "uint256"
        },
        {
          "internalType": "uint256",
          "name": "claimsPaid_",
          "type": "uint256"
        }
      ],
      "stateMutability": "view",
      "type": "function"
    },
    {
      "inputs": [],
      "name": "getSelectors",
      "outputs": [
        {
          "internalType": "bytes",
          "name": "",
          "type": "bytes"
        }
      ],
      "stateMutability": "pure",
      "type": "function"
    },
    {
      "inputs": [
        {
          "internalType": "uint256",
          "name": "_simplePolicyNumber",
          "type": "uint256"
        }
      ],
      "name": "getSimplePolicyId",
      "outputs": [
        {
          "internalType": "bytes32",
          "name": "id_",
          "type": "bytes32"
        }
      ],
      "stateMutability": "view",
      "type": "function"
    },
    {
      "inputs": [
        {
          "internalType": "address",
          "name": "_child",
          "type": "address"
        }
      ],
      "name": "hasChild",
      "outputs": [
        {
          "internalType": "bool",
          "name": "",
          "type": "bool"
        }
      ],
      "stateMutability": "view",
      "type": "function"
    },
    {
      "inputs": [
        {
          "internalType": "address",
          "name": "_addr",
          "type": "address"
        },
        {
          "internalType": "bytes32",
          "name": "_roleGroup",
          "type": "bytes32"
        }
      ],
      "name": "inRoleGroup",
      "outputs": [
        {
          "internalType": "bool",
          "name": "",
          "type": "bool"
        }
      ],
      "stateMutability": "view",
      "type": "function"
    },
    {
      "inputs": [
        {
          "internalType": "bytes32",
          "name": "_ctx",
          "type": "bytes32"
        },
        {
          "internalType": "address",
          "name": "_addr",
          "type": "address"
        },
        {
          "internalType": "bytes32",
          "name": "_roleGroup",
          "type": "bytes32"
        }
      ],
      "name": "inRoleGroupWithContext",
      "outputs": [
        {
          "internalType": "bool",
          "name": "",
          "type": "bool"
        }
      ],
      "stateMutability": "view",
      "type": "function"
    },
    {
      "inputs": [
        {
          "internalType": "address",
          "name": "_addr",
          "type": "address"
        }
      ],
      "name": "isAdmin",
      "outputs": [
        {
          "internalType": "bool",
          "name": "",
          "type": "bool"
        }
      ],
      "stateMutability": "view",
      "type": "function"
    },
    {
      "inputs": [
        {
          "internalType": "bytes32",
          "name": "_id",
          "type": "bytes32"
        },
        {
          "internalType": "uint256",
          "name": "_amount",
          "type": "uint256"
        }
      ],
      "name": "paySimpleClaim",
      "outputs": [],
      "stateMutability": "payable",
      "type": "function"
    },
    {
      "inputs": [],
      "name": "settings",
      "outputs": [
        {
          "internalType": "contract ISettings",
          "name": "",
          "type": "address"
        }
      ],
      "stateMutability": "view",
      "type": "function"
    },
    {
      "inputs": [
        {
          "internalType": "address",
          "name": "_unit",
          "type": "address"
        },
        {
          "internalType": "uint256",
          "name": "_collateralRatio",
          "type": "uint256"
        },
        {
          "internalType": "uint256",
          "name": "_maxCapital",
          "type": "uint256"
        }
      ],
      "name": "updateEnabledCurrency",
      "outputs": [],
      "stateMutability": "nonpayable",
      "type": "function"
    }
  ],
  "bytecode": "0x60806040523480156200001157600080fd5b506040516200275838038062002758833981016040819052620000349162000244565b80808180600060405162000056906773657474696e677360c01b815260080190565b90815260405190819003602001902080546001600160a01b03929092166001600160a01b03199092169190911790556200008f62000181565b60405163a1e31a6560e01b81523060048201526001600160a01b03919091169063a1e31a659060240160206040518083038186803b158015620000d157600080fd5b505afa158015620000e6573d6000803e3d6000fd5b505050506040513d601f19601f820116820180604052508101906200010c91906200026b565b60408051691858db10dbdb9d195e1d60b21b81526001600a820152815190819003602a018120929092556773657474696e677360c01b8252600060088301525160289181900391909101902080546001600160a01b0319166001600160a01b0393909316929092179091555062000285915050565b600080604051620001a0906773657474696e677360c01b815260080190565b90815260408051602092819003830181205463de28735960e01b825291516001600160a01b039092169263de28735992600480840193829003018186803b158015620001eb57600080fd5b505afa15801562000200573d6000803e3d6000fd5b505050506040513d601f19601f8201168201806040525081019062000226919062000244565b905090565b6001600160a01b03811681146200024157600080fd5b50565b6000602082840312156200025757600080fd5b815162000264816200022b565b9392505050565b6000602082840312156200027e57600080fd5b5051919050565b6124c380620002956000396000f3fe6080604052600436106103fa5760003560e01c806372bef9c611610213578063b46b88fe11610123578063e06174e4116100ab578063eebb74e01161007a578063eebb74e014610ea5578063f84f904f14610ed9578063fa4a215c14610f14578063faf7422414610f48578063fbc0276414610f7d57600080fd5b8063e06174e414610df4578063e0892bad14610e09578063e3097dc214610e3d578063e5bb5d0714610e7157600080fd5b8063db691b14116100f2578063db691b1414610d43578063de28735914610d77578063de764acf14610ba9578063de841bac14610d8c578063def26bce14610dc057600080fd5b8063b46b88fe14610ca3578063b855481114610427578063c909ea4214610cd7578063cf45439114610d0f57600080fd5b80639479ab2a116101a6578063a32fc16211610175578063a32fc16214610bbe578063a3cf5fdf14610bf2578063a87c785f14610c26578063b32ef75614610c5a578063b3f438aa14610c8e57600080fd5b80639479ab2a14610b0d5780639ae5f37814610b415780639f6e37a714610b75578063a01dac1314610ba957600080fd5b8063845b76ae116101e2578063845b76ae14610a99578063877d1723146103ff578063899a0ec714610ab95780639424cf5e14610ad957600080fd5b806372bef9c6146109c9578063741cb7d6146109fd578063767974b514610a315780638398389a14610a6557600080fd5b806338cdb19b1161030e5780634b7d215e116102a157806359dab7581161027057806359dab758146104275780635db79855146109375780635dddee311461096b5780636ee6878e1461099f5780637149af0c146109b457600080fd5b80634b7d215e1461089b5780634cf1f772146103ff578063551e385a146108cf57806355d48c071461090357600080fd5b8063423d20f3116102dd578063423d20f31461077d578063468740a81461079257806347bf603d146107c65780634b503f0b146107fa57600080fd5b806338cdb19b146106e05780633e107d4a146107005780633f42ffef1461073457806341bb48971461076857600080fd5b806324e076a2116103915780632b521d47116103605780632b521d47146106215780632ef028f8146106555780633407d3cb14610677578063356a9efa146106ab57806335c102f4146106cb57600080fd5b806324e076a21461055157806326f8853514610585578063297a012a146105b95780632a8873ef146105ed57600080fd5b80631adcdac6116103cd5780631adcdac6146104a45780631d0b97a1146104d85780631f9b2874146104ed57806324d7806c1461052157600080fd5b806301750873146103ff5780630a079b2c146104275780630e0fc3521461043c5780631205d13314610470575b600080fd5b34801561040b57600080fd5b50610414600181565b6040519081526020015b60405180910390f35b34801561043357600080fd5b50610414600281565b34801561044857600080fd5b506104147f063693c9545b949ff498535f9e0aa95ada8e88c062d28e2f219b896e151e126681565b34801561047c57600080fd5b506104147f098afcb3a137a2ba8835fbf7daecb275af5afb3479f12844d5b7bfb8134e7ced81565b3480156104b057600080fd5b506104147f8858a0dfcbfa158449ee0a3b5dae898cecc0746569152b05bbab9526bcc1686481565b6104eb6104e6366004612029565b610f9d565b005b3480156104f957600080fd5b506104147f5c6c7d4897f0ae38084370e7a61ea386e95c7f54629c0b793a0ac47751f1240581565b34801561052d57600080fd5b5061054161053c366004612063565b611461565b604051901515815260200161041e565b34801561055d57600080fd5b506104147f18ecf8d2173ca8a5766fd7dde3bdb54017dc5413dc07cd6ba1785b63e9c62b8281565b34801561059157600080fd5b506104147f5c7c2bcb0d2dfef15c423063aae2051d462fcd269b5e9b8c1733b3211e17bc8a81565b3480156105c557600080fd5b506104147f6a4d660b9f1720511be22f039683db86d0d0d207c2ad9255325630800d4fb53981565b3480156105f957600080fd5b506104147f325a96ceff51ae6b22de25dd7b4c8b9532dddf936add8ef16fc99219ff666a8481565b34801561062d57600080fd5b506104147fcca1ad0e9fb374bbb9dc3d0cbfd073ef01bd1d01d5a35bd0a93403fbee64318d81565b34801561066157600080fd5b5061066a6114ec565b60405161041e9190612080565b34801561068357600080fd5b506104147f2623111b4a77e415ab5147aeb27da976c7a27950b6ec4022b4b9e7717626699281565b3480156106b757600080fd5b506104146106c63660046120cd565b611562565b3480156106d757600080fd5b5061041461163c565b3480156106ec57600080fd5b506104eb6106fb3660046120e6565b611678565b34801561070c57600080fd5b506104147f6f244974cc67342b1bd623d411fd8100ec9eddbac05348e71d1a9296de6264a581565b34801561074057600080fd5b506104147f1bf52521006d8a3718b0692b7f32c8ee781bfed9e9215eb5b8fc3b34749fb5b581565b34801561077457600080fd5b50610414600381565b34801561078957600080fd5b50610414611a1d565b34801561079e57600080fd5b506104147f65d0db34d07de31cfb8ca9f95dabc0463ce6084a447abb757f682f36ae3682e381565b3480156107d257600080fd5b506104147f052b977cd6067e43b9140f08c53a22b88418f4d3ab7bd811716130d5a20cd8a381565b34801561080657600080fd5b5061088e6040805163377343c760e11b6020820152630d7040bd60e21b6024820152631ab54f7d60e11b6028820152633ebdd08960e21b602c82015263f84f904f60e01b60308201526305de051f60e31b60348201526338cdb19b60e01b6038820152631d0b97a160e01b603c82015260609101604051602081830303815290604052905090565b60405161041e919061214b565b3480156108a757600080fd5b506104147f9574e138325b5c365da8d5cc75cf22323ed6f3ce52fac5621225020a162a4c6181565b3480156108db57600080fd5b506104147fc72bfe3e0f1799ce0d90c4c72cf8f07d0cfa8121d51cb05d8c827f0896d8c0b681565b34801561090f57600080fd5b506104147f807c518efb8285611b15c88a7701e4f40a0e9a38ce3e59946e587a8932410af881565b34801561094357600080fd5b506104147f428fa9969c6b3fab7bbdac20b73706f1f670a386be0a76d4060c185898b2aa2281565b34801561097757600080fd5b506104147f8d632412946eb879ebe5af90230c7db3f6d17c94c0ecea207c97e15fa9bb77c581565b3480156109ab57600080fd5b50610541611a3e565b3480156109c057600080fd5b50610414611a7e565b3480156109d557600080fd5b506104147f2db57b52c5f263c359ba92194f5590b4a7f5fc1f1ca02f10cea531182851fe2881565b348015610a0957600080fd5b506104147f0922a3d5a8713fcf92ec8607b882fd2fcfefd8552a3c38c726d96fcde8b1d05381565b348015610a3d57600080fd5b506104147f9c259f9342405d034b902fd5e1bba083f008e305ea4eb6a0dce9ac9a6256b63a81565b348015610a7157600080fd5b506104147fdd53f360aa973c3daf7ff269398ced1ce7713d025c750c443c2abbcd89438f8381565b348015610aa557600080fd5b50610541610ab4366004612063565b611aa6565b348015610ac557600080fd5b50610541610ad436600461217e565b611b01565b348015610ae557600080fd5b506104147fcfd13d23f7313d54f3a6d98c505045c58749561dd04531f9f2422a8818f0c5f881565b348015610b1957600080fd5b506104147fa33a59233069411012cc12aa76a8a426fe6bd113968b520118fdc9cb6f49ae3081565b348015610b4d57600080fd5b506104147fab789755f97e00f29522efbee9df811265010c87cf80f8fd7d5fc5cb8a84795681565b348015610b8157600080fd5b506104147f3bd41a6d84c7de1e9d18694bd113405090439b9e32d5ab69d575821d513d83b581565b348015610bb557600080fd5b50610414600081565b348015610bca57600080fd5b506104147f7c23ac65f971ee875d4a6408607fabcb777f38cf73b3d6d891648646cee81f0581565b348015610bfe57600080fd5b506104147fd708193a9c8f5fbde4d1c80a1e6f79b5f38a27f85ca86eccac69e5a899120ead81565b348015610c3257600080fd5b506104147f9f4d1dc1107c7d9d9f533f41b5aa5dbbb3b830e3b597338a8aee228ab083eb3a81565b348015610c6657600080fd5b506104147f391db9b692991836c38aedfd24d7f4c9837739d4ee0664fe4ee6892a51e025a781565b348015610c9a57600080fd5b50610414606481565b348015610caf57600080fd5b506104147f0e8925aa0bfe65f831f6c9099dd95b0614eb69312630ef3497bee453d9ed40a981565b348015610ce357600080fd5b50610cf7610cf23660046120cd565b611b9c565b6040516001600160a01b03909116815260200161041e565b348015610d1b57600080fd5b506104147fad56f8a5432d383c3e2c11b7b248f889e6ec544090486b3623f0f4ae1fad763b81565b348015610d4f57600080fd5b506104147f1d60d7146dec74c1b1a9dc17243aaa3b56533f607c16a718bcd78d8d852d6e5281565b348015610d8357600080fd5b50610cf7611bfa565b348015610d9857600080fd5b506104147f7f7cc8b2bac31c0e372310212be653d159f17ff3c41938a81446553db842afb681565b348015610dcc57600080fd5b506104147f610cf17b5a943fc722922fc6750fb40254c24c6b0efd32554aa7c03b4ca98e9c81565b348015610e0057600080fd5b50610cf7611c9f565b348015610e1557600080fd5b506104147f737de6bdef2e959d9f968f058e3e78b7365d4eda8e4023ecac2d51e3dbfb140181565b348015610e4957600080fd5b506104147fa449044fc5332c1625929b3afecb2f821955279285b4a8406a6ffa8968c1b7cf81565b348015610e7d57600080fd5b506104147f9c687089ee5ebd0bc2ba9c954ebc7a0304b4046890b9064e5742c8c6c7afeab281565b348015610eb157600080fd5b506104147f251766d8c7c7a6b927647b0f20c99f490db1c283eb0c482446085aaaa44b5e7381565b348015610ee557600080fd5b50610ef9610ef4366004612063565b611cdb565b6040805193845260208401929092529082015260600161041e565b348015610f2057600080fd5b506104147fc59d706f362a04b6cf4757dd3df6eb5babc7c26ab5dcc7c9c43b142f25da10a581565b348015610f5457600080fd5b50610f68610f633660046120cd565b611dd0565b6040805192835260208301919091520161041e565b348015610f8957600080fd5b50610541610f983660046121b6565b611f53565b33610fc8817f7c23ac65f971ee875d4a6408607fabcb777f38cf73b3d6d891648646cee81f05611f53565b61100e5760405162461bcd60e51b815260206004820152601260248201527136bab9ba1031329039bcb9ba32b69036b3b960711b60448201526064015b60405180910390fd5b600082116110555760405162461bcd60e51b81526020600482015260146024820152731a5b9d985b1a590818db185a5b48185b5bdd5b9d60621b6044820152606401611005565b600080611085856040518060400160405280600b81526020016a1859191c995cdcd09e525960aa1b815250611f6e565b60405161109291906121e2565b908152602001604051809103902060009054906101000a90046001600160a01b03169050600080826001600160a01b03166330daa8a06040518163ffffffff1660e01b815260040160e06040518083038186803b1580156110f257600080fd5b505afa158015611106573d6000803e3d6000fd5b505050506040513d601f19601f8201168201806040525081019061112a919061220e565b5060408051808201909152600a81526918db185a5b5cd4185a5960b21b6020820152919750955060009450600393506111669250869150611f9a565b60405161117391906121e2565b90815260405190819003602001902054905061118f8187612284565b8210156111d55760405162461bcd60e51b8152602060048201526014602482015273195e18d959591cc81c1bdb1a58de481b1a5b5a5d60621b6044820152606401611005565b856003611204856040518060400160405280600a81526020016918db185a5b5cd4185a5960b21b815250611f9a565b60405161121191906121e2565b9081526020016040518091039020600082825461122e9190612284565b92505081905550856003611261856040518060400160405280600781526020016662616c616e636560c81b815250611f9a565b60405161126e91906121e2565b9081526020016040518091039020600082825461128b919061229c565b909155506000905061129b611bfa565b6001600160a01b031663dae0faf2866001600160a01b031663423d20f36040518163ffffffff1660e01b815260040160206040518083038186803b1580156112e257600080fd5b505afa1580156112f6573d6000803e3d6000fd5b505050506040513d601f19601f8201168201806040525081019061131a91906122b3565b60405160e083901b6001600160e01b031916815260048101919091527f737de6bdef2e959d9f968f058e3e78b7365d4eda8e4023ecac2d51e3dbfb1401602482015260440160006040518083038186803b15801561137757600080fd5b505afa15801561138b573d6000803e3d6000fd5b505050506040513d6000823e601f3d908101601f191682016040526113b391908101906122e2565b6000815181106113c5576113c56123a7565b602090810291909101015160405163a9059cbb60e01b81526001600160a01b038083166004830152602482018a90529192509085169063a9059cbb90604401602060405180830381600087803b15801561141e57600080fd5b505af1158015611432573d6000803e3d6000fd5b505050506040513d601f19601f8201168201806040525081019061145691906123bd565b505050505050505050565b600061146b611bfa565b604051630935e01b60e21b81526001600160a01b03848116600483015291909116906324d7806c9060240160206040518083038186803b1580156114ae57600080fd5b505afa1580156114c2573d6000803e3d6000fd5b505050506040513d601f19601f820116820180604052508101906114e691906123bd565b92915050565b606060076040516114fc906123df565b908152604080519182900360209081018320805480830285018301909352828452919083018282801561155857602002820191906000526020600020905b81546001600160a01b0316815260019091019060200180831161153a575b5050505050905090565b6000806000611598846040518060400160405280600f81526020016e30b2323932b9b9a13ca73ab6b132b960891b815250611f6e565b6040516115a591906121e2565b9081526040805191829003602001822054630186d54560e51b835290516001600160a01b03909116925082916330daa8a09160048083019260e0929190829003018186803b1580156115f657600080fd5b505afa15801561160a573d6000803e3d6000fd5b505050506040513d601f19601f8201168201806040525081019061162e919061220e565b509498975050505050505050565b6000600360405161166490706e756d53696d706c65506f6c696369657360781b815260110190565b908152602001604051809103902054905090565b336116a3817f7c23ac65f971ee875d4a6408607fabcb777f38cf73b3d6d891648646cee81f05611f53565b6116e45760405162461bcd60e51b815260206004820152601260248201527136bab9ba1031329039bcb9ba32b69036b3b960711b6044820152606401611005565b6000606081851580156116f5575084155b1561183f5760005b600760405161170b906123df565b9081526040519081900360200190205481101561180857876001600160a01b0316600760405161173a906123df565b90815260200160405180910390208281548110611759576117596123a7565b6000918252602090912001546001600160a01b0316146117f6576007604051611781906123df565b908152602001604051809103902081815481106117a0576117a06123a7565b9060005260206000200160009054906101000a90046001600160a01b03168383815181106117d0576117d06123a7565b6001600160a01b0390921660209283029190910190910152816117f2816123f7565b9250505b611801600182612284565b90506116fd565b50816007604051611818906123df565b90815260200160405180910390209080519060200190611839929190611faf565b50611975565b6103e88611156118915760405162461bcd60e51b815260206004820152601a60248201527f636f6c6c61746572616c20726174696f20697320302d313030300000000000006044820152606401611005565b60005b60076040516118a2906123df565b9081526040519081900360200190205481101561192657876001600160a01b031660076040516118d1906123df565b908152602001604051809103902082815481106118f0576118f06123a7565b6000918252602090912001546001600160a01b031614156119145760019350611926565b61191f600182612284565b9050611894565b508261197557600760405161193a906123df565b90815260405160209181900382019020805460018101825560009182529190200180546001600160a01b0319166001600160a01b0389161790555b8460036119a4896040518060400160405280600a8152602001691b585e10d85c1a5d185b60b21b815250611f9a565b6040516119b191906121e2565b9081526020016040518091039020819055508560036119f7896040518060400160405280600f81526020016e636f6c6c61746572616c526174696f60881b815250611f9a565b604051611a0491906121e2565b9081526040519081900360200190205550505050505050565b6000600160405161166490691858db10dbdb9d195e1d60b21b8152600a0190565b60006004604051611a669070616c6c6f7753696d706c65506f6c69637960781b815260110190565b9081526040519081900360200190205460ff16919050565b6000600360405161166490706e756d4368696c64436f6e74726163747360781b815260110190565b60006004611adb836040518060400160405280600f81526020016e1a5cd0da1a5b1910dbdb9d1c9858dd608a1b815250611f9a565b604051611ae891906121e2565b9081526040519081900360200190205460ff1692915050565b6000611b0b611bfa565b6040516349fdb87160e01b8152600481018690526001600160a01b0385811660248301526044820185905291909116906349fdb8719060640160206040518083038186803b158015611b5c57600080fd5b505afa158015611b70573d6000803e3d6000fd5b505050506040513d601f19601f82011682018060405250810190611b9491906123bd565b949350505050565b600080611bce836040518060400160405280600d81526020016c18da1a5b1910dbdb9d1c9858dd609a1b815250611f6e565b604051611bdb91906121e2565b908152604051908190036020019020546001600160a01b031692915050565b600080604051611c18906773657474696e677360c01b815260080190565b90815260408051602092819003830181205463de28735960e01b825291516001600160a01b039092169263de28735992600480840193829003018186803b158015611c6257600080fd5b505afa158015611c76573d6000803e3d6000fd5b505050506040513d601f19601f82011682018060405250810190611c9a9190612412565b905090565b600080604051611cbd906773657474696e677360c01b815260080190565b908152604051908190036020019020546001600160a01b0316919050565b60008060006003611d13856040518060400160405280600f81526020016e636f6c6c61746572616c526174696f60881b815250611f9a565b604051611d2091906121e2565b90815260200160405180910390205492506003611d5f856040518060400160405280600a8152602001691b585e10d85c1a5d185b60b21b815250611f9a565b604051611d6c91906121e2565b90815260200160405180910390205491506003611dab856040518060400160405280600a8152602001691d1bdd185b131a5b5a5d60b21b815250611f9a565b604051611db891906121e2565b90815260200160405180910390205490509193909250565b600080600080611e03856040518060400160405280600b81526020016a1859191c995cdcd09e525960aa1b815250611f6e565b604051611e1091906121e2565b908152602001604051809103902060009054906101000a90046001600160a01b031690506000816001600160a01b03166330daa8a06040518163ffffffff1660e01b815260040160e06040518083038186803b158015611e6f57600080fd5b505afa158015611e83573d6000803e3d6000fd5b505050506040513d601f19601f82011682018060405250810190611ea7919061220e565b505060408051808201909152600c81526b1c1c995b5a5d5b5cd4185a5960a21b602082015290955060039450611ee293508592509050611f9a565b604051611eef91906121e2565b90815260200160405180910390205493506003611f2e826040518060400160405280600a81526020016918db185a5b5cd4185a5960b21b815250611f9a565b604051611f3b91906121e2565b90815260200160405180910390205492505050915091565b6000611f67611f60611a1d565b8484611b01565b9392505050565b60608282604051602001611f8392919061242f565b604051602081830303815290604052905092915050565b60608282604051602001611f83929190612455565b828054828255906000526020600020908101928215612004579160200282015b8281111561200457825182546001600160a01b0319166001600160a01b03909116178255602090920191600190910190611fcf565b50612010929150612014565b5090565b5b808211156120105760008155600101612015565b6000806040838503121561203c57600080fd5b50508035926020909101359150565b6001600160a01b038116811461206057600080fd5b50565b60006020828403121561207557600080fd5b8135611f678161204b565b6020808252825182820181905260009190848201906040850190845b818110156120c15783516001600160a01b03168352928401929184019160010161209c565b50909695505050505050565b6000602082840312156120df57600080fd5b5035919050565b6000806000606084860312156120fb57600080fd5b83356121068161204b565b95602085013595506040909401359392505050565b60005b8381101561213657818101518382015260200161211e565b83811115612145576000848401525b50505050565b602081526000825180602084015261216a81604085016020870161211b565b601f01601f19169190910160400192915050565b60008060006060848603121561219357600080fd5b8335925060208401356121a58161204b565b929592945050506040919091013590565b600080604083850312156121c957600080fd5b82356121d48161204b565b946020939093013593505050565b600082516121f481846020870161211b565b9190910192915050565b80516122098161204b565b919050565b600080600080600080600060e0888a03121561222957600080fd5b8751965060208801519550604088015194506060880151935060808801516122508161204b565b8093505060a0880151915060c0880151905092959891949750929550565b634e487b7160e01b600052601160045260246000fd5b600082198211156122975761229761226e565b500190565b6000828210156122ae576122ae61226e565b500390565b6000602082840312156122c557600080fd5b5051919050565b634e487b7160e01b600052604160045260246000fd5b600060208083850312156122f557600080fd5b825167ffffffffffffffff8082111561230d57600080fd5b818501915085601f83011261232157600080fd5b815181811115612333576123336122cc565b8060051b604051601f19603f83011681018181108582111715612358576123586122cc565b60405291825284820192508381018501918883111561237657600080fd5b938501935b8285101561239b5761238c856121fe565b8452938501939285019261237b565b98975050505050505050565b634e487b7160e01b600052603260045260246000fd5b6000602082840312156123cf57600080fd5b81518015158114611f6757600080fd5b6b656e61626c6564556e69747360a01b8152600c0190565b600060001982141561240b5761240b61226e565b5060010190565b60006020828403121561242457600080fd5b8151611f678161204b565b8281526000825161244781602085016020870161211b565b919091016020019392505050565b6bffffffffffffffffffffffff198360601b1681526000825161247f81601485016020870161211b565b91909101601401939250505056fea2646970667358221220e29656a9cb1739eb87f85c237ee04c2a5588e5b1d7037e492e313eb9641a68bd64736f6c63430008090033",
  "linkReferences": {},
  "deployedLinkReferences": {}
}