{
  "_format": "hh-sol-artifact-1",
  "contractName": "Proxy",
  "sourceName": "contracts/base/Proxy.sol",
  "abi": [
    {
      "stateMutability": "payable",
      "type": "fallback"
    },
    {
      "inputs": [],
      "name": "getDelegateAddress",
      "outputs": [
        {
          "internalType": "address",
          "name": "",
          "type": "address"
        }
      ],
      "stateMutability": "view",
      "type": "function"
    },
    {
      "inputs": [
        {
          "internalType": "address[]",
          "name": "_facets",
          "type": "address[]"
        }
      ],
      "name": "registerFacets",
      "outputs": [],
      "stateMutability": "nonpayable",
      "type": "function"
    },
    {
      "inputs": [
        {
          "internalType": "bytes4",
          "name": "_sig",
          "type": "bytes4"
        }
      ],
      "name": "resolveFacet",
      "outputs": [
        {
          "internalType": "address",
          "name": "",
          "type": "address"
        }
      ],
      "stateMutability": "view",
      "type": "function"
    },
    {
      "stateMutability": "payable",
      "type": "receive"
    }
  ],
  "bytecode": "0x608060405234801561001057600080fd5b50600060405161001f90610096565b604051809103906000f08015801561003b573d6000803e3d6000fd5b509050806000604051610061906c3234b0b6b7b73221baba3a32b960991b8152600d0190565b90815260405190819003602001902080546001600160a01b03929092166001600160a01b0319909216919091179055506100a3565b6109bf8061093083390190565b61087e806100b26000396000f3fe6080604052600436106100385760003560e01c80631b8ddadb146100ca5780636cc30a11146100ec578063b773e171146101285761003f565b3661003f57005b60006100566000356001600160e01b03191661013d565b90506001600160a01b0381166100a55760405162461bcd60e51b815260206004820152600f60248201526e119858d95d081b9bdd08199bdd5b99608a1b60448201526064015b60405180910390fd5b60405136600082376000803683855af43d806000843e8180156100c6578184f35b8184fd5b3480156100d657600080fd5b506100ea6100e536600461057a565b6101ee565b005b3480156100f857600080fd5b5061010c61010736600461062c565b61013d565b6040516001600160a01b03909116815260200160405180910390f35b34801561013457600080fd5b5061010c610249565b60008060405161015b906764656c656761746560c01b815260080190565b90815260405190819003602001812054636cc30a1160e01b82526001600160e01b0319841660048301526001600160a01b031690636cc30a119060240160206040518083038186803b1580156101b057600080fd5b505afa1580156101c4573d6000803e3d6000fd5b505050506040513d601f19601f820116820180604052508101906101e8919061065d565b92915050565b33301461023d5760405162461bcd60e51b815260206004820152601b60248201527f65787465726e616c2063616c6c6572206e6f7420616c6c6f7765640000000000604482015260640161009c565b61024681610285565b50565b600080604051610267906764656c656761746560c01b815260080190565b908152604051908190036020019020546001600160a01b0316919050565b6000815167ffffffffffffffff8111156102a1576102a161051e565b6040519080825280602002602001820160405280156102d457816020015b60608152602001906001900390816102bf5790505b50905060005b82518110156103e85760008382815181106102f7576102f761067a565b602002602001015190506000816001600160a01b0316634b503f0b6040518163ffffffff1660e01b815260040160006040518083038186803b15801561033c57600080fd5b505afa158015610350573d6000803e3d6000fd5b505050506040513d6000823e601f3d908101601f1916820160405261037891908101906106c0565b905084838151811061038c5761038c61067a565b6020026020010151816040516020016103a6929190610754565b6040516020818303038152906040528484815181106103c7576103c761067a565b602002602001018190525050506001816103e1919061078c565b90506102da565b506103f2816103f6565b5050565b60006399f5f52e60e01b8260405160240161041191906107b2565b60408051601f198184030181529181526020820180516001600160e01b03166001600160e01b03199094169390931790925290516c3234b0b6b7b73221baba3a32b960991b81529091506000908190600d01908152604051908190036020018120546001600160a01b03169061048890849061082c565b600060405180830381855af49150503d80600081146104c3576040519150601f19603f3d011682016040523d82523d6000602084013e6104c8565b606091505b50509050806105195760405162461bcd60e51b815260206004820152601860248201527f416464696e672066756e6374696f6e73206661696c65642e0000000000000000604482015260640161009c565b505050565b634e487b7160e01b600052604160045260246000fd5b604051601f8201601f1916810167ffffffffffffffff8111828210171561055d5761055d61051e565b604052919050565b6001600160a01b038116811461024657600080fd5b6000602080838503121561058d57600080fd5b823567ffffffffffffffff808211156105a557600080fd5b818501915085601f8301126105b957600080fd5b8135818111156105cb576105cb61051e565b8060051b91506105dc848301610534565b81815291830184019184810190888411156105f657600080fd5b938501935b83851015610620578435925061061083610565565b82825293850193908501906105fb565b98975050505050505050565b60006020828403121561063e57600080fd5b81356001600160e01b03198116811461065657600080fd5b9392505050565b60006020828403121561066f57600080fd5b815161065681610565565b634e487b7160e01b600052603260045260246000fd5b60005b838110156106ab578181015183820152602001610693565b838111156106ba576000848401525b50505050565b6000602082840312156106d257600080fd5b815167ffffffffffffffff808211156106ea57600080fd5b818401915084601f8301126106fe57600080fd5b8151818111156107105761071061051e565b610723601f8201601f1916602001610534565b915080825285602082850101111561073a57600080fd5b61074b816020840160208601610690565b50949350505050565b6bffffffffffffffffffffffff198360601b1681526000825161077e816014850160208701610690565b919091016014019392505050565b600082198211156107ad57634e487b7160e01b600052601160045260246000fd5b500190565b6000602080830181845280855180835260408601915060408160051b870101925083870160005b8281101561081f57878503603f1901845281518051808752610800818989018a8501610690565b601f01601f1916959095018601945092850192908501906001016107d9565b5092979650505050505050565b6000825161083e818460208701610690565b919091019291505056fea26469706673582212209e5f144e7669a5d8939bc562ad7410c429f739712ac704367258827b47e8976d64736f6c63430008090033608060405234801561001057600080fd5b5061099f806100206000396000f3fe608060405234801561001057600080fd5b506004361061002b5760003560e01c806399f5f52e14610030575b600080fd5b61004361003e3660046106e7565b610045565b005b6040805160c08101825260006020820181905291810182905260608101829052608080820183905260a08201929092527fc8fcad8db84d3cc18b4c41d551ea0ee66dd599cde068d998e57d5e09332c131e548082527fc8fcad8db84d3cc18b4c41d551ea0ee66dd599cde068d998e57d5e09332c131c926fffffffffffffffffffffffffffffffff821691901c80156100f1576000828152600185016020908152604090912054908401525b60005b855181101561062557600086828151811061011157610111610800565b6020026020010151905060148151116101715760405162461bcd60e51b815260206004820152601f60248201527f4d697373696e67206661636574206f722073656c6563746f7220696e666f2e0060448201526064015b60405180910390fd5b602081015181516001600160601b03198216906000906004906101969060149061082c565b6101a09190610843565b90506034821561035c5760005b8281101561035657858201516101c4600484610865565b6001600160e01b03198216600090815260208e90526040902054909350806102b7576001600160e01b03198216600090815260208e8152604091829020918c901b88178d17909155610217908b9061087d565b6001600160e01b03198316901c61022f8b602061087d565b60208e0180516001600160e01b031990921c19909116919091179052896102558161089c565b9a505089600814156102ab578b602001518d60010160008d8152602001908152602001600020819055506000801b8c6020018181525050600099508a8061029b9061089c565b600060a08f01529b506103419050565b600160a08d0152610341565b6001600160601b031981811690871614156103145760405162461bcd60e51b815260206004820152601b60248201527f46756e6374696f6e2063757420746f2073616d652066616365742e00000000006044820152606401610168565b6001600160e01b03198216600090815260208e9052604090206bffffffffffffffffffffffff8216871790555b5050808061034e9061089c565b9150506101ad565b5061060d565b60005b8281101561060b5785820151610376600484610865565b6001600160e01b03198216600090815260208e90526040902054909350806103ee5760405162461bcd60e51b815260206004820152602560248201527f46756e6374696f6e20646f65736e27742065786973742e2043616e277420726560448201526436b7bb329760d91b6064820152608401610168565b60208c0151610428578a610401816108b7565b9b50508c60010160008c8152602001908152602001600020548c6020018181525050600899505b67ffffffffffffffff811660408d81019190915281901c63ffffffff1660608d0152600061045760018c61082c565b61046290602061087d565b8d60200151901b90508b8d604001511461051c578d60010160008e604001518152602001908152602001600020548d60800181815250508c6060015160206104aa919061087d565b816001600160e01b031916901c8d6060015160206104c8919061087d565b6001600160e01b031960001b901c198e6080015116178d60800181815250508c608001518e60010160008f604001518152602001908152602001600020819055508a80610514906108b7565b9b5050610574565b60608d015161052c90602061087d565b816001600160e01b031916901c8d60600151602061054a919061087d565b60208f0180516001600160e01b031990921c199091169190911790528a610570816108b7565b9b50505b8a6105925760008c815260018f016020908152604082208290558e01525b6001600160e01b0319818116908416146105de576001600160e01b03198116600090815260208f90526040902080546001600160601b0319166bffffffffffffffffffffffff84161790555b50506001600160e01b031916600090815260208c90526040812055806106038161089c565b91505061035f565b505b5050505050808061061d9061089c565b9150506100f4565b508251608082901b831790811461063e57600285018190555b8360a0015115610661576020808501516000858152600188019092526040909120555b7f6ace155508eb66f4d8afce32f392ee3b0a8ab3c0133964f1f3c613e497da45fe8660405161069091906108ce565b60405180910390a1505050505050565b634e487b7160e01b600052604160045260246000fd5b604051601f8201601f1916810167ffffffffffffffff811182821017156106df576106df6106a0565b604052919050565b600060208083850312156106fa57600080fd5b823567ffffffffffffffff8082111561071257600080fd5b8185019150601f868184011261072757600080fd5b823582811115610739576107396106a0565b8060051b6107488682016106b6565b918252848101860191868101908a84111561076257600080fd5b87870192505b838310156107f2578235868111156107805760008081fd5b8701603f81018c136107925760008081fd5b888101356040888211156107a8576107a86106a0565b6107b9828901601f19168c016106b6565b8281528e828486010111156107ce5760008081fd5b828285018d83013760009281018c0192909252508352509187019190870190610768565b9a9950505050505050505050565b634e487b7160e01b600052603260045260246000fd5b634e487b7160e01b600052601160045260246000fd5b60008282101561083e5761083e610816565b500390565b60008261086057634e487b7160e01b600052601260045260246000fd5b500490565b6000821982111561087857610878610816565b500190565b600081600019048311821515161561089757610897610816565b500290565b60006000198214156108b0576108b0610816565b5060010190565b6000816108c6576108c6610816565b506000190190565b6000602080830181845280855180835260408601915060408160051b87010192508387016000805b8381101561095b57888603603f1901855282518051808852835b8181101561092b578281018a01518982018b01528901610910565b8181111561093b57848a838b0101525b50601f01601f1916969096018701955093860193918601916001016108f6565b50939897505050505050505056fea2646970667358221220d8e00cf35ae5dc1e4e679daf9d7e02a36acd47bc75733f3829f2c247fb94a95864736f6c63430008090033",
  "linkReferences": {},
  "deployedLinkReferences": {}
}